:020000040000FA
:1000000080312D28640008007E1480318B190B1C70
:100010000D289B31752380312B280B1F2B282100A5
:10002000111C19282000111C19289D31042580312C
:100030002B282100911D23282000911D2328913178
:10004000812180312B282100921D2B282000921D18
:100050002B289A31F8227E1009008A31FC2A0530BB
:10006000D0018E312C26803121082100CF002000C4
:1000700020082100CE000630CF36CE0C890B3C285C
:10008000FF30CE050F30CF051F308E312C2680314A
:1000900021082100D300200020082100D2000630D2
:1000A000D336D20C890B5028FF30D2050F30D30540
:1000B00053082000AE00210052082000AD00AF011F
:1000C000AF0A7E218031F3218031D1005308200016
:1000D000EB00210052082000EA0021005108200016
:1000E000EC00ED01402380314E082000A0002100EB
:1000F0004F0820000324803115218031E123433053
:10010000B100AF30B000AF01AE0196318A26803128
:10011000EA238031210052082000A000210053086A
:10012000200003248031152180312308CA002208D1
:10013000C9002108C8002008C700FB2180314A08F7
:10014000E3004908E2004808E1004708E000F9221E
:1001500063082100CD00200062082100CC002000AF
:1001600061082100CB00200060082100CA0053086C
:100170002000A100210052082000A00021004D080D
:100180002000A50021004C082000A40021004B08FD
:100190002000A30021004A082000A2009B31BA23BE
:1001A0008031003A0319F02821003808B80A2000ED
:1001B000EF0033306F02031C1229210039082000A0
:1001C000A0001030A101A1078A31712280312100E5
:1001D0000030B90A8F3129278031210014300C29D1
:1001E000013021005302DE30031952023808031C8B
:1001F0000F29B80A2000EF000B306F02031C0629FC
:1002000021005108FF3EF6218031B8010C30210059
:100210005102031812291530B801D0001229031910
:100220001229B803210050080800A8002808031D5F
:10023000A31F2A292009AA002109AB002209AC002A
:100240002309AD00AA0A0319AB0A0319AC0A031962
:10025000AD0A32292308AD002208AC002108AB000A
:100260002008AA002308220421042004031D3D299C
:10027000A001A101A201A30108009630A900FE304F
:100280002D0503195029A90A142480313F29013072
:10029000A90AAA070030AB3DAC3DAD3D1424803126
:1002A000FF302D0503195E29472902302902031C5E
:1002B0006029A903AA35AB0DAC0DAD0DAC1F5529B6
:1002C000291CAC13A9362908A700A601A501A40181
:1002D0002408AA042508AB042608AC042708AD04AA
:1002E0002808031DA31F7529AD172D08A3002C088E
:1002F000A2002B08A1002A08A0000800B401B50143
:100300002D082E040319A7292D08A0002E08A100EE
:100310001030A201A301A701A600A501A401B421E8
:1003200080312308B3002208B2002108B100200860
:10033000B0003308031DA02901303202031CA32999
:10034000B401B501A7293108B5003008B4002F0861
:10035000031DAF293508A1003408A000DC2B3508A7
:10036000A1003408A000D42BA801A901AA01AB0167
:1003700023082204210420040319EA29AC01AC0A51
:10038000A31BC729A035A10DA20DA30DBF29A83518
:10039000A90DAA0DAB0D23082702031DD929220898
:1003A0002602031DD92921082502031DD929200869
:1003B0002402031CE4292008A4022108A53B2208EA
:1003C000A63B2308A73B2814A336A20CA10CA00C23
:1003D000AC0BC7292B08A3002A08A2002908A100FA
:1003E0002808A000080021006B0808002000A000D9
:1003F0002100EB0008004E08D7008030D7054E35AD
:10040000DE00CD1B5E145E0803190E2A5E0F0C2A57
:10041000CB01CC01CD01CE01CD17112ACB01CC01EE
:10042000CD01CE014A088039D7064A35DF00C91B05
:100430005F145F080319242A5F0F222AC701C8012D
:10044000C901CA01C917272AC701C801C901CA01C0
:100450004A08490448044704031D412A8030CB015F
:10046000CC01CD01CE01CD047F30CE045708CE049F
:100470004E08CA004D08C9004C08C8004B08C70008
:1004800008005E08031D492AC701C801C901CA0145
:1004900008005E08D800D9015F08D802031CD90300
:1004A0007F30D8070318D90A4E08D6004D08D5006A
:1004B0004C08D4004B08D300CB01CC01CD01CE01B8
:1004C000DA01DB01DC01DD01DF011A305F02031814
:1004D000952A5F0803197A2AD335D40DD50DD60D88
:1004E000CB35CC0DCD0DCE0DDD1B4B14DA35DB0D30
:1004F000DC0DDD0D4A085602031D882A4908550205
:10050000031D882A48085402031D882A47085302FD
:10051000031C932A5D174708D3024808D43B4908B7
:10052000D53B4A08D63BDF0A652A560855045404D1
:100530005304031D5A14CD1BAC2ACB35CC0DCD0D65
:10054000CE0DDD1B4B14FF30DA35DB0DDC0DDD0D80
:10055000D807031CD9039B2ADF01DD1FC12A5A08D3
:10056000CF005B08D0005C08D1007F305D05D20071
:10057000510450044F0403194B18BF2AC12ADF014C
:10058000DF0A5F080319D32A0130CB070030CC3DC6
:10059000CD3DCE3D4E1CD32ACE37CD0CCC0CCB0C52
:1005A000D80A0319D90A0E248031031DD92AFF3035
:1005B0005802031CE02AFF302000D80008248031B4
:1005C00020000E248031031DE72A01305802031851
:1005D000EE2A2000D80108248031D70120005808D5
:1005E000DE005E1CF52ACD17F62ACD135E36CE004E
:1005F000362AF32380310310660D670DE900690880
:10060000031D072BE001E101E201E3010800F323F0
:1006100080311F30E736E60CE50CE40C890B0A2B21
:100620006408E8009630E217E301E902E91F242B91
:100630006908803A973E031C022BE336E20CE10C7A
:10064000E00CE90F1D2B312B203069020318022B1F
:1006500069080319312BE035E10DE20DE30DE903E3
:10066000282B680803190800E009E109E209E309F9
:10067000E00A0319E10A0319E20A0319E30A080070
:100680004330CA00AF30C900C801C7016C08A000E0
:100690006D0803248031152180312308B100220820
:1006A000B0002108AF002008AE006A08A0006B0867
:1006B0000324803115218031E12396318A2680314F
:1006C000EA238031FB2180314A082100C800200044
:1006D00049082100C700200048082100C60020006A
:1006E00047082100C500BA0A3A080739FC238031BF
:1006F0004508C03F4608C13F4708C23F4808C33FBE
:100700003F302200B600B501B401B3012100C90198
:100710004908FC23403F2000A000413FA100423F88
:10072000A200433FA300220036082000A7002200B9
:1007300035082000A600220034082000A500220071
:1007400033082000A4009331D123803123082200F4
:10075000B600200022082200B50020002108220057
:10076000B400200020082200B30021000830C90A8C
:100770004902031C882B220036082000E3002200D7
:1007800035082000E200220034082000E1002200A9
:1007900033082000E000F92280316008EE00EE36D8
:1007A000EE36EE366E08DD2B21082300CF00200048
:1007B00020082300CE0008000800A0002100EA0065
:1007C00008002308B5002208B4002108B30020085F
:1007D000B20008003108CE003008CD002F08CC0050
:1007E0002E08CB0008006008E4006108E5006208FC
:1007F000E6006308E700080009070907203E8600B5
:10080000023087000800A1000030A201A301080007
:10081000D901CB01CC01CD01CE0108005908803AA5
:10082000CF0080304F020800AD36AC0CAB0CAA0CE8
:100830000800A030C201BD01BE01BF01C001BD0062
:100840008430BE003D30BF01BF0AC1000330A800A4
:100850004108A9005D3022268431013A0319322C67
:100860001130C2004208031D412C0330A80041088A
:10087000A9005C3022268431013A0319412C113041
:10088000C20042080800D900E001DE01DF01DA0100
:10089000DB01DC01DD0159080319532C5708031D46
:1008A0005808031D552C0930E0006008031D752C05
:1008B000003000258431013A031D732C01300025DE
:1008C0008431013A031D732C5E30C5005C30C600D4
:1008D0000030B0248431E0005F08A1005E08A00071
:1008E0003B278431752C0E30E00020006008031D8A
:1008F000872C5A30C5005C30C6000130B0248431EA
:10090000E0005D08A1005C08A000432784312000BE
:100910006008031DAE2C5F08A1005E08A0005B0804
:10092000A3005A08A2005808A40009278431E00057
:10093000580886008701403FA000413FA1004B2797
:1009400020005908860087015A08C03F5B08C13F54
:10095000570886005E08C03F5F08C13F6008080076
:10096000D600D50145080319BE2C46080319BE2C34
:1009700056080319C02C56030319C02C0930D500A2
:100980005508031DFE2C5608031DC82C5D30C92CCC
:100990005C30D4004D30D3000530A8002830A900C9
:1009A0005308AA0054089D258431013A031DFC2CEC
:1009B0004E0E0F39C700C8014F08C900F030CA01F8
:1009C000C90ECA0ECA0549080F39CA04F030C90554
:1009D00047084904CB0048084A04CC004508860073
:1009E00087014B08C03F4C08C13F460886005008AD
:1009F000C03F5108C13FFE2C0F30D50055080800FC
:100A0000D000D201D20ACF01D1015108453E860063
:100A1000093087018101D10A5102031C052D5008BC
:100A2000031D142D5D30172D500B192D5C30CF0098
:100A30001A2DD201520B282D4530CE000830A800C7
:100A40002030A9004E08AA004F089D258431D2000D
:100A5000520B302DCC1C2E2D01302F2D0030D2000A
:100A6000520808001030CE00A030CB01CC01CD01DF
:100A7000CB008430CC008030CD004B30CF00033031
:100A8000A8004F08A9005D3022268431013A031DD9
:100A9000532D0330A8004F08A9005C302226843172
:100AA000013A0319CE014E08031D9B2DC901CA014D
:100AB000C501C601C701C801832D652784315D309A
:100AC0009D258431013A031D6B2DCB1B692D01300F
:100AD0006A2D0030C900652784315C309D25843142
:100AE000013A031D792DCB1B772D0130782D003075
:100AF000CA000130C5070030C63DC73DC83D72275A
:100B00008E31712684314808031D942D4708031D3A
:100B1000942D4608031D942D143045020318942D7E
:100B2000490B5D2D4A0B5D2D4908031D4A08031D25
:100B30009B2D1030CE004E080800B600B701AF0163
:100B4000B001B101B801B901BA01BB01B201B301F1
:100B5000B401B50129088038AF003C30A000003056
:100B6000A1002F30A200A301A30A3608A400A5010A
:100B70008C2684314030A0000030A1002A08A20059
:100B80002808A3003608A400A501E8268431023015
:100B9000C400022E3C30A0000030A1004430A2006E
:100BA0000230A6268431B801B901BA01BB01023076
:100BB0004406031DF62D3B08AE003A08AD00390887
:100BC000AC003808AB000130B8070030B93DBA3D81
:100BD000BB3D2E08031DF52D2D08031DF52DF4300A
:100BE0002B0201302C3B031CD72DB7014408031DF9
:100BF000FC2DB701B70A1D2E0130B2070030B33DFE
:100C0000B43DB53D440303191D2E3B08031D1D2EA5
:100C10003A08031D1D2EF53038020130393B031808
:100C20001D2E3508031D1D2E3408031D1D2EF53005
:100C300032020130333B031CCA2D440B202EB70176
:100C400037080800B2003830B301B30AB401B50167
:100C5000B601B701AE01AF01B001B101A000003093
:100C6000A1002908A2002808A3003208A400A501B9
:100C70008C2684310230BC006C2E3830A00000304D
:100C8000A1003C30A2000130A6268431B401B50198
:100C9000B601B70102303C06031D692E3708AD00CE
:100CA0003608AC003508AB003408AA000130B407A0
:100CB0000030B53DB63DB73D2D08031D682E2C080C
:100CC000031D682EF4302A0201302B3B031C4A2EF0
:100CD000B3013C080319872E3C030319872E3708FC
:100CE000031D872E3608031D872EF5303402013090
:100CF000353B0318872E3108031D872E3008031D4E
:100D0000872EF5302E0201302F3B031C3D2E3C0B6D
:100D10008A2EB301330808002508A7002408A6007E
:100D2000A635A70D20088600210887002608C03FA9
:100D30002708C13F2008023E5C2784312308810038
:100D40002008033E5C27220881000800A300210040
:100D50002218D42E6C27843181002100200A8600BD
:100D60000130870020002008C03F2108C13F21003A
:100D70002008860020002308810021002008033E6F
:100D8000860020002208810004302100A0072008EE
:100D90006D3A031DCD2E6930A000A2102108200657
:100DA000031DDA2E2214DA2E200022088600870185
:100DB0008101810A6C2784310106031D080021008E
:100DC0002E08031DDF2EE52EDF2E200091150800D2
:100DD0002508A7002408A600A635A70D2008860030
:100DE000210887002608C03F2708C13F2008860049
:100DF000210887000130810441312008023E532739
:100E00008431230881002008033E532722088100F3
:100E10000800A7012408031D0F2F0930A700270889
:100E2000031D392F2208230403191A2F2008210437
:100E3000031D1D2F1230A700392F23082102031D87
:100E4000232F22082002031C332F22082002A50092
:100E50002308213BA6002408860087012508C03FFF
:100E60002608C13F392F2408860000308701C03F83
:100E7000C13F2708080021082300C90020002008DE
:100E80002300C800080021082300D100200020080A
:100E90002300D000080021082300C70020002008FC
:100EA0002300C6000800A6000030213DA700260848
:100EB0008600270887000800A6000030213DA70013
:100EC000260886002708870008002130A801A80A04
:100ED000A9004F08AA00080020002208860002305E
:100EE00087010800A001A00AA101A201A301080036
:100EF000A40129001C082000A800A70129001B0844
:100F00002000A70404308E312C2687312108A6004A
:100F10002008A5000630A636A50C890B8B2FA6014C
:100F2000260821002602031D972FF8278731031872
:100F30009C2F7A08031DC92F2000260821002602B5
:100F4000031DA42FF82787310318B02F7A08031D3B
:100F5000B02F04302000A7020030A83BFA01D02FA8
:100F6000260820002602031DB72FF3278731031818
:100F7000BC2F7A08031DA92F210026082000260275
:100F8000031DC42FF32787310318D02F7A08031DC0
:100F9000D02F04302000A7070318A80AFA01FA0A84
:100FA000093028028030031927020318DA2F133082
:100FB000A400E82F0C30280201300319270203187F
:100FC000D72F280829009C002000270829009B0013
:100FD000200026082100A600200025082100A500E9
:100FE0002000240808002100250820002502080010
:100FF00020002508210025020800210040080800E3
:101000002000A90029080319080000308B2396311D
:10101000772688313E2588310030292796311D26D4
:1010200088316E228831AD2288312000A001A101D3
:10103000A201A3014727963124268831003096313A
:101040001426883100309631272E20005930E901CE
:10105000E90AA700C6309B319723883122003A085D
:10106000031D6528FF303702FF30383B0330393B22
:1010700003186528262788310830662788317126AD
:1010800022003A082000B100220039082000B000F8
:10109000220038082000AF00220037082000AE00F0
:1010A0005930B2001030B3009E317D268831E900FE
:1010B0006908031D5D28722788310A306627883148
:1010C000712688316E2288316E282100BB0A3B08C8
:1010D0002000A0000130A101A10771229331BC239F
:1010E000883192319F2269080800570886008701DD
:1010F000810156080020883188228831003A03197E
:101100008F28963148268831003A03190034682325
:10111000883100308B23883121005708982F003008
:1011200060258831023A0319872895313E25883198
:1011300069268831003A0319003492319322003431
:101140000030692256089531B32588312100E40129
:10115000DB01DC01E301E30AE101E201D901DA018B
:1011600088228831003A0319BC283A278831003A8E
:101170000319BC28033032290030C72788312608DC
:101180002100E000200025082100DF0020002408C5
:101190002100DE00200023082100DD006008031D7F
:1011A000DD285F08031DDD285E08031DDD283330C0
:1011B0005D020318DD28B501B50A60085F045E040E
:1011C0005D04031960293308031DE8280130E9286C
:1011D0000030A1268831E400143A031DF6280130BE
:1011E00096313F2688312100E3010229133064063D
:1011F000031DFC280430012915306406031D022953
:101200000530E3006408031D5729330803195729E3
:10121000E1302000E100DB30E200D930B222883139
:101220002100E4003208031D2029B201B20A61083E
:101230001E3E2200CF0000302100623D2200D0007F
:101240000130692288316408031D342962082200B4
:101250005002031D2F292100610822004F020318AC
:10126000342904302100632921006408031D572913
:101270005C082000A10021005B082000A0009B3139
:101280005A238831003A03195729210035080319D8
:101290004B29B601B60A3408031D64295D08C83C11
:1012A000D800F22788312100B401B40A6429210052
:1012B0003308031D5D2901305E290030B300642925
:1012C000360B31290230E300630303196E29003025
:1012D0008B2388313F27B301963185265708860036
:1012E000870163088100640808000030D801D90133
:1012F000DA01DB0169225608953163258831210026
:101300000230DF01DC01DD01DE0088228831003A95
:10131000031993293A278831003A03199329033096
:101320002100DE00D0298731FD278831023A031DD4
:101330009D2901309131782188319B3100238831FA
:10134000003A031DA529AD22883121003008A126CD
:101350008831DF00133A0319B12914305F06031DE9
:10136000BA2966302000B8009830B9005E22883172
:101370000430C62915305F06031DC8296D302000D2
:10138000B8009830B9005E22883105302100DE00B7
:1013900030080319D029B0016E228831FE27883128
:1013A00021005F080230031D502A5E06031D4F2AEC
:1013B000003060258831023A031D4F2A2100AF0A10
:1013C0009C31B02488319C312F248831003A031994
:1013D000F3297430B8009830B9005E2288310430A7
:1013E0002100DE00442ADA30E100DC30E200D830AF
:1013F000B22288312100DF000130692288315F0884
:10140000031D2F2A5B0822005002031D0B2A210016
:101410005A0822004F020318122A7B302000B8001D
:101420009830EC29E70121005D082000A10021008F
:101430005C082000A000903101208831003A031D93
:10144000242A2100B001B00A093021002F06031D13
:10145000442A9C31042488312100AF01442A1530EC
:101460002200E70A6702031C3A2A82302000B800F3
:101470009830EC29210031082000A0002030A10183
:10148000A10771222100B10A9B310D238831003060
:101490008B230A3096317F2688313E2588310230F1
:1014A00021005E060319562A00308B2321005708BD
:1014B000860087015E0881005F0808003A30BC00A2
:1014C0003908B2003808B1003C30B30000309F3119
:1014D000382F2000A0002100C100080022000E11BA
:1014E00008002300550820002104A7002008A200BE
:1014F000A3012708A400A501A500A4012208240730
:101500002300D40020002308253D2300D500080037
:10151000003020008C1A0130A00022006108620413
:1015200003199A2A20000130A001A00A2200E1023A
:101530000030E23B20002008031DA22A92278831B8
:10154000BF0AAA2A21003F080319AA2A400A031940
:10155000AA2AC00A20002008080022000E125E30CD
:1015600097050800E400E50164080319BC2A610836
:10157000031D6208031DBE2A0930E5006508031D2E
:10158000CB2A262788310830662788317126853195
:1015900032258831E5006508031DD22A84311924DB
:1015A0008831E5006508031DF82A1430802788314A
:1015B000712688312830E3000F30E500F32A6108F6
:1015C000D7006208D8006408843143248831E500DC
:1015D0006508031DED2AE301F32A0530E3038027A4
:1015E0008831712688316308031D6508031DDF2AD1
:1015F0006E2220006508080021000530E900123045
:10160000EA00EB000730EC000130ED000730EE009F
:10161000DE3084009B308500A030860001308700DA
:1016200026309B3119238831683084009C30850036
:10163000A03086000230870048309B311923883162
:10164000A030F901FA01FB01FC01FD01840000302A
:10165000850025309B3113238831203084000130F0
:1016600085004D309B3113238831C6308400013012
:1016700085001F309B3113238831203084000230D5
:10168000850020309B31132388317E102000482BA9
:101690004D2388318E2588314A2B972388315C234E
:1016A00088315A2388316A238831632388316C2634
:1016B0009B31072B9B313F2B07302100EC00FB01B6
:1016C000C201C1010800682388317C2388316F2E54
:1016D0009231FF2A06302100EE00ED01ED0A2000D4
:1016E000A00021006D087E23883183238831842364
:1016F000963162269A31FA2A8B17080020002008BA
:101700002100EC000800080000308B2388313F27BF
:10171000B301B30A08002000A3000530A00023088D
:101720003025203E860001308700810108003C25DD
:1017300088312000A401A50105302000A000240864
:101740003025883185278831A0002408302588314C
:10175000213E8600013053278831A40A0319A50AC7
:101760002508803AA30080302302031DB92B0330E3
:101770002402031C9C2B7C2BC72C0030A3014B277D
:101780008831DD2488310130A3014B278831DD24E5
:10179000883105302100E900DB2C05307906031D76
:1017A000E02B0130A3014B278831DD248831143030
:1017B000A30000304B278831DD2488310230462CCD
:1017C0000230782C05307906031DF62B0A30A30071
:1017D00000304B278831DD2488310130A3014B27AD
:1017E0008831DD248831F901F90ADB2C790B052CCD
:1017F0000030142588319D278831031D052C5A2778
:101800008831DD2488310130A62C02307906031D91
:101810002E2C0030142588311930A7278831031D5C
:10182000DB2C5A278831DD2488310130A3014B2776
:101830008831DD24883122000230AF01AF0AB001C7
:10184000B101B2018B2388319630A3000230A4018C
:10185000A501A6013E2588310330462C03307906C8
:10186000031D772C023060258831023A031D482C75
:101870001430A30000304B278831DD24883101303B
:10188000A3014B278831DD2488310430F900DB2C9B
:101890000030142588310330A7278831031DDB2C45
:1018A00001302200AF070030B03DB13DB23D200015
:1018B000A301A30AA401A501A60122003208200069
:1018C000AA00220031082000A900220030082000D0
:1018D000A80022002F082000A7000030DD24883156
:1018E0000130A3014B278831DD248831DB2C043003
:1018F0007906031DDB2C0030932C05307906031D7F
:10190000832C1430E72B790B8E2C00301425883172
:101910009D278831031D8E2C0A309F2C02307906BA
:10192000031DDB2C0130142588319D278831031DD0
:10193000DB2CBD2B05307906031DA82C1430A30029
:1019400001304B278831DD2488310030A301DA2BA8
:1019500002307906031DDB2C0130142588319D27C8
:101960008831031DDB2C0030A3014B278831DD2497
:1019700088310230A3001230A401A501A601A700FE
:101980000130A801A901AA01DD2488312C2C2100F5
:1019900069082000AD00AE012E08003A0319D12CD1
:1019A000DB2C2D088400063004020318DB2C983150
:1019B0000435513E820090311328AB0002302B02D7
:1019C000031808001330A0002B0830258831A13EF1
:1019D0008600013087002308C03F2408C13F250846
:1019E000C23F2608A227883130258831A53E8600CF
:1019F000013087002708C03F2808C13F2908C23F9F
:101A00002A08A227883130258831AB3E8600013074
:101A1000532788311330A0002B0830258831AF3E82
:101A200086000130532708002000A8000230280259
:101A300003182B2D1330A00028083025AF3E860058
:101A400001308700403FA300413FA400423FA50072
:101A5000433FA6000800A301A401A501A6010800B8
:101A6000A200A10120082218A107A035A236220851
:101A7000031D322D210808008B130800A800053033
:101A8000A0002808302588316C278831031D080004
:101A90000530A00028083025883185278831810A43
:101AA000A00028083025213E860001308700230849
:101AB000C03F2408C13F2508C23F2608C33F080095
:101AC0002000A7000530A0002708302588316C27AA
:101AD000883103198A2D3C25883105302000A0006B
:101AE0002708302588317A278831A300413FA40098
:101AF000423FA500433FA6007C23883120002608F2
:101B00002504240423040319872DA8018C2D0230F9
:101B1000A8008C2DA801A80A28080800B5259B312B
:101B200031238831003A03198F2D003022006402DE
:101B3000643003196302031CAA2D8930E301E40118
:101B40002000B8009830B9005E22BD01BE019D3171
:101B50006B258831B4259D31E62588319031B82038
:101B60008831CA2580310228BC2B692688312000A3
:101B7000AF002F08031D0800F0301805AE00303A02
:101B8000031DC52D9231F4228831AC27003A031D84
:101B90006300080022004D084E040319D32D0130C4
:101BA000CD020030CE3B4D084E04031D08005426E4
:101BB00088312308031DE22D763021020230223BBA
:101BC000031CE72D0530A0007E239031B4280B269E
:101BD0008831003A031DF32D9A31FD225830CD0093
:101BE0000230CE00080052268831003A031D08005A
:101BF00050268831003A031D08000B2688316426E0
:101C000088310E26883125208831EA006A08031DB4
:101C100008008C27080021006C0808004C262000D2
:101C2000873172278831712688311F302C26883100
:101C30002108B7002008B6000630B736B60C890B6D
:101C40001D2EFF30B6050330B7053708AE00360845
:101C5000AD00AF0181317E292000A300A200A20DBA
:101C6000A20D21001D082000220683392206210032
:101C70009D001D1400320032000021009D149D18AB
:101C80003F2E1C082000A100A00121001B082000FD
:101C9000A0070318A10A0800813022009704080059
:101CA00041080800420808003A082000A30022006A
:101CB00039082000A200220038082000A1002200DC
:101CC00037082000A00008002000A0002300D20058
:101CD00008007B19013400348C279231952A0B17A8
:101CE00008000130A0020030A13BA23BA33B200F23
:101CF000812E210A031D812E220A0319230A0319AA
:101D00000800A801A901AA01AB012B08A7002A0815
:101D1000A6002908A5002808A4000130A807003063
:101D2000A93DAA3DAB3D2708031D712E2608031DC2
:101D3000712E2508031D712E1E3024020318712EEA
:101D4000852ED400D50122005D085E04031DB02E4F
:101D500059085A04031DB02E570858040319B32E0E
:101D60002100D401D40A2100540803191B2F26276F
:101D7000883142278831F727883148278831292739
:101D80008831283066278831712687317827883155
:101D90002100D50022005708580413300319D42E0F
:101DA000D701D8012100D50021005506031DE82EDA
:101DB000220060082000A10022005F082000A0008F
:101DC0000230A107712288312200DF0A0319E00ADC
:101DD00021005508031DF02E80312F208831D500B9
:101DE00022005D085E0414300319FA2EDD01DE01C5
:101DF0002100D50021005506031D0E2F22005C088E
:101E00002000A10022005B082000A0000430A107F0
:101E1000712288312200DB0A0319DC0A22005908EA
:101E20005A040319182F1530D901DA012100D50001
:101E30006E228831202F96311D26883100302927C7
:101E400021005408963127265508080022000E1557
:101E500008002000A3009030220098001C302000D1
:101E600023020318352F2308362F1B30A100A201AF
:101E70009B31032B1430A000C33096314C2E21002F
:101E8000BE01080022000E16A130970408000800C9
:101E900021006A080800A401A501A601A701A80164
:101EA000A901AA01080087000030C03FC13FC23F1E
:101EB000C33F08000030A301A30AA401A501A601A5
:101EC000A701A70AA801A901AA0108002000A000F3
:101ED000A101A201A3010800203E86000130870075
:101EE0000108080010302200B7070030B83DB93DA6
:101EF000BA3D0800213E860001308700403F0800BF
:101F0000A000A101A201A3010800203E860001302B
:101F1000870005308101080058302200CD000230D2
:101F2000CE0008002100C001C401C301BF010800A8
:101F3000860087018101810A0034230324042504DB
:101F400026040800C33F1330A0002B080800230616
:101F50002404250426040800AD010B268831023A2A
:101F6000031DC42F0030C72788312608031DC42F46
:101F70002508031DC42F2408031DC42F0930230284
:101F80000318C42FAD01AD0A20002D080800200061
:101F9000AC000530A801A901AA01AB01A0002C08E2
:101FA000302588316C2788310319E82F3C2588318A
:101FB00005302000A0002C08302588317A27883190
:101FC000A800413FA900423FAA00433FAB007C2349
:101FD00020002B08A6002A08A5002908A40028082C
:101FE000A30008002000A0002300D300080029005F
:101FF0009E172000121122008E1508003B140800C5
:10200000080022005108603E2000A200003022009B
:10201000523D2000A3002102031D102822082002A7
:102020000318013400341E2090311628A000200827
:1020300003191C287B1408007B1008002000AB014A
:10204000AC011330A0002C088D3130259031A03E1A
:102050003C209031003A03192F28AB01AB0A023023
:10206000AC0A2C02031C21282B08031939288F31B4
:10207000422720002B080800AA002A0A922090314B
:102080002A080B3E86009E209031031D512823080C
:102090002702031D512822082602031D512821086A
:1020A000250203185528013056280030A900A00049
:1020B0002A08093E860001308700413F8A00403FE0
:1020C0000A00903120002A08053E922090312A0A09
:1020D0008600403FA107413FA23D423FA33D433F11
:1020E000A43D2A080B3EA92090317D319E209031DD
:1020F000031D842823082702031D842822082602A2
:10210000031D842821082502031C90282A080B3E61
:10211000860001308F31532790312A080F3EA920C5
:1021200029080800860001308700403FA100413F98
:10213000A200423FA300433FA4000800403FA50087
:10214000413FA600423FA700433FA80024082802C1
:10215000080086000130810700304131813D413166
:10216000813D4131813D08000530EE0000301A29E3
:1021700007302100E8006D08D600E830D7006E086F
:10218000E5002730E601E535E60D65078400983067
:10219000663D8500013F8A00003F0A00073090310C
:1021A00021006806031DD6280430E800ED30200029
:1021B000A200210068082000A300EE3035219031F4
:1021C00021006D08031DF5280B2901301A219031DB
:1021D0000B2903301A2190310B2902301A2190313A
:1021E0000B2900301A2190310B296808E500E6011F
:1021F0006608003A0319FD280B296508013A0319FE
:10220000E528023A0319ED28073A0319E928013AAB
:102210000319F1280B2925219031003A03190800F0
:1022200028219031003A0319182904301A219031DD
:10223000003078292000AF002100E9000530F900C6
:1022400002308B318B238B31BC2BFB1801340034D3
:1022500020000530A00121006906031D322920005D
:10226000A001A00A200020080800A700A601270856
:102270000319412922080319412907302306031DA8
:1022800043290930A6002608031D08005D292708F8
:1022900086008701010823060319532922088600B6
:1022A0008101810A572922088600870181012708B8
:1022B00086008701230881006F292308A400A50157
:1022C0002508003A031965295C2924088400073091
:1022D000040203186F2998310435433E8200270811
:1022E000860087010108A000220886008B317E2B22
:1022F0002000A000200803197F29FB140800FB1010
:10230000080091112400951F4F2A95132100AE015A
:102310007F22860087018101810AAC010800A21892
:1023200008002108AC002108860001308700010860
:10233000AD00210A8600403F2200CB00413FCC0087
:1023400004302100A10721086D3A031DA929693035
:10235000A1002210210820060319A214240016143B
:1023600002302100AE00080024009614B029240099
:10237000161FBE2921000430A40A632A7D08F2003A
:102380007C08F100F236F10C710891007C1CCC291C
:102390000B302100AE00080003302100AE00080021
:1023A0002400161FD72921000430A40A632A96149A
:1023B00006307D05F100F038FC00FD017C142100A1
:1023C000A901A90AB02929030319FA298D229131FB
:1023D000403FFC00413FFD004B0886004C08870051
:1023E000433101082100AB008D22913142310108B7
:1023F0002100AA007C08240091007C1CCC29053017
:102400002100AE0008002400161F0C2A2100A40A97
:10241000240016130530632A2100AA032A0F162A66
:1024200086229131AD0BB4290030632A2B08860037
:1024300087010108240091002100AB0A0800240054
:10244000161F292A21000430A40A6322240016132F
:102450000800961508302100AE0008000830AE00D4
:102460002400961508002B08860087012400110817
:1024700081002100AB0AAA030319442A2400961202
:1024800006302100AE00472A24009616752224004B
:10249000161608000030632A0630A40A632A2100B9
:1024A0002E08F100F2017208003A0319582A4C2A4A
:1024B000710884000C30040203184C2A983104354A
:1024C000003E82000800F0002400161521007F2243
:1024D00091310319732A2C08033E860001088600F7
:1024E000870170088100AE01080086229131AD0B92
:1024F0007C2A0430AE000800AE01AE0A08002C08A9
:10250000033E8600013087000108080004302200E5
:10251000CB070318CC0A2100080022004B088600D4
:102520004C08870008006300A22BB701B801B9016D
:10253000BA019E229231BC2392319F2A122BA8000D
:10254000A9002208230403190800CA239231220893
:102550002907A400FF3EC42392310330031922024D
:10256000031C0800290A8600200881002908023E71
:10257000B5239231FE3EB5239231FD3EC423923104
:10258000073003192202031C08002908033EB52363
:102590009231FC3EC4239231093003192202031CFC
:1025A00008002909A4002A09A500A40A0319A50AFC
:1025B0002408A6002508A7000330A605A7012608C1
:1025C000A907A2022708A33BFC30A205FF30A30500
:1025D0002208230403190800CA2392310130A20201
:1025E0000030A33BA90AE82AC43098009901F330CF
:1025F0009700E330A72392310B178B17A22B3E23B2
:10260000923144239231252392312D23923132236A
:102610009231122392317A2392318423923196237C
:1026200092318B2B69302100A100A000A21422104E
:10263000A401240094012830950097010F309200E6
:102640002000911121009115080021009D012030EA
:102650009E009F019B019C01080010302200980001
:1026600099010800403029009E009F019A019901BC
:1026700098010A309C00C0309B000800683021009F
:1026800099002200960108008C0150308D008E01C7
:102690003B3021008C00D0308D0003308E002300B1
:1026A0008E008D0104308C0024008D018C012100EE
:1026B0009517013022009D00270013129312121665
:1026C000921211129116F7302000A0001A30A100CA
:1026D0007223923100302000A0001030A1009A2314
:1026E0008B15080021082200CA00200020082200C3
:1026F000C90008003030200098009901CF309700C1
:102700002C30A7239231A22B01309C00FF309B007C
:102710009A019110A52B483023009F0080309D0026
:1027200026309E0033309B009C01080001302200BF
:102730009700080021082200C8002000200822007D
:10274000C70008002000181408001C150800960097
:1027500017082200C600C501200016082200C50483
:1027600020001110210011140800860020088100AB
:1027700022082907A400080020001030A001A101B0
:10278000A200C630A30108008600200881000030A6
:1027900023020800290886000130870020088100F4
:1027A00008002308B0008030B0052335B200A21B1A
:1027B000321432080319E42B320FE22BA001A101DD
:1027C000A201A301A217E72BA001A101A201A3016D
:1027D0002708B1008030B10531083006031D3017DD
:1027E0002735B100A61B311431080319FF2B310F17
:1027F000FD2BA401A501A601A701A617022CA40187
:10280000A501A601A701320831020318292C301FA7
:102810000B2C8030B0063208B3003108B200330808
:10282000B1002008B3002408A0003308A400210848
:10283000B3002508A1003308A5002208B30026082C
:10284000A2003308A6002308B3002708A30033081A
:10285000A700B3013108A800A9012908AB0032087C
:102860002802AA00031CAB032B08803AAC0080307E
:102870002C02031D3D2C1A302A02031C5A2C200066
:1028800023082204210420040319482C0130492C78
:102890000030B300A001A101A201A3013108B200E0
:1028A0005F2C331C572C33360138B300582CB33609
:1028B00007259331200031083202031C512C301BB4
:1028C000792C3208031D652C162D2408A007250835
:1028D000A13D2608A23D2708A33D231CD92C331C6B
:1028E000752C33360138B300762CB3360725933177
:1028F000D92C2308803AA8002708803A2802031D13
:102900008B2C26082202031D8B2C25082102031D77
:102910008B2C240820020318B62CFF30A800A90035
:10292000AA00AB0020082402AC002108253BAD0022
:102930002208263BAE002308273BAF002C08A8073F
:102940002D08A93D2E08AA3D2F08AB3D2B08A3005A
:102950002A08A2002908A1002808A0008030B0069B
:10296000B309B30FBE2C0F259331BE2C2408A0024F
:102970002508A13B2608A23B2708A33B23082204E5
:1029800021042004031DD72C3308031DD72C162D3A
:10299000A035A10DA20DA30DB31B2014331CD32C05
:1029A0000314B30DD42CB3353208031DB203A21F98
:1029B000C82CB101B31FE42C33087F390319201848
:1029C000E22CE42CB101B10A31080319F12C0F25D6
:1029D0009331231CF12CA337A20CA10CA00C320FB5
:1029E000B20A320A031D3208031DFD2CA001A10109
:1029F000A201A30132080319B001321C012DA21754
:102A0000022DA2133236A300B01BA3170800201812
:102A1000B317A337A20CA10CA00CB20A0800013016
:102A2000A0070030A13DA23DA33D0800A001A101E7
:102A3000A201A30108005708860005308701810024
:102A40005608A225003457088600870181015608E0
:102A500003192F2D3D259531003A0319342D5708C0
:102A6000860006308701810057088600870101082B
:102A7000031D003401303F26003400341D262100A0
:102A80001D1010302200980029009E1322008C0196
:102A90003B3021008C0023008C0124008C012F305E
:102AA00022008D0521008D0523008D0124008D015C
:102AB00022008E0121008E0123008E01220091014F
:102AC0009301970108002000A900290803190800B4
:102AD00000308B318B2395310A307F268D313E2596
:102AE000953162269531D1259531003A031D0800B4
:102AF000242E570886000430870181005608F525EA
:102B00008A3188229531003A0319942D482695314F
:102B1000003A0319942D21005708860001308701DF
:102B20008101810A1426003400308D3160259531F1
:102B3000023A0030031D08008B318B232100570817
:102B40008F31982F2000A6002608031908008B312A
:102B50009723953100308F31292795311D268A31F1
:102B60006E228A31AD2A2000A90029080319080025
:102B700000308B318B239531C8307F268D313E2537
:102B800095318F313F279531B301B30A85269531B1
:102B9000D1259531003A031DCF2D242695310030E3
:102BA0003F2EFB190134003457088600033087019B
:102BB000810056082C2600308D3160259531023A6F
:102BC000031D003421005708860000308701810171
:102BD0008F31292795311D268A316E2295318A3110
:102BE000AD2295318B31972300342000A9002908AC
:102BF0000319080000308B318B23953177268D31F6
:102C00003E25953100308F31292795311D268A3197
:102C10006E229531242695310030142695310030EE
:102C2000272600308A31692A2000A00020080319D5
:102C30001B2EFB150800FB11080029009E13200025
:102C4000121122008E1108008F31922708002000F7
:102C5000A0002100C20008002000AA002A080319D1
:102C6000080000308B318B2395311D307F268D314C
:102C70003E25953100303F2695310030272E20002B
:102C8000A00020080319462E7B1508007B110800C0
:102C9000C430A001A00A4C2EA10021080319003461
:102CA000210040082000200203180034210886007B
:102CB00087010108031D00342108860001308101CD
:102CC000810A08006B2695312100AF012200E7013F
:102CD0006F26B00108002200D101D2010800BB011B
:102CE000BC01BD01BE012100BD01BC0108000030D6
:102CF000A600A5008C30A400A030A3000034A300DF
:102D00000030A401A501A6010800B601B401B50177
:102D1000B20108003108BA008030BA053135C00070
:102D2000B01B4014400803199B2E400F992EFB271F
:102D30009631B0179D2EFB27963135088039BA069B
:102D40003535BB00B41B3B143B080319AD2E3B0FBC
:102D5000AB2EF6279631B417AF2EF62796313B08E7
:102D6000031D4008031DB92EAE01AF01B001B10132
:102D700008002E08A0003408A42796312108C600B8
:102D80002008C500BC00BD01BE01BF014608C1004E
:102D9000C201C301C4012F08A0003308A427963143
:102DA0002108D6279631C10701300318C20703183E
:102DB000C3070318C4073008A0003208A4279631BF
:102DC0002108D6279631C62796312F08A000320851
:102DD000A4279631BB2796312E08A0003308A427DC
:102DE0009631BB2796313E08BF003D08BE003C0827
:102DF000BD00BC012E08A0003208A4279631BB27D5
:102E000096312F08A0003408A4279631E327963185
:102E10003308A4279631E32796313408A427963146
:102E20002108C6002008C500B6004608B700B80152
:102E3000B9013808B9003708B8003608B700B6013C
:102E40003608C1073708C23D3808C33D3908C43DBC
:102E50003F08C62796314008C500C6013B08C50794
:102E60000318C60A8230C507031CC603C31B442FC0
:102E7000C135C20DC30DC40DBF1B4114FF30BC359D
:102E8000BD0DBE0DBF0D332FBB01BF1F592F3C0819
:102E9000B6003D08B7003E08B8007F303F05B900D6
:102EA00038043704360403194118572F592FBB0132
:102EB000BB0A3B0803196B2F0130C1070030C23D2C
:102EC000C33DC43D441C6B2FC437C30CC20CC10CA2
:102ED000C50A0319C60AF0279631031D712FFF306A
:102EE0004502031C7B2F7F302000C4008030C300CC
:102EF000C201C101992F2000F0279631031D822FB6
:102F00000130450203188B2F2000C101C201C3010B
:102F1000C401BA01992F20004508C000FF30C10547
:102F2000C2057F30C3050030C4014018C3174036C6
:102F3000C4003A08C4044408B1004308B000420881
:102F4000AF004108AE000800A700A301A4012008BB
:102F5000A500A601271CB02F2508A3072608A43D1D
:102F6000A535A60DA7362708031DAA2F2408A10002
:102F70002308A00008002108C6002008C500BC07DF
:102F80004608BD3D0030BE3DBF3D0800C1070130D1
:102F90000318C2070318C3070318C4073E08BF007D
:102FA0003D08BE003C08BD00BC010800C60020086A
:102FB000C500BC0701300318BD070318BE0703187E
:102FC000BF07460808002108C6002008C500C10741
:102FD0004608C23D0030C33DC43D3008A000080093
:102FE0004608803AB600803036020800B201B301CC
:102FF000B401B5010800AE01AF01B001B101080094
:1030000091318F299131B4299131E3299231032AE9
:1030100092314A2A92311F2A92312E2A92314A2A1B
:103020009231332A92314C2A9131B7299131D029EA
:1030300000340434003400344E34653477342034A2
:1030400045346E347434723479340D34003475344C
:103050000834A034083475340934D4341534793440
:1030600015341B341534233415349E31452E9E31CE
:10307000152E9E31202E9E31232E9E31292E9E31DB
:10308000262E9E312C2E913147299131472991319D
:103090004729913147299131472991314729913168
:1030A00047298B31BD2B8B31E22B8C317D2C8C3120
:1030B0009A2C8B31CD2B8B31BD2B5334653471342D
:1030C000203445346E3464340D3400344534723465
:1030D0007234203431340D34003445347234723457
:1030E000203432340D340034453472347234203498
:1030F00033340D3400344534723472342034343473
:103100000D340034453472347234203435340D3487
:0E31100000347434693463346B34203400347A
:1035EE00080092110800FF30FC2A08008F31722764
:1035FE0008007B1801340034A00022009900080056
:10360E0021001708C1391238970008002200BB3577
:10361E00BC0DBD0DBE0D0800640080010131890B8B
:10362E00142B0034FE0012001E00FE0B1A2B003469
:10363E0020080319252B22008E16080022008E1258
:10364E000800200803192E2B22008E1708002200D6
:10365E008E1308002000A0012100370803193C2B0F
:10366E002000A001A00A2100B701200020080800B8
:10367E0002308B318B239B310530F9012100E9009B
:10368E0020000030A3018F314B279B318C31DD247C
:10369E009B310130A3018F314B279B318C31DD24BF
:1036AE0002308B318B2B0030210261300319200246
:1036BE00031C6A2B21003E0A0319672BBE0A6C2BD2
:1036CE00FF30BE006C2B2100BE013E080319712B8A
:1036DE000130722B00302000A20008002700131EBC
:1036EE007A2B7D239B31931E08008A2B22004908DA
:1036FE004A040319872B4A088A0049080A009B319D
:10370E002700131208002200470848040319942BBF
:10371E0048088A0047080A009B31270093120800C8
:10372E00A800A0001030A100A20127089E2BA40023
:10373E002008A6002408A5000130A1020030A23BFB
:10374E00210FAC2B220A031908002608860001302F
:10375E0087000108A300A60A250886008701230812
:10376E008100A50AA32BA601A60A2508031DDC2BA2
:10377E002408031DDC2B193022020130233B0318D1
:10378E00DC2B2508031DD52B2408031DD52B230860
:10379E00031DD52B88302202031CDC2B01302102A5
:1037AE002330031920020318A6012608080000344E
:1037BE00003400340034003400340034003400345B
:1037CE0028341B3400340034003400340034003408
:1037DE00003400340134003400340034003400343A
:1037EE000034003400341F341B34003400340034F1
:1037FE00003400340034003400342D242000A000A6
:10380E008131F3219C31123A031D0800043020004F
:10381E002002031C1C2C22005108520403191C2CDC
:10382E000130D1020030D23B0800033020002002CC
:10383E00031808000030220052020B300319510207
:10384E0003180800D10A0319D20A08003C08080020
:10385E002000A9018131F3219C31123A031D432C22
:10386E0066249C312000A80010302802031C412C35
:10387E000130422C0030A9002200550856040319CD
:10388E004F2CFF30D507031CD6032000A901A90A2F
:10389E00200029080319632C220054082000A100DF
:1038AE00220053082000A0000830A1078A3171229F
:1038BE002200D30A0319D40A2000290808003D0863
:1038CE000800013400340334003408340734003463
:1038DE000034013400341534003408340734003415
:1038EE000034013400340334003408340734003417
:1038FE0000340134003415340034083407340034F5
:10390E0000340134003403340034083407340034F6
:10391E0000340134003415340034083407340034D4
:10392E0000340134003403340034083407340034D6
:10393E00003405340034003400348034BB34003499
:10394E000034013400341534003410340E34003495
:10395E00003422003E082000A70022003D0820006F
:10396E00A60022003C082000A50022003B082000F3
:10397E00A400A8012100BC01BD012000A901A90AD3
:10398E0024080139A80709302906031DD12C28085F
:10399E002100BC001E3020002906031DD92C28084A
:1039AE002100BD0020002030A90AA736A60CA50CC8
:1039BE00A40C2902031CC72C22003E082000A300E1
:1039CE0022003D082000A20022003C082000A10099
:1039DE0022003B082000A000F42C23082300CD0079
:1039EE00200022082300CC00200021082300CB0059
:1039FE00200020082300CA000800111022004608EB
:103A0E00F1004508F00011259D310D2D2100B70163
:103A1E00B70A202D2000181D1B2D181071089700B5
:103A2E007008960018140800710897007008960028
:103A3E000800F701F8010530F00077085F258F3197
:103A4E006C279D310319502D0530F00077085F2546
:103A5E008F317A279D31F300413FF400423FF5004C
:103A6E00433FF6007504740473040319502D05309A
:103A7E00F00077085F259D31213E860001308700DA
:103A8E00810200304131813B4131813B4131813BEB
:103A9E007D31F70A0319F80A7808803AF30080306E
:103AAE007302031D5C2D0330770203180800222DCC
:103ABE00F100F20170087118F207F035F136710855
:103ACE00031D612D7208080023000430DB01200065
:103ADE00BF00C0013F08D63E8600013087000A3085
:103AEE00A000A1013E08A3003D08A200C6259D31FD
:103AFE002008303E81000A30A000A1013E08A3003C
:103B0E003D08A200A1259D312108BE002008BD0060
:103B1E00FF30BF07031CC003C01F712DD630B80085
:103B2E000130B9008A315E226B30B8009830B9008E
:103B3E008A315E2AA401A501200821040319C12D92
:103B4E00A601A60AA11BAE2DA035A10DA82DA43548
:103B5E00A50D21082302031DB62D20082202031CE9
:103B6E00BD2D2008A2022108A33B2414A136A00CCF
:103B7E00A60BAE2D2508A1002408A00008002008E1
:103B8E0021040319E12DA401A40AA11BD12DA035F6
:103B9E00A10DCB2D21082302031DD72D20082202B3
:103BAE00031CDD2D2008A2022108A33BA136A00C88
:103BBE00A40BD12D2308A1002208A000080022008A
:103BCE004208410440043F040319F42D0130BF02A2
:103BDE000030C03BC13BC23B08001C302000B80087
:103BEE009830B9008A315E229D3177269D31A23EF2
:103BFE00860002308700403F2200E500413FE6008C
:103C0E0077269D31A43E8600403F2200BF00413FF3
:103C1E00C000423FC100433FC2002D2E2200660865
:103C2E002000A100220065082000A0005B269D3127
:103C3E00452E63269D31452E72269D31452E6826D2
:103C4E009D31452E6D269D31452E2C2E77269D318C
:103C5E00A03E860002308700403F2000BD00413F5D
:103C6E00BE0003193B2E452E3D088400073004028A
:103C7E000318452E98310435353E82002100A70ADF
:103C8E000319A80A00302802093003192702031C61
:103C9E0008005D302000B8009830B9008A315E22ED
:103CAE002100A701A801080021082200E20020003F
:103CBE0020082200E10008002200D501D50AD60115
:103CCE0008002200D701D70AD80108002200D90126
:103CDE00D90ADA0108002200DD01DD0ADE01080042
:103CEE00210027080907090709070800D70132082C
:103CFE000319A32E2E08B4002F08B5003008B60005
:103D0E003108B7003308B800B901BA01BB01B407D6
:103D1E003908B53D3A08B63D3B08B73D3708031D97
:103D2E00A32E043036020318A32E33080319A32E34
:103D3E0011303302031CA52E0930D7005708031D7E
:103D4E00B52E3108A3003008A2002F08A1002E08BE
:103D5E00A0003308A400EC269E31D7005708031D9F
:103D6E00EA2E30085038CE002F08BC002E08BD00B9
:103D7E00D801D22E123058020318D62E5808023E01
:103D8E003C3E8600870158083207B4008400850146
:103D9E0000088100D80A33085802031CC12E4F3088
:103DAE00A0000030A1003C30A2003308023EA30068
:103DBE004E08A400A50186318C269E314F30A401F9
:103DCE00A40A1D27D700570808002408AA00AB0133
:103DDE00AC01AD012008AA072108AB3D2208AC3D7D
:103DEE002308AD3DFF30AA07AB3DAC3DAD3D2A08E3
:103DFE002006A5002B082106A6002C082206A700E7
:103E0E002D082306A8000130A501A605A705A801C7
:103E1E002808270426042504031D172F0130182F08
:103E2E000030A9002908031909340034A600023015
:103E3E00A500A701A70A2608A0002730A101A2000D
:103E4E0024088631A6269E310230270603192B2F11
:103E5E00A503031D2708031D222F2708031D013468
:103E6E000034B5003208B7003108B6002200C30195
:103E7E00C40120003608840037088500120003199B
:103E8E00572F3630AA003308AB00350860279F3114
:103E9E002A082200C30720002B082200C43D402F11
:103EAE00220044082000B200220043082000B10086
:103EBE000800B000E8279F311200253A031D9F2FFE
:103ECE00F4279F310318810AE8279F3112006E3ABA
:103EDE00031D872FF4270318810A2B0886008701FC
:103EEE00403F84008501810A0008AF008600220051
:103EFE004308C03F4408C13F2000AA01AB0108009F
:103F0E00E8279F311200253A031D9A2FF4279F317F
:103F1E000318810A2530FB279F31AC272000AA0108
:103F2E00AA0AAB010800F4279F310318810A832FD8
:103F3E00E8279F310008FB279F31AC279F312000D7
:103F4E00F4279F310318810A952F2408031D240896
:103F5E00031DB32F2208DE2F2408033E860087019F
:103F6E00160001040319D42F2408033E860087018E
:103F7E00403FA500413FA600240A8600403FA7000F
:103F8E00413FA800803AA9002608803A2902031D65
:103F9E00D22F25082702031808002000240A8600C5
:103FAE0001308701810741310318810A0800A10001
:103FBE002108E12FA000111EE22F200823009A00F5
:103FCE0008002A0886008701403FAC00413FAD0043
:103FDE002C0884002D08850008002A088600013070
:103FEE008701810741310800A200A3013008A40017
:023FFE000800B9
:020000040001F9
:04000E00F4FFFFFFFD
:00000001FF
