:020000040000fa
:08000000481c04000000000090
:020000040000fa
:10000800041a0000081a00000c1a0000101a000058
:10001800141a0000001a0000181a0000001a000044
:100028001c1a0000201a0000241a0000281a0000d8
:100038002c1a0000001a0000301a0000341a0000c0
:10004800381a00003c1a0000401a0000441a000048
:10005800481a00004c1a0000501a0000541a0000f8
:10006800581a00005c1a0000601a0000641a0000a8
:10007800681a00006c1a0000001a0000701a0000cc
:10008800741a0000001a0000781a00007c1a000098
:10009800801a0000841a0000881a0000001a000064
:1000a800001a0000001a0000001a00008c1a000054
:1000b800901a0000941a0000981a0000001a000014
:1000c8009c1a0000a01a0000001a0000a41a0000e0
:1000d800a81a0000ac1a0000b01a0000b41a0000f8
:1000e800b81a0000bc1a0000c01a0000c41a0000a8
:1000f800001a0000001a0000c81a0000001a0000c8
:10010800cc1a0000d01a0000d41a0000d81a000037
:10011800dc1a0000e01a0000e41a0000e81a0000e7
:10012800ec1a0000f01a0000001a0000f41a00008f
:10013800f81a0000fc1a0000001b0000041b000055
:10014800081b00000c1b0000101b0000001a000018
:10015800001a0000141b0000181b00001c1b0000e4
:10016800001a0000201b0000241b0000281b0000b0
:100178002c1b0000301b0000341b0000381b000043
:100188003c1b0000401b0000441b0000481b0000f3
:100198004c1b0000501b0000541b0000581b0000a3
:1001a8005c1b0000601b0000641b0000681b000053
:1001b8006c1b0000701b0000741b0000781b000003
:1001c8007c1b0000801b0000841b0000881b0000b3
:1001d8008c1b0000901b0000941b0000981b000063
:1001e8009c1b0000a01b0000a41b0000a81b000013
:1001f800ac1b0000b01b0000b41b0000b81b0000c3
:10020800bc1b0000c01b0000c41b0000c81b000072
:10021800cc1b0000d01b0000d41b0000d81b000022
:10022800dc1b0000001a0000001a0000001a000081
:10023800001a0000001a0000001a0000001a00004e
:10024800001a0000001a0000001a0000001a00003e
:10025800001a0000001a0000e01b0000e41b000068
:10026800e81b0000001a0000001a0000001a000035
:10027800001a0000ec1b0000f01b0000001a000030
:10028800f41b0000f81b0000001a0000001a000010
:10029800001a0000001a0000001a0000001a0000ee
:1002a800001a0000001a0000001a0000001a0000de
:1002b800001a0000001a0000001a0000001a0000ce
:1002c800001a0000fc1b0000001c0000041c0000b9
:1002d800081c00000c1c0000101c0000141c00006e
:1002e800181c00001c1c0000201c0000241c00001e
:1002f800281c00002c1c0000301c0000001a000004
:10030800001a0000001a0000001a0000001a00007d
:10031800001a0000341c0000381c00003c1c0000bf
:10032800401c0000441c0000001a0000001a0000d5
:10033800001a0000001a0000001a0000001a00004d
:10034800001a0000001a0000001a0000001a00003d
:10035800001a0000001a0000001a0000001a00002d
:10036800001a0000001a0000001a0000001a00001d
:10037800001a0000001a0000001a0000001a00000d
:10038800001a0000001a0000001a0000001a0000fd
:10039800001a0000001a0000001a0000001a0000ed
:1003a800001a0000001a0000001a0000001a0000dd
:1003b800001a0000001a0000001a0000001a0000cd
:1003c800001a0000001a0000001a0000001a0000bd
:1003d800001a0000001a0000001a0000001a0000ad
:1003e800001a0000001a0000001a0000001a00009d
:0803f800001a0000001a0000c9
:020000040000fa
:08300000481c04000000000060
:020000040000fa
:1030080051ed0000876400000000000069840000a2
:10301800d1420000deff000051ed0000876400008f
:103028000100000069840000d1420000dfff0000b9
:10303800fcf10000654b00000200000069a40000dc
:1030480043660000e3ff000051ed000087640000c4
:103058000200000069840000d1420000e0ff000087
:10306800a5e80000a97d00000200000060790000ca
:10307800e1540000e2ff0000fcf10000654b000095
:103088000300000069a4000043660000e4ff00009c
:10309800101000001111000012120000131300009c
:1030a8001314000014150000151500001616000072
:1030b800161700001717000018180000181900004c
:1030c800191900001a1a00001a1b00001b1b000027
:1030d8001b1c00001c1c00001d1d00001d1d000005
:1030e8001e1e00001e1e00001f1f00001f1f0000e4
:1030f800690b000000000000ddbf0000fcff0000bd
:1031080085880000880000005555000055f500002e
:1031180000000000004000006e6600000000000093
:10312800503f0000e9ff00008aaa0000aa02000040
:103138000100000000e00000000000000040000066
:020000040000fa
:103148000000fe00e2af22000019780001097800b3
:10315800000006000000fe000000eb008000eb000d
:10316800f8ff0700d628ef00000006000000fe0068
:103178000000fe00801f7800811f7800e1af220068
:103188000600fc0031007800b04688001100780085
:10319800b0468800d1e8a800000000000000000048
:1031a800cf0078004f007800000006000000fe0005
:1031b800a2028000a10288009080ba001000ba0024
:1031c800a2028800000006000000fe00a2028000a3
:1031d800a10288001000ba00a202880000000600c0
:1031e8000000fe00d1e8af00feff3700f27f2000ac
:1031f800000161000a003a0032002400824688007b
:1032080090468800a1468800be1802000000000011
:10321800d1e8af00feff370010002000d1a8af00b2
:1032280000002000000006000000fe00d1e8af000a
:10323800feff37000000a700150037000010a700a8
:1032480013003700a146880090468800100024002b
:1032580080468800a0028000a10f2000a1028800fb
:10326800010020008208bb008398bb008408bb00d3
:103278008598bb00be18020000000000d1e8af002e
:10328800feff3700a002880010002000d1a8af0080
:1032980000002000000006000000fe00d1e8af009a
:1032a800feff37000000a700160037000010a70037
:1032b80014003700a146880090468800a1028000cb
:1032c8001000240080468800a00f2000a00288007b
:1032d800000020000208bb00f20f20000298bb008b
:1032e8000308bb000298bb00be18020000000000e3
:1032f800d1e8af00feff3700a102880010002000cf
:10330800d1a8af0000002000000006000000fe0069
:10331800d1e8af00feff3700f30f20008081610085
:103328000b003a0090468800a1468800200024003f
:1033380080468800c2468800be18020000000000cf
:10334800d1e8af00feff370010002000d1a8af0081
:1033580000002000000006000000fe00d1e8af00d9
:10336800ebff3700f30f20008081610017003a005f
:1033780090468800a14688001000240080468800f6
:10338800a00f2000a00288000000200001082000f3
:10339800f40f20003208bb000498bb003208bb00c1
:1033a8000490bb00be18020000000000d1e8af0086
:1033b800feff3700d2a8ec00d2a8ec002100b10033
:1033c800f4ff3a0010002000d1a8af000000200050
:1033d80000000600f27f20000000610000000600e7
:1033e80002802f0000006100f2ff2f0081006100c1
:0433f80000000600cb
:020000040000fa
:0433fc00ffff370098
:020000040000fa
:083400004e1f04000000000053
:020000040000fa
:08340800721d04000000000029
:020000040000fa
:08341000841d0400000000000f
:020000040000fa
:08341800941d040000000000f7
:020000040000fa
:083420007a1d04000000000009
:020000040000fa
:083428008c1d040000000000ef
:020000040000fa
:083430009c1d040000000000d7
:020000040000fa
:08343800001a0400000000006e
:020000040000fa
:08344000d81d0400000000008b
:020000040000fa
:08344800461d04000000000015
:020000040000fa
:083450004e1d04000000000005
:020000040000fa
:08345800a41d040000000000a7
:020000040000fa
:08346000001a04000000000046
:020000040000fa
:08346800001a0400000000003e
:020000040000fa
:08347000001a04000000000036
:020000040000fa
:08347800001a0400000000002e
:020000040000fa
:08348000001a04000000000026
:020000040000fa
:08348800441e040000000000d6
:020000040000fa
:08349000fc1d04000000000017
:020000040000fa
:08349800001a0400000000000e
:020000040000fa
:0834a000001a04000000000006
:020000040000fa
:0834a800be1d0400000000003d
:020000040000fa
:0834b000001a040000000000f6
:020000040000fa
:0834b800001a040000000000ee
:020000040000fa
:0834c000001a040000000000e6
:020000040000fa
:0834c800001a040000000000de
:020000040000fa
:0834d000001a040000000000d6
:020000040000fa
:0834d800001a040000000000ce
:020000040000fa
:0834e000001a040000000000c6
:020000040000fa
:0834e800001a040000000000be
:020000040000fa
:0834f000001a040000000000b6
:020000040000fa
:0834f800ba1e040000000000f0
:020000040000fa
:08350000a21e040000000000ff
:020000040000fa
:08350800001a0400000000009d
:020000040000fa
:08351000001a04000000000095
:020000040000fa
:08351800001a0400000000008d
:020000040000fa
:08352000001a04000000000085
:020000040000fa
:08352800001a0400000000007d
:020000040000fa
:08353000001a04000000000075
:020000040000fa
:08353800001a0400000000006d
:020000040000fa
:08354000001a04000000000065
:020000040000fa
:08354800001a0400000000005d
:020000040000fa
:08355000001a04000000000055
:020000040000fa
:08355800001a0400000000004d
:020000040000fa
:08356000001a04000000000045
:020000040000fa
:08356800001a0400000000003d
:020000040000fa
:08357000ec1e04000000000045
:020000040000fa
:083578007c1e040000000000ad
:020000040000fa
:08358000d21e0400000000004f
:020000040000fa
:08358800001a0400000000001d
:020000040000fa
:08359000001a04000000000015
:020000040000fa
:08359800001a0400000000000d
:020000040000fa
:0835a000001a04000000000005
:020000040000fa
:0835a800001a040000000000fd
:020000040000fa
:0835b000001a040000000000f5
:020000040000fa
:0835b800001a040000000000ed
:020000040000fa
:0835c000001a040000000000e5
:020000040000fa
:0835c800001a040000000000dd
:020000040000fa
:0835d000001a040000000000d5
:020000040000fa
:0835d800001a040000000000cd
:020000040000fa
:0835e000001a040000000000c5
:020000040000fa
:0835e800001a040000000000bd
:020000040000fa
:0835f000001a040000000000b5
:020000040000fa
:0835f800001a040000000000ad
:020000040000fa
:08360000001a040000000000a4
:020000040000fa
:08360800001a0400000000009c
:020000040000fa
:08361000001a04000000000094
:020000040000fa
:08361800001a0400000000008c
:020000040000fa
:08362000001a04000000000084
:020000040000fa
:08362800001a0400000000007c
:020000040000fa
:08363000001a04000000000074
:020000040000fa
:08363800001a0400000000006c
:020000040000fa
:08364000001a04000000000064
:020000040000fa
:08364800001a0400000000005c
:020000040000fa
:08365000001a04000000000054
:020000040000fa
:08365800001a0400000000004c
:020000040000fa
:08366000001a04000000000044
:020000040000fa
:08366800001a0400000000003c
:020000040000fa
:08367000001a04000000000034
:020000040000fa
:08367800001a0400000000002c
:020000040000fa
:08368000001a04000000000024
:020000040000fa
:08368800001a0400000000001c
:020000040000fa
:08369000001a04000000000014
:020000040000fa
:08369800001a0400000000000c
:020000040000fa
:0836a000001a04000000000004
:020000040000fa
:0836a800001a040000000000fc
:020000040000fa
:0836b000001a040000000000f4
:020000040000fa
:0836b800001a040000000000ec
:020000040000fa
:0836c000001a040000000000e4
:020000040000fa
:0836c800001a040000000000dc
:020000040000fa
:0836d000001a040000000000d4
:020000040000fa
:0836d800001a040000000000cc
:020000040000fa
:0836e000001a040000000000c4
:020000040000fa
:0836e800001a040000000000bc
:020000040000fa
:0836f000001a040000000000b4
:020000040000fa
:0836f800001a040000000000ac
:020000040000fa
:08370000001a040000000000a3
:020000040000fa
:08370800001a0400000000009b
:020000040000fa
:08371000001a04000000000093
:020000040000fa
:08371800001a0400000000008b
:020000040000fa
:08372000001a04000000000083
:020000040000fa
:08372800001a0400000000007b
:020000040000fa
:08373000001a04000000000073
:020000040000fa
:08373800001a0400000000006b
:020000040000fa
:08374000001a04000000000063
:020000040000fa
:08374800001a0400000000005b
:020000040000fa
:08375000001a04000000000053
:020000040000fa
:08375800001a0400000000004b
:020000040000fa
:08376000001a04000000000043
:020000040000fa
:08376800001a0400000000003b
:020000040000fa
:08377000001a04000000000033
:020000040000fa
:08377800001a0400000000002b
:020000040000fa
:08378000001a04000000000023
:020000040000fa
:08378800001a0400000000001b
:020000040000fa
:08379000001a04000000000013
:020000040000fa
:08379800001a0400000000000b
:020000040000fa
:0837a000001a04000000000003
:020000040000fa
:0837a800001a040000000000fb
:020000040000fa
:0837b000001a040000000000f3
:020000040000fa
:0837b800001a040000000000eb
:020000040000fa
:0837c000001a040000000000e3
:020000040000fa
:0837c800001a040000000000db
:020000040000fa
:0837d000001a040000000000d3
:020000040000fa
:0837d800001a040000000000cb
:020000040000fa
:0837e000001a040000000000c3
:020000040000fa
:0837e800001a040000000000bb
:020000040000fa
:0837f000001a040000000000b3
:020000040000fa
:0837f800001a040000000000ab
:020000040000fa
:08380000001a040000000000a2
:020000040000fa
:08380800001a0400000000009a
:020000040000fa
:08381000001a04000000000092
:020000040000fa
:08381800001a0400000000008a
:020000040000fa
:08382000001a04000000000082
:020000040000fa
:08382800001a0400000000007a
:020000040000fa
:08383000001a04000000000072
:020000040000fa
:08383800001a0400000000006a
:020000040000fa
:08384000001a04000000000062
:020000040000fa
:08384800001a0400000000005a
:020000040000fa
:08385000001a04000000000052
:020000040000fa
:08385800001a0400000000004a
:020000040000fa
:08386000001a04000000000042
:020000040000fa
:083868009e1e04000000000098
:020000040000fa
:08387000ea1e04000000000044
:020000040000fa
:08387800001a0400000000002a
:020000040000fa
:08388000001a04000000000022
:020000040000fa
:08388800001a0400000000001a
:020000040000fa
:10389000efd022000eff24000e018800000000007f
:1038a000000020000000e0000200320000012000c3
:1038b0002002880014000700a00107000000e000bb
:1038c00003003a00405029000100200002003700a8
:1038d0000000200001002000810f70000100320074
:1038e0000f000700000020000000e000020032008e
:1038f0000000020000000000a28c02000000000096
:103900000040da000000fe00600a21000000e00034
:103910000200320000202000900188000000060014
:10392000a1028800800478000000eb001f0037002f
:10393000e284440054a0b4009905ba00e284440033
:1039400054a0b4009906ba00e284440054a0b40024
:103950000006eb00476fde00fd07b200ae018800f5
:10396000636ce10003003a000ad801000000eb009c
:103970000e003700606ce10008003a00004deb00db
:103980000a05e800020039003420ec000af0a0002b
:103990008b05e900f9ff3e00040037006168e10093
:1039a000010032000086eb000b00070019c7ba00c7
:1039b0001905ba000e04e00003003a000a00e00016
:1039c000dbff3a0000000600fe07b200ae028800ee
:1039d0008a047800f5ff37000cd0a300e20f4d00f9
:1039e0001c00390089027800354dba000a05e8004c
:1039f000020039003420ec000af0a0008b05e90039
:103a00000f003200254dba000a05e8000200390017
:103a10003420ec000af0a0008b05e9000800320019
:103a20000c00e0000600320015cdba000a05e800df
:103a3000020039003420ec000af0a0008b05e900f8
:103a40008984e80054a0b4000b00e000e2ff3a00d3
:103a5000000006009902ba00055d78008b05e900b8
:103a6000f7ff3200c82ade00055d78008b05e9000b
:103a7000f3ff32000c00e000f1ff320019ddba0064
:103a8000eeff370000800400000000000048ab009b
:103a9000010032000048a900004006003600f8008e
:103aa000809fbe00829fbe00849fbe00869fbe0096
:103ab0000068ab000500320032aeab0002003200fd
:103ac000703b070032aea9000068a9004f03be009a
:103ad0004f02be004f01be004f00be003600f9008d
:103ae000004006003600f800c028a9000000eb00e6
:103af000403107003600f80039310700c048a900fe
:103b0000100020003b3107003600f800c068a90013
:103b100020002000373107003600f800c088a900d7
:103b200030002000333107003600f800c608a90035
:103b3000700020002f3107003600f800c408a900eb
:103b4000b00020002b3107003600f800809fbe0037
:103b5000829fbe00849fbe00869fbe005f3d07001f
:103b60000088a9004f03be004f02be004f01be00f7
:103b70004f00be003600f900004006003600f80095
:103b8000809fbe00829fbe00849fbe00869fbe00b5
:103b90001037070001e8a9004f03be004f02be0026
:103ba0004f01be004f00be003600f9000040060085
:103bb0003600f800809fbe00829fbe00849fbe003a
:103bc000869fbe00f0360700b0b022001048e80023
:103bd00011c0b3000000e900014878000028a900e6
:103be0004f03be004f02be004f01be004f00be009b
:103bf0003600f90000400600809fbe00215681007b
:103c000010568100808f500009003a003056810024
:103c10000088a30006003a003ce2ab00feff320041
:103c200060ac22001090a0002188a9001400370089
:103c30000188a9001000370040ac220090007800f5
:103c40009180fb00411288001008e80081ad22003d
:103c5000908f100002003a006880500020568900c2
:103c600060ac22001080a100215681001056810016
:103c7000808f5000020032003e82ab00eeff320027
:103c80004f00be0000400600809fbe00821f7800eb
:103c900013003700e0ab2200900078002212800071
:103ca000824878001008e80001ad2200908f1000d3
:103cb00002003a0068805000f055890060ac220094
:103cc0001010a100f155810000568100808f500036
:103cd00003003a0060ac22001000a0000200370090
:103ce0003e22ab00ebff32000168a9004f017800d3
:103cf0004f00be00004006003600f800809fbe0066
:103d0000829fbe00849fbe00869fbe003c22ab0007
:103d10000300320020ee2d008d2f07003c22a90069
:103d20000628a9004f03be004f02be004f01be008f
:103d30004f00be003600f9000040060017a8a90099
:103d4000004006003600f800809fbe00829fbe0043
:103d5000849fbe00869fbe00d32a07004f03be008b
:103d60004f02be004f01be004f00be003600f900fa
:103d7000004006003600f800809fbe00829fbe0013
:103d8000849fbe00869fbe00eb2a07004f03be0043
:103d90004f02be004f01be004f00be003600f900ca
:103da000004006003600f800809fbe00829fbe00e3
:103db000849fbe00869fbe00ec2a07004f03be0012
:103dc0004f02be004f01be004f00be003600f9009a
:103dd00000400600004006003600f800809fbe004c
:103de000829fbe00849fbe00869fbe004961ab00db
:103df0000400320000de21001040a0004961a9004b
:103e00000500370049a1ab000300320000de2100ad
:103e10001040a10049a1a90000ef80000018a300f4
:103e20000d00320000ef800044800a000000000016
:103e30007d3607000004e000040032003e2ea8009a
:103e4000006020004421b70003003700f09f2f00de
:103e50004421b6003e2ea80000de210044810a0065
:103e600010000000c208dd00f27180000220a100f5
:103e700002817000f271880010e0a000f3390700a1
:103e80000608a9004f03be004f02be004f01be004e
:103e90004f00be003600f900004006000040da0086
:103ea0000000fe00889fbe008004780060588100fa
:103eb0000000e00004003a000e0007000084eb0060
:103ec0000000e00008003500685881000900e000ab
:103ed0000500320009004400060007000000e00071
:103ee00001003d000084eb00080078004f04be0094
:103ef00000000600800078000100e00003003a00a6
:103f0000e0b0220060588900000005000080eb004e
:103f1000e2d02200828f500002003e0061588900ea
:103f20000000eb000000060001007800820078002d
:103f30003ce2ab00feff3200053837000000050010
:103f4000839f68000100e00002003d006000100057
:103f5000e08018000300e00002003d006001110055
:103f6000e08119009b0207004f00e00002003b00c7
:103f700060001000e080180000000600140020001f
:103f800017063700f4ff2f00150637000001be00aa
:103f90003f0007000470a70003f0a1006509b1000d
:103fa000160032000d0035006828e10006003500db
:103fb000f0ff2f00f1ff27000300e00013003b009b
:103fc000010028000000050000004000818048003a
:103fd0008502e900fcff3a0008003700f88f420034
:103fe00002003c008000eb00000005008100d100d1
:103ff0000080d3008502e800fcff3a000300e000e7
:1040000002003b0060001000e08018000000060085
:104010000001be001e0007000470a70003f0a1000d
:1040200003f8a30013003a006509b1001000320044
:10403000090035006928e100020035000100280070
:104040000000050000004000818048008502e90072
:10405000fcff3a0000000600f88f42000500350022
:104060008100d1000080d3008502e800fcff3a0007
:10407000000006008000eb00000005004f89de0014
:1040800082017800f10537006011b800ff053700a4
:10409000c70ade00f107b200f50fb20008003200d7
:1040a000e1cf4200020032000170a00024000500b0
:1040b000810f700001003200040805004400050073
:1040c000810f700002003a00140005008502e9002b
:1040d0000000400081c04800fcff3b000170a000d0
:1040e00024000500889fbe003200f8000320200055
:1040f00093018800030028008384600001f0a10080
:10410000b2fd200093f42300020150008381580087
:104110000c0031000200200003982300020150002f
:104120008381580003003900280407003900070084
:1041300083040700898068003200f9004f04be0044
:10414000000006008a9fbe008c9fbe000200200077
:104150000398240000015100818159001e0039009c
:104160001a040700580507000005eb000100e000f5
:1041700003003d0060001000e08018000a002800e5
:10418000630362006333b8000606010021000700e4
:1041900000000000080037006d0007000005eb007c
:1041a000050037001b0007000af0a20002003700dc
:1041b000670007000a002800610407008980680082
:1041c0008a8068004f06be004f05be003200f9002d
:1041d0004f04be0000000600700007000778a3002f
:1041e000050032000160a0008980700012022000ea
:1041f00082848800f3ff37000768a30003003200c1
:10420000f0ff2f00f1ff2700f8ff37006000b80033
:10421000f6ff37000100e000120032006f0341009a
:1042200010003500809fbe00821f78000002be0093
:10423000820178007c0307006403410003003d0015
:1042400043002000048829000200370053002000aa
:10425000c48729004f020700cf0178004f02be003b
:104260007103070000000600889fbe003200f800be
:10427000032020009301880003002800838460004d
:1042800001f0a100b2fd200093f4230002015000d0
:1042900083815800100031000200200003982300a1
:1042a000020150008381580006003900c70307004f
:1042b00027000700220407003200f9004f04be0067
:1042c0000000060001f82300000020003200f90081
:1042d0004f04be00000006008a9fbe008c9fbe00f7
:1042e0000200200003982400000151008181590040
:1042f000b9ff3900b5030700f30407000005eb0020
:104300000100e00003003d0060001000e0801800a4
:104310000a002800630362006333b8008004eb00e6
:10432000060601000a0007000005eb00a2ff3700a7
:10433000b8ff07000af0a2009fff37000400070043
:104340000a0028009cff3700b2ff07009aff3700e1
:104350000100e0000e0032006f0341000c00350048
:104360000002be00820178002f03070064034100b1
:1043700003003d004300200044892900020037006b
:1043800053002000048929000202070000000600f3
:10439000000020000100240002000500270020008a
:1043a00001f0a70017002000470bde00f60fb20057
:1043b000040032000643e8000a0032004702b3005e
:1043c0000000060001037800f607b2000603700043
:1043d00002003a000703b300000006008702b300a2
:1043e0000000060001037800f607b2000603700023
:1043f000020032000770a000000006000760a00065
:104400000000060007f82700078361000638e10076
:1044100004003a00f70720008783610087037100da
:1044200001003a0003f0a200889fbe008a9fbe00f0
:104430008c9fbe00470ade000480a100c71ade0080
:104440000580a100070028000785600087856100be
:10445000f70f20000720e1009e0032000728e1004e
:104460009c003200010678000400e000b400320035
:10447000f7072000878060000170a0000500e000c1
:10448000c0003200f7072000878161000370a000a0
:10449000050652000f003a000b50e1000b003200fd
:1044a0000308e10002003a000200e1007e00320051
:1044b0000204500083845800040031000001fd0014
:1044c0008101fd008402fd008a05fd006044b80002
:1044d000210037000520e10005003d000001fd003e
:1044e0008101fd008402fd008a05fd0005065200e1
:1044f0007a60e100050035000170a1004722dd006f
:10450000848070008a807000630037006044b800c7
:10451000ef02660007ff2f00070666000500e000b7
:1045200006003400f08312008714dd000511de0060
:10453000071bdd00060171008519de007060e100d7
:104540000500350009047800820478000301780032
:104550008001eb00700656000b50e10003003a00aa
:10456000020040008380480004003700600414000b
:10457000e0841c0002005800838058000188a300da
:10458000060032008100d1000080d3008984d3006e
:104590000884d3000402e800270037000178a30054
:1045a00025003a000100e000030032008186cf00c0
:1045b000698656000a0037008c0020000000e000e9
:1045c00004003a0009007800880478000004eb0039
:1045d000700252008086cf000d0646000c06e900ee
:1045e0007060e10006003500800078000900780066
:1045f000880478000004eb00700656007002520038
:104600000c00e0000c0034008c08dd00f003160004
:104610000703de00868070000c00dd00074bde0023
:10462000060070008c4cdd000743de0086847400b9
:104630000c44dd000c0252006120e1002000350036
:10464000610160000700280087816400f7ff2700f0
:1046500087836400070374000300e0000600320053
:1046600082037300040032000000e800e08048008c
:104670000188a3000e003a00f70f20000720e10098
:104680004a003d000170a1004722dd008100720058
:104690008a8070000000be004f06be004f05be00bd
:1046a0004f04be00000006006000b800faff3700ab
:1046b0008100d1000080d3000402e800eeff370043
:1046c0000401780089017400f30207008a807000f9
:1046d000f1ff370031ff0700070278000001fd00fd
:1046e0008101fd002dff070087027800850372001d
:1046f0000778a300040032000001fd008101fd00e5
:1047000040020700e4ff3700850362000768a3004a
:10471000080032000b50e10003003200f0ff2f00d0
:10472000f1ff2700dcff37000001fd008101fd00e3
:10473000d9ff37000468a300d7ff3200faff370023
:10474000f8ff2700888360000b003a000000e000bb
:1047500009003a0083036400828373000200320080
:104760000200be00ccff37000b50e100ceff3a0044
:104770000200be00c8ff3700140020008100640062
:104780003eff3700f8ff27008883610004003a00ed
:104790000200e00002003a008c007800beff370003
:1047a000150020008301640039ff370001f827005d
:1047b0000000200081007500b7ff37000383680008
:1047c0000700280007036300470ade000480a100f9
:1047d000c71ade000580a100f70f20000720e100c6
:1047e000420032000728e10040003200889fbe00ee
:1047f0008a9fbe008c1f7800f107b200f307b20059
:104800000400e000640032000170a0000500e00038
:10481000680032000370a00085054200eb07b1007c
:104820000204b8000302b8008484440060854a0092
:10483000020ab800848444000a854a00030ab800ca
:1048400004054500040033000804d0008984d20028
:104850000a85d2008b05e9006158e1003d00350072
:104860000210200009016100030820008981610015
:10487000f70720008783640008867300c84cde00b9
:10488000c853dd00878474004855de000300e00053
:104890000600320082037600040032008904e8003a
:1048a00060054d000a88a3000c003a00f70f2000b5
:1048b0000758e10044003d000a70a100c75ddd001b
:1048c0000a8575008a007300090078004f06780099
:1048d0004f05be004f04be00000006000a05d100cf
:1048e0008984d3008b05e800f0ff3700881f78002b
:1048f00006047800a9fe0700070278000001fd0009
:104900008101fd00a5fe0700870278008503720083
:104910000778a300050032000001fd008101fd00c1
:10492000b80107004f0478000000060085037200fc
:104930000748a30003003200f0ff2f00f1ff27001b
:10494000f8ff37000000200001f827008880700081
:10495000f4ff3700880178004848dd00808171004d
:104960004848de00c850dd0001007000c850de007d
:10497000060478000b017800470207008880700069
:10498000d2ff37000500e0000500320017002000cc
:104990008e0007009dff370081037000f9ff3a0089
:1049a000860078004f0678004f05be004f04be0019
:1049b0000000050083037100f9ff3200270020008a
:1049c0008200070094ff370001f8270086807000fe
:1049d000f4ff370002025000838258006100390062
:1049e00003037100620032000503720059003200b7
:1049f0000300e0005500330017003a000100e0001a
:104a00004b0032000208e1000600310005000900f9
:104a10004288d800010178008001eb008000eb00a3
:104a2000000006006110e100550032000002be00e7
:104a3000050009008280d800800278000400780018
:104a4000050009004288d800010178008001eb00d0
:104a50008500780000000600889fbe008a9fbe0087
:104a60008c9fbe000386cf000c06e9008c1f7800e7
:104a70008c19dd00f00216000512de008481710041
:104a80000c11dd000003be008004eb00053cde00dd
:104a90008c3bdd000532de00848373000c33dd00c7
:104aa0000700780088007800050009004388d800d6
:104ab0000202b8000306b8008c82420060854e00f6
:104ac0008005eb000402530085825b000a055c0050
:104ad0008b855c000b0033008000eb004f067800f4
:104ae0000c21de00700516000a2ddd000a017100a0
:104af0008c29de004f06be004f05be004f04be00ed
:104b0000000006000202420083824a0060054d0058
:104b1000e0854d000000e9000b00e000eeff3d00e5
:104b20000202420083824a000000e900eaff3700e7
:104b30000000e00012003200050009000280d800e9
:104b4000010178008000eb00000006000401be00b7
:104b5000010037006011b800100020008000eb0059
:104b6000000006000001be006000b8000000060062
:104b70000001be00f0ff2f00f1ff2f000000060033
:104b80006011b8000000060092ff07000200be009e
:104b900000000600e1024100020035004f0407005a
:104ba00000000600e202410002003500a2020700f8
:104bb00000000600e30241000200350090030700f8
:104bc00000000600e503070000000600889fbe0005
:104bd0000004eb006138e10016003a000100e0003b
:104be00008003a00c800de004800dd008800200010
:104bf0000100e00003003a00c800de004800dd00cc
:104c0000680444008184cf00e98454000600340025
:104c10008908dd00f08314008703de0087807000c0
:104c20000900dd0009044400610214004f04be00c5
:104c3000000006000300e00008003a00c811de0092
:104c40004811dd00880020000300e00003003a0066
:104c5000c811de004811dd00680444008384cf00e1
:104c6000e9845400060034008919dd00f083140043
:104c70008713de00878171000911dd0009044400fb
:104c8000e1021400e9ff3700889fbe008a9fbe0042
:104c90008c9fbe001b0020000202be00058668003b
:104ca00006002800060666004709de00f20fb20083
:104cb000820032000243e80080003200c729de0093
:104cc000f30fb2007d0032000343e8007b003200a6
:104cd000f107b2000170a000f507b2000570a00056
:104ce000c708dd004903de00868070004700dd0054
:104cf000c72add004923de00868272004722dd00dc
:104d0000030551000403500085835800030031005f
:104d100000004000818048000a05e9008c1f7800ef
:104d20008a9fbe00040050008580580004024200a3
:104d300085824a0000004000818048000005eb00a9
:104d40000004be006033b8000406be000d48e10058
:104d500056003100050009004dccd8000c01b80008
:104d60000d02b8008481410060824a0082835300b2
:104d700003045c0084845c0060055d000a00e000c0
:104d800025003a00800578000d40e100490031001f
:104d90008800780007007800050009004d88d800d9
:104da0000c01b8000d02b8008481410060824a0005
:104db0006003110083835b0004045c00e0845c00fa
:104dc0000900e00021003a004f01be000300e000ae
:104dd0002b003200e3016000070673008c81710034
:104de00001003200640070004200de004e5edd0013
:104df0000c007000c258de0001e0a0005001070066
:104e0000cf017800818071004f06be004f05be00c3
:104e10004f04be00000006008c8343000d044c00cc
:104e2000e0844c0060054d000000e9000a00e0004d
:104e3000d4ff32008c8343000d044c00e0844c000e
:104e400060054d000000e900ceff37000c03430071
:104e50008d834b0060044c00e0844c000000e900ae
:104e60000900e000d8ff32000c0343008d834b00a3
:104e700060044c00e0844c000000e900d2ff3700e1
:104e80004200de004e5edd000c007000c258de0005
:104e900001e0a000cf0178000300e000daff32005b
:104ea00060001000e0801800d7ff3700f0ff2f00ef
:104eb000aaff3700f0ff2f00b9ff37000404be003f
:104ec00036fd0700870678000004fd008104fd0020
:104ed00032fd0700078366000678a3000300320056
:104ee0000960a7000800be002c0037000d78a30061
:104ef000020032000800be00280037000778a30037
:104f000026003a0001f0a10009f0a1000668a30004
:104f100003003200f1ff2700f0ff2f00baff370037
:104f20000d68a300030032000800be008c807000f2
:104f3000b5ff37000768a30007003a000648a30042
:104f400003003200f1ff2700f0ff2f00aeff370013
:104f50000d48a300030032006000b8008c80700090
:104f6000a9ff37000748a3000400320001f827001a
:104f7000000020008c807000a3ff37009300070022
:104f80000004fd008104fd00020578008f00070089
:104f90000802be008a01780059ff37000160a000b6
:104fa000120220008284880097ff37000100e00091
:104fb000120032000500e00010003200889fbe00a1
:104fc0008a9fbe008c9fbe000006eb0001f8a30084
:104fd0000300320060001000e08018000cf0a00018
:104fe00005f8a3000300320060021200e0821a00fc
:104ff0000cf0a2008005eb0041ff37006000b80014
:10500000020005000478a300040032000578a30024
:10501000030032000168a30001003a000200be0054
:105020000160a00000000600889fbe008a9fbe00ad
:105030000004be000405be00030141000201e800b7
:105040008000eb000a42b8000b43b80086824200a1
:1050500060804b000a4bb80086824200070048007f
:10506000e08048000b4bb8000600400087804800f5
:105070000103700002003a000001eb00120037004b
:105080000900e00002003d000a0050008b8058003b
:105090000b00e00002003d0008005000898058002d
:1050a0008582420000004800818048008101df00c5
:1050b0000300e00004003200858242000000480046
:1050c000818048000201e9004f05be004f04be0088
:1050d0000000060001f8a3001d003a004709de00a9
:1050e000f40f20000410e100260032000200e0006e
:1050f0002c003200f107b200c708dd004902de00d3
:10510000848070004700dd0001e0a000f207b100dc
:10511000de000700f207b0000404200084016000f4
:105120004700de00490add0004007000c708de0009
:105130000300e0000200320061004000e08048000f
:10514000f107b2004711dd00828070000000060008
:10515000f4ff2700048260008002720001003a0020
:105160000000060006f827000620e10012003500c6
:105170008102630006826a00040270000e003200a1
:105180000600370004f827000482680003003a0094
:105190000400200000026a000b0032000160a00041
:1051a000000006000082700001003a0000000600c6
:1051b00006000700d6ff3700120220008284880014
:1051c000f0ff2f00f1ff2700000006004f0ade006d
:1051d0004709de00f107b200f20fb2000b00320007
:1051e000f207b1000170a000c708dd00c901de00b0
:1051f000838070004700dd000400a6000000060068
:1052000060001000e080180000000600810f7000b0
:1052100001003a00000006008182cf000500e00096
:1052200010003e008082cf00ee8242007028e10034
:105230000400390007003e00800078000000eb0009
:105240000e003700708312008600de000500dd00ce
:105250000a003700708352008600dd000000eb007a
:1052600006003700e28252008508dd0070831200dc
:105270000603de00868070000500dd007507b000c3
:105280000501ea000400a60000000600600010000e
:10529000e0801800000006000100e0002600320057
:1052a000610111007810e10023003c006022b80089
:1052b0007010e100040035008002780001007800e1
:1052c0008000eb00700151000200e0000900340092
:1052d00070031100062add00822ade008603dd004d
:1052e000878272000200de00860bdd00070070007e
:1052f0008208de0084817100f4ff270004826200ce
:1053000084817100040028008482620061026000d0
:1053100005f0a600000006000482710007003200bc
:105320000000e800e0804800000006000002be0027
:105330006000b800efff37006000b8000000060012
:1053400081017000270032008002eb0001f8a30009
:105350000300320060001000e080180015002000fb
:10536000f40720000202420020003400f70320006e
:105370008703600006042000000363000208200089
:10538000000161004700de00c909dd0000807100f6
:10539000c708de000600e000080032008703710045
:1053a000060032001000b0000180b0000188a300a8
:1053b00002003200c108de000402e800f107b2007a
:1053c000f30f20000320e10003003d004722dd0031
:1053d000810072002900370001f827000000eb006f
:1053e000260037006000b8000000060068021200c6
:1053f0007f20e100020034006000b8001f00370089
:105400006011b8007020e1000400350080017800d0
:10541000010078008000eb00700252000400e00000
:1054200009003400f00312000719dd008419de00c2
:105430000703dd00868171000400de00070bdd003c
:10544000060070008408de00f7ff270083836300f6
:105450008703710006002800030363000700320081
:105460000700e00003003a00610160000281730060
:10547000020032001000b0000180b0000500a6005c
:105480000000060001f0a00000000600810370008b
:1054900068003200889fbe008a9fbe008c9fbe00bd
:1054a0003200f80008202000980188000208a300bc
:1054b000030032000000d0008180d2000201e90028
:1054c00081017800800278000002eb00821f7800e2
:1054d0004a1cde000801b100c984290069417c0032
:1054e0000281fb000214b8004644dd000340e100e5
:1054f000010036000201e9004111dd001200b30095
:105500000214b8004444dd000340e100010036000d
:105510000201e9004111dd001200b3000214b800dd
:105520004244dd000340e100010036000201e900d1
:105530004111dd001200b3000214b8000340e10085
:10554000010036000201e9000214b800088651008b
:105550004763dd00492cde000803730082047800f5
:105560004834de000940e1002e003100050009004a
:105570000983d8004811dd00000171000214b80051
:105580000006eb00840678000885520089855900e2
:10559000040031000201e9000214b800088552003d
:1055a00089855900820478000b04d1008a83d300d6
:1055b0000d83d3000938e1001c003100050009000b
:1055c00049bbd8008002eb000003b8000204b80019
:1055d0000804440089844c00e0824a0087034400a8
:1055e00060824c00e0814a000603560087835e001b
:1055f00004025d0083815d00010031000000e900cc
:105600008200d1000080d3004f0178004191de007c
:105610003200f9004f06be004f05be004f04be0029
:1056200000000600f00f2000d2ff3700f0ff2f002f
:10563000e4ff3700020005006218e1001b0035009e
:10564000889fbe008a9fbe008c9fbe008301e90038
:105650000004be000205be00040678003c00be0047
:105660000801be00800107003c004100bc804900e9
:105670008b05e900faff3c000103df008606ea0023
:10568000050034008d08dd00708216008402de0003
:10569000858070000d00dd00060178004f06be0019
:1056a0004f05be004f04be00000006000300e000ee
:1056b00002003a006000b800020005003400be009d
:1056c0000200050000000000889fbe008a9fbe0007
:1056d0008c9fbe000006be0082057800741b2c0063
:1056e000c5172500f3ff2f004ffe0700ea00070053
:1056f000809fbe008101700036003200e70150003b
:10570000608258000d0031000000e9004980290046
:105710006c00b800890440000c00be000b0178004a
:105720003902be00b90178002d0207003902be001f
:10573000b90178002a02070021003700750207002e
:1057400014d52e0075482600030020000c03be006f
:105750000b0478000006be00820578008501070072
:10576000d3ff2f00838145000218e10014003400ac
:105770000003be00020478000c00be000b0178009c
:1057800094462800152d2400e3fd2f007901070021
:10579000e3fd2f00838145000218e100080034007a
:1057a0000003be00020478000c00be000b0178006c
:1057b000b4282600654c2400f3fb2f006d01070080
:1057c0004f02be004f06be004f05be004f04be0094
:1057d000000006000c00be000b017800f8ff370047
:1057e000889fbe008a9fbe00841f78007c0007004f
:1057f0004f00780011003300f0ff2f00838f6c0002
:1058000006003b00040565000a00a70008003700f9
:1058100009f0a6001000200008003700820f540095
:10582000838f5c00030039001000200001003e005f
:105830000000200009f0a7000000ea004f05be00ac
:105840004f04be000000e00000000600881f780042
:10585000030478000300e00007003d006000100032
:10586000e080180060011900e081190002003b008f
:1058700001f02d00030037000400070008f0a70026
:1058800001f0a0004f04780000000600889fbe00d1
:105890008a9fbe00008270000402710004827100c1
:1058a000260032000004be000200be006011b800f5
:1058b0006b092000950220000182cf000a00390008
:1058c0000541b1000082cf00070039000541b10059
:1058d0000982cf00040039000541b1000882cf00e1
:1058e000010039000541b1000542520012003200aa
:1058f0000a003b0082817100610164008100d100d7
:105900000080d3008984d3000884d3008b05e8008d
:105910000442e800f7ff3a0007003700080444009b
:1059200089844c0000004800818048008b05e90014
:105930000442e900f9ff3a00030007004f05be00ea
:105940004f04be0000000600810020006180550069
:105950000b003d000b00200061fe2f000100e10064
:105960001d00340082817100610164008904d1004e
:105970000884d3000000e800faff3a00710020001c
:105980006100640003007000020060000900320042
:1059900061044400e0844c000988a5000500320041
:1059a0008b05e8006808e10002003a008904d10094
:1059b0000884d300f20f20000258e10005003d00ea
:1059c000c75ddd00f907b200898075000800780026
:1059d000000006000bf827008b007800000005008f
:1059e0000004be00aaf907000003be000405be00c3
:1059f0000200be00a6f90700844f750000000600f3
:105a00006218e1001d003500889fbe008a9fbe001d
:105a10008c9fbe008301e9000004be000205be00a9
:105a2000040678003c00be000801be008e0007009e
:105a30008381d1000281d3003c004100bc80490039
:105a40008b05e900f8ff3c000103df008606ea0051
:105a5000050034008d08dd00708216008402de002f
:105a6000858070000d00dd00060178004f06be0045
:105a70004f05be004f04be00000006000300e0001a
:105a800002003a006000b800020005003400be00c9
:105a900002000500000000000100e00021003200cb
:105aa0008201e8002b0035007e0211001e00340048
:105ab0006011b8007020e10004003500800178001a
:105ac00001007800cf88de00700252000400e00080
:105ad0000700320003017800700312008601dd0028
:105ae0000400de00860bdd00070070008488de0005
:105af000e10260000600280003036300f7ff2700af
:105b000083836300828373000600e0000500320097
:105b1000078172000200e0000200320061004000d4
:105b2000e0804800000006007e10e10001003a001d
:105b3000000006000100e00003003500f1ff27002f
:105b4000f0ff2f00000006000100280000002000e8
:105b5000000006006000b800000006006218e100c6
:105b60003b003500889fbe008a9fbe008c9fbe0010
:105b70008301e9000004be000205be0004067800af
:105b8000620545000a05ea003c00be007050e100d5
:105b9000170035000d0032007f50e1000100340095
:105ba000fa012000f00655000801be002e00070093
:105bb0000d99de00cf99de003c004100bc80490019
:105bc0008b05e900f8ff3c00140037000801be0017
:105bd0002500070003017800cf99de003c0041005a
:105be000bc8049008b05e900f8ff3c000b00370042
:105bf000f00615000801be001b0007000a11de00b8
:105c00008d1add00050171008a99de003c0041001b
:105c1000bc8049008b05e900f6ff3c000103df0072
:105c20000605ea00050034008a08dd007002150050
:105c30008402de00858070000a00dd000601780025
:105c40004f06be004f05be004f04be000000060018
:105c50000300e00002003a006000b8000200050006
:105c60003400be0002000500889fbe008a9fbe006f
:105c70008c1f78000002be000203be000620b800a0
:105c8000062db8008a80400060814d000724b800ce
:105c9000072db8008a84440060864d0081004400ce
:105ca00002814c00e0014e000700e00008003500d2
:105cb0000500e00002003d00060151008781590007
:105cc0004f0678004f05be004f04be0000000600de
:105cd0000401510085815900f5ff37006218e10089
:105ce0001e003500889fbe008a9fbe008c9fbe00ac
:105cf0008301e9000004be000205be00040678002e
:105d00003c00be000801be00d7ff07008100d000a4
:105d10000281d2008381d2003c004100bc80490056
:105d20008b05e900f7ff3c000103df008606ea006f
:105d3000050034008d08dd00708216008402de004c
:105d4000858070000d00dd00060178004f06be0062
:105d50004f05be004f04be00000006000300e00037
:105d600002003a006000b800020005003400be00e6
:105d70000200050060001000e080180002003700fb
:105d800060031300e0831b00889fbe008a9fbe0053
:105d90008c9fbe00830441000405b800050eb800c6
:105da0000501b8008285450003064e00e0864e00de
:105db0000409b8008285450003064e00e0864e00c7
:105dc0000100e00002003d000406560085865e00ea
:105dd0000500e00002003d000006560081865e00de
:105de0000d00e000740032000700e0007500320092
:105df0006022b8008783d1000683d3008582d30058
:105e0000090054000000e9001b003c003b00350085
:105e10000804e8000a0042008b804a000c014b0095
:105e20008d814b0009010700040454000300e000c9
:105e30000e003200090028000918e10006003200b7
:105e40000200be00080178004f06be004f05be00ec
:105e50004f04be00000006000200e000f8ff3a0018
:105e600003002c000804e800f5ff37006000b800cc
:105e70000001eb00f4ff37000804e8007e00e100b9
:105e800001003400e0012000cfecde00ef006000f4
:105e90000100e0000c003200f08110000155de002e
:105ea0000359dd0002057500815dde000361dd0040
:105eb000828575000166de000369dd00020676005a
:105ec00081eede00010050004400de006501b800f4
:105ed000020601000a0042008b804a000c014b00c0
:105ee0008d814b00cfff37000b0042008c804a00b1
:105ef0000d014b0089814b00caff370062844400ca
:105f00000000ea00030420000300e1000100340067
:105f100000042000cfbcde00ef0060000a00320069
:105f2000f0811000032add00812ade000331dd004c
:105f3000828272000133de000339dd000203730048
:105f400081bbde00010050004400de006501b800a6
:105f5000020601000a0042008b804a000c014b003f
:105f60008d814b00afff37000a8042008b004b0051
:105f70000c814b008d814c00aaff37000a004300c2
:105f80008b804b000c814c008d814c00a5ff3700ad
:105f90000a8043008b804c000c814c008d814c00aa
:105fa000a0ff37000a8044008b804c000c814c001d
:105fb0008d814c009bff37000600be000801780071
:105fc000a1ff37000c01be000a00be00628444003d
:105fd00094ff370060001000e080180002003700d6
:105fe00060021200e0821a000100e0003f0032006f
:105ff0000500e00039003200889fbe008a9fbe0085
:10600000820378008304510004003d000002fd007b
:106010008102fd008904ea00830378000101780011
:10602000800078000000eb0005037800840278000f
:106030000002eb0006056900070035000281d1006f
:106040008180d3000080d3000683d1008582d300f5
:106050000482d3008703e8007048e10006003500a1
:106060007f48e10029003c000502780086027800a4
:106070004fb3de00f08454000900e0000800320055
:106080000922de00708514008a2ddd000b027200eb
:10609000892ade008a35dd008b82720009b3de00ba
:1060a00004004000858048000601490043000700c5
:1060b000838353000200e000090032000b00280037
:1060c0000b10e1000c003200010078008200780023
:1060d000070178004f05be004f04be000000060017
:1060e0006000b8000001eb00faff37000400be00ba
:1060f00003017800000006000100e000f2ff3a0012
:1061000002002c008703e800efff3700f9012000b0
:10611000d5ff37000003eb008101df008301ea00b7
:106120006f18e1000f0032000300e00006003200ab
:106130008308dd00708211008402de00858070001b
:106140000300dd00030343000100e00014003200ff
:10615000040028000408e100130032007e0113004f
:10616000000006008100d1008080d3004f00dd00d8
:10617000f60020008101df008301ea006f18e100d2
:10618000e9ff3a008100d1008080d3000000eb00dd
:10619000e60120008101df008301ea00e2ff370011
:1061a0006000b800020005000000e000ebff3a00cc
:1061b00001002c000603e900e8ff37008001eb0036
:1061c0000202df000402ea006f20e10010003a0042
:1061d0000201d1000181d3008080d3004f00dd0097
:1061e000f30020000202df000402ea006f20e10059
:1061f00007003a000201d1000181d3008080d30062
:106200000000eb00e30120000202df000402ea00cc
:106210000400e00009003200f00212000411dd0069
:10622000050bde00060171008408dd000503de00b9
:10623000868070000400dd00848141000200e000df
:106240000100320000000600030005000002eb0020
:106250008302df008502ea006f28e10023003a0094
:106260008301d1008281d3000181d3008080d300db
:106270004f00dd00f40020008302df008502ea0009
:106280006f28e10019003a008301d1008281d30018
:106290000181d3008080d3000000eb00e4012000e6
:1062a0008302df008502ea006f28e1000f003a0058
:1062b0008301d1008281d3000181d3008000eb00f3
:1062c000d40220008302df008502ea006f28e1008b
:1062d00006003a008301d1008281d3000001eb0067
:1062e000c40320008302df008502ea000500e0000d
:1062f0000c003200708312008519dd008613de0069
:10630000878171000511dd00860bde000701710039
:106310008508dd008603de00878070000500dd0053
:10632000050242000300e000010032000000060008
:10633000040005000c00fa00889fbe0000047800ed
:10634000f0ff2700d0bf9f008004eb0099bf9f00a3
:1063500088bf9f00a8bf9f00200c2000b0bf9f00f7
:1063600078815700cfb09700708057001000070069
:106370000fb89700094878008fb897000880500040
:106380004f04be000080fa0000000600d00190001b
:10639000028151004240a90003003400100178003e
:1063a000014978000208e8000100780000000600ba
:1063b000f6874700889fbe008a9fbe008c9fbe0064
:1063c0008e1f780000057800a1b79f0002077800b3
:1063d0008004eb008d023700afb097008100e80029
:1063e000a1b79f0051c2b300814f500003003a0093
:1063f000afb097000004eb0011003700ba00900026
:106400000000fb000168a3000700320009017800ca
:10641000800078000a007800dcff07000000e00040
:1064200005003a00790237008a00780083020700ed
:10643000e10f4000750232008904e8007302370062
:106440000100780031417800d3c2b300834f51007e
:106450000c00320007003c00edc15100834f510099
:106460000a003200ebc14100834f51000d003a0099
:106470000800370003c3b300834f510009003a00fe
:10648000060037000830a000edff37000800a0002c
:10649000ebff37000810a000e9ff37000820a0003c
:1064a000e7ff37000818a300010032000800a10030
:1064b0000838a300010032000820a1008200fb0080
:1064c0000103b100e98f50000c003e00000178008c
:1064d0008000eb00ea08b900b200fb000103b10044
:1064e00080804000020078009201fb000303b100ad
:1064f000e98f5100f7ff3600060037008000eb00ff
:10650000a3c2b300834f510002003a00ce007800ce
:106510000000e8008005eb00e2c2b300904f1100dc
:1065200008003a0008e0a00064415100d04f11007b
:10653000020032000001780006003700ce05780026
:106540000000e8000001780008003700ea58b900b0
:106550008085410002007800b201fb000303b10016
:10656000e98f5100f9ff3600f6ff3700324078001e
:10657000a2b79f00c3c6b300834f5000250032006e
:106580000f003c0032c6b300824f5000880032003a
:1065900004003c000004e000210232006b41510085
:1065a0000f00370042c6b300824f50001700320080
:1065b00065414100824f500094003a0013003700bb
:1065c00032c7b300824f50001b00320007003c006e
:1065d00064415100824f5000100032000241e80037
:1065e000824f500089003a000f00370052c7b300b5
:1065f000824f50008a00320063414100824f5000b8
:1066000082003a00e0df9f0009003700e0df9f00d2
:10661000850037000840a000d4ff3700e0df9f006e
:106620000860a00080003700e0df9f000850a00055
:106630000870a0007c003700e0df9f004e0078006b
:10664000000678000000e00001003a008c9b220068
:106650000c0178000000eb00010037000000e800aa
:10666000800141001304e000fcff3a00800678003e
:106670000b00e000030032008d8f55000100310057
:106680008b0678008005eb008d8f500001003600ee
:106690008d855000680464002a003a00110037001c
:1066a0003a0090000068a30007003200090178005a
:1066b000010220000a00780034ff07000000e0001b
:1066c00006003a00060037008a0078000002200029
:1066d000da010700e10f4000010032008904e80000
:1066e0008b05e9000b00e000edff3a008085eb0030
:1066f000140037003a0090000068a300090032003f
:106700000c007800b000fb0000067800090178005a
:106710000a0078001dff07000000e00008003a00b2
:10672000080037008c0078003100fb00010678007b
:106730008a007800c1010700e10f4000010032002b
:106740008904e8000d0078008006e9000000e00000
:10675000e8ff3a000800e000ac0132001100370009
:106760003a0090000068a300070032000901780099
:10677000010220000a00780004ff07000000e0008a
:1067800006003a00060037008a0078000002200068
:10679000aa010700e10f4000010032008904e8006f
:1067a0008b05e9000b00e000edff3a009701370090
:1067b0004e017800cf91de00c81ade004818dd00d7
:1067c0004812de0004027000e4df9f000848a300c6
:1067d000080032000404e00006003200e14f4200ed
:1067e00004003200f4df9f0082e79f002d002000ac
:1067f00002003700f2df9f001d002000e2fd2f00a5
:106800000f0141000206e80099ff3700e0df9f001a
:10681000ecfd2f000f0646001d00200094ff3700fe
:10682000e0df9f00080cb30008017800020cb20002
:10683000700064000200e0000d003a000000e0007b
:10684000020032004e06be00020037004e067800fd
:10685000cfe6de00e00f5600e08f5e000a003d004c
:106860003800b30060061600e0861e000600370000
:106870000000e000020032004e06be0002003700b9
:106880004e0678008006eb000b00e00005003a00a1
:106890008c8576000bf0a7008b05ea008b05e900dc
:1068a000cf5dde0088017800030cb200e3b79f00e3
:1068b00000042000808f51002300320003003c00c0
:1068c0000300e000080032002d003700000820001f
:1068d0006fb29700800f52000d003200000c2000b4
:1068e000800f520026003a00029c220010c0b30024
:1068f00064014100b20f5600a28f5e001f003900f4
:106900000040e800ea4f5000f9ff3a001b00370052
:1069100010c0b3000201200003002000820f5600c7
:10692000838f5e0015003900441add00cc11de00b3
:10693000830172004411dd000040e800e84f500080
:10694000f6ff3a000d00370010c0b30082002000af
:1069500003002000820f5600838f5e00070039007d
:10696000431add00cd11de00830172004311dd000a
:106970000040e800eb4f5000f6ff3a00e0df9f00d8
:106980006fd997000200fb008b0f500002003d0002
:10699000ebdf9f0003003700808f550001003d00b2
:1069a000800578000100e00003003200630064000d
:1069b000010032008100e90008e8a3000500320070
:1069c0008b8f5000020034008b8050000100370094
:1069d0008000eb00efd997000300fb000002eb0002
:1069e000d4b79f00808f5000020034000080500018
:1069f000d0b79f000828a300400032006101640066
:106a00000818a3000f0032003a0090000068a300ad
:106a100006003200b10220000200e0000100320056
:106a20008180e800090178000d003700b0022000e5
:106a30000200e000010032000080e8008a007800d7
:106a40000e0037000200e000100032003a00900013
:106a50000068a3000700320009017800010220004d
:106a60000a00780049fe07000000e00006003a0036
:106a7000060037008a00780000022000ef000700bf
:106a8000e10f4000010032008904e8005fb0970088
:106a90000000e0005a003200bcb79f00cdb79f0055
:106aa000800678003a0090000068a30007003200da
:106ab00009017800010320000a00780033fe070076
:106ac0000000e00006003a00060037008a00780067
:106ad00000032000d9000700e10f40000100320050
:106ae0008904e8008d06e900eeff3a00ddb79f005b
:106af0003fb69700cfb6970041003700dfb197004f
:106b00000300e0001a0032000838a30018003a0021
:106b1000bcb79f00cdb79f00830678003a00900075
:106b20000068a3000700320009017800010220007c
:106b30000a00780015fe07000000e00006003a0099
:106b4000060037008a00780000022000bb00070022
:106b5000e10f4000010032008904e8008d06e900e1
:106b6000eeff3a00ddb79f003fb69700cfb6970023
:106b7000610164000818a3000f0032003a00900081
:106b80000068a30006003200b10220000200e0000d
:106b9000010032008180e800090178000d00370013
:106ba000b00220000200e000010032000080e80096
:106bb0008a0078000e0037000200e000100032006a
:106bc0003a0090000068a300070032000901780035
:106bd000010220000a007800ecfd07000000e00040
:106be00006003a00060037008a0078000002200004
:106bf00092000700e10f4000010032008904e80024
:106c00000b03e900e331b900b2b79f004233dd0066
:106c1000009c2200000343008e01780093b79f0080
:106c200008077800060478005c0037008b05e9004f
:106c3000000420006fb29700800f5200380032002d
:106c400003003c000400e000080032003e00370072
:106c500000082000efb09700808f50002000320025
:106c6000000c2000808f500037003a000e48a3002f
:106c7000100032001802be000401be000c00be006d
:106c8000f4b79f0085bf9f0052f70700e0df9f0029
:106c90000000fb00cf80de007fb297008fba970024
:106ca0000401be00a20b07000006560081865e00ac
:106cb0000700370018017800050009000286d80097
:106cc000a2002000050009000280d800e1df9f003b
:106cd0006fd997000243b000e2df9f001a0037002f
:106ce000709a22000e58a300010032006099220021
:106cf000019c2200810054000c01be008100e900cb
:106d0000030033008301d1000281d300fbff370071
:106d1000ef006100010040001040780009003700da
:106d20000c00be003fb297000402e90003003300ec
:106d30008100d1000080d300fbff37006740600076
:106d40000043b000e0df9f00ba0090006fd99700c9
:106d50000200fb000168a30007003200090178006f
:106d6000800078000a00780088fd07000000e0003d
:106d700005003a00050037008a0078002f00070060
:106d8000e10f4000010032008904e8003fb29700a3
:106d900063025200b4b79f00640454000b00e0008b
:106da000a2ff3a000e0478001fb797000838a3002e
:106db000160032005fb097000000e00013003400be
:106dc000000478003a0090000068a3000700320039
:106dd00009017800010220000a0078006bfd07001d
:106de0000000e00006003a00060037008a00780044
:106df0000002200011000700e10f400001003200f6
:106e00008904e8000804e900eeff3a00afb09700fb
:106e100011407800e0df9f000004e0006efd3a00c2
:106e2000090078004f0778004f06be004f05be00ee
:106e30004f04be006f01b10000000600889fbe0035
:106e400001047800b80090008084eb000118a300d2
:106e50003a003200180190000198a30002003a00a5
:106e60000200e00035003a000190a00031049800d3
:106e700080047800f90fb2000200e00002003a003e
:106e800028009000000c7800ea8f540005003a00ba
:106e90000178a30003003a0088007800d0002000a9
:106ea000e6ff070018009000d8009000810f500006
:106eb0000b0032000000e800100498001800780071
:106ec00009487800000ce80011c0b30080af220030
:106ed00001487800ea8f540018003a000500370096
:106ee0008800780009407800a20a07008004780032
:106ef00012003700380090000088a3000f00320015
:106f000018019000a80090004800900006f40700c7
:106f100098009000810f500004003200380090006b
:106f20000003b300300498008084eb000000eb0005
:106f30001004980028009000000c780009007800e8
:106f40004f04be0000000600889fbe008a9fbe005e
:106f50008c9fbe0081ae2200425781000200e000fb
:106f60000b003a0064814000425789009257890023
:106f7000a100980081578900214190000204a000df
:106f8000a2409800614190000204a000e2409800f5
:106f9000670440004244de004244dd008457810023
:106fa000e1b02200e9d02200818454002d002000ad
:106fb000050009008d04d800800678000886e800e6
:106fc0000c0646008001eb00020037001300200091
:106fd0000b027800a44090000108a30002003200d8
:106fe0000a003700120a780014017800a2409000cd
:106ff0000108a300fbff320088004200810f51000e
:10700000020039000800e00041003d0094057800ce
:107010000b00a100848f5500edff3e00e18f510071
:10702000eaff3a008d0f540002003600890f540029
:10703000130039006141b8006148b900b4ff2f0066
:10704000050020000000520081805a00800f51008e
:10705000818f5900020035006405440009003700a3
:10706000e0b022001ad122000005550008054500b5
:10707000050009000985d8008985b900010037009d
:107080000c0578000a00780086f30700e10f400045
:1070900005003a00640544000a00780081f3070007
:1070a000e10f40002b0032009157810080087800ea
:1070b00091578100e481400021419000830f5000ee
:1070c000020032000204a000010037000204a10007
:1070d000a2409800640555000a0540000a0878009f
:1070e0009a57890081ae2200010d780092578100e5
:1070f000a24090000104a00021419800a04090000f
:107100000104a100214098008001eb00b0ff37008e
:1071100081578900810f5100070036001101be0020
:10712000a2578900b3578900940878000041eb000a
:1071300081578100a240980083578100030a78009c
:10714000a44090000104a000214298006400420085
:10715000010037000000eb004f06be004f05be00e7
:107160004f04be00000006000000e00008003200ee
:107170006400500081578100810f500001003100f0
:1071800080578900a04090000104a1002140980090
:1071900000000600889fbe008a9fbe000004be005b
:1071a0000900e00007003a000000eb000800e000e2
:1071b0003600320008007800ebff07000000eb000b
:1071c000320037000800e00003003a0009007800b0
:1071d0005dff07002d003700640054009005780023
:1071e00068f897000008a300020032000800780049
:1071f000ddff07000900780053ff070080047800d6
:107200000000eb000900e00020003200888f5400ed
:107210001b00320069bd97000905550042d5de000c
:1072200088855500c2ddde000a0178008b0f55000d
:10723000010036000b0178004211dd008800780063
:10724000090078002d000700888f54000e003100df
:107250004255dd000a854400880f55000a003600bb
:107260000804550042c4de004244dd0008844400a6
:10727000a0578100b1578100008cbe00020037008a
:107280000800780001003700090078004f05be00b3
:107290004f04be0000000600e68747008e1f7800fe
:1072a000d0bf9f00e1bf9f000e0037005fba97007c
:1072b00014407800efb99700934078000201e9008c
:1072c000814f5000040032000080fb008180fb00f1
:1072d000010050000600370066875700041fe800d1
:1072e000030fe8000200e000f0ff3a000000eb00ae
:1072f0004f0778006f00b1000000060080017800a1
:1073000002003700b15978000201e9000200e000f4
:10731000fcff3a0000000600800178000200370000
:10732000815978000201e9000200e000fcff3a0008
:1073300000000600b041780031c1510002003a005f
:107340000304e000fbff3a000200fb00000006001f
:1073500000017800b1417800035978000304e0008f
:10736000fcff3a0000000600800078003104e000d5
:10737000feff3a000080ea000080400000000600a6
:1073800080017800060037000201e900b142780070
:1073900085597800030278000504e00006003200f9
:1073a000030278000200e000f7ff3a000200370015
:1073b000005aeb000201e9000200e000fcff3a0085
:1073c000000006000c00fa00889fbe000004780050
:1073d000f0ff2700d0bf9f008004eb0099bf9f0003
:1073e00088bf9f00a8bf9f00200c2000b0bf9f0057
:1073f00070805700a70007000fb897000948780071
:107400008fb89700088050004f04be000080fa003b
:1074100000000600889fbe008a9fbe000084fb001b
:10742000d1c6b300814f5000200036004b0620002b
:10743000050009000b84d800810578007200400027
:107440004200dd002a9622000000450002002000d4
:1074500003f023001000be00d8f407000002be00b5
:10746000a9002000050009008985d8008005780062
:10747000e9854500c25ddd008b0545001b01be00ae
:107480000400be00cdf407000002be0005000900a4
:107490000984d800010478004244dd000805450055
:1074a0001a01be000400be0018003700ea4f500069
:1074b00010003600aa002000050009000a84d80048
:1074c00001057800690440004244dd00299622004d
:1074d000088444000200200003f023001800be00ce
:1074e000b6f407004255dd008a8444001901be004d
:1074f000060037004244dd002096220008044000c8
:107500000200200003f023001800be00abf40700c7
:107510004f05be004f04be0000000600889fbe005d
:107520008a1f7800d1c6b3000004e00025003d00aa
:107530000040ea000004fb00814f50000e003400c0
:1075400042062000050009000204d800a90020001e
:10755000050009008900d800e9004000c208dd00ec
:107560002a962200810045001101be00704d810065
:10757000814d810023003700ea4f50000e00340097
:10758000a2002000050009000204d80001017800d3
:10759000690040004200dd0021962200008040008a
:1075a0004211dd00828040001101be001000be00cb
:1075b00082f407002b0037004244dd0020962200b1
:1075c000260037000004fb00814f500017003400f4
:1075d00042062000050009000204d800a90020008e
:1075e000050009008900d800e9004000c208dd005c
:1075f000ea922200810045001101be00d04b8100bb
:10760000e14b81006df407000002be000500090097
:107610000904d800010478004244dd000805450053
:107620001a01be000400be00e1ff3700ea4f50001f
:1076300008003400a2002000050009000204d80060
:1076400001017800690040004200dd00e192220063
:10765000d2ff37004244dd00e092220008044000df
:107660001800be004f0578004f04be000000060061
:10767000d0019000028151004240a9000300340073
:1076800010017800014978000208e8000100780044
:1076900000000600af02b000889fbe008a9fbe00b7
:1076a0008c9fbe008e1f780000077800a1af9f005e
:1076b000f2af9f006055b8000000eb00c0b79f001c
:1076c000a0083700afa897008100e800a1af9f0095
:1076d00051c2b300814f500003003a00afa9970098
:1076e0000000eb0013003700be0090000000fb001c
:1076f0000168a300070032004fb1970080007800b6
:107700000e007800daff07000000e00005003a00f4
:107710008c0837008e007800c8fd0700e10f40009c
:10772000880832004fb197000201e800c2b79f00fd
:10773000840837008300780033417800b4c2b30076
:10774000844f51001300320007003c006b4252008e
:10775000844f51000d00320063424200844f5100bb
:1077600012003a000d003700d4c2b300844f51001c
:107770000400320063424200844f51000b003a0083
:10778000080037000030a000eaff37000000a0002a
:10779000e8ff37000010a000e6ff370000b0a000af
:1077a000e4ff37000020a000e2ff37000018a3002c
:1077b000010032000000a1000038a30001003200e7
:1077c0000020a1008201fb000303b100e98f5100fa
:1077d0000e003e00010178008001eb0093b79f008e
:1077e000ea1ab900b201fb000303b1008481410031
:1077f000820078001202fb000403b100e90f52007e
:10780000f7ff360093b79f000a0037000002eb0035
:1078100094b79f00a3c2b300834f510005003a0004
:10782000ffaa970045017800f5af9f0092b79f002f
:107830008100e800e2c2b300914f110019003a0044
:1078400000e0a000a0b79f00a0c2b300d14f10007d
:1078500004003200010078008001eb0083b79f0034
:10786000090037007faa9700c4027800f4af9f0098
:1078700085b79f008100e800afb197000e00370088
:10788000ea1ab90084014100800078003001fb0051
:107890000203b100e90f5100f9ff360083b79f00e2
:1078a000f5ff370000c0a000a0b79f000000eb006c
:1078b00080b79f00f0ff370031407800a1af9f00f4
:1078c00072c6b300824f50003500320018003c00f1
:1078d000a3b79f0031c6b300814f5000d0003200e3
:1078e0000e003c00fcc05000814f500042003200ae
:1078f00006003c000004e0001708320081c0e900e7
:10790000814f5000e0003a003300370081c5b300da
:10791000814f5000dc003a004400370051c6b300ec
:10792000814f50002100320026003c00210037002a
:1079300002c7b300824f50003b0032000b003c00f6
:1079400064415100824f50001c003200a3b79f00d9
:10795000f1c6b300814f50002e003200e6c0500047
:10796000814f5000c8003a0012003700a3b79f00b3
:1079700051c7b300814f5000c8003200e3c040003f
:10798000814f500004003200e5c05000814f50008c
:10799000bd003a002d003700a0cf9f002700370020
:1079a000a3b79f00a0cf9f0017003700a0cf9f0074
:1079b0000d003700a0cf9f00bc0037000340a0009f
:1079c000bdff3700a0cf9f00afb1970003a0a0007c
:1079d000a3b79f00b5003700a0cf9f002fb297003c
:1079e0000450a000a4b79f00afb297000580a0008c
:1079f000a5b79f00ad003700a0cf9f002fb0970024
:107a00000050a000a0b79f00afb097000190a00069
:107a1000a5003700a0cf9f002fb197000260a00003
:107a2000a2b79f00a1003700a3b79f00a0cf9f007f
:107a3000afb197000350a000a3b79f002fb29700eb
:107a40000470a000a4b79f0098003700a0cf9f004b
:107a5000ffaa970045007800f5af9f000006780068
:107a60000000e00001003a00aca022008c00780089
:107a70000000eb00010037000000e800008140003a
:107a80001204e000fcff3a00800678000fb0970077
:107a90000000e000030032008d0f500001003100b3
:107aa000800678000004eb009fb097008d8f500097
:107ab000010036000d8450002fb19700e8046100ea
:107ac00035003a00acb79f00bdb79f000a06be0064
:107ad000cfb59700110037003e0090000068a3006a
:107ae000070032000b017800010220000e00780030
:107af000dffe07000000e00006003a000600370045
:107b00008e00780000022000ccfc0700e10f40004e
:107b1000010032008b05e8000804e9000800e000dd
:107b2000edff3a00cbb79f000c05be002fb69700c3
:107b3000bfb697000084eb00aab79f00bbb79f00b9
:107b4000170037003e0090000068a30009003200d3
:107b50000c007800b000fb00000678000b017800f4
:107b60000e007800c2fe07000000e00008003a00a6
:107b70000c0037008c0078003100fb000106780013
:107b80008e007800adfc0700e10f400005003200d8
:107b90008b05e80003003700aab79f00bbb79f0022
:107ba000cfb597000d0078008006e9000000e000e6
:107bb000e4ff3a00cbb79f002fb59700bfb5970001
:107bc0000900e0005f073200cfb4970011003700d2
:107bd0003e0090000068a300070032000901780011
:107be000010220000e007800a1fe07000000e00066
:107bf00006003a00060037008e00780000022000e0
:107c00008efc0700e10f4000010032008904e8000b
:107c10000804e9000800e000edff3a0048073700db
:107c2000ffa9970043007800f3af9f00cf80de00ec
:107c3000c809de00480add004801de0002017200ca
:107c4000a2cf9f00afb297000548a3000800320002
:107c50000204e00006003200e14f4100040032005f
:107c6000b2cf9f00c0cf9f002d0020000200370040
:107c7000b0cf9f001d002000a0fc2f000f0040008f
:107c80000006e80081ff3700a0cf9f00acfc2f006a
:107c90000f0646001d0020007cff3700a0cf9f008c
:107ca000afb09700010cb300a1b79f000170200096
:107cb0002fb1970081006100700061000100e000b9
:107cc000df04320002c8a30002003200630020007b
:107cd00083b79f000000e000080032007faa9700f1
:107ce000680252003400be002401be00f4af9f00c1
:107cf000640707000004be0003003700ffaa9700d6
:107d00004504be00f5af9f006011b8000800be003a
:107d10009af007000000e00004003d0009f0a20016
:107d20002fb097003000b300a0b79f000000eb0019
:107d3000f0a79f006011b8000800be004c070700c4
:107d40000000e00024003200e2fc2f000f0141009f
:107d50000800be00480707007fa097000000e90068
:107d6000e300b900a2002000050009000200d800cd
:107d7000f0a79f000000e00002003d000000e900c5
:107d8000f0a79f007fa697000c40ea00e3fd0700e4
:107d90000801be0089f207000005be0002002000b5
:107da00003f8230075f007000000e00002003d002a
:107db0000c06e9000700370002002000031224002f
:107dc0000a00be006ff007000000e000020035006e
:107dd0000c06e800fca79f007fa69700afb09700b5
:107de0000188a30007003a000198a300ac0232000a
:107df000e40f4600030035000fb19700820f5600d4
:107e0000630235008fb197000300e00005003200e7
:107e10002fb297000498a300020032008301e9000a
:107e200083b79f008fb2970080c0b300e88f5200e5
:107e300001003e000fe09700a0cf9f006011b80046
:107e40000800be000a0707000000e000330032000f
:107e5000afce97000d405600b0fd07000001be00f8
:107e60000800be0088f307000004be0068f00700a9
:107e700085f007000001be000800be0061f10700a8
:107e80000200200003f023003ef007000000e000a5
:107e9000050035000200200003f023000800be00aa
:107ea00061f107000004be000800be0058f00700a2
:107eb0000d01fb008201e800c219dd0024a12200af
:107ec00083014200b30f5000a38f58000700390010
:107ed000d2cc2c00c3dc23000800be0037f2070020
:107ee0000004be000c06e8000b0037004211dd0064
:107ef00002014200b20f5000a28f5800070031006b
:107f000002002000031224000800be002bf207002c
:107f10000004be000c06e900fca79f0001a02000a1
:107f20002fb197008100610000202000808f500059
:107f300026003a008fb19700ea8f5100020034000a
:107f4000a400200084b79f000800be0030f00700a6
:107f5000070037008fb297008502e90085b79f00c0
:107f6000a2002000030020000c00be0099f20700d0
:107f70000006be00e00f5000e08f580006003200ff
:107f8000a200200003002000fff20700e00f5000d5
:107f9000e08f5800efff32002fc897008000fb00f1
:107fa0000fb19700810f510008003d0002405000c2
:107fb0005afd07000001be000800be0032f30700b2
:107fc0000004be008fe19700a3cf9f001fb297006f
:107fd000650052008fb297000500500090b79f00d7
:107fe0000500e00003003a002fb0970000b8a3009e
:107ff000030032009fb097008100e90091b79f0015
:108000002fb1970063006100030032009fb1970019
:108010008301e90093b79f002fb297000428a300c3
:10802000530032003e009000610162000418a3007a
:10803000180032000068a3000a003200b1022000dc
:108040000200e000010032008180e8004fb197009b
:108050000e00780086fd07000000e00009003a00ed
:108060003a003700b00220000200e00001003200b8
:108070000080e8008e00780070fb0700e10f4000f0
:1080800032003200cfb297008502e8000506780082
:108090002f0037000200e0002c0032000068a3002f
:1080a000070032004fb19700010220000e00780057
:1080b0006ffd07000000e00006003a0023003700d3
:1080c0008e007800000220005cfb0700e10f4000fa
:1080d0001e0032004fb097000000e8000006780054
:1080e0001b0037003e0090000068a3000b00320028
:1080f0000c017800010320000e007800f4b79f0007
:1081000085bf9f005afd07007fb297008fba970086
:108110000000e0000a003a000a0037008e007800f4
:1081200000032000f4b79f0085bf9f0043fb0700ba
:108130007fb297008fba9700e10f40000100320034
:108140000c06e8008904e900030037004fb69700e9
:108150000802be009fb497000900e000e1ff3c0068
:1081600099b79f00ccb79f000404be004f003700b2
:10817000afb097000138a3001c003a004fb697003b
:10818000d8af9f00e9af9f009fb497001100370060
:108190003e0090000068a300070032000c01780048
:1081a000010220000e00780031fd07000000e00011
:1081b00006003a00060037008e007800000220001a
:1081c0001efb0700e10f4000010032000c06e80032
:1081d0008904e9000900e000edff3c0099b79f0029
:1081e000ccb79f005fac9700efac97003e009000cb
:1081f000afb19700618161000318a300180032003d
:108200000068a3000a003200b10220000200e00072
:10821000010032008180e8004fb197000e00780025
