:020000040000FA
:1000000080312D28640008007E1480318B190B1C70
:100010000D289A31562280312B280B1F2B282100C6
:10002000111C19282000111C19289C313A248031F8
:100030002B282100911D23282000911D2328863183
:10004000D02680312B282100921D2B282000921DC4
:100050002B28903101207E1009008B31282B2100A4
:10006000C80129001C082100CC00CB0129001B0875
:100070002100CB0404308E31332680312108210049
:10008000CA00200020082100C9000630CA36C90C69
:10009000890B4628FF30C9055030CA012000DE0018
:1000A0009830DF0021004C082000E10021004B08BF
:1000B0002000E00021004A082000E3002100490858
:1000C0002000E20021002A082000E5002100290884
:1000D0002000E400210039082000E600E7012200AA
:1000E00058082000E900220057082000E8006B2192
:1000F00080312200D50A0319D60A210049082200BE
:10010000D30721004A082200D43D0B305802B830F2
:1001100003195702031CEA2804302000DE0098303F
:10012000DF00220058082000E100220057082000CC
:10013000E000220056082000E300220055082000BD
:10014000E200220054082000E500220053082000AD
:10015000E400220056082000A100220055082000DB
:10016000A000220054082000A30022005308200011
:10017000A200772180312108E7002008E600220054
:1001800052082000E900220051082000E800210068
:1001900028082000EB00210027082000EA002200A8
:1001A0005108210027022000EC0022005208210003
:1001B000283B2000ED006B2180312200D701D801BF
:1001C000D301D401D501D6012100A701A801220045
:1001D000D101D20121004A082A02031DF128490851
:1001E00029020318F6283908031D1D294A082A0286
:1001F000031DFC2849082902031807293908031D93
:1002000007290430CB020030CC3BB90123292A084E
:100210004A02031D0D292908490203181229390829
:10022000031D01292A084A02031D18292908490229
:10023000031823293908031D23290430CB07031889
:10024000CC0AB901B90A09304C02803003194B02BB
:1002500003182D291330C8003B290C304C02013003
:1002600003194B0203182A294C0829009C0021007D
:100270004B0829009B00210027082804031D45295D
:100280004C08A8004B08A7005D294C082802031D54
:100290004B294B082702031851294C08A8004B088A
:1002A000A7002200520821004C02031D5B292200F6
:1002B000510821004B02031864294C082200D20087
:1002C00021004B082200D10021004A08AA00490859
:1002D000A9004808080060302100C70020005F081E
:1002E000D8005E08D700C730D90000309C29A4018F
:1002F000A5012008210403199729A601A60AA11B1C
:100300008429A035A10D7E29A435A50D210823023D
:10031000031D8C2920082202031C93292008A20215
:100320002108A33B2414A136A00CA60B8429250880
:10033000A1002408A0000800DB005808DD005708D1
:10034000DC002200BF01C00120005C0884005D08C1
:10035000850012000319BB295C30CD005908CE007E
:100360005B08C42180314D082200BF0720004E08E1
:100370002200C03DA429220040082000D80022000D
:100380003F082000D7000800D6004D0886008701EE
:10039000403FCF00413FD0004F0884005008850007
:1003A0001200253A031D5D2A4D08860001308701A1
:1003B000810741310318810A2200C101C2012100D5
:1003C000FF30A501A6012200C300C40020004D0893
:1003D00086008701403FCF00413FD0004F08840096
:1003E000500885001200643A0319052A4D0886005A
:1003F0008701403FCF00413FD0004F0884005008A4
:1004000085001200693A031D302A4D08860001302C
:100410008701810741310318810A4E088600870150
:1004200001088400023085018107003FCF00013FB1
:10043000D0004F08D2005008D300890D893B8909AC
:10044000D400D500BC005408BB005308BA005208C1
:10045000B900560824233A08CE003908CD00080018
:100460004D0886008701403FCF00413FD0004F0834
:100470008400500885001200253A031D522A4D08B9
:10048000860001308701810741310318810A253038
:10049000A200A3015608A400D6222000CD01CD0A57
:1004A000CE0108004D0886000130870181074131E7
:1004B0000318810ACD01CE0108004D08860087018E
:1004C000403FCF00413FD0004F08840050088500D6
:1004D0000008A200A3015608A400D6228031200003
:1004E0004D08860001308701810741310318810AD8
:1004F0004D2AB8002100251C832A20003808AA00B4
:100500003008BD2280312000B21B8B2A3208B70090
:100510003108B6008D2AB601B701B401B50135081E
:10052000803AB3003708803A3302031D992A36080F
:1005300034020318A82A20302000A200A3013808A2
:10054000A400D62280312000B40A0319B50A8F2AEC
:1005500021002518B12A20003808AA003008BD2241
:1005600080312000300812232108B1002008B0009B
:100570003608B0073708B13D0800AF00AD01AE0145
:100580002D082F07AB008600023087000108AC0061
:100590002C0803190800A200A3012A08A400D622EF
:1005A00080312000AD0A0319AE0AC02A2408031DB9
:1005B0002408031DDD2A2208082B2408033E860098
:1005C0008701160001040319FE2A2408033E860051
:1005D0008701403FA500413FA600240A8600403F16
:1005E000A700413FA800803AA9002608803A2902C6
:1005F000031DFC2A25082702031808002000240AEE
:10060000860001308701810741310318810A080003
:10061000A10021080B2BA000111E0C2B2008230089
:100620009A000800A400A300240886000230870076
:10063000010803191D2BA40A142B23082402A0006F
:10064000A101A01BA1030800C2003C08CA003B088E
:10065000C9003A08C8003908C700CA1F312B013049
:10066000322B0030C500C60146040319422BC709CE
:10067000C809C909CA09C70A0319C80A0319C90A56
:100680000319CA0A2200C41B472B2100A51022000F
:100690004408803A2000BD0080303D02031D532BEA
:1006A00001302200430203185A2B2000C001C00A67
:1006B000C101622B220044082000C100220043082F
:1006C0002000C000220042082000C400220041088F
:1006D0002000C30045084604031D712B2100251D81
:1006E000762BFF302000C307031CC4031F302000FB
:1006F000CB00CC012400BF01E22B20004A084904B2
:1007000048044704031D9E2B4108803ABD008030F9
:100710003D02031D8D2B0130400203189E2B20004B
:100720004408803ABD0080303D02031D992B013002
:100730004302031CEE2B2100A51CEE2BFF302000F2
:10074000CB07031CCC034B08203E860002308700F9
:100750000A30A000A101A201A3014A08A70049088C
:10076000A6004808A5004708A4009B316E238031ED
:100770002108AB002008AA009A31232280312000F2
:100780002A08303E8100FF30C007031CC103C307A5
:10079000031CC4030A30A000A101A201A3014A085E
:1007A000A7004908A6004808A5004708A4009B31F7
:1007B000CE2380312308CA002208C9002108C800BE
:1007C0002008C70020004C08803ABD0080303D0260
:1007D000031DEC2B01304B0203187D2B2000450834
:1007E0004604031DF62B2100251D0B2CFF30200095
:1007F000CB07031CCC0345084604031D012C2B30FA
:10080000022C2D30BE00BF014B08203E8600023076
:1008100087003E08810020004B08203EB0004408BD
:10082000B2004308B100420879223108BA0030080A
:10083000B9000800A12608006300CE2CCA26843126
:10084000212CB701B801B901BA012A248431A926A3
:100850008431BF2D3E2C6A2484317024843151248C
:100860008431592484315E2484313E248431A62489
:100870008431B0248431C2248431B72C6C302100FF
:10088000A100A000A2142210A40124009401283089
:10089000950097010F3092002000911121009115D1
:1008A000080021009D0120309E009F019B019C01BA
:1008B00008001030220098009901080040302900FB
:1008C0009E009F019A01990198010A309C00C03056
:1008D0009B00080068302100990022009601080062
:1008E0008C0150308D008E013B3021008C00D030C7
:1008F0008D0003308E0023008E008D0104308C00AB
:1009000024008D018C0121009517013022009D00EB
:100910002700131293121216921211129116003020
:100920002000A0001030A1009E248431003020005F
:10093000A0000830A100C6248B1508002108220061
:10094000CA00200020082200C90008003030200022
:1009500098009901CF3097002C308C268431CE2C12
:1009600001309C00FF309B009A019110D12C48303F
:1009700023009F0080309D0026309E0033309B0076
:100980009C01080001302200970008002108220085
:10099000C800200020082200C7000800200018140A
:1009A00008001C15080020005930E901E90AA700D9
:1009B0005C30B825843122003A08031D132DFF3026
:1009C0003702FF30383B0330393B0318132D8A318F
:1009D000342284310830B1268E31562684312200EB
:1009E0003A082000B100220039082000B00022009F
:1009F00038082000AF00220037082000AE00593030
:100A0000B2001030B30018258431E9006908031DD5
:100A10000B2DA12684310A30B1268E315626843121
:100A20008931CB218431A9268431BF25690808008A
:100A3000D701320803193E2D2E08B4002F08B50047
:100A40003008B6003108B7003308B800B901BA0160
:100A5000BB01B4073908B53D3A08B63D3B08B73D80
:100A60003708031D3E2D0430360203183E2D33088F
:100A700003193E2D11303302031C402D0930D700DD
:100A80005708031D502D3108A3003008A2002F087D
:100A9000A1002E08A0003308A40087258431D700C8
:100AA0005708031D852D30085038CE002F08BC0094
:100AB0002E08BD00D8016D2D123058020318712D7B
:100AC0005808023E3C3E8600870158083207B400B1
:100AD0008400850100088100D80A33085802031CED
:100AE0005C2D4F30A0000030A1003C30A200330844
:100AF000023EA3004E08A400A5018F310F278431C8
:100B00004F30A401A40A1426D7005708080024086F
:100B1000AA00AB01AC01AD012008AA072108AB3D3A
:100B20002208AC3D2308AD3DFF30AA07AB3DAC3DEC
:100B3000AD3D2A082006A5002B082106A6002C089A
:100B40002206A7002D082306A8000130A501A6054E
:100B5000A705A8012808270426042504031DB22D93
:100B60000130B32D0030A9002908031909340034DD
:100B7000A800A0001030A100A2012708702EA80034
:100B8000A9002208230403190800BD268431220885
:100B90002907A400FF3EB72684310330031922023F
:100BA000031C0800290A8600200881002908023E4B
:100BB0009A268431FE3E9A268431FD3EB726843142
:100BC000073003192202031C08002908033E9A2655
:100BD0008431FC3EB7268431093003192202031CFC
:100BE00008002909A4002A09A500A40A0319A50AD6
:100BF0002408A6002508A7000330A605A70126089B
:100C0000A907A2022708A33BFC30A205FF30A305D9
:100C10002208230403190800BD2684310130A202F2
:100C20000030A33BA90A082EA6000230A500A701A8
:100C3000A70A2608A0002730A101A20024082E261A
:100C40008431023027060319212EA503031D27082E
:100C5000031D192E2708031D01340034A3002100B1
:100C600022185C2EC426843181002100200A8600CF
:100C70000130870020002008C03F2108C13F21002B
:100C80002008860020002308810021002008033E60
:100C9000860020002208810004302100A0072008DF
:100CA000703A031D552E6C30A000A21021082006BA
:100CB000031D622E2214622E200022088600870166
:100CC0008101810AC42684310106031D0800210028
:100CD0003008031D672E6D2E672E20009115080029
:100CE000A4002008A6002408A5000130A1020030BD
:100CF000A23B210F7E2E220A031908002608860037
:100D0000013087000108A300A60A25088600870194
:100D100023088100A50A752E960017082200C60038
:100D2000C501200016082200C50420001110210072
:100D30001114080086002008810022082907A40059
:100D4000080010302200B7070030B83DB93DBA3D69
:100D5000080020001030A001A101A2005C30A30116
:100D600008002000A000A101A201A3010800860044
:100D70002008810000302302080029088600013085
:100D80008700200881000800200022088600023029
:100D90008701080058302200CD000230CE00080044
:100DA00091112400951FAD2F95132100B0012E083D
:100DB000033E86000130870001088600870181011B
:100DC000810AAE010800A21808002108AE0021081F
:100DD0008600013087000108AF00210A8600403FED
:100DE0002200CB00413FCC0004302100A1072108A4
:100DF000703A031DFD2E6C30A10022102108200640
:100E00000319A2142400161402302100B0000800B7
:100E100024009614042F2400161F122F21000430E2
:100E2000A40AC12F7D08F2007C08F100F236F10C13
:100E3000710891007C1C202F0B302100B0000800AD
:100E400003302100B00008002400161F2B2F2100C2
:100E50000430A40AC12F961406307D05F100F03845
:100E6000FC00FD017C142100AB01AB0A042F2B0315
:100E70000319542F22004B0886004C088700403F7E
:100E8000FC00413FFD004B0886004C0887004331C1
:100E900001082100AD0022004B0886004C088700A5
:100EA000423101082100AC007C08240091007C1C28
:100EB000202F05302100B00008002400161F662FE7
:100EC0002100A40A240016130530C12F2100AC0311
:100ED0002C0F742F04302200CB070318CC0A2100FA
:100EE000AF0B082F0030C12F2D08860087010108A5
:100EF000240091002100AD0A08002400161F872F4E
:100F000021000430A40AC1272400161308009615F6
:100F100008302100B00008000830B0002400961509
:100F200008002D0886008701240011088100210097
:100F3000AD0AAC030319A22F24009612063021003B
:100F4000B000A52F24009616D727240016160800F7
:100F50000030C12F0630A40AC12F21003008F10053
:100F6000F2017208003A0319B62FAA2F7108840003
:100F70000C3004020318AA2F98310435833E8200F6
:100F80000800F0002400161521002E08033E8600FC
:100F90000130870001080319D52F2E08033E860073
:100FA00001088600870170088100B0010800043044
:100FB0002200CB070318CC0A2100AF0BE22F04302C
:100FC000B0000800B001B00A080000302102613012
:100FD00003192002031CF52F21003F0A0319F22FE9
:100FE000BF0AF72FFF30BF00F72F2100BF013F08D6
:100FF0000319FC2F0130FD2F00302000A200080053
:101000000800570886008701810156089031CF20DB
:101010008831CE218831003A03191B283D278831B9
:10102000003A03190034882388310030AB2388311B
:1010300021005708942F00307F258831023A031988
:1010400013289A31782288319F268831003A031973
:10105000003484311C2400340030C62156089D31F0
:10106000862588312100E401DB01DC01E301E30A8C
:10107000E101E201D901DA01CE218831003A0319F8
:10108000482829278831003A031948280330BF2807
:101090000030C927883126082100E00020002508FB
:1010A0002100DF00200024082100DE0020002308AA
:1010B0002100DD006008031D69285F08031D692801
:1010C0005E08031D692833305D0203186928B701E3
:1010D000B70A60085F045E045D040319ED28350853
:1010E000031D74280130752800309031822088312A
:1010F000E400143A031D832801309D31E025883136
:101100002100E3018F2813306406031D8928043071
:101110008E2815306406031D8F280530E30064080F
:10112000031DE42835080319E428E1302000E1001C
:10113000DB30E200D930EA2188312100E4003408B4
:10114000031DAD28B401B40A61081E3E2200CF0081
:1011500000302100623D2200D0000130C6218831DC
:101160006408031DC128620822005002031DBC2828
:101170002100610822004F020318C1280430210019
:10118000F02821006408031DE4285C082000A10069
:1011900021005B082000A0008731E5278831003A54
:1011A0000319E428210037080319D828B801B80A20
:1011B0003608031DF1285D08C83CD8004227883155
:1011C0002100B601B60AF12821003508031DEA28DE
:1011D0000130EB280030B500F128380BBE28023072
:1011E000E30063030319FD280030AB2388312E2769
:1011F000B501B801B601B701B401570886008701EF
:1012000063088100640808000030D801D901DA01C0
:10121000DB01C62156089D3163258831210002304B
:10122000DF01DC01DD01DE00CE218831003A031947
:10123000222929278831003A031922290330210065
:10124000DE0052292200D70A0319D80A492788311B
:10125000023A031D2F2901309E31BC268831FA271E
:101260008831003A031D3529E521210033089031EA
:1012700082208831DF00133A0319422914305F06B7
:10128000031D44290430492915305F06031D4A29EE
:101290000530DE00330803195229B301CB21883110
:1012A0004727883121005F080230031DB8295E06F8
:1012B000031DB72900307F258831023A031DB72965
:1012C0002100B20A9B311A238831903103208831E2
:1012D000003A031DA729DA30E100DC30E200D83003
:1012E000EA2188312100DF000130C62188315F0802
:1012F000031DA2295B0822005002031D832921003F
:101300005A0822004F02031CA7292100B1015D08E1
:101310002000A10021005C082000A0009931FD21DF
:101320008831003A031D97292100B301B30A09301F
:1013300021003206031DAA2990311B20883121008B
:10134000B201AA291530B10A3102031CAA290430BE
:101350002100DE00F42788310030AB2388310A30C9
:10136000A3000030A401A501A6015D25883102304B
:1013700021005E060319BE290030AB232100570867
:10138000860087015E0881005F0808002000A00039
:101390002100C100080022000E11080000302000CA
:1013A0008C1A0130A0002008031DDA299927883102
:1013B000C00AE229210040080319E2297A0A031928
:1013C000E229FA0A20002008080022000E125E30EE
:1013D00097050800E400E50164080319F429610891
:1013E000031D6208031DF6290930E5006508031D89
:1013F000032A342208308631B126883156268831B6
:1014000037228831E5006508031D0A2A9A31EE2249
:101410008831E5006508031D302A143083278831A0
:10142000562688312830E3000F30E5002B2A61086A
:10143000D7006208D80064089E31C5268831E500CF
:101440006508031D252AE3012B2A0530E3038327C2
:101450008831562688316308031D6508031D172A45
:10146000CB2120006508080022000E15080010306E
:10147000CE00A030CB01CC01CD01CB008430CC001C
:101480008030CD004B30CF000330A8004F08A900BA
:101490005D30A4268831013A031D582A0330A80084
:1014A0004F08A9005C30A4268831013A0319CE0107
:1014B0004E08031DA02AC901CA01C501C601C70102
:1014C000C801882A7C2788315D30A2228831013A00
:1014D000031D702ACB1B6E2A01306F2A0030C90011
:1014E0007C2788315C30A2228831013A031D7E2A94
:1014F000CB1B7C2A01307D2A0030CA000130C50791
:101500000030C63DC73DC83D8E27883156268831FC
:101510004808031D992A4708031D992A4608031DF8
:10152000992A143045020318992A490B622A4A0B5A
:10153000622A4908031D4A08031DA02A1030CE0064
:101540004E080800B600B701AF01B001B101B80103
:10155000B901BA01BB01B201B301B401B501290857
:101560008038AF003C30A0000030A1002F30A20036
:10157000A301A30A3608A400A5010F274030A0004C
:101580000030A1002A08A2002808A3003608A40001
:10159000A5019A31C42288310230C400082B3C30A6
:1015A000A0000030A1004430A200023086312E2677
:1015B0008831B801B901BA01BB0102304406031DEC
:1015C000FC2A3B08AE003A08AD003908AC003808E8
:1015D000AB000130B8070030B93DBA3DBB3D2E0825
:1015E000031DFB2A2D08031DFB2AF4302B020130BA
:1015F0002C3B031CDD2AB7014408031D022BB70155
:10160000B70A232B0130B2070030B33DB43DB53DDE
:1016100044030319232B3B08031D232B3A08031D06
:10162000232BF53038020130393B0318232B3508C2
:10163000031D232B3408031D232BF5303202013008
:10164000333B031CCF2A440B262BB7013708080075
:1016500021000530E9001230EA00EB000730EC0011
:101660000130ED000730EE009E3084009A30850096
:10167000C83086000130870026309931CE2188316C
:10168000A030F901FA01FB01FC01FD0184000030EA
:10169000850025309931C8218831203084000130FF
:1016A000850050309931C8218831A0308400013044
:1016B000850028309931C8218831203084000230DB
:1016C000850020309931C82188317E102000682B98
:1016D0006D238831AD2588316A2BB72388317C236F
:1016E00088317A2388318A238831832384311E24E8
:1016F0009931C2299A313B2A07302100EC00FB01C5
:10170000C201C1010800882388319C238831A22EA0
:1017100084312B2C06302100EE00ED01ED0A200073
:10172000A00021006D089E238831A3238831A423C3
:101730009D317A258831FD2F8B1708002000200865
:101740002100EC00080008000030AB2388312E2770
:10175000B501B50A08002000A3000530A000230849
:101760004F25203E860001308700810108005B255F
:1017700088312000A401A50105302000A000240824
:101780004F25883175278831A00024084F258831DE
:10179000213E8600013053278831A40A0319A50A87
:1017A0002508803AA30080302302031DD92B033083
:1017B0002402031CBC2B9C2BE72C0030A3014B27DD
:1017C0008831FD2488310130A3014B278831FD2465
:1017D000883105302100E900FB2C05307906031D16
:1017E000002C0130A3014B278831FD2488311430AF
:1017F000A30000304B278831FD2488310230662C4D
:101800000230982C05307906031D162C0A30A300EF
:1018100000304B278831FD2488310130A3014B274C
:101820008831FD248831F901F90AFB2C790B252C2C
:101830000030342588319F278831031D252C5A27F5
:101840008831FD2488310130C62C02307906031D11
:101850004E2C0030342588311930A9278831031DDA
:10186000FB2C5A278831FD2488310130A3014B27F6
:101870008831FD24883122000230AF01AF0AB00167
:10188000B101B201AB2388319630A3000230A4012C
:10189000A501A6015D2588310330662C0330790649
:1018A000031D972C02307F258831023A031D682CD6
:1018B0001430A30000304B278831FD2488310130DB
:1018C000A3014B278831FD2488310430F900FB2C1B
:1018D0000030342588310330A9278831031DFB2CC3
:1018E00001302200AF070030B03DB13DB23D2000D5
:1018F000A301A30AA401A501A60122003208200029
:10190000AA00220031082000A9002200300820008F
:10191000A80022002F082000A7000030FD248831F5
:101920000130A3014B278831FD248831FB2C043082
:101930007906031DFB2C0030B32C05307906031DFE
:10194000A32C1430072C790BAE2C003034258831B1
:101950009F278831031DAE2C0A30BF2C0230790638
:10196000031DFB2C0130342588319F278831031D4E
:10197000FB2CDD2B05307906031DC82C1430A30089
:1019800001304B278831FD2488310030A301FA2B28
:1019900002307906031DFB2C0130342588319F2746
:1019A0008831031DFB2C0030A3014B278831FD2417
:1019B00088310230A3001230A401A501A601A700BE
:1019C0000130A801A901AA01FD2488314C2C210075
:1019D00069082000AD00AE012E08003A0319F12C71
:1019E000FB2C2D088400063004020318FB2C9831D0
:1019F0000435B73E82009C31A72CAB0002302B028D
:101A0000031808001330A0002B084F258831C93E69
:101A10008600013087002308C03F2408C13F250805
:101A2000C23F2608A42788314F258831CD3E860045
:101A3000013087002708C03F2808C13F2908C23F5E
:101A40002A08A42788314F258831D33E86000130EB
:101A5000532788311330A0002B084F258831D73EFB
:101A60008600013053270800A8000230280203181E
:101A70004A2D1330A00028084F25D73E860001309C
:101A80008700403FA300413FA400423FA500433FE1
:101A9000A6000800A301A401A501A6010800A20058
:101AA000A10120082218A107A035A2362208031D93
:101AB000512D210808008B130800A8000530A00054
:101AC00028084F2588316F278831031D080005300D
:101AD000A00028084F25883175278831810AA00089
:101AE00028084F25213E8600013087002308C03F8B
:101AF0002408C13F2508C23F2608C33F0800200034
:101B0000A7000530A00027084F2588316F278831AE
:101B10000319A92D5B25883105302000A000270876
:101B20004F25883188278831A300413FA400423FD8
:101B3000A500433FA6009C238831200026082504E9
:101B4000240423040319A62DA801AB2D0230A800FC
:101B5000AB2DA801A80A28080800BC259931EF215F
:101B60008831003A0319AE2DBB259D31FC25883103
:101B7000D02580310228DC2B9F2688312000AF0041
:101B80002F08031D0800F0301805AE00303A031D81
:101B9000CB2D31278831AE27003A031D63000800A2
:101BA00022004D084E040319D92D0130CD0200301A
:101BB000CE3B4D084E04031D08008A2688312308B9
:101BC000031DE82D763021020230223B031CED2D4F
:101BD0000530A0009E239D31F82D12268831003A51
:101BE000031DF92D84311A245830CD000230CE0067
:101BF000080088268831003A031D080086268831AF
:101C0000003A031D0800122688319A2688311526CD
:101C10008431D3248831EA006A08031D0800863124
:101C2000CA26080021006C080800532688312000CD
:101C30008E278831562688311F3033268831210877
:101C4000B7002008B6000630B736B60C890B242E34
:101C5000FF30B6050330B7053708AE003608AD00D3
:101C6000AF019231682A2000A300A200A20DA20DAC
:101C700021001D08200022068339220621009D0034
:101C80001D1400320032000021009D149D18462EC4
:101C90001C082000A100A00121001B082000A007B3
:101CA0000318A10A08008130970408000130A0023F
:101CB0000030A13BA23BA33B200F662E210A031D4F
:101CC000662E220A0319230A03190800A801A90194
:101CD000AA01AB012B08A7002A08A6002908A50025
:101CE0002808A4000130A8070030A93DAA3DAB3D5B
:101CF0002708031D562E2608031D562E2508031DF2
:101D0000562E1E3024020318562E6A2E4108080053
:101D1000420808003A082000A300220039082000E9
:101D2000A200220038082000A1002200370820006D
:101D3000A00008002000A0002200E80008007B1995
:101D4000013400340B170800B2003830B301B30A75
:101D5000B401B501B601B701AE01AF01B001B101E7
:101D6000A0000030A1002908A2002808A300320822
:101D7000A400A5010F2788310230BC00EF2E3830B7
:101D8000A0000030A1003C30A200013086312E2698
:101D90008831B401B501B601B70102303C06031D1C
:101DA000EC2E3708AD003608AC003508AB0034081F
:101DB000AA000130B4070030B53DB63DB73D2D084F
:101DC000031DEB2E2C08031DEB2EF4302A020130EC
:101DD0002B3B031CCD2EB3013C0803190A2F3C03F7
:101DE00003190A2F3708031D0A2F3608031D0A2F6F
:101DF000F53034020130353B03180A2F3108031D3A
:101E00000A2F3008031D0A2FF5302E0201302F3B18
:101E1000031CBF2E3C0B0D2FB3013308080025080F
:101E2000A7002408A600A635A70D200886002108D3
:101E300087002608C03F2708C13F2008023E6627CA
:101E40008831230881002008033E6627220881008C
:101E500008001430A000C3309A310F2A2100BF01BE
:101E60000800C43098009901F3309700E3308631C0
:101E70008C260B178B178431CE2CC430A001A00AFE
:101E80009A310F2A2000A0002200E90008003B142C
:101E900008007A080800A401A501A601A701A8016D
:101EA000A901AA01080087000030C03FC13FC23F1E
:101EB000C33F08000030A301A30AA401A501A601A5
:101EC000A701A70AA801A901AA010800A6000030DD
:101ED000213DA70026088600270887000800203E2D
:101EE00086000130870001080800203E860001308E
:101EF00087000530810108002130A801A80AA90047
:101F00004F08AA000800A000A101A201A301080037
:101F1000213E860001308700403F0800A001A00A52
:101F2000A101A201A3010800860087018101810AA5
:101F30000034FA012100C401C301C00108002303D9
:101F40002404250426040800C33F1330A0002B08F6
:101F5000080023062404250426040800AD011226E7
:101F60008831023A031DC62F0030C9278831260860
:101F7000031DC62F2508031DC62F2408031DC62FC9
:101F8000093023020318C62FAD01AD0A20002D0829
:101F900008002000AC000530A801A901AA01AB018E
:101FA000A0002C084F2588316F2788310319EA2FAC
:101FB0005B25883105302000A0002C084F25883192
:101FC00088278831A800413FA900423FAA00433F2B
:101FD000AB009C2320002B08A6002A08A500290896
:101FE000A4002808A30008002200BB35BC0DBD0DCD
:101FF000BE0D08007B1801340034FF30FF2F0800AD
:102000000800921108002000A101DD229031123A4F
:10201000031D1628192090312000A0001030200246
:10202000031C1428013015280030A10020002108CD
:1020300008003E080800442090312000A000DD2266
:102040009031123A031D0800043020002002031CC6
:102050003328220059085A04031933280130D902C1
:102060000030DA3B0800033020002002031808008B
:10207000003022005A020B300319590203180800DD
:10208000D90A0319DA0A08003D0808002000A60052
:102090002608031908008B31B72390310030FB204C
:1020A0009031F4208931CB2190318931E5295708CD
:1020B00086000430870181005608B1208931CE2185
:1020C0009031003A031973288F313D279031003A3F
:1020D0000319732821005708860001308701810108
:1020E000810A0F21003400308D317F259031023A72
:1020F0000030031D08008B31AB23903121005708BD
:102100008F31942FD400D50154080319A7288A31A0
:1021100034229031212190312A2490313124903180
:10212000FB2028302000A000A101A201A3018E31D4
:102130005626903180312F209031D5005508031D4F
:10214000A3282621D5008931CB219031AC28F42059
:1021500090310030FB20903121005408182155089F
:1021600008002000A90029080319080000308B315D
:10217000AB239031B7278D315D2590310030FB20A6
:102180009031F4208931CB2190310B2190310030F6
:102190000F2190310030182100308931C6292000EC
:1021A000A90029080319080000308B31AB239031B6
:1021B000B7278D315D2590310030FB209031F42020
:1021C0008931CB2190318931E52190312000A00166
:1021D000A101A201A3010E2190310B219031003009
:1021E0000F2190310030182929009E132000121170
:1021F00022008E1108002000A300903022009800D9
:102200001C302000230203180729230808291B304B
:10221000A100A2011D298F31992708000800200084
:10222000A000200803191629FB150800FB1108005F
:102230002000A0002100C2000800A0002200990098
:10224000080022000E16A130970408000530D001C6
:102250008E313326903121082100CF002000200844
:102260002100CE000630CF36CE0C890B3329FF304B
:10227000CE050F30CF051F308E3133269031210827
:102280002100D300200020082100D2000630D336E0
:10229000D20C890B4729FF30D2050F30D3055308E4
:1022A0002000AE00210052082000AD00AF01AF0AAF
:1022B00068229031DD229031D10053082000EB00DC
:1022C000210052082000EA00210051082000EC0003
:1022D000ED01442490314E082000A00021004F0859
:1022E0002000D5279031FF2190319C279031433039
:1022F000B100AF30B000AF01AE010E269031A5277E
:102300009031210052082000A00021005308200035
:10231000D5279031FF2190312308CA002208C90037
:102320002108C8002008C700E52290314A08E300D0
:102330004908E2004808E1004708E000E323903143
:1023400063082100CD00200062082100CC0020009D
:1023500061082100CB00200060082100CA0053085A
:102360002000A100210052082000A00021004D08FB
:102370002000A50021004C082000A40021004B08EB
:102380002000A30021004A082000A2003F2790312E
:10239000003A0319DA2921003B08BB0A2000EF00AC
:1023A00033306F02031CFC290030FB2090312100E8
:1023B0001430F629013021005302DE300319520295
:1023C0003B08031CF929BB0A2000EF000B306F0209
:1023D000031CF02921005108FF3EE0229031BB018F
:1023E0000C30210051020318FC291530BB01D0002C
:1023F000FC290319FC29BB03210050080800A80090
:102400002808031DA31F142A2009AA002109AB00D4
:102410002209AC002309AD00AA0A0319AB0A03196B
:10242000AC0A0319AD0A1C2A2308AD002208AC002F
:102430002108AB002008AA0023082204210420045C
:10244000031D272AA001A101A201A30108009630C3
:10245000A900FE302D0503193A2AA90AFB2790315D
:10246000292A0130A90AAA070030AB3DAC3DAD3D99
:10247000FB279031FF302D050319482A312A0230FD
:102480002902031C4A2AA903AA35AB0DAC0DAD0DD8
:10249000AC1F3F2A291CAC13A9362908A700A601A6
:1024A000A501A4012408AA042508AB042608AC044D
:1024B0002708AD042808031DA31F5F2AAD172D08A8
:1024C000A3002C08A2002B08A1002A08A0000800E5
:1024D000B401B5012D082E040319912A2D08A0007E
:1024E0002E08A1001030A201A301A701A600A5019A
:1024F000A4019E2290312308B3002208B2002108D3
:10250000B1002008B0003308031D8A2A01303202CE
:10251000031C8D2AB401B501912A3108B500300899
:10252000B4002F08031D992A3508A1003408A00023
:102530003C2C3508A1003408A000342CA801A901C6
:10254000AA01AB0123082204210420040319D42A80
:10255000AC01AC0AA31BB12AA035A10DA20DA30D9D
:10256000A92AA835A90DAA0DAB0D23082702031D22
:10257000C32A22082602031DC32A21082502031D9F
:10258000C32A20082402031CCE2A2008A402210802
:10259000A53B2208A63B2308A73B2814A336A20C80
:1025A000A10CA00CAC0BB12A2B08A3002A08A20096
:1025B0002908A1002808A000080021006B080800D5
:1025C0002000A0002100EB0008004E08D70080305A
:1025D000D7054E35DE00CD1B5E145E080319F82AC0
:1025E0005E0FF62ACB01CC01CD01CE01CD17FB2A1F
:1025F000CB01CC01CD01CE014A088039D7064A353E
:10260000DF00C91B5F145F0803190E2B5F0F0C2B33
:10261000C701C801C901CA01C917112BC701C801E7
:10262000C901CA014A08490448044704031D2B2B69
:102630008030CB01CC01CD01CE01CD047F30CE0462
:102640005708CE044E08CA004D08C9004C08C800FF
:102650004B08C70008005E08031D332BC701C801E3
:10266000C901CA0108005E08D800D9015F08D80274
:10267000031CD9037F30D8070318D90A4E08D600A7
:102680004D08D5004C08D4004B08D300CB01CC0139
:10269000CD01CE01DA01DB01DC01DD01DF011A3001
:1026A0005F0203187F2B5F080319642BD335D40D09
:1026B000D50DD60DCB35CC0DCD0DCE0DDD1B4B1470
:1026C000DA35DB0DDC0DDD0D4A085602031D722BD9
:1026D00049085502031D722B48085402031D722B32
:1026E00047085302031C7D2B5D174708D302480897
:1026F000D43B4908D53B4A08D63BDF0A4F2B560846
:10270000550454045304031D5A14CD1B962BCB358A
:10271000CC0DCD0DCE0DDD1B4B14FF30DA35DB0DAE
:10272000DC0DDD0DD807031CD903852BDF01DD1F70
:10273000AB2B5A08CF005B08D0005C08D1007F307B
:102740005D05D200510450044F0403194B18A92B06
:10275000AB2BDF01DF0A5F080319BD2B0130CB076C
:102760000030CC3DCD3DCE3D4E1CBD2BCE37CD0CEB
:10277000CC0CCB0CD80A0319D90AE6279031031DDB
:10278000C32BFF305802031CCA2BFF302000D80097
:10279000E02790312000E6279031031DD12B013036
:1027A00058020318D82B2000D801E0279031D70118
:1027B00020005808DE005E1CDF2BCD17E02BCD1368
:1027C0005E36CE00202BAE2790310310660D670DCC
:1027D000E9006908031DF12BE001E101E201E301D9
:1027E0000800AE2790311F30E736E60CE50CE40C0C
:1027F000890BF42B6408E8009630E217E301E90244
:10280000E91F0E2C6908803A973E031CEC2BE33637
:10281000E20CE10CE00CE90F072C1B2C20306902C4
:102820000318EC2B690803191B2CE035E10DE20DB0
:10283000E30DE903122C680803190800E009E10917
:10284000E209E309E00A0319E10A0319E20A03199C
:10285000E30A080029009E172000121122008E159D
:10286000080021006A08080021082200E500200075
:1028700020082200E400080021082200EB002000CC
:1028800020082200EA0008004330CA00AF30C90027
:10289000C801C7016C08A0006D08D5279031FF2141
:1028A00090312308B1002208B0002108AF002008B1
:1028B000AE006A08A0006B08D5279031FF21903147
:1028C0009C2790310E269031A5279031E52290313A
:1028D0004A082100C800200049082100C700200044
:1028E00048082100C600200047082100C500BC0A96
:1028F0003C080739C72790314508C03F4608C13F0B
:102900004708C23F4808C33F3F302200B600B50128
:10291000B401B3012100C9014908C7279031403FE4
:102920002000A000413FA100423FA200433FA3007E
:10293000220036082000A700220035082000A6004B
:10294000220034082000A500220033082000A40043
:10295000D824903123082200B6002000220822004B
:10296000B500200021082200B40020002008220029
:10297000B30021000830C90A4902031C8C2C220034
:1029800036082000E300220035082000E200220083
:1029900034082000E100220033082000E000E32397
:1029A00090316008EE00EE36EE36EE366E08632F9C
:1029B0002308B0008030B0052335B200A21B3214CA
:1029C00032080319EB2C320FE92CA001A101A2015E
:1029D000A301A217EE2CA001A101A201A3012708C7
:1029E000B1008030B10531083006031D301727359E
:1029F000B100A61B311431080319062D310F042D27
:102A0000A401A501A601A701A617092DA401A501EE
:102A1000A601A701320831020318302D301F122DF4
:102A20008030B0063208B3003108B2003308B1007C
:102A30002008B3002408A0003308A4002108B30034
:102A40002508A1003308A5002208B3002608A2002B
:102A50003308A6002308B3002708A3003308A70003
:102A6000B3013108A800A9012908AB0032082802E7
:102A7000AA00031CAB032B08803AAC0080302C0268
:102A8000031D442D1A302A02031C612D2000230847
:102A900022042104200403194F2D0130502D003051
:102AA000B300A001A101A201A3013108B200662D6B
:102AB000331C5E2D33360138B3005F2DB336BF278C
:102AC0009031200031083202031C582D301B802D1C
:102AD0003208031D6C2DEC2F2408A0072508A13D0A
:102AE0002608A23D2708A33D231CE02D331C7C2D86
:102AF00033360138B3007D2DB336BF279031E02D3A
:102B00002308803AA8002708803A2802031D922D46
:102B100026082202031D922D25082102031D922D55
:102B2000240820020318BD2DFF30A800A900AA0028
:102B3000AB0020082402AC002108253BAD00220890
:102B4000263BAE002308273BAF002C08A8072D0822
:102B5000A93D2E08AA3D2F08AB3D2B08A3002A084B
:102B6000A2002908A1002808A0008030B006B309FF
:102B7000B30FC52DCE279031C52D2408A0022508FE
:102B8000A13B2608A23B2708A33B230822042104DB
:102B90002004031DDE2D3308031DDE2DEC2FA03590
:102BA000A10DA20DA30DB31B2014331CDA2D0314A9
:102BB000B30DDB2DB3353208031DB203A21FCF2D99
:102BC000B101B31FEB2D33087F3903192018E92D0C
:102BD000EB2DB101B10A31080319F82DCE27903140
:102BE000231CF82DA337A20CA10CA00C320FB20AA3
:102BF000320A031D3208031D042EA001A101A20107
:102C0000A30132080319B001321C082EA217092EA5
:102C1000A2133236A300B01BA31708003108BA0074
:102C20008030BA053135C000B01B4014400803198C
:102C30001F2E400F1D2EF6279031B017212EF6279C
:102C4000903135088039BA063535BB00B41B3B14CA
:102C50003B080319312E3B0F2F2EF1279031B4176B
:102C6000332EF12790313B08031D4008031D3D2EF4
:102C7000AE01AF01B001B10108002E08A000340878
:102C8000282790312108C6002008C500BC00BD01DE
:102C9000BE01BF014608C100C201C301C4012F0823
:102CA000A000330828279031210882279031C107DE
:102CB00001300318C2070318C3070318C4073008FC
:102CC000A0003208282790312108822790317227EE
:102CD00090312F08A00032082827903167279031C3
:102CE0002E08A000330828279031672790313E082E
:102CF000BF003D08BE003C08BD00BC012E08A0007E
:102D0000320828279031672790312F08A000340817
:102D1000282790318F2790313308282790318F272B
:102D200090313408282790312108C6002008C500BA
:102D3000B6004608B700B801B9013808B90037082D
:102D4000B8003608B700B6013608C1073708C23DDB
:102D50003808C33D3908C43D3F0872279031400808
:102D6000C500C6013B08C5070318C60A8230C5075F
:102D7000031CC603C31BC82EC135C20DC30DC40D31
:102D8000BF1B4114FF30BC35BD0DBE0DBF0DB72EAE
:102D9000BB01BF1FDD2E3C08B6003D08B7003E0852
:102DA000B8007F303F05B9003804370436040319F2
:102DB0004118DB2EDD2EBB01BB0A3B080319EF2EA9
:102DC0000130C1070030C23DC33DC43D441CEF2E5D
:102DD000C437C30CC20CC10CC50A0319C60ADA27D2
:102DE0009031031DF52EFF304502031CFF2E7F306E
:102DF0002000C4008030C300C201C1011D2F20008B
:102E0000DA279031031D062F0130450203180F2FDA
:102E10002000C101C201C301C401BA011D2F20005D
:102E20004508C000FF30C105C2057F30C305003032
:102E3000C4014018C3174036C4003A08C40444080B
:102E4000B1004308B0004208AF004108AE000800DE
:102E5000A700A301A4012008A500A601271C342F68
:102E60002508A3072608A43DA535A60DA7362708E3
:102E7000031D2E2F2408A1002308A0000800A6018E
:102E8000A60A2508031D612F2408031D612F193090
:102E900022020130233B0318612F2508031D5A2FFE
:102EA0002408031D5A2F2308031D5A2F883022029D
:102EB000031C612F01302102233003192002031863
:102EC000A60126080800A0002100EA000800210849
:102ED000C6002008C500BC074608BD3D0030BE3D09
:102EE000BF3D0800C10701300318C2070318C3071C
:102EF0000318C4073E08BF003D08BE003C08BD00E3
:102F0000BC010800C6002008C500BC07013003183A
:102F1000BD070318BE070318BF07460808002108AD
:102F2000C6002008C500C1074608C23D0030C33DA9
:102F3000C43D3008A00008002308B5002208B400F2
:102F40002108B3002008B20008003108CE00300884
:102F5000CD002F08CC002E08CB0008006008E4004C
:102F60006108E5006208E6006308E7000800003039
:102F7000A600A5008C30A400A030A30000342018C7
:102F8000B317A337A20CA10CA00CB20A08000907C2
:102F90000907A03E86000130870008000130A00725
:102FA0000030A13DA23DA33D0800A1000030A201D8
:102FB000A30108004608803AB600803036020800B7
:102FC000D901CB01CC01CD01CE0108005908803ACE
:102FD000CF0080304F020800A001A101A201A3018F
:102FE0000800B201B301B401B5010800AE01AF01A0
:102FF000B001B1010800AD36AC0CAB0CAA0C080056
:10300000003404340034003435346D3469346E34A3
:10301000203473347434613474347334203425347C
:1030200064342034703475346D34703463346F34E8
:1030300075346E347434203425346434203463346D
:10304000753472347234203474346F3474342034F0
:103050002534643420346134763465342034633468
:1030600075347234723420342534643420346D3431
:1030700069346E34463420342534643420346D345D
:103080006134783446342034253464342034643454
:103090006934663466342034253464340D340034A5
:1030A0006E3463346F344634203425346434203431
:1030B000203463347534723472343A342034253415
:1030C00064342034203463347534723420347034E2
:1030D0007234653476343A34203425346434203400
:1030E0002034643465346C347434613420342534D1
:1030F00064342034743469346D34653420342534B8
:1031000064340D3400348631E32E8731082F873143
:10311000372F87315D2F8731A82F87317D2F87315A
:103120008C2F8731A82F8731912F8731AA2F873194
:103130000B2F8731242F013408342C340834043405
:103140000934AA341D3457341034E6341934483461
:103150001D349E318B2E9E318B2E9E318B2E9E31B7
:103160008B2E9E318B2E9E318B2E9E318B2E8B3152
:10317000DD2B8C31022C8C319D2C8C31BA2C8B3177
:06318000ED2B8B31DD2B6D
:1033840021001708C1391238970008006400800131
:103394000131890BC9290034FE0012001E00FE0B06
:1033A400CF29003420080319DA2922008E160800D8
:1033B40022008E12080020080319E32922008E1728
:1033C400080022008E130800570886000530870184
:1033D400810056089031462000342000A0012100CD
:1033E4003A080319FA292000A001A00A2100BA0111
:1033F40020002008080022005908603E2000A20096
:10340400003022005A3D2000A3002102031D0C2A93
:1034140022082002031801340034A10021080319F2
:1034240000347A082002031800342108860087013A
:103434000108031D00342108860001308101810A3E
:1034440008002B08803AAC0080302C02031D2C2A83
:1034540001302A020318080020002A09AC002B09B5
:10346400AD00AC0A0319AD0A2C08AA002D08AB0064
:10347400080002308B31AB239A310530F901210069
:10348400E90020000030A3018F314B279A318C31A1
:10349400FD249A310130A3018F314B279A318C31AD
:1034A400FD2402308B31AB2B2700131E5B2A5E22D6
:1034B4009A31931E08006B2A220049084A04031912
:1034C400682A4A088A0049080A009A312700131218
:1034D40008002200470848040319752A48088A008E
:1034E40047080A009A312700931208009031F4200B
:1034F40021001D1010302200980029009E13220084
:103504008C013B3021008C0023008C0124008C01B1
:103514002F3022008D0521008D0523008D0124000C
:103524008D0122008E0121008E0123008E012200D4
:1035340091019301970108000034003400340034F1
:1035440000340034003400340034DD3419340034E1
:1035540000340034003400340034003400340134C6
:1035640000340034003400340034003400340034B7
:10357400D4341934003400340034003400340034BA
:10358400003400342508A7002408A600A635A70D9A
:1035940020088600210887002608C03F2708C13F6D
:1035A4002008860021088700013081044131200869
:1035B400023EE5229A31230881002008033EE522D9
:1035C400220881000800A6000030213DA70026083B
:1035D4008600270887000800A030C201BD01BE0193
:1035E400BF01C001BD008430BE003D30BF01BF0A31
:1035F400C1000330A8004108A9005D308E31A42623
:103604009A31013A0319082B1130C2004208031DF4
:10361400182B0330A8004108A9005C308E31A42681
:103624009A31013A0319182B1130C20042080800DC
:1036340022003E082000A70022003D082000A6002A
:1036440022003C082000A50022003B082000A40022
:10365400A8012100BD01BE012000A901A90A240876
:103664000139A80709302906031D3B2B280821002E
:10367400BD001E3020002906031D432B280821000D
:10368400BE0020002030A90AA736A60CA50CA40C65
:103694002902031C312B22003E082000A300220033
:1036A4003D082000A20022003C082000A1002200C6
:1036B4003B082000A0005E2B23082200E30020002A
:1036C40022082200E200200021082200E10020005C
:1036D40020082200E0000800A901A71F7B2BC823B3
:1036E4009B310319A50A0319A60A0319A70AA901FC
:1036F400A90AA31F882BA009A109A209A309A00A4A
:103704000319A10A0319A20A0319A30A230822040C
:10371400210420040319B52BA801A80AA31B972B85
:10372400A035A10DA20DA30D8F2B23082702031D85
:10373400A52B22082602031DA52B21082502031D03
:10374400A52B20082402031CAF2B2008A402210867
:10375400A53B2208A63B2308A73BA336A20CA10C39
:10376400A00CA80B972B29080319BF2BC8230319F6
:10377400A50A0319A60A0319A70A2708A3002608FD
:10378400A2002508A1002408A0000800A409A50996
:10379400A609A709A40A0800A901A31FDE2BA009F2
:1037A400A109A209A309A00A0319A10A0319A20ADB
:1037B4000319A30AA901A90AA71FED2BA409A509A6
:1037C400A609A709A40A0319A50A0319A60A031935
:1037D400A70A0130A906AA01AB01AC01AD01230877
:1037E4002204210420040319232CA801A80AA31BE2
:1037F400002CA035A10DA20DA30DF82BAA35AB0DFD
:10380400AC0DAD0D23082702031D122C220826023D
:10381400031D122C21082502031D122C200824024A
:10382400031C1D2C2008A4022108A53B2208A63B4A
:103834002308A73B2A14A336A20CA10CA00CA80BA6
:10384400002C29080319312CAA09AB09AC09AD09CC
:10385400AA0A0319AB0A0319AC0A0319AD0A2D0805
:10386400A3002C08A2002B08A1002A08A00008002D
:10387400111022004608F1004508F00047249C314D
:10388400432C2100BA01BA0A562C2000181D512CD1
:103894001810710897007008960018140800710831
:1038A4009700700896000800F701F8010530F00051
:1038B40077089B249C31203E860001308700010854
:1038C40003198C2C0530F00077089B249C31213E91
:1038D400860001308700403FF300413FF400423F3F
:1038E400F500433FF60075047404730403198C2C2B
:1038F4000530F00077089B249C31213E860001307E
:103904008700810200304131813B4131813B4131AB
:10391400813B7D31F70A0319F80A7808803AF300ED
:1039240080307302031D982C0330770203180800BB
:10393400582CF100F20170087118F207F035F136D5
:103944007108031D9D2C72080800B2249C31AA2C16
:10395400A00020080319B02C7B1408007B10080079
:103964002000AB01AC011330A0002C088D314F2591
:103974009C31C83ED0249C31003A0319C32CAB01BE
:10398400AB0A0230AC0A2C02031CB52C2B08031919
:10399400CD2C9131212120002B080800AA002A0AED
:1039A40026259C312A080B3E86003D259C31031DAB
:1039B400E52C23082702031DE52C22082602031DFB
:1039C400E52C210825020318E92C0130EA2C0030EB
:1039D400A900A0002A08093E860001308700413F63
:1039E4008A00403F0A009C3120002A08053E262513
:1039F4009C312A0A8600403FA107413FA23D423F35
:103A0400A33D433FA43D2A080B3E32259C317D3122
:103A14003D259C31031D182D23082702031D182D55
:103A240022082602031D182D21082502031C242D1B
:103A34002A080B3E860001308F3153279C312A0817
:103A44000F3E322529080800860001308700403FD8
:103A5400A100413FA200423FA300433FA40008004D
:103A640086000130810700304131813D4131813D83
:103A74004131813D0800403FA500413FA600423F3F
:103A8400A700433FA800240828020800570886001E
:103A94008701810156080319542D62259D31003A8E
:103AA4000319592D570886000630870181005708ED
:103AB400860087010108031D00340130E02500342D
:103AC40000342000A90029080319080000308B31B4
:103AD400AB239D310A30F2258D315D259D317A2548
:103AE4009D31A7259D31003A031D080091310B2912
:103AF40082259D312100B201B101E925B3010800FD
:103B04002200D901DA0108002000A90029080319BC
:103B1400080000308B31AB239D31C830F2258D3144
:103B24005D259D318F312E279D31B501B50AB80130
:103B3400B601B701B401A7259D31003A031DA52D97
:103B440091310B219D310030E02DFB1901340034FB
:103B5400570886000330870181005608CD250030C0
:103B64008D317F259D31023A031D00342100570811
:103B740086000030870181019031FB209D31903116
:103B8400F4209D318931CB219D318931E5219D314D
:103B94008B31B72300342000AA002A080319080037
:103BA40000308B31AB239D311D30F2258D315D25E5
:103BB4009D310030E0250030913118292000A0000B
:103BC40020080319E72D7B1508007B11080022004B
:103BD400BB01BC01BD01BE012100BE01BD01080045
:103BE400A3000030A401A501A60108000530EE00E1
:103BF40000305E2E07302100E8006D08D600E83062
:103C0400D7006E08E5009B30E601E535E60D650753
:103C140084009830663D8500013F8A00003F0A0019
:103C240007309E3121006806031D1A2E0430E80077
:103C3400ED302000A200210068082000A300EE302F
:103C440079269D3121006D08031D392E4F2E013038
:103C54005E269D314F2E03305E269D314F2E02305D
:103C64005E269D314F2E00305E269D314F2E680812
:103C7400E500E6016608003A0319412E4F2E650857
:103C8400013A0319292E023A0319312E073A03196E
:103C94002D2E013A0319352E4F2E69269D31003AF7
:103CA400031908006C269D31003A03195C2E043078
:103CB4005E269D310030BC2E2000AF002100E900BB
:103CC4000530F90002308B31AB238B31DC2BFB1830
:103CD4000134003420000530A00121006906031DD1
:103CE400762E2000A001A00A200020080800A700CA
:103CF400A60127080319852E22080319852E0730EB
:103D04002306031D872E0930A6002608031D08007C
:103D1400A12E270886008701010823060319972E80
:103D2400220886008101810A9B2E220886008701D1
:103D3400810127088600870123088100B32E230808
:103D4400A400A5012508003A0319A92EA02E2408D1
:103D54008400073004020318B32E98310435A93EB9
:103D640082002708860087010108A0002208860037
:103D74008B319E2B2000A00020080319C32EFB14B6
:103D84000800FB100800D900E001DE01DF01DA01C0
:103D9400DB01DC01DD0159080319D52E5708031D89
:103DA4005808031DD72E0930E0006008031DF72EC4
:103DB400003083279E31013A031DF52E01308327FD
:103DC4009E31013A031DF52E5E30C5005C30C600FD
:103DD400003032279E31E0005F08A1005E08A00099
:103DE400E8279E31F72E0E30E00020006008031D06
:103DF400092F5A30C5005C30C600013032279E318D
:103E0400E0005D08A1005C08A000F0279E312000BE
:103E14006008031D302F5F08A1005E08A0005B0846
:103E2400A3005A08A2005808A400B6279E31E00057
:103E3400580886008701403FA000413FA100F827B1
:103E440020005908860087015A08C03F5B08C13F1B
:103E5400570886005E08C03F5F08C13F600808003D
:103E6400D600D50145080319402F46080319402FF1
:103E740056080319422F56030319422F0930D5005F
:103E84005508031D812F5608031D4A2F5D304B2F03
:103E94005C30D4004D30D3000530A8002830A90090
:103EA4005308AA0054088A31A2229E31013A031D04
:103EB4007F2F4E0E0F39C700C8014F08C900F030DC
:103EC400CA01C90ECA0ECA0549080F39CA04F0301E
:103ED400C90547084904CB0048084A04CC004508F2
:103EE400860087014B08C03F4C08C13F4608860046
:103EF4005008C03F5108C13F812F0F30D5005508ED
:103F04000800D000D201D20ACF01D1015108453EA8
:103F14008600093087018101D10A5102031C882FD0
:103F24005008031D972F5D309A2F500B9C2F5C3047
:103F3400CF009D2FD201520BAC2F4530CE0008305C
:103F4400A8002030A9004E08AA004F088A31A222F6
:103F54009E31D200520BB42FCC1CB22F0130B32FA0
:103F64000030D20052080800A7012408031DBC2F0A
:103F74000930A7002708031DE62F2208230403198C
:103F8400C72F20082104031DCA2F1230A700E62FD3
:103F940023082102031DD02F22082002031CE02F36
:103FA40022082002A5002308213BA600240886003D
:103FB40087012508C03F2608C13FE62F2408860054
:103FC40000308701C03FC13F2708080021082200B4
:103FD400DF00200020082200DE0008002108220063
:103FE400E700200020082200E60008002108220043
:0C3FF400DD00200020082200DC00080096
:020000040001F9
:04000E00F4FFFFFFFD
:00000001FF
