:020000040000FA
:1000000080312D28080008007E1480318B190B1CCC
:100010000D289A31A72280312B280B1F2B28210075
:10002000111C19282000111C19289B316E238031C6
:100030002B282100911D23282000911D2328863183
:10004000DE2680312B282100921D2B282000921DB6
:100050002B288731FE277E1009009231D32AC70151
:100060003208031951282E08B4002F08B5003008B3
:10007000B6003108B7003308B800B901BA01BB01B6
:10008000B4073908B53D3A08B63D3B08B73D3708D7
:10009000031D512804303602031851283308031D6C
:1000A00053280930C7004708031D63283108A300FF
:1000B0003008A2002F08A1002E08A0003308A400D9
:1000C0007E238031C7004708031D8C283008503834
:1000D000BE002F08BC002E08BD003F30A00000303D
:1000E000A1003C30A2000230A3003E08A400A501FC
:1000F000012380314330A0000030A1003208A2006B
:100100003308A3003E08A400A5015D230230A4002B
:100110003F309A317122C70047080800A030C20161
:10012000BD01BE01BF01C001BD008430BE003D3035
:10013000BF01BF0AC1000330A8004108A9005D301B
:1001400097228031013A0319A7281130C2004208D2
:10015000031DB6280330A8004108A9005C3097228F
:100160008031013A0319B6281130C2004208080054
:10017000D900E001DE01DF01DA01DB01DC01DD0194
:1001800059080319C8285708031D5808031DCA2811
:100190000930E0006008031DEA2800307521803135
:1001A000013A031DE828013075218031013A031D11
:1001B000E8285E30C5005C30C60000302521803163
:1001C000E0005F08A1005E08A000E1238031EA287A
:1001D0000E30E00020006008031DFC285A30C500E6
:1001E0005C30C600013025218031E0005D08A100AF
:1001F0005C08A000E923803120006008031D23294A
:100200005F08A1005E08A0005B08A3005A08A200D6
:100210005808A400AF238031E00058088600870109
:10022000403FA000413FA100F12320005908860073
:1002300087015A08C03F5B08C13F570886005E0827
:10024000C03F5F08C13F60080800D600D5014508DF
:100250000319332946080319332956080319352988
:100260005603031935290930D5005508031D732994
:100270005608031D3D295D303E295C30D4004D30C9
:10028000D3000530A8002830A9005308AA0054085C
:1002900012228031013A031D71294E0E0F39C70019
:1002A000C8014F08C900F030CA01C90ECA0ECA05FC
:1002B00049080F39CA04F030C90547084904CB0082
:1002C00048084A04CC004508860087014B08C03F17
:1002D0004C08C13F460886005008C03F5108C13F46
:1002E00073290F30D50055080800D000D201D20A7A
:1002F000CF01D1015108453E8600093087018101B7
:10030000D10A5102031C7A295008031D89295D3046
:100310008C29500B8E295C30CF008F29D201520BD3
:100320009D294530CE000830A8002030A9004E0895
:10033000AA004F0812228031D200520BA529CC1CF2
:10034000A3290130A4290030D2005208080010303F
:10035000CE00A030CB01CC01CD01CB008430CC004D
:100360008030CD004B30CF000330A8004F08A900EB
:100370005D3097228031013A031DC8290330A8005F
:100380004F08A9005C3097228031013A0319CE0151
:100390004E08031D102AC901CA01C501C601C701C3
:1003A000C801F8290B2480315D3012228031013AD6
:1003B000031DE029CB1BDE290130DF290030C900F5
:1003C0000B2480315C3012228031013A031DEE296A
:1003D000CB1BEC290130ED290030CA000130C507E4
:1003E0000030C63DC73DC83D182496314D268031AA
:1003F0004808031D092A4708031D092A4608031D4A
:10040000092A143045020318092A490BD2294A0B3C
:10041000D2294908031D4A08031D102A1030CE00B6
:100420004E080800B600B701AF01B001B101B80134
:10043000B901BA01BB01B201B301B401B501290888
:100440008038AF003C30A0000030A1002F30A20067
:10045000A301A30A3608A400A5010123803140307E
:10046000A0000030A1002A08A2002808A300360836
:10047000A400A5015D2380310230C400772A3C30FE
:10048000A0000030A1004430A20002301B238031C4
:10049000B801B901BA01BB0102304406031D6B2A41
:1004A0003B08AE003A08AD003908AC003808AB0094
:1004B0000130B8070030B93DBA3DBB3D2E08031DE1
:1004C0006A2A2D08031D6A2AF4302B0201302C3BC6
:1004D000031C4C2AB7014408031D712AB701B70A4F
:1004E000922A0130B2070030B33DB43DB53D44031C
:1004F0000319922A3B08031D922A3A08031D922AE7
:10050000F53038020130393B0318922A3508031DB3
:10051000922A3408031D922AF53032020130333B0F
:10052000031C3F2A440B952AB70137080800B20084
:100530003830B301B30AB401B501B601B701AE0159
:10054000AF01B001B101A0000030A1002908A20054
:100550002808A3003208A400A5010123803102303D
:10056000BC00E12A3830A0000030A1003C30A200DD
:1005700001301B238031B401B501B601B70102304F
:100580003C06031DDE2A3708AD003608AC003508EE
:10059000AB003408AA000130B4070030B53DB63DC9
:1005A000B73D2D08031DDD2A2C08031DDD2AF4307C
:1005B0002A0201302B3B031CBF2AB3013C0803195C
:1005C000FC2A3C030319FC2A3708031DFC2A3608C1
:1005D000031DFC2AF53034020130353B0318FC2A98
:1005E0003108031DFC2A3008031DFC2AF5302E02B9
:1005F00001302F3B031CB22A3C0BFF2AB301330806
:1006000008002508A7002408A600A635A70D200885
:100610008600210887002608C03F2708C13F200820
:10062000023E02248031230881002008033E022478
:10063000220881000800A30021004618492B12243B
:10064000803181002100440A8600013087002000AB
:100650002008C03F2108C13F210044088600200037
:100660002308810021004408033E86002000220860
:10067000810004302100C40744086A3A031D422B5C
:100680006630C400C61045084406031D4F2B4614AF
:100690004F2B20002208860087018101810A122445
:1006A00080310106031D080021005208031D542B50
:1006B0005A2B542B2000911508002508A700240868
:1006C000A600A635A70D2008860021088700260869
:1006D000C03F2708C13F200886002108870001305D
:1006E000810441312008023EF92380312308810032
:1006F0002008033EF9232208810008002408AA00EC
:10070000AB01AC01AD012008AA072108AB3D2208CE
:10071000AC3D2308AD3DFF30AA07AB3DAC3DAD3D40
:100720002A082006A5002B082106A6002C08220670
:10073000A7002D082306A8000130A501A605A705DE
:10074000A8012808270426042504031DA92B01302D
:10075000AA2B0030A9002908031909340034A70185
:100760002408031DB52B0930A7002708031DDF2B24
:10077000220823040319C02B20082104031DC32BC6
:100780001230A700DF2B23082102031DC92B2208EA
:100790002002031CD92B22082002A5002308213B9C
:1007A000A6002408860087012508C03F2608C13F0F
:1007B000DF2B2408860000308701C03FC13F270897
:1007C000080021082200D500200020082200D400C3
:1007D000080021082200DD00200020082200DC00A3
:1007E000080021082200D300200020082200D200A7
:1007F0000800A6000030213DA70026088600270833
:1008000087000800A6000030213DA70026088600CA
:100810002708870008002130A801A80AA9004F086E
:10082000AA00080020002208860002308701080084
:10083000A001A00AA101A201A30108003108BA0089
:100840008030BA053135BC00B01B3C143C0803199C
:100850002F2C3C0F2D2C8F258431B017312C8F2558
:10086000843135088039BA063535BB00B41B3B14DA
:100870003B080319412C3B0F3F2C8A258431B417C8
:10088000432C8A2584313B08031D3C08031D4D2C55
:10089000AE01AF01B001B10108002E08A00034087C
:1008A000382584312108C6002008C500BD00BE01DE
:1008B000BF01C0014608C100C201C301C4012F0825
:1008C000A00033083825843121086A258431C10706
:1008D00001300318C2070318C3070318C407300800
:1008E000A00032083825843121086A2584315A2530
:1008F00084312F08A0003208382584314F258431F7
:100900002E08A0003308382584314F2584313F0854
:10091000C0003E08BF003D08BE00BD012E08A0007B
:100920003208382584314F2584312F08A00034083F
:10093000382584317725843133083825843177256B
:1009400084313408382584312108C6002008C500C8
:10095000B6004608B700B801B9013808B900370831
:10096000B8003608B700B6013608C1073708C23DDF
:100970003808C33D3908C43D40085A2584313C0835
:10098000C500C6013B08C5070318C60A8230C50763
:10099000031CC603C31BD82CC135C20DC30DC40D27
:1009A000C01B4114FF30BD35BE0DBF0DC00DC72C9F
:1009B000BB01C01FED2C3D08B6003E08B7003F0844
:1009C000B8007F304005B9003804370436040319F5
:1009D0004118EB2CED2CBB01BB0A3B080319FF2C83
:1009E0000130C1070030C23DC33DC43D441CFF2C53
:1009F000C437C30CC20CC10CC50A0319C60A84252E
:100A00008431031D052DFF304502031C0F2D7F305F
:100A10002000C4008030C300C201C1012D2D200080
:100A200084258431031D162D0130450203181F2D26
:100A30002000C101C201C301C401BA012D2D200053
:100A40004508BC00FF30C105C2057F30C30500303A
:100A5000C4013C18C3173C36C4003A08C404440817
:100A6000B1004308B0004208AF004108AE000800E2
:100A7000A700A301A4012008A500A601271C442D5E
:100A80002508A3072608A43DA535A60DA7362708E7
:100A9000031D3E2D2408A1002308A0000800210802
:100AA000C6002008C500BD074608BE3D0030BF3D5A
:100AB000C03D0800C10701300318C2070318C3076F
:100AC0000318C4073F08C0003E08BF003D08BE0031
:100AD000BD010800C6002008C500BD07013003188D
:100AE000BE070318BF070318C007460808002108FF
:100AF000C6002008C500C1074608C23D0030C33DFE
:100B0000C43D3008A00008004608803AB600803096
:100B100036020800B201B301B401B5010800AE010C
:100B2000AF01B001B10108002308B0008030B0056A
:100B30002335B200A21B321432080319A72D320F3D
:100B4000A52DA001A101A201A301A217AA2DA00118
:100B5000A101A201A3012708B1008030B10531082D
:100B60003006031D30172735B100A61B311431089C
:100B70000319C22D310FC02DA401A501A601A701A3
:100B8000A617C52DA401A501A601A70132083102AF
:100B90000318EC2D301FCE2D8030B0063208B30084
:100BA0003108B2003308B1002008B3002408A000C7
:100BB0003308A4002108B3002508A1003308A500CC
:100BC0002208B3002608A2003308A6002308B300B9
:100BD0002708A3003308A700B3013108A800A90122
:100BE0002908AB0032082802AA00031CAB032B081B
:100BF000803AAC0080302C02031D002E1A302A02ED
:100C0000031C1D2E200023082204210420040319A4
:100C10000B2E01300C2E0030B300A001A101A20167
:100C2000A3013108B200222E331C1A2E33360138AC
:100C3000B3001B2EB336CA2685312000310832029C
:100C4000031C142E301B3C2E3208031D282ED92ED7
:100C50002408A0072508A13D2608A23D2708A33D9A
:100C6000231C9C2E331C382E33360138B300392E0A
:100C7000B336CA2685319C2E2308803AA80027085F
:100C8000803A2802031D4E2E26082202031D4E2EF6
:100C900025082102031D4E2E240820020318792E58
:100CA000FF30A800A900AA00AB0020082402AC0075
:100CB0002108253BAD002208263BAE002308273B38
:100CC000AF002C08A8072D08A93D2E08AA3D2F0823
:100CD000AB3D2B08A3002A08A2002908A100280880
:100CE000A0008030B006B309B30F812ED226853123
:100CF000812E2408A0022508A13B2608A23B270834
:100D0000A33B2308220421042004031D9A2E330848
:100D1000031D9A2ED92EA035A10DA20DA30DB31B34
:100D20002014331C962E0314B30D972EB3353208BE
:100D3000031DB203A21F8B2EB101B31FA72E3308D0
:100D40007F3903192018A52EA72EB101B10A310849
:100D50000319B42ED2268531231CB42EA337A20C3E
:100D6000A10CA00C320FB20A320A031D3208031D77
:100D7000C02EA001A101A201A30132080319B001F4
:100D8000321CC42EA217C52EA2133236A300B01BEC
:100D9000A31708002018B317A337A20CA10CA00CAE
:100DA000B20A08000130A0070030A13DA23DA33DDA
:100DB0000800A001A101A201A301080091112400D3
:100DC000951FAC2F95132100D201DC2786008701E7
:100DD0008101810AD0010800C61808004508D0002A
:100DE00045088600013087000108D100450A8600C9
:100DF000403F2200C700413FC80004302100C50722
:100E000045086A3A031D062F6630C500461045089E
:100E100044060319C6142400161402302100D2001F
:100E20000800240096140D2F2400161F1B2F2100EC
:100E30000430C80AC02F7D08F2007C08F100F236A9
:100E4000F10C710891007C1C292F0B302100D2007D
:100E5000080003302100D20008002400161F342FA0
:100E600021000430C80AC02F961406307D05F10019
:100E7000F038FC00FD017C142100CD01CD0A0D2FBE
:100E80004D030319572FEA278631403FFC00413FAD
:100E9000FD0047088600480887004331010821000B
:100EA000CF00EA278631423101082100CE007C08BC
:100EB000240091007C1C292F05302100D20008005D
:100EC0002400161F692F2100C80A240016130530BC
:100ED000C02F2100CE034E0F732FE3278631D10B95
:100EE000112F0030C02F4F08860087010108240011
:100EF00091002100CF0A08002400161F862F210030
:100F00000430C80AC02724001613080096150830BC
:100F10002100D20008000830D200240096150800F5
:100F20004F08860087012400110881002100CF0AA4
:100F3000CE030319A12F2400961206302100D200FF
:100F4000A42F24009616D22724001616080000307D
:100F5000C02F0630C80AC02F21005208F100F2014C
:100F60007208003A0319B52FA92F710884000C30BC
:100F700004020318A92F983104351A3E8200080094
:100F8000F000240016152100DC2786310319D02F2C
:100F90005008033E86000108860087017008810022
:100FA000D2010800E3278631D10BD92F0430D200BB
:100FB0000800D201D20A08005008033E8600013022
:100FC00087000108080004302200C7070318C80A78
:100FD0002100080022004708860048088700080012
:100FE0009F31C62F9F31C62F9F31C62F9F31C62FED
:100FF0009F31C62F9F31C62F9F31C62F92110800F7
:10100200462788314C278831292788313127883172
:101012003A278831AE218831E82788318227883102
:1010220036278831C129B60132088600870181013D
:1010320031080319212862218831003A0319242832
:10104200C82788318100C82788310106031D6F280F
:101052008F2188318C218831B50032088600063014
:10106200870181005D287A2088317D2088315A28C5
:10107200802088315A28992088315A289E20883128
:101082005A28A22088315B28DD2088315B289031E4
:101092006B2088315A28FF2088315A281B21883139
:1010A2005A28372188315A284F2188315A2852210B
:1010B20088312100B6006F283508B300B401340826
:1010C200003A031965285828330884000B300402BB
:1010D2000318582898310435323E820032088600BF
:1010E20087010108031D772801301C2321003608DF
:1010F2000800AD218831AE2922000E1600341230CC
:1011020097311E2788310530A62488312108AB008B
:101112002008AA00A601A60AA7002B08A8002706F5
:101122002606A9000430A1002630C520A50008002B
:10113200003097311E278E17003422008E138E1630
:10114200003422008E120E15A9302000E100A630D4
:10115200E200A0309231892288312100A8002808BB
:10116200031DC3280430A2002908A3002A08A400F2
:1011720023062206A50004302000A100A230C520CB
:101182002100A80028080800A400A30121082302C6
:101192000318003423082407A200860087010108EF
:1011A200D62088312000A30AC728A000111ED72804
:1011B200200823009A00080022000E11A03020000F
:1011C200E100A630E200A930923189228831210063
:1011D200A8002808031DFD280530A2002908A30045
:1011E2002A08A40023062206A50004302000A1003C
:1011F200A230C5202100A80028080800BB278E11B4
:10120200123097311E2788310430A62488312108F4
:10121200AB002008AA000730A6002A08A7002B0866
:10122200A80027062606A9000430A1002630C52002
:10123200A5000800BB278E15123097311E27883172
:101242000430A62488312108AB002008AA00083007
:10125200A6002A08A7002B08A80027062606A90030
:101262000430A1002630C520A500080000309731C7
:101272001E2788318E11003020008C1A0130A60002
:101282000930A7002608A800A90129062706AA00F6
:101292000430A1002730C520A500080022008D16C9
:1012A2000034FF302000A6000A30A700A030A800BA
:1012B20027062606A9000430A1002630C520A50075
:1012C20008002000A4012100680F81290B30E800EA
:1012D20020000C1C8C1C812921000230E801220014
:1012E200EE002000A401A40A22000E118E110E129B
:1012F2008E120E138E138D12003097311E278831F5
:101302000B3021006806031989292000A401A40AD0
:1013120020002408080021006808080020000C0CA6
:101322000139A000A0350C0801392007A2002200D3
:101332006E0820002206A0000339A100033A031D13
:10134200080022082200EE000B302100E80A6802A1
:101352000318E8010800AE29C12966302100C50042
:10136200C400C6144610C801240094012830950018
:1013720097010F3092002000911121009115080071
:10138200483023009F0080309D0026309E0033307D
:101392009B009C0108002000A900290803190800ED
:1013A20000309331602388310A309C279531122511
:1013B2008831252388313A228831003A031D0800FA
:1013C200862A3208860004308701810031085E22B5
:1013D20092316D228831003A0319FD29B9228831F0
:1013E200003A0319FD2921003208860001308701E5
:1013F2008101810A7D220034003095313425883103
:10140200023A0030031D0800933160238831210025
:101412003208D32F2000A6002608031908009331B2
:101422006C238831003097311E278831F82292319F
:101432006A229231842A2000A9002908031908008F
:101442000030933160238831C8309C2795311225B2
:101452008831973134278831D701D70AE327883179
:101462003A228831003A031D382A86228831003018
:101472001C2BFB190134003432088600033087012B
:101482008100310809230030953134258831023A30
:10149200031D0034210032088600003087018101DB
:1014A20097311E278831F82292316A22883192318F
:1014B2008422883193316C2300342000A90029084A
:1014C2000319080000309331602388319427953145
:1014D20012258831003097311E278831F822923147
:1014E2006A2288318622883100307D22883100309C
:1014F200042300309231652A2000A000200803193D
:10150200842AFB150800FB11080097318E2708007A
:10151200320886008701810131089031022088312A
:1015220092316D228831003A0319A62AB9228831F4
:10153200003A0319003493313D238831003093314E
:101542006023883121003208D32F003095313425B1
:101552008831023A03199C2ABD228831B622883189
:10156200003A03190034FF2200347B19013400349D
:10157200E630A001A00AE22AF82221001D10103054
:101582002200980029009E1322008C013B3021008A
:101592008C0023008C0124008C012F3022008D0549
:1015A20021008D0523008D0124008D0122008E0172
:1015B20021008E0123008E012200910193019701E7
:1015C2000800A1002108031900342100620820004C
:1015D2002002031800342108860087010108031D38
:1015E20000342108860001308101810A08002900A7
:1015F2009E132000121122008E1108006300012B9D
:101602002000181408002000A0002100E4000800B7
:101612002000AA002A080319080000309331602331
:1016220088311D309C2795311225883100301C23CA
:1016320088310030042B2000A00020080319232B3E
:101642007B1508007B1108002D2388312100D4016D
:10165200D3013123D50108002200CD01CE010800BB
:101662002200BB01BC01BD01BE012100DF01DE0180
:1016720008004330CA00AF30C900C801C7016C0876
:10168200A0006D08CE278831C62488312308B10016
:101692002208B0002108AF002008AE006A08A000AE
:1016A2006B08CE278831C6248831A22784311E24B4
:1016B2008831AB2788312F2588314A082100A300C1
:1016C200200049082100A200200048082100A100B2
:1016D200200047082100A000DD0A5D080739B42771
:1016E20088312008C03F2108C13F2208C23F230899
:1016F200C33F3F302200B600B501B401B30121005F
:10170200A4012408B427403F2000A000413FA100CB
:10171200423FA200433FA300220036082000A70058
:10172200220035082000A600220034082000A5006F
:10173200220033082000A400853194258831230833
:101742002200B600200022082200B5002000210855
:101752002200B400200020082200B300210008303B
:10176200A40A2402031C822B220036082000E30074
:10177200220035082000E200220034082000E100A7
:10178200220033082000E0002D2688316008EE0098
:10179200EE36EE36EE366E08252F0530AB01A62466
:1017A200883121082100AA00200020082100A90078
:1017B2000630AA36A90C890BDA2BFF30A9050F30A7
:1017C200AA051F30A624883121082100AE0020007E
:1017D20020082100AD000630AE36AD0C890BED2B92
:1017E200FF30AD050F30AE052E082000AE002100FF
:1017F2002D082000AD00AF01AF0A74268831E9261A
:101802008831AC002E082000EB0021002D082000BA
:10181200EA0021002C082000EC00ED013A23883177
:1018220029082000A00021002A082000CE278831A4
:10183200C6248831A2274330B100AF30B000AF01D7
:10184200AE0184311E248831AB27883121002D0856
:101852002000A00021002E082000CE278831C624B7
:1018620088312308CA002208C9002108C8002008BC
:10187200C7002F2588314A08E3004908E2004808DA
:10188200E1004708E0002D26883163082100A80006
:10189200200062082100A700200061082100A600A4
:1018A200200060082100A5002E082000A1002100D0
:1018B2002D082000A000210028082000A5002100FA
:1018C20027082000A400210026082000A3002100F0
:1018D20025082000A200F1268831003A0319812C44
:1018E20021005C08DC0A2000EF0033306F02031C89
:1018F200A32C003097311E278831210014309D2CF3
:10190200013021002E02DE3003192D025C08031C77
:10191200A02CDC0A2000EF000B306F02031C972C76
:1019220021002C08FF3EEC268831DC010C3021001E
:101932002C020318A32C1530DC01AB00A32C0319D5
:10194200A32CDC0321002B0808002000A300A20026
:10195200A20DA20D21001D082000220683392206B5
:1019620021009D001D1400320032000021009D1450
:101972009D18B92C1C082000A100A00121001B0801
:101982002000A0070318A10A0800A8002808031DC8
:10199200A31FDB2C2009AA002109AB002209AC00FD
:1019A2002309AD00AA0A0319AB0A0319AC0A0319E9
:1019B200AD0AE32C2308AD002208AC002108AB00DD
:1019C2002008AA002308220421042004031DEE2C6F
:1019D200A001A101A201A30108009630A900FE30D6
:1019E2002D050319012DA90ADE278831F02C0130BB
:1019F200A90AAA070030AB3DAC3DAD3DDE278831D8
:101A0200FF302D0503190F2DF82C02302902031C7B
:101A1200112DA903AA35AB0DAC0DAD0DAC1F062DD2
:101A2200291CAC13A9362908A700A601A501A40107
:101A32002408AA042508AB042608AC042708AD0430
:101A42002808031DA31F262DAD172D08A3002C085F
:101A5200A2002B08A1002A08A00008004E08D70007
:101A62008030D7054E35DE00CD1B5E145E080319AB
:101A7200422D5E0F402DCB01CC01CD01CE01CD1701
:101A8200452DCB01CC01CD01CE014A088039D706C4
:101A92004A35DF00C91B5F145F080319582D5F0F19
:101AA200562DC701C801C901CA01C9175B2DC7015B
:101AB200C801C901CA014A08490448044704031D70
:101AC200752D8030CB01CC01CD01CE01CD047F300C
:101AD200CE045708CE044E08CA004D08C9004C086F
:101AE200C8004B08C70008005E08031D7D2DC70112
:101AF200C801C901CA0108005E08D800D9015F08FF
:101B0200D802031CD9037F30D8070318D90A4E081C
:101B1200D6004D08D5004C08D4004B08D300CB01A9
:101B2200CC01CD01CE01DA01DB01DC01DD01DF01F7
:101B32001A305F020318C92D5F080319AE2DD33581
:101B4200D40DD50DD60DCB35CC0DCD0DCE0DDD1B67
:101B52004B14DA35DB0DDC0DDD0D4A085602031D90
:101B6200BC2D49085502031DBC2D48085402031D13
:101B7200BC2D47085302031CC72D5D174708D3022B
:101B82004808D43B4908D53B4A08D63BDF0A992D81
:101B92005608550454045304031D5A14CD1BE02D5A
:101BA200CB35CC0DCD0DCE0DDD1B4B14FF30DA3510
:101BB200DB0DDC0DDD0DD807031CD903CF2DDF01B2
:101BC200DD1FF52D5A08CF005B08D0005C08D1005C
:101BD2007F305D05D200510450044F0403194B18A5
:101BE200F32DF52DDF01DF0A5F080319072E0130FF
:101BF200CB070030CC3DCD3DCE3D4E1C072ECE371F
:101C0200CD0CCC0CCB0CD80A0319D90AC2278831C7
:101C1200031D0D2EFF305802031C142EFF3020002E
:101C2200D800D82788312000C2278831031D1B2EF7
:101C3200013058020318222E2000D801D8278831FB
:101C4200D70120005808DE005E1C292ECD172A2E4F
:101C5200CD135E36CE006A2D8B2788310310660DB8
:101C6200670DE9006908031D3B2EE001E101E20175
:101C7200E30108008B2788311F30E736E60CE50CBC
:101C8200E40C890B3E2E6408E8009630E217E3016B
:101C9200E902E91F582E6908803A973E031C362E46
:101CA200E336E20CE10CE00CE90F512E652E2030F8
:101CB20069020318362E69080319652EE035E10D15
:101CC200E20DE30DE9035C2E680803190800E00940
:101CD200E109E209E309E00A0319E10A0319E20A48
:101CE2000319E30A0800B401B5012D082E040319F3
:101CF2009D2E2D08A0002E08A1001030A201A301E4
:101D0200A701A600A501A401AA2688312308B300D1
:101D12002208B2002108B1002008B0003308031DD8
:101D2200962E01303202031C992EB401B5019D2E6C
:101D32003108B5003008B4002F08031DA52E350860
:101D4200A1003408A0001D2F3508A1003408A0000E
:101D5200152FA801A901AA01AB012308220421041D
:101D620020040319E02EAC01AC0AA31BBD2EA03542
:101D7200A10DA20DA30DB52EA835A90DAA0DAB0D6F
:101D820023082702031DCF2E22082602031DCF2E71
:101D920021082502031DCF2E20082402031CDA2E5F
:101DA2002008A4022108A53B2208A63B2308A73B42
:101DB2002814A336A20CA10CA00CAC0BBD2E2B0830
:101DC200A3002A08A2002908A1002808A0000800F0
:101DD20021006A0808002000A0002100EA00080093
:101DE200A601A60A2508031D132F2408031D132F7D
:101DF200193022020130233B0318132F2508031D3B
:101E02000C2F2408031D0C2F2308031D0C2F8830D0
:101E12002202031C132F0130210223300319200256
:101E22000318A6012608080021082200DB00200072
:101E320020082200DA00080021082200E100200028
:101E420020082200E0000800A0002100E9000800AC
:101E520021009D0120309E009F019B019C010800F2
:101E620010302200980099010800013022009700EA
:101E72000800403029009E009F019A0199019801B3
:101E82000A309C00C0309B00080068302100990095
:101E92002200960108008C0150308D008E013B30EB
:101EA20021008C00D0308D0003308E0023008E0084
:101EB2008D0104308C0024008D018C0121009517C6
:101EC200013022009D002700131293121216921263
:101ED2001112911602302000A0000030A1007A27D2
:101EE20003302000A0000030A1009A3100228B159F
:101EF200080021082200C600200020082200C50098
:101F0200080001309C00FF309B009A019110892F3C
:101F12001C1508006008E4006108E5006208E6009C
:101F22006308E70008000030A600A5008C30A4007A
:101F3200A030A3000034A3000030A401A501A60133
:101F420008002308B5002208B4002108B3002008C5
:101F5200B20008003108CE003008CD002F08CC00B6
:101F62002E08CB00080009070907203E8600023030
:101F72008700080029009E0122000E1540308E06BF
:101F820008005908803ACF0080304F020800210033
:101F920032088600063087010800A1000030A20145
:101FA200A3010800860087018101810A0034D9015A
:101FB200CB01CC01CD01CE010800AD36AC0CAB0C8F
:101FC200AA0C0800DA01D801D901D6010800303084
:101FD200200098009901CF3097002C30F2278831E9
:101FE200012B960017082200C200C101200016082A
:0E1FF2002200C104200011102100111408006B
:102004002000A900290803190800003060238F313B
:10201400942790311225903100301E278A31F822FE
:1020240090316A229031842290312000A001A101D4
:10203400A201A3013C278A318622903100308A31E3
:102044007D22903100308B31042B20005930E9017E
:10205400E90AA7005230AE27903122003A08031D46
:102064006428FF303702FF30383B0330393B031814
:102074006428AA26903108305B2790314D26903190
:1020840022003A082000B100220039082000B000E4
:10209400220038082000AF00220037082000AE00DC
:1020A4005930B2001030B300AD269031E900690810
:1020B400031D5E28742790310A305B2790314D262A
:1020C40090316A229D31302590319C31D4246908A5
:1020D40008002000E40122006D082000DF00220037
:1020E4006C082000DE0022006B082000DA002200C9
:1020F4006A082000D900E501E601AA2690310830DB
:102104005B2790314D2690315E306C279031AD269F
:102114009031DB000A30672790314D26903105302D
:10212400DD00A3286530AE01AF01B001B101B200FA
:102134000230B30080312F209031E4006408031989
:10214400A628DD035D0F94280630E000E7015B0854
:102154000319671464080319E7146708E100E70129
:1021640065085E060319671466085F060319E71419
:102174006708E20061066006E3000430A1006030F5
:102184008831C5209031DC0059306C279031AD2660
:1021940090310A30672790314D2690316A22200011
:1021A4005C0808000030652231088A311C22903115
:1021B4002100BF01BA01BB01BE01BE0ABC01BD01C1
:1021C400B401B5016D229031003A0319F0282F278C
:1021D4009031003A0319F0280330672900309C310C
:1021E4001B24903126082100B90020002508210075
:1021F400B800200024082100B70020002308210093
:10220400B6003908031D12293808031D122937089E
:10221400031D12293330360203181229D901D90AB1
:102224003908380437043604031995295708031D5F
:102234001D2901301E2900307D269031BF00143A3B
:10224400031D2B2901308B311C2390312100BE0149
:10225400372913303F06031D312904303629153040
:102264003F06031D37290530BE003F08031D8C2996
:10227400570803198C29BC302000E100BA30E20071
:10228400B430892290312100BF005608031D55291E
:10229400D601D60A3C081E3E2200CB0000302100A5
:1022A4003D3D2200CC000130652290313F08031DE2
:1022B40069293D0822004C02031D642921003C08C1
:1022C40022004B02031869290430210098292100B7
:1022D4003F08031D8C293B082000A10021003A0877
:1022E4002000A0009A318C229031003A03198C29E5
:1022F4002100590803198029DA01DA0A5808031D54
:1023040099293608C83CB300E42790312100D8014C
:10231400D80A992921005708031D922901309329CD
:102324000030D70099295A0B66290230BE003E03BB
:102334000319A3290030602390313427D7018F314A
:10234400E3273208860087013E0881003F08080021
:102354000030B301B401B501B601652231088931F9
:10236400CC21903121000230BA01B701B801B90083
:102374006D229031003A0319C8292F279031003A71
:102384000319C82903302100B900F429FB2790312F
:10239400023A031DD12901309F31F7279031F827E4
:1023A4009031003A031DD829842290312100550828
:1023B4007D269031BA00133A0319E42914303A0601
:1023C400031DE6290430EB2915303A06031DEC29D8
:1023D4000530B90055080319F429D5016A22903152
:1023E400F627903121003A080230031D572A390696
:1023F400031D562A003034259031023A031D562A13
:102404002100D40A9B311A2390319A313D22903114
:10241400003A031D492AB530E100B730E200B33079
:10242400892290312100BA000130652290313A08A6
:10243400031D442A360822004C02031D252A2100CC
:10244400350822004B02031C492A2100D301380815
:102454002000A100210037082000A0009A312B227F
:102464009031003A031D392A2100D501D50A0930DB
:1024740021005406031D4C2A9A31EF229031210089
:10248400D4014C2A1530D30A5302031C4C2A0430BD
:102494002100B900F0279031003060230A308F31D9
:1024A4009C279031122590310230210039060319FE
:1024B4005D2A003060232100320886008701390834
:1024C40081003A0808002000A0002100E300080071
:1024D40022000E110800003020008C1A0130A000E8
:1024E4002008031D792A8E279031E10A812A2100D0
:1024F40061080319812A620A0319812AE20A200069
:102504002008080022000E125E3097050800E4003F
:10251400E50164080319932A6108031D6208031D79
:10252400952A0930E5006508031DA22AAA269031E0
:1025340008305B2790314D268131A7219031E50089
:102544006508031DA92A80318E209031E5006508B5
:10255400031DCF2A1430672790314D26903128303F
:10256400E3000F30E500CA2A6108D7006208D800EA
:1025740064088031B8209031E5006508031DC42A41
:10258400E301CA2A0530E303672790314D269031D1
:102594006308031D6508031DB62A6A222000650826
:1025A4000800083084009A308500E7308600003047
:1025B400870008309931F32190312200FF30EA007E
:1025C400EB00AA30EC005530ED000230EE00C930CB
:1025D40084009A308500A0308600013087002630C0
:1025E4009931F3219031C430F901FA01FB01FC0166
:1025F400FD0184000030850023309931ED219031B4
:1026040020308400013085004A309931ED21903129
:10261400C6308400013085000B309931ED219031B2
:10262400203084000230850020309931ED21903132
:102634007E1020001D2B22239031622590311F2B08
:102644006C239031312390312F2390313F239031EB
:1026540038239C31C7249931E7299A31562A073007
:102664002100EB00FB01E401E30108003D2390316C
:1026740051239031FE2F8831012806302100EE00CD
:10268400ED01ED0A2000A00021006D0853239031D4
:102694005823903159238B3125239931F9298B17EC
:1026A4000800200020082100EB000800080000308A
:1026B400602390313427D701D70A08002000A300F3
:1026C4000530A00023080425203E86000130870041
:1026D40081010800102590312000A401A5010530D6
:1026E4002000A00024080425903182279031A00006
:1026F400240804259031213E86000130482790317A
:10270400A40A0319A50A2508803AA30080302302ED
:10271400031D8E2B03302402031C712B512B9C2C84
:102724000030A30140279031B22490310130A3013D
:1027340040279031B224903105302100E700B02CBD
:1027440005307906031DB52B0130A30140279031D4
:10275400B22490311430A300003040279031B224C9
:10276400903102301B2C02304D2C05307906031DAC
:10277400CB2B0A30A300003040279031B224903193
:102784000130A30140279031B2249031F901F90AB4
:10279400B02C790BDA2B0030E92490318927903161
:1027A400031DDA2B4F279031B224903101307B2C5A
:1027B40002307906031D032C0030E92490311930CE
:1027C40099279031031DB02C4F279031B2249031BA
:1027D4000130A30140279031B2249031220002300D
:1027E400AF01AF0AB001B101B2016023903196305C
:1027F400A3000230A401A501A601122590310330E3
:102804001B2C03307906031D4C2C023034259031E7
:10281400023A031D1D2C1430A300003040279031D0
:10282400B22490310130A30140279031B224903179
:102834000430F900B02C0030E9249031033099279A
:102844009031031DB02C01302200AF070030B03DA1
:10285400B13DB23D2000A301A30AA401A501A60134
:10286400220032082000AA00220031082000A9001A
:10287400220030082000A80022002F082000A70012
:102884000030B22490310130A30140279031B224AA
:102894009031B02C04307906031DB02C0030682C24
:1028A40005307906031D582C1430BC2B790B632C8E
:1028B4000030E924903189279031031D632C0A30BC
:1028C400742C02307906031DB02C0130E9249031B8
:1028D40089279031031DB02C922B05307906031DF6
:1028E4007D2C1430A300013040279031B224903164
:1028F4000030A301AF2B02307906031DB02C013048
:10290400E924903189279031031DB02C0030A301B4
:1029140040279031B22490310230A3001230A40138
:10292400A501A601A7000130A801A901AA01B224AA
:102934009031012C210067082000AD00AE012E0863
:10294400003A0319A62CB02C2D088400063004028A
:102954000318B02C983104359A3E82009D31D02D55
:10296400AB0002302B02031808001330A0002B0820
:1029740004259031A13E8600013087002308C03F22
:102984002408C13F2508C23F260894279031042516
:102994009031A53E8600013087002708C03F2808F3
:1029A400C13F2908C23F2A08942790310425903159
:1029B400AB3E86000130482790311330A0002B082D
:1029C40004259031AF3E8600013048270800A80056
:1029D400023028020318FF2C1330A0002808042515
:1029E400AF3E860001308700403FA300413FA40072
:1029F400423FA500433FA6000800A301A401A5018E
:102A0400A6010800A200A10120082218A107A035F0
:102A1400A2362208031D062D210808008B13080086
:102A2400A8000530A00028080425903161279031C2
:102A3400031D08000530A0002808042590318227D2
:102A44009031810AA00028080425213E8600013027
:102A540087002308C03F2408C13F2508C23F260839
:102A6400C33F08002000A7000530A0002708042564
:102A740090316127903103195E2D10259031053076
:102A84002000A0002708042590317C279031A30062
:102A9400413FA400423FA500433FA600512390318B
:102AA4002000260825042404230403195B2DA8010F
:102AB400602D0230A800602DA801A80A280808008B
:102AC40021006C080319692D9B31D5239031210015
:102AD400CB01CC01D6279031003A031D762D21007D
:102AE400CB0A0319CC0A6C2D8E30B8009830B9008B
:102AF400D52521004C082000BE0021004B082000F1
:102B0400BD009C314C249031E0259F313727903112
:102B1400E12590314B26903121006C08031D9E2D38
:102B240000304C02C83003194B0203189E2D483064
:102B34002000B8009830AD2D4B084C040319B02D7B
:102B440000304C02C83003194B020318B02D043076
:102B54002000B8009830B900D52590312200CF0A62
:102B64000319D00A02305002593003194F02031CD2
:102B7400080021006C08031DC12D0130C22D003056
:102B8400EC006C080319CB2D6F302000B80098308E
:102B9400CF2D5D302000B8009830B900D525220033
:102BA400CF01D00108003A30BC003908B20038081F
:102BB400B1003C30B30000309E31712E912B2200C5
:102BC40049084A040319EA2D0130C9020030CA3BFE
:102BD40049084A04031D08009E2790312308031D59
:102BE400F92D763021020230223B031CFE2D0530E4
:102BF400A00053239F31332F23269031003A031D25
:102C04000A2E9931E0215830C9000230CA00080068
:102C140049269031003A031D080047269031003AB6
:102C2400031D080023269031D127903126269031A8
:102C340027209031EA006A08031D08009D314525CC
:102C4400080021006B080800442620008431182461
:102C540090314D261F308C31A62490312108B700C5
:102C64002008B6000630B736B60C890B352EFF3077
:102C7400B6050330B7053708AE003608AD00AF011E
:102C84008E31742E813097040800630808006408AC
:102C94000800640008000130A0020030A13BA23B00
:102CA400A33B200F5D2E210A031D5D2E220A03196A
:102CB400230A03190800A801A901AA01AB012B08E2
:102CC400A7002A08A6002908A5002808A4000130A6
:102CD400A8070030A93DAA3DAB3D2708031D4D2E92
:102CE4002608031D4D2E2508031D4D2E1E302402DB
:102CF40003184D2E612EAF00B0012F0803199F2E2B
:102D0400AA26903137279031E92790313D27903119
:102D14001E27903128305B2790314D269D314B255D
:102D240090312100B0003008031D9C2E8B31CE233E
:102D34009031B0006A229031A42E8A31F822903169
:102D440000301E2721002F088B310423300808008F
:102D540022000E150800D70132080319D32E2E08BD
:102D6400B4002F08B5003008B6003108B7003308A6
:102D7400B800B901BA01BB01B4073908B53D3A0836
:102D8400B63D3B08B73D3708031DD32E0430360249
:102D94000318D32E33080319D32E11303302031C26
:102DA400D52E0930D7005708031DE62E3108A3009D
:102DB4003008A2002F08A1002E08A0003308A400A8
:102DC40083317E239031D7005708031D1C2F300810
:102DD4005038CE002F08BC002E08BD00D801032FA8
:102DE400123058020318072F5808023E3C3E860052
:102DF400870158083207B400840085010008810067
:102E0400D80A33085802031CF22E4F30A0000030B9
:102E1400A1003C30A2003308023EA3004E08A400E7
:102E2400A5018331012390314F30A401A40A9A31C2
:102E34007122D700570808002000A3009030220018
:102E440098001C302000230203182A2F23082B2F5C
:102E54001B30A100A2019931E3291430A000E53010
:102E64008A31E22A2100E001080022000E16A13076
:102E7400970408000800210069080800A401A501BE
:102E8400A601A701A801A901AA0108008700003032
:102E9400C03FC13FC23FC33F08000030A301A30AA3
:102EA400A401A501A601A701A70AA801A901AA01D5
:102EB40008002000A000A101A201A3010800203EF7
:102EC40086000130870001080800A000A101A201CA
:102ED400A3010800AE01AF01B001B101B20002309C
:102EE400B300080010302200B7070030B83DB93DE8
:102EF400BA3D0800213E860001308700403F0800AB
:102F0400203E86000130870005308101080023033C
:102F140024042504260408002100E201E601E50159
:102F2400E1010800C33F1330A0002B08080023066A
:102F340024042504260408003A082000A3002200E3
:102F440039082000A200220038082000A100220035
:102F540037082000A0000800A800A0001030A1003D
:102F6400A2012708B52FA4002008A6002408A50064
:102F74000130A1020030A23B210FC32F220A031902
:102F8400080026088600013087000108A300A60A6D
:102F940025088600870123088100A50ABA2F20008E
:102FA400A0002200DE0008002000A00121005B0830
:102FB4000319E12F2000A001A00A2100DB01200059
:102FC400200808002000A0002200DF0008002900DB
:102FD4009E172000121122008E1508002200BB3516
:102FE400BC0DBD0DBE0D08003B1408007B18013458
:102FF40000342100620808000B1708000034043470
:1030040000340034543469346D34653472342034FB
:103014005334633468346534643475346C346534DF
:1030240020344634613469346C3431340D34003422
:103034008631EC2E8731112F8731402F8731602F55
:103044008731A72F87317C2F87318B2F8731A72F8B
:103054008731902F8731A92F8731142F87312D2F56
:10306400883134288831392888313C2888313F28F0
:1030740088314228883145288831482888314C28AD
:1030840088314F288831522888315528543469347E
:103094006D346534723420345334633468346534A5
:1030A400643475346C3465342034463461346934A2
:1030B4006C340D34003450346F34773465347234E6
:1030C400203453346134763469346E3467342034B4
:1030D4004F34663466340D34003450346F347734EE
:1030E40065347234203453346134763469346E3444
:1030F400673420344F346E340D34003489340A3448
:10310400D4341034AA3411343D340A34E23409344A
:1031140022341A3414340834463472346534653431
:10312400203463346F3475346E3474342034003492
:103134009331922B9331B72B9431522C94316F2CC1
:083144009331A22B9331922B71
:1033C000973174270800A00022009900080021000E
:1033D0001708C139123897000800640080010131D4
:1033E000890BEE290034FE0012001E00FE0BF429AA
:1033F0000034FF30FB292000A0002100E800080075
:1034000021082200C400200020082200C300080078
:103410000534FF34123412340734013401340734D4
:1034200020080319162A22008E16080022008E1288
:103430000800200803191F2A22008E170800220006
:103440008E1308003208860005308701810031089C
:103450008A310B22003422004D08603E2000A20079
:10346000003022004E3D2000A3002102031D3A2A15
:10347000220820020318013400342000A1018E31FB
:10348000E9269A31123A031D512A54229A3120001A
:10349000A00010302002031C4F2A0130502A0030B7
:1034A000A1002000210808005F08080002309331C5
:1034B00060239A310530F9012100E7002000003037
:1034C000A301973140279A319431B2249A310130C7
:1034D000A301973140279A319431B22402309331BD
:1034E000602BA6000230A500A701A70A2608A000AD
:1034F0002730A101A200240883311B239A31023016
:10350000270603197F2AA503031D2708031D762A12
:103510002708031D013400340030210261300319F3
:103520002002031C9C2A2100600A0319992AE00A40
:103530009E2AFF30E0009E2A2100E0016008031966
:10354000A32A0130A42A00302000A200080027008E
:10355000131EAC2AAF229A31931E0800BC2A220007
:10356000450846040319B92A46088A0045080A0096
:103570009A3127001312080022004308440403195B
:10358000C62A44088A0043080A009A312700931289
:1035900008000034003400340034003400340034B7
:1035A0000034003419341A34003400340034003448
:1035B000003400340034003401340034003400346A
:1035C0000034003400340034003410341A34003431
:1035D0000034003400340034003400340034182344
:1035E0002000A0008E31E9269A31123A031D08000E
:1035F000043020002002031C072B22004D084E043B
:103600000319072B0130CD020030CE3B08000330F8
:103610002000200203180800003022004E020B3068
:1036200003194D0203180800CD0A0319CE0A080039
:103630005E08080022003E082000A70022003D0886
:103640002000A60022003C082000A50022003B0824
:103650002000A400A8012100DE01DF012000A90153
:10366000A90A24080139A80709302906031D3B2BA4
:1036700028082100DE001E3020002906031D432BF0
:1036800028082100DF0020002030A90AA736A60C58
:10369000A50CA40C2902031C312B22003E0820009B
:1036A000A30022003D082000A20022003C082000C8
:1036B000A10022003B082000A0005E2B230822006E
:1036C000D900200022082200D80020002108220072
:1036D000D700200020082200D60008001110220088
:1036E0004208F1004108F0007B239B31772B210039
:1036F000DB01DB0A8A2B2000181D852B18107108AE
:103700009700700896001814080071089700700858
:1037100096000800F701F8010530F0007708C9238A
:10372000973161279B310319BA2B0530F0007708D8
:10373000C92397317C279B31F300413FF400423F7E
:10374000F500433FF6007504740473040319BA2BA3
:103750000530F0007708C9239B31213E86000130F7
:103760008700810200304131813B4131813B413151
:10377000813B7D31F70A0319F80A7808803AF30093
:1037800080307302031DC62B033077020318080034
:103790008C2BF100F20170087118F207F035F13648
:1037A0007108031DCB2B720808008A31B6229B31A9
:1037B0002000AF002F08031D0800F0301805AE00F0
:1037C000303A031DEB2B963123269B31023A031D21
:1037D000EB2BF0239B31FE23003A031D630008000E
:1037E000C430200098009901F3309700E3308F3106
:1037F000F2279B310B178B178B31012B2000AD016A
:10380000963123269B31023A031D182C00301B24CD
:103810009B312608031D182C2508031D182C24088D
:10382000031D182C093023020318182CAD01AD0A12
:1038300020002D0808002000AC000530A801A901D7
:10384000AA01AB01A0002C08953104259B319731CA
:1038500061279B310319422C953110259B3105308E
:103860002000A0002C08953104259B3197317C273E
:103870009B31A800413FA900423FAA00433FAB0053
:103880009331512320002B08A6002A08A5002908FF
:10389000A4002808A300080023000430CB01200066
:1038A000BF00C0013F08C63E8600013087000A30D5
:1038B000A000A1013E08A3003D08A200A7249C315E
:1038C0002008303E81000A30A000A1013E08A3007C
:1038D0003D08A20082249C312108BE002008BD00C2
:1038E000FF30BF07031CC003C01F522CC630B800F6
:1038F0000130B9009531D5251830B8009830B9009D
:103900009531D52DA401A501200821040319A22C6D
:10391000A601A60AA11B8F2CA035A10D892CA435C8
:10392000A50D21082302031D972C20082202031C49
:103930009E2C2008A2022108A33B2414A136A00C2F
:10394000A60B8F2C2508A1002408A0000800200841
:1039500021040319C22CA401A40AA11BB22CA03576
:10396000A10DAC2C21082302031DB82C2008220233
:10397000031CBE2C2008A2022108A33BA136A00CE8
:10398000A40BB22C2308A1002208A00008004525A2
:103990009C31CA2CB701B801B901BA018931AC21F7
:1039A0009C3130259C31D42CA800A9002208230486
:1039B000031908003E259C3122082907A400FF3E78
:1039C00038259C31033003192202031C0800290A00
:1039D0008600200881002908023E29259C31FE3EF0
:1039E00029259C31FD3E38259C31073003192202E0
:1039F000031C08002908033E29259C31FC3E38257C
:103A00009C31093003192202031C08002909A40073
:103A10002A09A500A40A0319A50A2408A600250856
:103A2000A7000330A605A7012608A907A2022708B8
:103A3000A33BFC30A205FF30A30522082304031991
:103A400008003E259C310130A2020030A33BA90AA8
:103A50001D2D86002008810022082907A4000800E7
:103A600020001030A001A101A2005230A3010800E3
:103A70008600200881000030230208002908860003
:103A80000130870020088100080058302200C9005A
:103A90000230CA000800A40129001C082000A80068
:103AA000A70129001B082000A70404308C31A6249C
:103AB0009D312108A6002008A5000630A636A50CD9
:103AC000890B5E2DA601260821004A02031D6A2DDE
:103AD000C6259D3103186F2D7A08031D9C2D2000EB
:103AE000260821004A02031D772DC6259D310318A3
:103AF000832D7A08031D832D04302000A702003097
:103B0000A83BFA01A32D4A0820002602031D8A2D96
:103B1000CB259D3103188F2D7A08031D7C2D2100A4
:103B20004A0820002602031D972DCB259D3103183E
:103B3000A32D7A08031DA32D04302000A707031826
:103B4000A80AFA01FA0A093028028030031927026C
:103B50000318AD2D1330A400BB2D0C30280201300A
:103B6000031927020318AA2D280829009C00200009
:103B7000270829009B00200026082100CA002000F9
:103B800025082100C900200024080800200025087D
:103B900021004902080021004908200025020800F0
:103BA000DB259D31D32DA00020080319D92D7B14CE
:103BB00008007B1008002000AB01AC011330A0000E
:103BC0002C08953104259D31A03EF9259D31003A00
:103BD0000319EC2DAB01AB0A0230AC0A2C02031C1A
:103BE000DE2D2B080319F62D9731372720002B08DF
:103BF0000800AA002A0A4F269D312A080B3E86009B
:103C00005B269D31031D0E2E23082702031D0E2E59
:103C100022082602031D0E2E210825020318122E4B
:103C20000130132E0030A900A0002A08093E8600AA
:103C300001308700413F8A00403F0A009E3120004A
:103C40002A08053E4F269D312A0A8600403FA107DB
:103C5000413FA23D423FA33D433FA43D2A080B3EC6
:103C600066269D317D315B269D31031D412E230843
:103C70002702031D412E22082602031D412E210882
:103C80002502031C4D2E2A080B3E86000130973179
:103C900048279D312A080F3E66262908080086001D
:103CA00001308700403FA100413FA200423FA300F6
:103CB000433FA4000800403FA500413FA600423F0B
:103CC000A700433FA800240828020800860001300E
:103CD000810700304131813D4131813D4131813D9C
:103CE0000800B5003208B7003108B6002200BF0155
:103CF000C00120003608840037088500120003192F
:103D0000902E3630AA003308AB00350899269E3134
:103D10002A082200BF0720002B082200C03D792E70
:103D2000220040082000B20022003F082000B1001D
:103D30000800B0001B279E311200253A031DD82E23
:103D400027279E310318810A1B279E3112006E3AE5
:103D5000031DC02E27270318810A2B088600870120
:103D6000403F84008501810A0008AF0086002200E0
:103D70003F08C03F4008C13F2000AA01AB01080036
:103D80001B279E311200253A031DD32E27279E3173
:103D90000318810A25302E279E31E5262000AA012E
:103DA000AA0AAB01080027279E310318810ABC2EFE
:103DB0001B279E3100082E279E31E5269E312000CC
:103DC00027279E310318810ACE2E2408031D2408BC
:103DD000031DEC2E2208172F2408033E86008701BE
:103DE0001600010403190D2F2408033E86008701E5
:103DF000403FA500413FA600240A8600403FA7009F
:103E0000413FA800803AA9002608803A2902031DF4
:103E10000B2F25082702031808002000240A86001B
:103E200001308701810741310318810A0800A10090
:103E300021088831D6282A0886008701403FAC0037
:103E4000413FAD002C0884002D08850008002A0899
:103E5000860001308701810741310800A200A301DB
:103E60003008A40008000530EE000030992F07301C
:103E70002100C3006D08B100C330B2006E08C0005D
:103E80008030C101C035C10D400784009830413DEC
:103E90008500013F8A00003F0A0007309F31210062
:103EA0004306031D552F0430C300ED302000A2004F
:103EB000210043082000A300EE30B4279F312100E9
:103EC0006D08031D742F8A2F013099279F318A2F87
:103ED000033099279F318A2F023099279F318A2FEB
:103EE000003099279F318A2F4308C000C101410843
:103EF000003A03197C2F8A2F4008013A0319642FD6
:103F0000023A03196C2F073A0319682F013A031973
:103F1000702F8A2FA4279F31003A03190800A72782
:103F20009F31003A0319972F043099279F310030B1
:103F3000F72F2000AF002100E7000530F900023024
:103F4000933160239331912BFB180134003420000E
:103F50000530A00121006706031DB12F2000A0013C
:103F6000A00A200020080800A700A60127080319BE
:103F7000C02F22080319C02F07302306031DC22FAC
:103F80000930A6002608031D0800DC2F270886003C
:103F90008701010823060319D22F22088600810118
:103FA000810AD62F22088600870181012708860012
:103FB000870123088100EE2F2308A400A50125080E
:103FC000003A0319E42FDB2F240884000730040291
:103FD0000318EE2F87310435F03E82002708860053
:103FE00087010108A000220886009331532B20008E
:103FF000A00020080319FE2FFB140800FB10080086
:020000040001F9
:04000E00F4C9FFFF33
:00000001FF
