:020000040000FA
:1000000080312D28080008007E1480318B190B1CCC
:100010000D289A31DB2280312B280B1F2B28210041
:10002000111C19282000111C19289B31E82380314C
:100030002B282100911D23282000911D2328863183
:10004000EC2680312B282100921D2B282000921DA8
:100050002B288731FE277E1009008B318A2B200048
:10006000A10193228031123A031D4228452080319C
:100070002000A00010302002031C4028013041283D
:100080000030A1002000210808005E08080043306D
:10009000CA00AF30C900C801C7016C08A0006D08D4
:1000A00016248031B52180312308B1002208B00028
:1000B0002108AF002008AE006A08A0006B081624D3
:1000C0008031B5218031F42384312C248031FD230B
:1000D00080319B2280314A082100A300200049087A
:1000E0002100A200200048082100A10020004708AC
:1000F0002100A000DB0A5B0807390F2480312008AB
:10010000C03F2108C13F2208C23F2308C33F3F3000
:100110002200B600B501B401B3012100A4012408F6
:100120000F24403F2000A000413FA100423FA20019
:10013000433FA300220036082000A7002200350814
:100140002000A600220034082000A5002200330869
:100150002000A4008531A225803123082200B600AA
:10016000200022082200B500200021082200B4004F
:10017000200020082200B30021000830A40A240235
:10018000031C8F28220036082000E30022003508D7
:100190002000E200220034082000E10022003308A1
:1001A0002000E000992380316008EE00EE36EE3644
:1001B000EE366E08F02B0530AB018E31AE26803165
:1001C00021082100AA00200020082100A9000630F3
:1001D000AA36A90C890BE828FF30A9050F30AA051B
:1001E0001F308E31AE26803121082100AE00200064
:1001F00020082100AD000630AE36AD0C890BFC287E
:10020000FF30AD050F30AE052E082000AE002100F6
:100210002D082000AD00AF01AF0A1E2280319322CD
:100220008031AC002E082000EB0021002D082000BA
:10023000EA0021002C082000EC00ED01472080316D
:1002400029082000A00021002A082000162480315F
:10025000B5218031F4234330B100AF30B000AF019D
:10026000AE0184312C248031FD23803121002D0802
:100270002000A00021002E08200016248031B52186
:1002800080312308CA002208C9002108C8002008BC
:10029000C7009B2280314A08E3004908E200480871
:1002A000E1004708E000992363082100A80020002E
:1002B00062082100A700200061082100A60020009C
:1002C00060082100A5002E082000A10021002D08B3
:1002D0002000A000210028082000A50021002708F8
:1002E0002000A400210026082000A30021002508EA
:1002F0002000A2009A31FD228031003A0319902992
:1003000021005A08DA0A2000EF0033306F02031C84
:10031000B22900308F313427803121001430AC29CC
:10032000013021002E02DE3003192D025A08031C71
:10033000AF29DA0A2000EF000B306F02031CA62958
:1003400021002C08FF3E96228031DA010C3021007A
:100350002C020318B2291530DA01AB00B2290319B7
:10036000B229DA0321002B080800A8002808031D81
:10037000A31FCA292009AA002109AB002209AC0049
:100380002309AD00AA0A0319AB0A0319AC0A031921
:10039000AD0AD2292308AD002208AC002108AB0029
:1003A0002008AA002308220421042004031DDD29BB
:1003B000A001A101A201A30108009630A900FE300E
:1003C0002D050319F029A90A27248031DF290130DE
:1003D000A90AAA070030AB3DAC3DAD3D27248031D2
:1003E000FF302D050319FE29E72902302902031CDD
:1003F000002AA903AA35AB0DAC0DAD0DAC1FF52934
:10040000291CAC13A9362908A700A601A501A4013F
:100410002408AA042508AB042608AC042708AD0468
:100420002808031DA31F152AAD172D08A3002C08AB
:10043000A2002B08A1002A08A0000800B401B50101
:100440002D082E040319472A2D08A0002E08A1000C
:100450001030A201A301A701A600A501A401542206
:1004600080312308B3002208B2002108B10020081F
:10047000B0003308031D402A01303202031C432A16
:10048000B401B501472A3108B5003008B4002F087F
:10049000031D4F2A3508A1003408A000E82B3508B9
:1004A000A1003408A000E02BA801A901AA01AB011A
:1004B000230822042104200403198A2AAC01AC0A6F
:1004C000A31B672AA035A10DA20DA30D5F2AA83595
:1004D000A90DAA0DAB0D23082702031D792A2208B6
:1004E0002602031D792A21082502031D792A2008E6
:1004F0002402031C842A2008A4022108A53B220808
:10050000A63B2308A73B2814A336A20CA10CA00CE1
:10051000AC0B672A2B08A3002A08A2002908A10017
:100520002808A000080021006A0808002000A00098
:100530002100EA0008004E08D7008030D7054E356C
:10054000DE00CD1B5E145E080319AE2A5E0FAC2AD6
:10055000CB01CC01CD01CE01CD17B12ACB01CC010D
:10056000CD01CE014A088039D7064A35DF00C91BC4
:100570005F145F080319C42A5F0FC22AC701C801AC
:10058000C901CA01C917C72AC701C801C901CA01DF
:100590004A08490448044704031DE12A8030CB017E
:1005A000CC01CD01CE01CD047F30CE045708CE045E
:1005B0004E08CA004D08C9004C08C8004B08C700C7
:1005C00008005E08031DE92AC701C801C901CA0164
:1005D00008005E08D800D9015F08D802031CD903BF
:1005E0007F30D8070318D90A4E08D6004D08D50029
:1005F0004C08D4004B08D300CB01CC01CD01CE0177
:10060000DA01DB01DC01DD01DF011A305F020318D2
:10061000352B5F0803191A2BD335D40DD50DD60D04
:10062000CB35CC0DCD0DCE0DDD1B4B14DA35DB0DEE
:10063000DC0DDD0D4A085602031D282B4908550222
:10064000031D282B48085402031D282B470853027A
:10065000031C332B5D174708D3024808D43B4908D5
:10066000D53B4A08D63BDF0A052B560855045404EF
:100670005304031D5A14CD1B4C2BCB35CC0DCD0D83
:10068000CE0DDD1B4B14FF30DA35DB0DDC0DDD0D3F
:10069000D807031CD9033B2BDF01DD1F612B5A0850
:1006A000CF005B08D0005C08D1007F305D05D20030
:1006B000510450044F0403194B185F2B612BDF01C9
:1006C000DF0A5F080319732B0130CB070030CC3DE4
:1006D000CD3DCE3D4E1C732BCE37CD0CCC0CCB0C70
:1006E000D80A0319D90A21248031031D792BFF3040
:1006F0005802031C802BFF302000D8001B248031BF
:10070000200021248031031D872B0130580203185B
:100710008E2B2000D8011B248031D70120005808DF
:10072000DE005E1C952BCD17962BCD135E36CE00CA
:10073000D62A062480310310660D670DE90069088A
:10074000031DA72BE001E101E201E30108000624FB
:1007500080311F30E736E60CE50CE40C890BAA2B40
:100760006408E8009630E217E301E902E91FC42BB0
:100770006908803A973E031CA22BE336E20CE10C99
:10078000E00CE90FBD2BD12B203069020318A22BFE
:1007900069080319D12BE035E10DE20DE30DE90302
:1007A000C82B680803190800E009E109E209E30918
:1007B000E00A0319E10A0319E20A0319E30A08002F
:1007C00021082200DF00200020082200DE000800AF
:1007D00021082200E500200020082200E400080093
:1007E000A0002100E90008002308B5002208B40099
:1007F0002108B3002008B20008003108CE003008FC
:10080000CD002F08CC002E08CB0008006008E400C3
:100810006108E5006208E6006308E70008000907D0
:100820000907203E8600023087000800A100003042
:10083000A201A3010800D901CB01CC01CD01CE0159
:1008400008005908803ACF0080304F020800AD36CA
:10085000AC0CAB0CAA0C08003108BA008030BA0509
:100860003135C000B01B4014400803193D2C400F27
:100870003B2C9D258431B0173F2C9D2584313508B4
:100880008039BA063535BB00B41B3B143B0803194D
:100890004F2C3B0F4D2C98258431B417512C9825A3
:1008A00084313B08031D4008031D5B2CAE01AF01E2
:1008B000B001B10108002E08A0003408462584319B
:1008C0002108C6002008C500BC00BD01BE01BF0153
:1008D0004608C100C201C301C4012F08A0003308AB
:1008E00046258431210878258431C1070130031859
:1008F000C2070318C3070318C4073008A000320852
:1009000046258431210878258431682584312F08D3
:10091000A0003208462584315D2584312E08A000D0
:100920003308462584315D2584313E08BF003D08EB
:10093000BE003C08BD00BC012E08A00032084625C0
:1009400084315D2584312F08A00034084625843188
:100950008525843133084625843185258431340842
:10096000462584312108C6002008C500B600460887
:10097000B700B801B9013808B9003708B80036081F
:10098000B700B6013608C1073708C23D3808C33D75
:100990003908C43D3F08682584314008C500C601B8
:1009A0003B08C5070318C60A8230C507031CC603E7
:1009B000C31BE62CC135C20DC30DC40DBF1B4114B2
:1009C000FF30BC35BD0DBE0DBF0DD52CBB01BF1F0B
:1009D000FB2C3C08B6003D08B7003E08B8007F304D
:1009E0003F05B90038043704360403194118F92CBF
:1009F000FB2CBB01BB0A3B0803190D2D0130C107BD
:100A00000030C23DC33DC43D441C0D2DC437C30C52
:100A1000C20CC10CC50A0319C60A92258431031DF4
:100A2000132DFF304502031C1D2D7F302000C40014
:100A30008030C300C201C1013B2D200092258431CA
:100A4000031D242D0130450203182D2D2000C10166
:100A5000C201C301C401BA013B2D20004508C000FA
:100A6000FF30C105C2057F30C3050030C401401806
:100A7000C3174036C4003A08C4044408B100430810
:100A8000B0004208AF004108AE000800A700A30173
:100A9000A4012008A500A601271C522D2508A307A4
:100AA0002608A43DA535A60DA7362708031D4C2D05
:100AB0002408A1002308A00008002108C60020087F
:100AC000C500BC074608BD3D0030BE3DBF3D080027
:100AD000C10701300318C2070318C3070318C4076E
:100AE0003E08BF003D08BE003C08BD00BC01080038
:100AF000C6002008C500BC0701300318BD07031855
:100B0000BE070318BF07460808002108C6002008D2
:100B1000C500C1074608C23D0030C33DC43D300892
:100B2000A00008004608803AB6008030360208006F
:100B3000B201B301B401B5010800AE01AF01B001CB
:100B4000B10108002308B0008030B0052335B200A1
:100B5000A21B321432080319B52D320FB32DA00198
:100B6000A101A201A301A217B82DA001A101A20118
:100B7000A3012708B1008030B10531083006031DFC
:100B800030172735B100A61B311431080319D02DB9
:100B9000310FCE2DA401A501A601A701A617D32DC3
:100BA000A401A501A601A701320831020318FA2DFC
:100BB000301FDC2D8030B0063208B3003108B2009F
:100BC0003308B1002008B3002408A0003308A400B3
:100BD0002108B3002508A1003308A5002208B300AE
:100BE0002608A2003308A6002308B3002708A300A4
:100BF0003308A700B3013108A800A9012908AB00F8
:100C000032082802AA00031CAB032B08803AAC0070
:100C100080302C02031D0E2E1A302A02031C2B2EAC
:100C2000200023082204210420040319192E013076
:100C30001A2E0030B300A001A101A201A3013108C6
:100C4000B200302E331C282E33360138B300292E43
:100C5000B336D8268531200031083202031C222EFB
:100C6000301B4A2E3208031D362EE72E2408A0071B
:100C70002508A13D2608A23D2708A33D231CAA2E36
:100C8000331C462E33360138B300472EB336D826F0
:100C90008531AA2E2308803AA8002708803A280226
:100CA000031D5C2E26082202031D5C2E250821024E
:100CB000031D5C2E240820020318872EFF30A80095
:100CC000A900AA00AB0020082402AC002108253BA3
:100CD000AD002208263BAE002308273BAF002C08BE
:100CE000A8072D08A93D2E08AA3D2F08AB3D2B08CB
:100CF000A3002A08A2002908A1002808A00080302B
:100D0000B006B309B30F8F2EE02685318F2E24084D
:100D1000A0022508A13B2608A23B2708A33B2308E5
:100D2000220421042004031DA82E3308031DA82E2D
:100D3000E72EA035A10DA20DA30DB31B2014331C6B
:100D4000A42E0314B30DA52EB3353208031DB20330
:100D5000A21F992EB101B31FB52E33087F39031995
:100D60002018B32EB52EB101B10A31080319C22ED5
:100D7000E0268531231CC22EA337A20CA10CA00CA7
:100D8000320FB20A320A031D3208031DCE2EA00113
:100D9000A101A201A30132080319B001321CD22E15
:100DA000A217D32EA2133236A300B01BA31708003C
:100DB0002018B317A337A20CA10CA00CB20A08008C
:100DC0000130A0070030A13DA23DA33D0800A001D5
:100DD000A101A201A301080091112400951FBA2FBF
:100DE00095132100D001EA27860087018101810A3D
:100DF000CE010800C61808004508CE004508860048
:100E0000013087000108CF00450A8600403F2200DC
:100E1000CB00413FCC0004302100C50745086A3AA9
:100E2000031D142F6630C5004610450844060319FB
:100E3000C6142400161402302100D000080024003B
:100E400096141B2F2400161F292F21000430C80AD6
:100E5000CE2F7D08F2007C08F100F236F10C71080B
:100E600091007C1C372F0B302100D000080003308C
:100E70002100D00008002400161F422F210004305A
:100E8000C80ACE2F961406307D05F100F038FC001C
:100E9000FD017C142100CB01CB0A1B2F4B0303194E
:100EA000652FF8278631403FFC00413FFD004B088D
:100EB00086004C088700433101082100CD00F82747
:100EC0008631423101082100CC007C0824009100C9
:100ED0007C1C372F05302100D00008002400161F8D
:100EE000772F2100C80A240016130530CE2F2100C9
:100EF000CC034C0F812FF1278631CF0B1F2F0030F1
:100F0000CE2F4D08860087010108240091002100A2
:100F1000CD0A08002400161F942F21000430C80AAF
:100F2000CE27240016130800961508302100D000A3
:100F300008000830D0002400961508004D088600EF
:100F400087012400110881002100CD0ACC03031978
:100F5000AF2F2400961206302100D000B22F2400BB
:100F60009616E0272400161608000030CE2F063013
:100F7000C80ACE2F21005008F100F2017208003A91
:100F80000319C32FB72F710884000C300402031813
:100F9000B72F98310435193E82000800F000240074
:100FA00016152100EA2786310319DE2F4E08033E6D
:100FB000860001088600870170088100D0010800C2
:100FC000F1278631CF0BE72F0430D0000800D00185
:100FD000D00A08004E08033E860001308700010851
:100FE000080004302200CB070318CC0A21000800B7
:100FF00022004B0886004C08870008009211080068
:101004003208860003308701810031089331EC23D4
:1010140088310030EA258831023A031D003421006A
:101024003208860000308701810134279631A926D1
:101034008831292288314322883121240034200038
:10104400E50122006D082000E00022006C08200069
:10105400DF0022006B082000DB0022006A08200069
:10106400DA00E601E70192228831083057278831F7
:10107400D12688315F308F270030B3000230B400AE
:101084009131F2218831DC000A3070278831D12671
:1010940088310530DE005D286630AE01AF01B00155
:1010A400B101B2000230B300913149218831E50029
:1010B400650803196028DE035E0F4E280630E10040
:1010C400E8015C080319681465080319E814680842
:1010D400E200E80166085F06031968146708600601
:1010E4000319E8146808E30062066106E4000430AA
:1010F400A10061309431B5248831DD005A308F2746
:101104000030B3000230B4009131F22188310A304A
:1011140070278831D1268831292220005D080800F3
:101124000030242231089631082688312100BF017D
:10113400BA01BB01BE01BE0ABC01BD01B401B501C7
:101144002C228831003A0319AE2845278831003A09
:101154000319AE280330252900309B3163238831DD
:1011640026082100B900200025082100B80020002D
:1011740024082100B700200023082100B600390804
:10118400031DD0283808031DD0283708031DD02894
:10119400333036020318D028D701D70A3908380467
:1011A40037043604031952295508031DDB2801307E
:1011B400DC28003007278831BF00143A031DE928D2
:1011C40001309631292688312100BE01F5281330DB
:1011D4003F06031DEF280430F42815303F06031D95
:1011E400F5280530BE003F08031D49295508031999
:1011F4004929BC302000E100BA30E200B430482272
:1012040088312100BF005408031D1329D401D40AD6
:101214003C081E3E2200CF00003021003D3D22004C
:10122400D0000130242288313F08031D27293D08BE
:1012340022005002031D222921003C0822004F02F3
:101244000318272904302100552921003F08031DD4
:1012540049293B082000A10021003A082000A000F1
:10126400E2278831003A0319492921005708031954
:101274003D29D801D80A5608031D56293608C83C0A
:10128400B300D32788312100D601D60A562921007C
:101294005508031D4F29013050290030D500562927
:1012A400580B24290230BE003E0303196029003084
:1012B400152488314A27D5019731FB273208860047
:1012C40087013E0881003F0808000030B301B401E3
:1012D400B501B601242231089331FF23883121005E
:1012E4000230BA01B701B801B9002C228831003AA2
:1012F4000319852945278831003A031985290330C4
:101304002100B900B229903100208831023A031D2E
:101314008F2901309E31BC268831FD278831003A5F
:10132400031D962943228831210053080727883159
:10133400BA00133A0319A22914303A06031DA4294A
:101344000430A92915303A06031DAA290530B9002D
:1013540053080319B229D301292288314D27883132
:1013640021003A080230031D162A3906031D152AE6
:101374000030EA258831023A031D152A2100D20AD9
:101384009B319423883180312F208831003A031D0A
:10139400072AB530E100B730E200B3304822883183
:1013A4002100BA000130242288313A08031D022AA0
:1013B400360822005002031DE329210035082200CB
:1013C4004F02031C072A2100D10138082000A10084
:1013D400210037082000A0009A31AE228831003A5B
:1013E400031DF7292100D301D30A09302100520635
:1013F400031D0A2A9031032088312100D2010A2AD0
:101404001530D10A5102031C0A2A04302100B90004
:101414009A317A228831003015240A309731BA275C
:101424008831C825883102302100390603191C2A65
:101434000030152421003208860087013908810014
:101444003A0808002000A0002100E2000800220061
:101454000E110800003020008C1A0130A000200872
:10146400031D382A95278831E00A402A21006008A4
:101474000319402A610A0319402AE10A20002008BE
:10148400080022000E125E3097050800E400E50112
:1014940064080319522A6108031D6208031D542AB3
:1014A4000930E5006508031D612A9222883108305D
:1014B40057278831D126883195228831E50065087F
:1014C400031D682A90314F208831E5006508031D0B
:1014D4008E2A143070278831D12688312830E300D1
:1014E4000F30E500892A6108D7006208D800640833
:1014F4009E31C5268831E5006508031D832AE30172
:10150400892A0530E30370278831D126883163089E
:10151400031D6508031D752A29222000650808009B
:1015240022000E1508001030CE00A030CB01CC01F3
:10153400CD01CB008430CC008030CD004B30CF00C7
:101544000330A8004F08A9005D309031DF208831B6
:10155400013A031DB82A0330A8004F08A9005C30E3
:101564009031DF208831013A0319CE014E08031D62
:10157400002BC901CA01C501C601C701C801E82A77
:10158400882788315D3002238831013A031DD02A2F
:10159400CB1BCE2A0130CF2A0030C90088278831DE
:1015A4005C3002238831013A031DDE2ACB1BDC2A7E
:1015B4000130DD2A0030CA000130C5070030C63DC5
:1015C400C73DC83D9B278831D12688314808031D73
:1015D400F92A4708031DF92A4608031DF92A14307D
:1015E40045020318F92A490BC22A4A0BC22A4908A0
:1015F400031D4A08031D002B1030CE004E080800BE
:10160400B600B701AF01B001B101B801B901BA0127
:10161400BB01B201B301B401B50129088038AF00A0
:101624003C30A0000030A1002F30A200A301A30A87
:101634003608A400A5019231642288314030A0000C
:101644000030A1002A08A2002808A3003608A4003C
:10165400A5019331832388310230C4006A2B3C30C6
:10166400A0000030A1004430A200023093312523B1
:101674008831B801B901BA01BB0102304406031D27
:101684005E2B3B08AE003A08AD003908AC003808C0
:10169400AB000130B8070030B93DBA3DBB3D2E0860
:1016A400031D5D2B2D08031D5D2BF4302B0201302F
:1016B4002C3B031C3F2BB7014408031D642BB701CB
:1016C400B70A852B0130B2070030B33DB43DB53DB8
:1016D40044030319852B3B08031D852B3A08031D7E
:1016E400852BF53038020130393B0318852B35083A
:1016F400031D852B3408031D852BF5303202013080
:10170400333B031C312B440B882BB70137080800EB
:10171400A53084009A308500E630860000308700CA
:1017240009309A31862288312200FF30EA00EB002A
:10173400AA30EC005530ED00213084009B30850048
:10174400A03086000130870026309A318622883105
:10175400C430F901FA01FB01FC01FD0184000030F1
:10176400850022309A318022883120308400013073
:1017740085004A309A3180228831C6308400013095
:10178400850018309A31802288312030840002305C
:10179400850020309A31802288317E102000D22B9F
:1017A400D723883118268831D42B21248831E62385
:1017B4008831E4238831F4238831ED2390313020BB
:1017C4009A31742A9A31C02A07302100EC00FB01B7
:1017D400E301E2010800F223883106248831052F51
:1017E4009331D92B06302100EE00ED01ED0A2000E3
:1017F400A00021006D08082488310D2488310E24AE
:10180400973102279A318C2A8B1708002000200870
:101814002100EC00080008000030152488314A2714
:10182400D501D50A08002000A3000530A000230834
:10183400BA25203E86000130870081010800C625B4
:1018440088312000A401A50105302000A00024084F
:10185400BA25883181278831A0002408BA25883127
:10186400213E860001305D278831A40A0319A50AA8
:101874002508803AA30080302302031D432C033043
:101884002402031C262C062C512D0030A3014F27C3
:101894008831672588310130A3014F2788316725B6
:1018A400883105302100E600652D05307906031DD9
:1018B4006A2C0130A3014F27883167258831143001
:1018C400A30000304F278831672588310230D02C9F
:1018D4000230022D05307906031D802C0A30A30046
:1018E40000304F278831672588310130A3014F2705
:1018F400883167258831F901F90A652D790B8F2C18
:1019040000309E258831A1278831031D8F2C642740
:101914008831672588310130302D02307906031D66
:10192400B82C00309E2588311930AB278831031D2F
:10193400652D64278831672588310130A3014F273D
:1019440088316725883122000230AF01AF0AB00127
:10195400B101B201152488319630A3000230A401EC
:10196400A501A601C82588310330D02C033079069F
:10197400031D012D0230EA258831023A031DD22CC1
:101984001430A30000304F27883167258831013097
:10199400A3014F278831672588310430F900652D6C
:1019A40000309E2588310330AB278831031D652D17
:1019B40001302200AF070030B03DB13DB23D200000
:1019C400A301A30AA401A501A60122003208200054
:1019D400AA00220031082000A900220030082000BB
:1019E400A80022002F082000A700003067258831B6
:1019F4000130A3014F27883167258831652D0430D4
:101A04007906031D652D00301D2D05307906031D53
:101A14000D2D1430712C790B182D00309E25883132
:101A2400A1278831031D182D0A30292D023079068B
:101A3400031D652D01309E258831A1278831031DA2
:101A4400652D472C05307906031D322D1430A30073
:101A540001304F278831672588310030A301642C79
:101A640002307906031D652D01309E258831A1279A
:101A74008831031D652D0030A3014F278831672568
:101A840088310230A3001230A401A501A601A700E9
:101A94000130A801A901AA0167258831B62C2100CB
:101AA40066082000AD00AE012E08003A03195B2D34
:101AB400652D2D088400063004020318652D983125
:101AC4000435633E82009D31532DAB0002302B025E
:101AD400031808001330A0002B08BA258831A13E52
:101AE4008600013087002308C03F2408C13F250831
:101AF400C23F2608A6278831BA258831A53E86002C
:101B0400013087002708C03F2808C13F2908C23F89
:101B14002A08A6278831BA258831AB3E86000130D1
:101B24005D2788311330A0002B08BA258831AF3ED9
:101B3400860001305D2708002000A800023028023A
:101B44000318B52D1330A0002808BA25AF3E86002F
:101B540001308700403FA300413FA400423FA5005D
:101B6400433FA6000800A301A401A501A6010800A3
:101B7400A200A10120082218A107A035A23622083C
:101B8400031DBC2D210808008B130800A800053094
:101B9400A0002808BA25883175278831031D08005C
:101BA4000530A0002808BA25883181278831810AA8
:101BB400A0002808BA25213E8600013087002308AA
:101BC400C03F2408C13F2508C23F2608C33F080080
:101BD4002000A7000530A0002708BA258831752702
:101BE40088310319142EC625883105302000A00041
:101BF4002708BA2588317B278831A300413FA400F8
:101C0400423FA500433FA600062488312000260851
:101C14002504240423040319112EA801162E0230CE
:101C2400A800162EA801A80A28080800342688311E
:101C3400C5278831003A03191A2E2200D30A031942
:101C4400D40A0A3053065404031D2C2E90317920F3
:101C540088312B2E33269D31FC2588314B26933138
:101C6400A42B462C96315D2688312000AF002F0826
:101C7400031D0800F0301805AE00303A031D452E50
:101C840090313B2088319B314723003A031D630088
:101C9400080022004D084E040319542E0130CD02D1
:101CA4000030CE3B4D084E04031D0800B027883198
:101CB4002308031D632E763021020230223B031CCD
:101CC400682E0530A00008249D31F82D8D2688311A
:101CD400003A031D742E90312E205830CD0002306E
:101CE400CE00080003278831003A031D08000127AD
:101CF4008831003A031D08008D268831C0278831B9
:101D040090269131A8218831EB006B08031D08004F
:101D14009731F527080021006C080800CE26883189
:101D240020009B278831D12688311F30AE26883188
:101D34002108B7002008B6000630B736B60C890B68
:101D44009F2EFF30B6050330B7053708AE003608BE
:101D5400AD00AF0182311E2A2000A300A200A20D13
:101D6400A20D21001D08200022068339220621002D
:101D74009D001D1400320032000021009D149D18A6
:101D8400C12E1C082000A100A00121001B08200076
:101D9400A0070318A10A0800813097040800013045
:101DA400A0020030A13BA23BA33B200FE12E210A5D
:101DB400031DE12E220A0319230A03190800A801AE
:101DC400A901AA01AB012B08A7002A08A60029082B
:101DD400A5002808A4000130A8070030A93DAA3DA9
:101DE400AB3D2708031DD12E2608031DD12E25083F
:101DF400031DD12E1E3024020318D12EE52E6208B5
:101E04000800630808000B170800AF00B0012F0892
:101E14000319292F92229D31D1258831D827883161
:101E2400DF27883134278831283057278831D12655
:101E34009C31CE2488312100B0003008031D262FA8
:101E44008031DB208831B000292288312E2F963151
:101E5400A92688310030342721002F089631BD2669
:101E6400300808002000A3009030220098001C30A5
:101E7400200023020318402F2308412F1B30A10008
:101E8400A2019A31702A1430A000E4309631E72E72
:101E94002100DF0108003F140800A401A501A601E8
:101EA400A701A801A901AA0108002000A000A1011E
:101EB400A201A301080087000030C03FC13FC23F18
:101EC400C33F08000030A301A30AA401A501A60191
:101ED400A701A70AA801A901AA010800A000A1015D
:101EE400A201A3010800203E8600013087000108FA
:101EF4000800213E860001308700403F0800203E54
:101F04008600013087000530810108002130A801D6
:101F1400A80AA9004F08AA000800AE01AF01B00149
:101F2400B101B20008002100E101E501E401E00192
:101F34000800A001A00AA101A201A3010800230333
:101F44002404250426040800C33F1330A0002B08F2
:101F54000800230624042504260408003E08200063
:101F6400A30022003D082000A20022003C0820001B
:101F7400A10022003B082000A00008002000A000CF
:101F84002200E20008002000A001210059080319E2
:101F9400D02F2000A001A00A2100D9012000200890
:101FA40008002000A0002200E300080029009E177A
:101FB4002000121122008E15080021006908080073
:101FC40000302102613003192002031CF22F21008A
:101FD4005F0A0319EF2FDF0AF42FFF30DF00F42F1D
:101FE4002100DF015F080319F92F0130FA2F0030B7
:101FF4002000A20008007B1801340034210061088D
:1020040008002C202000A000823193229031123A43
:10201400031D0800043020002002031C1B2822009A
:102024005108520403191B280130D1020030D23B5D
:1020340008000330200020020318080000302200AA
:1020440052020B300319510203180800D10A031974
:10205400D20A08005D080800C0270800F52790315F
:102064004628320886000530870181003108F725AB
:102074000034C43098009901F3309700E3308B2783
:1020840090310B178B17FF2EBB01BC01BD01BE01A4
:10209400AE259031C8279031B62AA030C201BD01C7
:1020A400BE01BF01C001BD008430BE003D30BF0190
:1020B400BF0AC1000330A8004108A9005D30DF2039
:1020C4009031013A031968281130C2004208031DF7
:1020D40077280330A8004108A9005C30DF20903144
:1020E400013A031977281130C20042080800B701E9
:1020F400B801B901BA013A08031DDA28E8303802F8
:102104000330393B0318DA282100DC01DC0A8A3168
:102114009222903108308F31572790318E31D12659
:102124009031DB01DC0120005B08C63E86000130F3
:102134008700FF308100DB0A0319DC0A5C08803A5F
:10214400DA0080305A02031DA92810305B02031CF8
:10215400952822003A082000B10022003908200006
:10216400B000220038082000AF0022003708200009
:10217400AE00C630B2000130B3001030B400F2211A
:1021840090312100EB00A423903121006B08031946
:10219400D22804302000B7009830B800A62390312C
:1021A40010302200B7070030B83DB93DBA3D7D2854
:1021B400BB01BC01BD01BE010800B2003830B3014F
:1021C400B30AB401B501B601B701AE01AF01B00164
:1021D400B101A0000030A1002908A2002808A30032
:1021E4003208A400A501642290310230BC002929E0
:1021F4003830A0000030A1003C30A200013025237B
:102204009031B401B501B601B70102303C06031D9B
:1022140026293708AD003608AC003508AB00340871
:10222400AA000130B4070030B53DB63DB73D2D08D6
:10223400031D25292C08031D2529F4302A02013009
:102244002B3B031C0729B3013C08031944293C0315
:10225400031944293708031D44293608031D44295A
:10226400F53034020130353B031844293108031D8D
:1022740044293008031D4429F5302E0201302F3B38
:10228400031CFA283C0B4729B30133080800C70193
:10229400320803196B292E08B4002F08B500300842
:1022A400B6003108B7003308B800B901BA01BB0160
:1022B400B4073908B53D3A08B63D3B08B73D370881
:1022C400031D6B290430360203186B293308031DE0
:1022D4006D290930C7004708031D7D293108A30073
:1022E4003008A2002F08A1002E08A0003308A40083
:1022F4007E229031C7004708031DA62930085038B4
:10230400BE002F08BC002E08BD003F30A0000030E6
:10231400A1003C30A2000230A3003E08A400A501A5
:10232400642290314330A0000030A1003208A200A2
:102334003308A3003E08A400A50183239031023092
:10234400A4003F300B23C7004708080020005A3080
:10235400EA01EA0AA7005630AF22903122003E0873
:10236400031DED29FF303B02FF303C3B03303D3B76
:102374000318ED298A319222903108308F31572782
:1023840090318E31D126903122003E082000B100D8
:1023940022003D082000B00022003C082000AF00CD
:1023A40022003B082000AE005A30B2000030B300D7
:1023B4001030B400F2219031EA006A08031DE329C9
:1023C400C0270A308F31572790318E31D126903172
:1023D4008A3129229031C8279031B6226A08080030
:1023E400D801320833040319192A2E08B5002F081E
:1023F400B6003008B7003108B8003408B900BA0193
:10240400BB01BC01B5073A08B63D3B08B73D3C08E3
:10241400B83D3808031D192A043037020318192A55
:1024240034080319192A11303402031C1B2A0930F9
:10243400D8005808031D2B2A3108A3003008A20035
:102444002F08A1002E08A0003408A4007E22903199
:10245400D8005808031D622A30085038CF002F08CE
:10246400BD002E08BE00D9014B2A123059020318B0
:102474004F2A5908023E3D3E860087015908B5009F
:10248400B601320784003608333D85000008810018
:10249400D90A34085902031C372A5030A0000030EE
:1024A400A1003D30A2003408023EA3004F08A4005E
:1024B400A501642290315030A401A40A0B23D80052
:1024C400580808002508A7002408A600A635A70D6B
:1024D40020088600210887002608C03F2708C13F3E
:1024E4002008023EA9279031230881002008033EDA
:1024F400A9272208810008002408AA00AB01AC0126
:10250400AD012008AA072108AB3D2208AC3D2308F1
:10251400AD3DFF30AA07AB3DAC3DAD3D2A082006DA
:10252400A5002B082106A6002C082206A7002D08CA
:102534002306A8000130A501A605A705A8012808BF
:10254400270426042504031DA92A0130AA2A0030E1
:10255400A9002908031909340034A800A000103088
:10256400A100A2012708672BA800A90022082304C0
:1025740003190800DD27903122082907A400FF3E33
:10258400D0279031033003192202031C0800290AC2
:102594008600200881002908023E99279031FE3EDA
:1025A40099279031FD3ED02790310730031922023C
:1025B400031C08002908033E99279031FC3ED027CC
:1025C4009031093003192202031C08002909A400D0
:1025D4002A09A500A40A0319A50A2408A6002508A7
:1025E400A7000330A605A7012608A907A202270809
:1025F400A33BFC30A205FF30A305220823040319E2
:102604000800DD2790310130A2020030A33BA90A63
:10261400FF2AA6000230A500A701A70A2608A000E9
:102624002730A101A2002408252390310230270677
:102634000319182BA503031D2708031D102B2708B6
:10264400031D01340034A30021004618532BEA274C
:10265400903181002100440A860001308700200067
:102664002008C03F2108C13F210044088600200003
:102674002308810021004408033E8600200022082C
:10268400810004302100C40744086A3A031D4C2B1E
:102694006630C400C61045084406031D592B461471
:1026A400592B20002208860087018101810AEA272C
:1026B40090310106031D080021005008031D5E2B04
:1026C400642B5E2B200091150800A4002008A600AE
:1026D4002408A5000130A1020030A23B210F752B74
:1026E400220A031908002608860001308700010821
:1026F400A300A60A25088600870123088100A50AED
:102704006C2B2508A7002408A600A635A70D2008D1
:102714008600210887002608C03F2708C13F2008FB
:102724008600210887000130810441312008023EDF
:10273400A0279031230881002008033EA027220807
:1027440081000800640008003930BB003808B1007B
:102754003708B0003B30B2000030B02BB400310871
:10276400B6003008B5002200C301C40120003508BA
:1027740084003608850012000319D02B3530AA00D6
:102784003208AB0034089C314F2490312A082200CF
:10279400C30720002B082200C43DB82B22004408A4
:1027A4002000B100220043082000B00008003427B4
:1027B40090313A279031172790311F2790312827DD
:1027C4009031B0259031702790317A2790312427A9
:1027D4009031C32D2000AA002A08031908000030F4
:1027E4008C31152490311D30BA278D31C825903194
:1027F4000030292690310030BD2E2000A900290880
:102804000319080000308C31152490310A30BA279E
:102814008D31C82590310227903126269031003A17
:10282400031D0800B02EB60132088600870181011D
:1028340031080319222C66259031003A0319252CFE
:10284400E42790318100E42790310106031D702CA8
:10285400922590318F259031B500320886000630DC
:10286400870181005E2CCD249031D02490315B2CE3
:10287400D32490315B2CED2490315B2CF2249031E5
:102884005B2CF62490315C2C192590315C2C88311A
:10289400212090315B2C982490315B2C7B24903147
:1028A4005B2C3B2590315B2C532590315B2C5625BA
:1028B40090312100B600702C3508B300B4013408FF
:1028C400003A0319662C592C330884000B30040297
:1028D4000318592C98310435313E820032088600A1
:1028E40087010108031D782C0130292621003608B0
:1028F4000800D6278E1512308F31342790310430DA
:102904008E31AE2690312108AB002008AA00083091
:10291400A6002A08A7002B08A80027062606A90057
:102924000430A1002630B524A5000800D6278E1156
:1029340012308F313427903104308E31AE269031ED
:102944002108AB002008AA000730A6002A08A70027
:102954002B08A80027062606A9000430A10026306B
:10296400B524A5000800A400A3012108230203182C
:10297400003423082407A200860087010108C62426
:1029840090312000A30AB72CA000111EC72C2008E8
:1029940023009A000800AF259031B02D22000E16B6
:1029A400003412308F313427903105308E31AE2609
:1029B40090312108AB002008AA00A601A60AA700AE
:1029C4002B08A80027062606A9000430A1002630FB
:1029D400B524A500080000308F3134278E17003449
:1029E40022008E138E16003422008E120E15A9308A
:1029F4002000E100A630E200A0308A314822903164
:102A04002100A8002808031D172D0430A20029085E
:102A1400A3002A08A40023062206A50004302000EF
:102A2400A100A230B5242100A80028080800220033
:102A34000E11A0302000E100A630E200A9308A3156
:102A4400482290312100A8002808031D392D0530A3
:102A5400A2002908A3002A08A40023062206A50030
:102A640004302000A100A230B5242100A8002808C9
:102A7400080000308F31342790318E11003020004F
:102A84008C1A0130A6000930A7002608A800A90165
:102A940029062706AA000430A1002730B524A50082
:102AA400080022008D160034FF302000A6000A30F2
:102AB400A700A030A80027062606A9000430A1001C
:102AC4002630B524A50008002000A4012100680FC9
:102AD400842D0B30E80020000C1C8C1C842D21005C
:102AE4000230E801E7002000A401A40A22000E112C
:102AF4008E110E128E120E138E138D1200308F3122
:102B0400342790310B302100680603198C2D2000E6
:102B1400A401A40A20002408080021006808080071
:102B240020000C0C0139A000A0350C080139200745
:102B3400A2002100670820002206A0000339A1009A
:102B4400033A031D080022082100E7000B30E80ABD
:102B540068020318E8010800B02DC32D6630210077
:102B6400C500C400C6144610C801240094012830CE
:102B7400950097010F3092002000911121009115CA
:102B84000800483023009F0080309D0026309E00BE
:102B940033309B009C010800320886000430870112
:102BA4008100310864268A312C229031003A0319BD
:102BB400E92D60269031003A0319E92D21003208ED
:102BC4008600013087018101810AB4260034003077
:102BD4008D31EA259031023A0030031D08008C3112
:102BE4001524903121003208F02F2000A600260879
:102BF400031908008C312124903100308F3134279F
:102C04009031A9268A3129228A31432A2000A90039
:102C140029080319080000308C3115249031C8307C
:102C2400BA278D31C82590318F314A279031D5018B
:102C3400D50AFB27903126269031003A031D242E15
:102C4400B02690310030292EFB19013400342000C5
:102C5400A00020080319302E7B1508007B11080002
:102C64003208860087018101310883268A312C22AB
:102C74009031003A03194D2E60269031003A031921
:102C840000348B31F223903100308C311524903193
:102C940021003208F02F00308D31EA259031023ABC
:102CA4000319432EC22690315D269031003A031950
:102CB4000034FD2600347B1901340034E530A001D2
:102CC400A00AE72E2000A9002908031908000030F3
:102CD4008C3115249031B2278D31C82590310030C4
:102CE4008F3134279031A9268A3129229031B02698
:102CF40090310030B42690310030BD2600308A3146
:102D0400242A2000A90029080319080000308C3166
:102D140015249031B2278D31C825903100308F3180
:102D240034279031A9268A31292290318A314322CD
:102D340090312000A001A101A201A301B32690318A
:102D4400B02690310030B42690310030BD2E2900D9
:102D54009E132000121122008E1108008F31952736
:102D6400080008002000A00020080319BB2EFB1552
:102D74000800FB1108002000A0002100E300080067
:102D8400A92621001D1010302200980029009E134E
:102D940022008C013B3021008C0023008C01240094
:102DA4008C012F3022008D0521008D0523008D011B
:102DB40024008D0122008E0121008E0123008E014A
:102DC40022009101930197010800A1002108031931
:102DD4000034210061082000200203180034210877
:102DE400860087010108031D003421088600013094
:102DF4008101810A08006300FF2E200018140800D6
:102E04000A2790312100D201D1010E27D3010800F5
:102E14002200D101D20108002200BF01C001C1017A
:102E2400C2012100DE01DD01080021009D012030E6
:102E34009E009F019B019C01080010302200980015
:102E44009901080001302200970008004030290051
:102E54009E009F019A01990198010A309C00C0309C
:102E64009B000800683021009900220096010800A8
:102E74008C0150308D008E013B3021008C00D0300D
:102E84008D0003308E0023008E008D0104308C00F1
:102E940024008D018C0121009517013022009D0032
:102EA4002700131293121216921211129116023065
:102EB4002000A0000030A1006827903103302000DA
:102EC400A0000030A10081278B15080021082200F2
:102ED400CA00200020082200C90008003030200069
:102EE40098009901CF3097002C308B279031FF2E1A
:102EF40001309C00FF309B009A019110892F21081A
:102F04002200C800200020082200C70008001C1569
:102F14000800960017082200C600C5012000160804
:102F24002200C5042000111021001114080086009D
:102F34002008810022082907A4000800A600003008
:102F4400213DA70026088600270887000800A60060
:102F54000030213DA70026088600270887000800C6
:102F64000030A600A5008C30A400A030A3000034DB
:102F7400A3000030A401A501A6010800103022001E
:102F8400BB070030BC3DBD3DBE3D080020001030F5
:102F9400A001A101A2005630A30108008600200868
:102FA400810000302302080029009E0122000E1532
:102FB40040308E060800290886000130870020086A
:102FC40081000800210032088600063087010800CD
:102FD400200022088600023087010800860087014D
:102FE4008101810A003458302200CD000230CE0025
:102FF4000800D801D601D701D401080000340434F4
:103004000034003445346534703472346F346D34B4
:10301400203477347234693474346534203466343B
:10302400613469346C34653464340D34003486316D
:10303400FA2E87311F2F87314E2F87316E2F87311C
:10304400B52F87318A2F8731992F8731B52F873153
:103054009E2F8731B72F8731222F87313B2F943111
:10306400352C94313A2C94313D2C9431402C9431AC
:10307400432C9431462C9431492C94314D2C943169
:10308400502C9431532C9431562C323416349234BF
:1030940008346734093402340834CE3415343334F4
:1030A4001034153414349E318B2E9E318B2E9E3168
:1030B4008B2E9E318B2E9E318B2E9E318B2E9E31EC
:1030C4008B2E8C31472C8C316C2C8D31072D8D310E
:0A30D400242D8C31572C8C31472C31
:1034E000A00022009900080021001708C1391238F5
:1034F000970008002200BF35C00DC10DC20D0800A5
:10350000640080010131890B812A0034FE00120021
:103510001E00FE0B872A0034FF308E2A2000A000F8
:103520002100E800080020080319992A22008E16BD
:10353000080022008E12080020080319A22A220087
:103540008E17080022008E13080005340234FF3461
:103550001234123401340734013407342200510884
:10356000603E2000A20000302200523D2000A30057
:103570002102031DBD2A2208200203180134003451
:1035800002308C3115249A310530F9012100E60012
:1035900020000030A3018F314F279A318D316725EC
:1035A0009A310130A3018F314F279A318D31672530
:1035B00002308C31152C2700131EE02AE3229A31A9
:1035C000931E0800F02A220049084A040319ED2A34
:1035D0004A088A0049080A009A3127001312080095
:1035E0002200470848040319FA2A48088A004708B5
:1035F0000A009A31270093120800A601A60A25089E
:10360000031D1F2B2408031D1F2B1930220201301C
:10361000233B03181F2B2508031D182B2408031D0B
:10362000182B2308031D182B88302202031C1F2B84
:10363000013021022330031920020318A6012608B5
:103640000800003400340034003400340034003406
:10365000003400349C341A34003400340034003414
:1036600000340034003400340134003400340034B9
:103670000034003400340034003493341A340034FD
:103680000034003400340034003400340034AD0120
:103690008E318D269B31023A031D602B003063234F
:1036A0009B312608031D602B2508031D602B240871
:1036B000031D602B093023020318602BAD01AD0AF6
:1036C00020002D0808002000AC000530A801A90149
:1036D000AA01AB01A0002C088D31BA259B318F3196
:1036E00075279B3103198A2B8D31C6259B310530F7
:1036F0002000A0002C088D31BA259B318F317B270B
:103700009B31A800413FA900423FAA00433FAB00C4
:103710008C31062420002B08A6002A08A5002908C1
:10372000A4002808A3000800220042082000A700E7
:10373000220041082000A600220040082000A50029
:1037400022003F082000A400A8012100DD01DE01C5
:103750002000A901A90A24080139A807093029066F
:10376000031DB52B28082100DD001E30200029068E
:10377000031DBD2B28082100DE0020002030A90AEF
:10378000A736A60CA50CA40C2902031CAB2B220007
:1037900042082000A300220041082000A2002200CD
:1037A00040082000A10022003F082000A000D82BE4
:1037B00023082200DD00200022082200DC00200077
:1037C00021082200DB00200020082200DA00080087
:1037D000111022004608F1004508F000F5239B3146
:1037E000F12B2100D901D90A042C2000181DFF2B30
:1037F00018107108970070089600181408007108D6
:103800009700700896000800F701F8010530F000F5
:10381000770843248F3175279B310319342C0530E9
:10382000F000770843248F317B279B31F300413F21
:10383000F400423FF500433FF6007504740473043E
:103840000319342C0530F000770843249B31213EC6
:10385000860001308700810200304131813B4131D7
:10386000813B4131813B7D31F70A0319F80A780821
:10387000803AF30080307302031D402C033077023E
:1038800003180800062CF100F20170087118F20705
:10389000F035F1367108031D452C72080800AF00A1
:1038A000B6249C311200253A031D732CC2249C318E
:1038B0000318810AB6249C311200253A031D6D2C91
:1038C000C2249C310318810A2530C9249C318024EC
:1038D0002000AA01AA0AAB010800C2240318810A29
:1038E000AA01AB010800B6249C310008C9249C3110
:1038F00080249C312000C2249C310318810A682C4A
:103900002408031D2408031D872C2208B22C240838
:10391000033E86008701160001040319A82C240821
:10392000033E86008701403FA500413FA600240AD0
:103930008600403FA700413FA800803AA900260822
:10394000803A2902031DA62C250827020318080027
:103950002000240A860001308701810741310318C5
:10396000810A0800A10021089431C62C2A0886008B
:103970008701403FAC00413FAD002C0884002D087A
:10398000850008002A08860001308701810741313F
:103990000800A200A3012F08A4000800A401290028
:1039A0001C082000A800A70129001B082000A7046C
:1039B00004308E31AE269C312108A6002008A500D7
:1039C0000630A636A50C890BE12CA601260821009D
:1039D0004A02031DED2C4E259C310318F22C7A0867
:1039E000031D1F2D2000260821004A02031DFA2C6A
:1039F0004E259C310318062D7A08031D062D043030
:103A00002000A7020030A83BFA01262D4A0820001A
:103A10002602031D0D2D49259C310318122D7A080D
:103A2000031DFF2C21004A0820002602031D1A2D29
:103A300049259C310318262D7A08031D262D0430B4
:103A40002000A7070318A80AFA01FA0A0930280279
:103A50008030031927020318302D1330A4003E2DA7
:103A60000C30280201300319270203182D2D2808D5
:103A700029009C002000270829009B002000260820
:103A80002100CA00200025082100C90020002408C8
:103A90000800210049082000250208002000250810
:103AA0002100490208005E259D31562DA000200806
:103AB00003195C2D7B1408007B1008002000AB016B
:103AC000AC011330A0002C088D31BA259D31A03EE9
:103AD0007B259D31003A03196F2DAB01AB0A0230F3
:103AE000AC0A2C02031C612D2B080319782DD1255B
:103AF00020002B080800AA002A0AD6259D312A0892
:103B00000B3E8600E2259D31031D902D23082702E0
:103B1000031D902D22082602031D902D2108250249
:103B20000318942D0130952D0030A900A0002A081B
:103B3000093E860001308700413F8A00403F0A006D
:103B40009D3120002A08053ED6259D312A0A86008F
:103B5000403FA107413FA23D423FA33D433FA43D1B
:103B60002A080B3EED259D317D31E2259D31031D57
:103B7000C32D23082702031DC32D22082602031D7F
:103B8000C32D21082502031CCF2D2A080B3E8600D9
:103B900001308F315D279D312A080F3EED25290820
:103BA000080022000E16A13097040800860001309C
:103BB0008700403FA100413FA200423FA300433F96
:103BC000A4000800403FA500413FA600423FA700D7
:103BD000433FA8002408280208008600013081071E
:103BE00000304131813D4131813D4131813D08000D
:103BF0000530EE0000305E2E07302100C3006D0856
:103C0000B100C330B2006E08C0004730C101C035FA
:103C1000C10D400784009830413D8500013F8A0076
:103C2000003F0A0007309E3121004306031D1A2E73
:103C30000430C300ED302000A20021004308200022
:103C4000A300EE3079269D3121006D08031D392E29
:103C50004F2E01305E269D314F2E03305E269D3162
:103C60004F2E02305E269D314F2E00305E269D3154
:103C70004F2E4308C000C1014108003A0319412EEC
:103C80004F2E4008013A0319292E023A0319312E0A
:103C9000073A03192D2E013A0319352E4F2E6926A6
:103CA0009D31003A031908006C269D31003A031932
:103CB0005C2E04305E269D310030BC2E2000AF000B
:103CC0002100E6000530F90002308C3115248C31DA
:103CD000462CFB180134003420000530A0012100DF
:103CE0006606031D762E2000A001A00A20002008F1
:103CF0000800A700A60127080319852E220803192A
:103D0000852E07302306031D872E0930A6002608BE
:103D1000031D0800A12E270886008701010823063D
:103D20000319972E220886008101810A9B2E220802
:103D3000860087018101270886008701230881000A
:103D4000B32E2308A400A5012508003A0319A92EC3
:103D5000A02E24088400073004020318B32E9831E3
:103D60000435553E82002708860087010108A0001F
:103D7000220886008C31082C2000A000200803199E
:103D8000C32EFB140800FB100800D900E001DE017F
:103D9000DF01DA01DB01DC01DD0159080319D52E51
:103DA0005708031D5808031DD72E0930E00060088E
:103DB000031DF72E003083279E31013A031DF52E97
:103DC000013083279E31013A031DF52E5E30C50078
:103DD0005C30C600003032279E31E0005F08A10051
:103DE0005E08A000E8279E31F72E0E30E00020008C
:103DF0006008031D092F5A30C5005C30C600013031
:103E000032279E31E0005D08A1005C08A000F02789
:103E10009E3120006008031D302F5F08A1005E085E
:103E2000A0005B08A3005A08A2005808A400B62707
:103E30009E31E000580886008701403FA000413FC6
:103E4000A100F82720005908860087015A08C03FC2
:103E50005B08C13F570886005E08C03F5F08C13F4E
:103E600060080800D600D50145080319402F460810
:103E70000319402F56080319422F56030319422FE6
:103E80000930D5005508031D812F5608031D4A2F00
:103E90005D304B2F5C30D4004D30D3000530A8008E
:103EA0002830A9005308AA0054088B3102239E3100
:103EB000013A031D7F2F4E0E0F39C700C8014F086E
:103EC000C900F030CA01C90ECA0ECA0549080F3927
:103ED000CA04F030C90547084904CB0048084A0421
:103EE000CC004508860087014B08C03F4C08C13F05
:103EF000460886005008C03F5108C13F812F0F304F
:103F0000D50055080800D000D201D20ACF01D10156
:103F10005108453E8600093087018101D10A5102CE
:103F2000031C882F5008031D972F5D309A2F500BCC
:103F30009C2F5C30CF009D2FD201520BAC2F45300F
:103F4000CE000830A8002030A9004E08AA004F0873
:103F50008B3102239E31D200520BB42FCC1CB22FD6
:103F60000130B32F0030D20052080800A701240806
:103F7000031DBC2F0930A7002708031DE62F2208C8
:103F800023040319C72F20082104031DCA2F123050
:103F9000A700E62F23082102031DD02F22082002AC
:103FA000031CE02F22082002A5002308213BA600C5
:103FB0002408860087012508C03F2608C13FE62F58
:103FC0002408860000308701C03FC13F2708080051
:103FD00021082200D900200020082200D800080073
:103FE00021082200E100200020082200E000080053
:103FF00021082200D700200020082200D600080057
:020000040001F9
:04000E00F4FFFFFFFD
:00000001FF
