:020000040000FA
:0400000080312D28F6
:100008007E1480318B190B1C0D289A31D122803136
:100018002B280B1F2B282100111C19282000111C2C
:1000280019289B31982380312B282100911D2328E2
:100038002000911D23289D31A42580312B282100E3
:10004800921D2B282000921D2B288731FB277E101C
:1000580009008C31A12CBE286300642A71208031EC
:1000680077208031582080316020803165208031B0
:1000780045208031AD208031B7208031C9208031C2
:10008800BE2866302100A100A000A2142210A401FD
:10009800240094012830950097010F309200200029
:1000A800911121009115080021009D0120309E002A
:1000B8009F019B019C0108001030220098009901C3
:1000C8000800403029009E009F019A01990198017B
:1000D8000A309C00C0309B0008006830210099005D
:1000E8002200960108008C0150308D008E013B30B3
:1000F80021008C00D0308D0003308E0023008E004C
:100108008D0104308C0024008D018C01210095178D
:10011800013022009D00270013129312121692122A
:1001280011129116FE302000A0000730A100A52072
:100138008031FD302000A0000730A100CD208B15B4
:10014800080021082200C600200020082200C5005F
:1001580008003030200098009901CF3097002C30EB
:1001680085228031642A01309C00FF309B009A016F
:100178009110D528483023009F0080309D002630FC
:100188009E0033309B009C0108000130220097003C
:10019800080021082200C400200020082200C30013
:1001A80008001C1508003622803156228031003A9A
:1001B8000319D928342280316B218031E520803120
:1001C800832A220049084A040319EE280130C9028B
:1001D8000030CA3B49084A04031D08004F218031FA
:1001E8002308031DFD28763021020230223B031C20
:1001F80003290530A0008D31182580316729262173
:100208008031003A031D0E2964215830C90002309C
:10021800CA0008004D218031003A031D08004B2117
:100228008031003A031D0800262180315F2180318A
:1002380029218831EB208031EA006A08031D080073
:100248000027080021006C080800482180312000A0
:100258007C268B31A72380311F3093317B2380315B
:100268002108B7002008B6000630B736B60C890B4F
:100278003929FF30B6050330B7053708AE00360810
:10028800AD00AF019531492D813097040800400831
:100298000800410808003A082000A3002200390895
:1002A8002000A200220038082000A1002200370800
:1002B8002000A00008002000A0002200DA000800AA
:1002C8008F31682708000530EE000030CD2907304F
:1002D8002100E7006D08D500E730D6006E08E4007D
:1002E8002E30E501E435E50D640784009830653D5E
:1002F8008500013F8A00003F0A0007308131210054
:100308006706031D89290430E700ED302000A200AC
:10031800210067082000A300EE30E8218031210089
:100328006D08031DA829BE290130CD218031BE29C1
:100338000330CD218031BE290230CD218031BE2944
:100348000030CD218031BE296708E400E501650849
:10035800003A0319B029BE296408013A03199829FB
:10036800023A0319A029073A03199C29013A0319EB
:10037800A429BE29D8218031003A03190800DB21BD
:100388008031003A0319CB290430CD218031003067
:100398002B2A2000AF002100E8000530F9000230C8
:1003A8008D3125258D31562DFA1801340034200061
:1003B8000530A00121006806031DE5292000A001E1
:1003C800A00A200020080800A700A6012708031992
:1003D800F42922080319F42907302306031DF629F6
:1003E8000930A6002608031D0800102A27088600E1
:1003F8008701010823060319062A220886008101BD
:10040800810A0A2A220886008701810127088600B6
:10041800870123088100222A2308A400A5012508B2
:10042800003A0319182A0F2A240884000730040206
:100438000318222A983104353C3E8200270886009A
:1004480087010108A000220886008D31182D2000A0
:10045800A00020080319322AFA140800FA1008002C
:100468008D31562D8F313B2780312000AF002F086A
:10047800031D0800F0301805AE00303A031D462A67
:100488004B2280316722003A031D63000800C43004
:1004980098009901F3309700E330852280310B17DB
:1004A8008B17642A2000A001210038080319612A4B
:1004B8002000A001A00A2100B8012000200808009F
:1004C800200018140800AD0126218031023A031DCE
:1004D800802A00308C31482480312608031D802A68
:1004E8002508031D802A2408031D802A09302302B9
:1004F8000318802AAD01AD0A20002D080800640009
:100508000800960017082200C200C1012000160842
:100518002200C10420001110210011140800C70195
:1005280032080319B52A2E08B4002F08B500300880
:10053800B6003108B7003308B800B901BA01BB01E9
:10054800B4073908B53D3A08B63D3B08B73D37080A
:10055800031DB52A043036020318B52A3308031DD3
:10056800B72A0930C7004708031DC72A3108A30066
:100578003008A2002F08A1002E08A0003308A4000C
:10058800E2258031C7004708031DF02A300850389B
:10059800BE002F08BC002E08BD003F30A000003070
:1005A800A1003C30A2000230A3003E08A400A5012F
:1005B800652580314330A0000030A1003208A20038
:1005C8003308A3003E08A400A501C12580310230EC
:1005D800A4003F300627C70047080800A030C20122
:1005E800BD01BE01BF01C001BD008430BE003D3069
:1005F800BF01BF0AC1000330A8004108A9005D304F
:10060800FB248031013A03190B2B1130C200420838
:10061800031D1A2B0330A8004108A9005C30FB24F5
:100628008031013A03191A2B1130C2004208080020
:10063800D900E001DE01DF01DA01DB01DC01DD01C7
:10064800590803192C2B5708031D5808031D2E2B76
:100658000930E0006008031D4E2B0030D92380319B
:10066800013A031D4C2B0130D9238031013A031D77
:100678004C2B5E30C5005C30C600003089238031C9
:10068800E0005F08A1005E08A000452680314E2BDF
:100698000E30E00020006008031D602B5A30C500B2
:1006A8005C30C600013089238031E0005D08A1007C
:1006B8005C08A0004D26803120006008031D872BB0
:1006C8005F08A1005E08A0005B08A3005A08A2000A
:1006D8005808A40013268031E000580886008701D6
:1006E800403FA000413FA100552620005908860040
:1006F80087015A08C03F5B08C13F570886005E085B
:10070800C03F5F08C13F60080800D600D501450812
:100718000319972B46080319972B56080319992B89
:1007280056030319992B0930D5005508031DD72BFB
:100738005608031DA12B5D30A22B5C30D4004D3030
:10074800D3000530A8002830A9005308AA0054088F
:1007580076248031013A031DD52B4E0E0F39C70080
:10076800C8014F08C900F030CA01C90ECA0ECA052F
:1007780049080F39CA04F030C90547084904CB00B5
:1007880048084A04CC004508860087014B08C03F4A
:100798004C08C13F460886005008C03F5108C13F79
:1007A800D72B0F30D50055080800D000D201D20A47
:1007B800CF01D1015108453E8600093087018101EA
:1007C800D10A5102031CDE2B5008031DED2B5D30AE
:1007D800F02B500BF22B5C30CF00F32BD201520BD5
:1007E800012C4530CE000830A8002030A9004E0862
:1007F800AA004F0876248031D200520B092CCC1C59
:10080800072C0130082C0030D200520808001030A4
:10081800CE00A030CB01CC01CD01CB008430CC0080
:100828008030CD004B30CF000330A8004F08A9001E
:100838005D30FB248031013A031D2C2C0330A800C5
:100848004F08A9005C30FB248031013A0319CE011E
:100858004E08031D742CC901CA01C501C601C70190
:10086800C8015C2C6F2680315D3076248031013AD6
:10087800031D442CCB1B422C0130432C0030C900F3
:100888006F2680315C3076248031013A031D522C6A
:10089800CB1B502C0130512C0030CA000130C50749
:1008A8000030C63DC73DC83D7C268B31A72380312B
:1008B8004808031D6D2C4708031D6D2C4608031DB1
:1008C8006D2C1430450203186D2C490B362C4A0B3D
:1008D800362C4908031D4A08031D742C1030CE001D
:1008E8004E080800B600B701AF01B001B101B80168
:1008F800B901BA01BB01B201B301B401B5012908BC
:100908008038AF003C30A0000030A1002F30A2009A
:10091800A301A30A3608A400A5016525803140304B
:10092800A0000030A1002A08A2002808A300360869
:10093800A400A501C12580310230C400DB2C3C3065
:10094800A0000030A1004430A20002307F25803191
:10095800B801B901BA01BB0102304406031DCF2C0E
:100968003B08AE003A08AD003908AC003808AB00C7
:100978000130B8070030B93DBA3DBB3D2E08031D14
:10098800CE2C2D08031DCE2CF4302B0201302C3B2D
:10099800031CB02CB7014408031DD52CB701B70AB6
:1009A800F62C0130B2070030B33DB43DB53D4403E9
:1009B8000319F62C3B08031DF62C3A08031DF62CE8
:1009C800F53038020130393B0318F62C3508031D81
:1009D800F62C3408031DF62CF53032020130333B77
:1009E800031CA32C440BF92CB70137080800B200EC
:1009F8003830B301B30AB401B501B601B701AE018D
:100A0800AF01B001B101A0000030A1002908A20087
:100A18002808A3003208A400A5016525803102300A
:100A2800BC00452D3830A0000030A1003C30A200A9
:100A380001307F258031B401B501B601B70102301C
:100A48003C06031D422D3708AD003608AC003508BA
:100A5800AB003408AA000130B4070030B53DB63DFC
:100A6800B73D2D08031D412D2C08031D412DF430E1
:100A78002A0201302B3B031C232DB3013C08031928
:100A8800602D3C030319602D3708031D602D3608BF
:100A9800031D602DF53034020130353B0318602DFD
:100AA8003108031D602D3008031D602DF5302E021E
:100AB80001302F3B031C162D3C0B632DB30133086B
:100AC80008002508A7002408A600A635A70D2008B9
:100AD8008600210887002608C03F2708C13F200854
:100AE800023E66268031230881002008033E6626E0
:100AF800220881000800A30021002218AD2D7626C7
:100B0800803181002100200A860001308700200002
:100B18002008C03F2108C13F21002008860020008E
:100B28002308810021002008033E860020002208B7
:100B3800810004302100A00720086A3A031DA62D71
:100B48006630A000A21021082006031DB32D221430
:100B5800B32D20002208860087018101810A7626AC
:100B680080310106031D080021002E08031DB82D41
:100B7800BE2DB82D2000911508002508A7002408CF
:100B8800A600A635A70D200886002108870026089C
:100B9800C03F2708C13F2008860021088700013090
:100BA800810441312008023E5D26803123088100FE
:100BB8002008033E5D262208810008002408AA00B8
:100BC800AB01AC01AD012008AA072108AB3D220802
:100BD800AC3D2308AD3DFF30AA07AB3DAC3DAD3D74
:100BE8002A082006A5002B082106A6002C082206A4
:100BF800A7002D082306A8000130A501A605A70512
:100C0800A8012808270426042504031D0D2E0130F9
:100C18000E2E0030A9002908031909340034A70151
:100C28002408031D192E0930A7002708031D432E89
:100C3800220823040319242E20082104031D272E2B
:100C48001230A700432E23082102031D2D2E22084F
:100C58002002031C3D2E22082002A5002308213B68
:100C6800A6002408860087012508C03F2608C13F42
:100C7800432E2408860000308701C03FC13F270863
:100C8800080021082200D100200020082200D000FE
:100C9800080021082200D900200020082200D800DE
:100CA800080021082200CF00200020082200CE00E2
:100CB8000800A6000030213DA70026088600270866
:100CC80087000800A6000030213DA70026088600FE
:100CD8002708870008002130A801A80AA9004F08A2
:100CE800AA000800200022088600023087010800B8
:100CF800A001A00AA101A201A301080000278031D8
:100D0800852EB701B801B901BA0197315127803151
:100D1800EB2680318F2EA800A9002208230403198E
:100D28000800F926803122082907A400FF3EF3268F
:100D38008031033003192202031C0800290A8600A7
:100D4800200881002908023EE4268031FE3EE42680
:100D58008031FD3EF3268031073003192202031C3F
:100D680008002908033EE4268031FC3EF326803142
:100D7800093003192202031C08002909A4002A09C2
:100D8800A500A40A0319A50A2408A6002508A70097
:100D98000330A605A7012608A907A2022708A33B36
:100DA800FC30A205FF30A30522082304031908001C
:100DB800F92680310130A2020030A33BA90AD82EBF
:100DC80086002008810022082907A40008002000C6
:100DD8001030A001A101A2004E30A3010800860036
:100DE800200881000030230208002908860001300D
:100DF800870020088100080058302200C90002300E
:100E0800CA000800A6000230A500A701A70A260804
:100E1800A0002730A101A20024087F2580310230DC
:100E280027060319132FA503031D2708031D0B2FDE
:100E38002708031D01340034B4003108B600300817
:100E4800B5002200BF01C001200035088400360823
:100E58008500120003193F2F3530AA003208AB0075
:100E68003408482787312A082200BF0720002B08AA
:100E78002200C03D282F220040082000B100220097
:100E88003F082000B0000800AF002A08860087014C
:100E9800403FAC00413FAD002C0884002D08850080
:100EA8001200253A031D8D2F2A088600013087017C
:100EB800810741310318810A2A0886008701403FCB
:100EC800AC00413FAD002C0884002D0885001200BD
:100ED800253A031D822F2A088600013087018107E1
:100EE80041310318810A2530A200A3012F08A4006C
:100EF800A9272000AA01AA0AAB0108002A0886002F
:100F080001308701810741310318810AAA01AB0129
:100F180008002A0886008701403FAC00413FAD0029
:100F28002C0884002D0885000008A200A3012F08C2
:100F3800A400A927873120002A08860001308701EC
:100F4800810741310318810A7D2F2408031D2408D5
:100F5800031DB02F2208DB2F2408033E86008701DB
:100F6800160001040319D12F2408033E86008701C7
:100F7800403FA500413FA600240A8600403FA70045
:100F8800413FA800803AA9002608803A2902031D9B
:100F9800CF2F25082702031808002000240A8600FE
:100FA80001308701810741310318810A0800A10037
:100FB800210891310429A4002008A6002408A500CE
:100FC8000130A1020030A23B210FED2F220A0319A4
:100FD800080026088600013087000108A300A60A39
:100FE80025088600870123088100A50AE42F9211AD
:060FF800080008000800DB
:101002002000A60026080319080031258831003087
:1010120003278831FC268831C4228831DE2AD30096
:10102200D401530803193228F92688312E27883132
:10103200E2278831E927883103278831283062275F
:101042008831A7239C31792488312100D4005408A7
:10105200031D2F289231A3228831D400C422883163
:101062003728FC26883100300327883121005308B5
:1010720020275408080056088600033087018100A3
:1010820055089C3105248831003073248831023A96
:10109200031D0034210056088600003087018101BB
:1010A20003278831FC268831C4228831DE22883128
:1010B2003125003456088600043087018100550826
:1010C20082208831C7228831003A031976281C27EA
:1010D2008831003A0319762821005608860001302B
:1010E20087018101810A132700340030732488317B
:1010F200023A0030031D08002525883121005608D8
:10110200932F2000A9002908031908000030252583
:1011120088315A278831D726883100300327883111
:10112200FC268831C42288312527883100301327D4
:1011320088310030202788310030BF2A56088600C7
:10114200870181015508C8208831C7228831003AB9
:101152000319B8281C278831003A031900340225E4
:10116200883100302525883121005608932F003020
:1011720073248831023A0319B028B82788313B27F3
:101182008831003A031900348031302000342000C5
:10119200A9002908031908000030252588315A279B
:1011A2008831D7268831003003278831FC268831E0
:1011B200C4228831DE2288312000A001A101A201CF
:1011C200A3013E2788312527883100301327883133
:1011D2000030202F20005930E901E90AA7004E30E3
:1011E2003327883122003A08031D2829FF303702AD
:1011F200FF30383B0330393B03182829F926883160
:10120200083062278831A723883122003A0820005B
:10121200B100220039082000B00022003808200066
:10122200AF00220037082000AE005930B200103063
:10123200B300D7238831E9006908031D22296827F2
:1012420088310A3062278831A7238831C422863147
:10125200EB26883186318F26690808000030BF22CC
:1012620055089C313A2488312100E301DE01DF0177
:10127200E201E20AE001E101D801D901C722883185
:10128200003A03194B2927278831003A03194B29C1
:101292000330C12900304824883126082100DD00AE
:1012A200200025082100DC00200024082100DB00AA
:1012B200200023082100DA005D08031D6C295C0868
:1012C200031D6C295B08031D6C2933305A02031875
:1012D2006C29B501B50A5D085C045B045A04031964
:1012E200EF293308031D77290130782900301020B7
:1012F2008831E300143A031D852901309C315C24B6
:1013020088312100E201912913306306031D8B29E4
:101312000430902915306306031D91290530E2003F
:101322006308031DE62933080319E629E03020008B
:10133200E100DE30E200D830E32288312100E30010
:101342003208031DAF29B201B20A60081E3E220014
:10135200CB0000302100613D2200CC000130BF22D1
:1013620088316308031DC329610822004C02031D52
:10137200BE292100600822004B020318C329043051
:101382002100F22921006308031DE6295F082000DD
:10139200A10021005E082000A0009A31B622883107
:1013A200003A0319E629210035080319DA29B601A2
:1013B200B60A3408031DF3295A08C83CD700DD27B2
:1013C20088312100B401B40AF32921003308031D36
:1013D200EC290130ED290030B300F329360BC02986
:1013E2000230E20062030319FD290030252588310D
:1013F2002B27B3019C3174245608860087016208AA
:101402008100630808000030D701D801D901DA0150
:10141200BF2255089C311824883121000230DE0198
:10142200DB01DC01DD00C7228831003A0319222AE0
:1014320027278831003A0319222A03302100DD00D0
:101442004E2AF7278831023A031D2B2A01308231B6
:101452002B228831F4278831003A031D322ADE22FA
:1014620088312100310810208831DE00133A031937
:101472003E2A14305E06031D402A0430452A1530E8
:101482005E06031D462A0530DD00310803194E2A87
:10149200B101C4228831F227883121005E0802306E
:1014A200031DB12A5D06031DB02A00307324883162
:1014B200023A031DB02A2100B00A9B31442388312D
:1014C2009A3182228831003A031DA32AD930E100E1
:1014D200DB30E200D730E32288312100DE00013028
:1014E200BF2288315E08031D9E2A5A0822004C0240
:1014F200031D7F2A2100590822004B02031CA32A44
:101502002100AF015C082000A10021005B0820003F
:10151200A0009A3170228831003A031D932A2100DB
:10152200B101B10A093021003006031DA62A9B3100
:10153200192388312100B001A62A1530AF0A2F02E3
:10154200031CA62A04302100DD00EC27883100307C
:1015520025250A309C316E248831D7268831023005
:1015620021005D060319B72A0030252521005608FF
:10157200860087015D0881005E0808002000A00047
:101582002100C000080022000E11080000302000D7
:101592008C1A0130A0002008031DD32A8727883126
:1015A200BE0ADB2A21003E080319DB2A3F0A03197F
:1015B200DB2ABF0A20002008080022000E125E303B
:1015C20097050800E400E50164080319ED2A6108A3
:1015D200031D6208031DEF2A0930E5006508031D9B
:1015E200FC2AF9268831083062278831A723843102
:1015F2000B248831E5006508031D032B8231F2229A
:101602008831E5006508031D292B143076278831BF
:10161200A72388312830E3000F30E500242B61082E
:10162200D7006208D800640883311C238831E500A2
:101632006508031D1E2BE301242B0530E3037627E7
:101642008831A72388316308031D6508031D102B09
:10165200C4222000650808002000E40122006D0871
:101662002000DF0022006C082000DE0022006B0850
:101672002000DA0022006A082000D900E501E60114
:10168200F926883108302000A000A101A201A3019F
:10169200A72388315E30AE01AF01B001B101B200C3
:1016A2000230B300D7238831DB000A30A000A10149
:1016B200A201A301A72388310530DD006F2B65301D
:1016C200AE01AF01B001B101B2000230B30082310C
:1016D20093228831E40064080319722BDD035D0F45
:1016E200602B0630E000E7015B0803196714640809
:1016F2000319E7146708E100E70165085E060319AC
:10170200671466085F060319E7146708E2006106BA
:101712006006E3000430BC0060309031CD20883197
:10172200DC005930AE01AF01B001B101B2000230AC
:10173200B300D72388310A30A000A101A201A3017E
:10174200A7238831C42220005C0808000130A002CF
:101752000030A13BA23BA33B200FB72B210A031D64
:10176200B72B220A0319230A03190800A801A901A9
:10177200AA01AB012B08A7002A08A6002908A50088
:101782002808A4000130A8070030A93DAA3DAB3DBE
:101792002708031DA72B2608031DA72B2508031DB9
:1017A200A72B1E3024020318A72BBB2BD70132080C
:1017B2000319FD2B2E08B4002F08B5003008B6001F
:1017C2003108B7003308B800B901BA01BB01B40748
:1017D2003908B53D3A08B63D3B08B73D3708031D09
:1017E200FD2B043036020318FD2B33080319FD2BA1
:1017F20011303302031CFF2B0930D7005708031D99
:10180200102C3108A3003008A2002F08A1002E08D6
:10181200A0003308A4008531E2258831D70057089B
:10182200031D462C30085038CE002F08BC002E086D
:10183200BD00D8012D2C123058020318312C580843
:10184200023E3C3E8600870158083207B4008400FD
:10185200850100088100D80A33085802031C1C2C99
:101862004F30A0000030A1003C30A2003308023EFD
:10187200A3004E08A400A5018531652588314F30AB
:10188200A401A40A87310627D700570808002000C0
:10189200AC000530A801A901AA01AB01A0002C08E7
:1018A200C9268831702788310319692CD5268831D9
:1018B20005302000A0002C08C92688318D278831E8
:1018C200A800413FA900423FAA00433FAB001625B2
:1018D20020002B08A6002A08A5002908A400280831
:1018E200A30008002000A7000530A0002708C92691
:1018F20088317027883103199D2CD526883105300F
:101902002000A0002708C92688318D278831A3002E
:10191200413FA400423FA500433FA600162588315F
:101922002000260825042404230403199A2CA80164
:101932009F2C0230A8009F2CA801A80A28080800A2
:10194200FF30FD00463084009A308500E830860082
:101952000030870007309A31402288312200FF3060
:10196200EA00EB00AA30EC005530ED00F3308400C1
:101972009A308500A03086000130870026309A31E7
:1019820040228831A030F901FA01FB01FC018400F8
:101992000030850024309A313A2288312030840088
:1019A200013085004A309A313A228831C6308400AB
:1019B2000130850020309A313A2288317E10200091
:1019C200E22CE7248031D7208831E32C312588317D
:1019D200F6248831F424883104258831FD248631A7
:1019E20082269A31342A9A319B2A07302100EC0050
:1019F200FA01C101C001080002258831162588318B
:101A0200FA2F8031322806302100EE00ED01ED0A76
:101A12002000A00021006D08182588311D2588317D
:101A22001E259C312F249A312E2A8B170800200064
:101A320020082100EC00080008000030252588312C
:101A42002B27B301B30A08002000A3000530A00031
:101A52002308C926203E8600013087008101080044
:101A6200D52688312000A401A50105302000A00060
:101A72002408C92688317B278831A0002408C9267A
:101A82008831213E8600013047278831A40A031994
:101A9200A50A2508803AA30080302302031D532D96
:101AA20003302402031C362D162D612E0030A301B3
:101AB2003F278831772688310130A3013F278831BB
:101AC2007726883105302100E800752E0530790629
:101AD200031D7A2D0130A3013F27883177268831F3
:101AE2001430A30000303F27883177268831023036
:101AF200E02D0230122E05307906031D902D0A309A
:101B0200A30000303F278831772688310130A301B6
:101B12003F27883177268831F901F90A752E790B2A
:101B22009F2D0030AE26883182278831031D9F2DDC
:101B32004E278831772688310130402E02307906CF
:101B4200031DC82D0030AE26883119309D278831FB
:101B5200031D752E4E278831772688310130A30167
:101B62003F2788317726883122000230AF01AF0A41
:101B7200B001B101B201252588319630A3000230AF
:101B8200A401A501A601D72688310330E02D033038
:101B92007906031D112E023073248831023A031D87
:101BA200E22D1430A30000303F2788317726883198
:101BB2000130A3013F278831772688310430F900AC
:101BC200752E0030AE26883103309D278831031DE3
:101BD200752E01302200AF070030B03DB13DB23D5D
:101BE2002000A301A30AA401A501A6012200320834
:101BF2002000AA00220031082000A900220030089B
:101C02002000A80022002F082000A700003077261D
:101C120088310130A3013F27883177268831752E1C
:101C220004307906031D752E00302D2E05307906FD
:101C3200031D1D2E1430812D790B282E0030AE2667
:101C4200883182278831031D282E0A30392E02302E
:101C52007906031D752E0130AE2688318227883120
:101C6200031D752E572D05307906031D422E1430A3
:101C7200A30001303F278831772688310030A30145
:101C8200742D02307906031D752E0130AE2688317F
:101C920082278831031D752E0030A3013F2788312A
:101CA200772688310230A3001230A401A501A601D3
:101CB200A7000130A801A901AA0177268831C62D03
:101CC200210068082000AD00AE012E08003A031979
:101CD2006B2E752E2D088400063004020318752E13
:101CE200983104354A3E82009D31032DAB0002300B
:101CF2002B02031808001330A0002B08C9268831D4
:101D0200A13E8600013087002308C03F2408C13F5E
:101D12002508C23F260898278831C9268831A53E62
:101D22008600013087002708C03F2808C13F2908E4
:101D3200C23F2A0898278831C9268831AB3E8600DF
:101D42000130472788311330A0002B08C92688317B
:101D5200AF3E8600013047270800A8000230280263
:101D62000318C42E1330A0002808C926AF3E8600EF
:101D720001308700403FA300413FA400423FA5003D
:101D8200433FA6000800A301A401A501A601080083
:101D9200A200A10120082218A107A035A23622081C
:101DA200031DCB2E210808008B130800A800053064
:101DB200A0002808C926883170278831031D080031
:101DC2000530A0002808C92688317B278831810A7E
:101DD200A0002808C926213E86000130870023087A
:101DE200C03F2408C13F2508C23F2608C33F080060
:101DF20022000E15080029009E1320001211220055
:101E02008E1108002000A3009030220098001C30A0
:101E12002000230203180F2F2308102F1B30A100CC
:101E2200A201FC2F2000A000200803191A2FFA1586
:101E32000800FA110800C330A001A00AA22F200056
:101E4200A0002100C1000800872708001430A0006C
:101E5200C230A22F2100BD01080022000E16A130BF
:101E620097040800A800A0001030A100A2012708D2
:101E72008731DF2F7A19013400340800A401A5014B
:101E8200A601A701A801A901AA0108008700003044
:101E9200C03FC13FC23FC33F08000030A301A30AB5
:101EA200A401A501A601A701A70AA801A901AA01E7
:101EB20008000030A600A5008C30A400A030A300CA
:101EC20000342000A000A101A201A30108001030EB
:101ED2002200B7070030B83DB93DBA3D0800203EA8
:101EE20086000130870001080800A000A101A201BC
:101EF200A3010800203E86000130870005308101E1
:101F02000800230324042504260408002100BF013D
:101F1200C301C201BE010800213E860001308700D4
:101F2200403F0800860087018101810A0034C33FD7
:101F32001330A0002B0808002306240425042604DD
:101F42000800A10021080319003421003F082000E5
:101F52002002031800342108860087010108031DAE
:101F620000342108860001308101810A0800FC2624
:101F720021001D1010302200980029009E1322001B
:101F82008C013B3021008C0023008C0124008C0149
:101F92002F3022008D0521008D0523008D012400A4
:101FA2008D0122008E0121008E0123008E0122006C
:101FB20091019301970108002000A0002200DB009C
:101FC200080029009E172000121122008E15080019
:101FD20021006A0808002200BB35BC0DBD0DBE0DF4
:101FE20008003B1408007A180134003421003F082D
:0E1FF20008000B170800A0002200990008004C
:10200400DA015608860087018101550803190F2853
:102014000B279031003A0319152821005608860031
:1020240006308701810021005608860006308701AA
:102034000106031D6428302790312E27903121009A
:10204400D900560886000630870181005228702086
:102054009031742090314F28772090314F28A1205F
:1020640090314F28A62090314F28AA209031502833
:102074009321903150288B312D2390314F28B52155
:1020840090314F28D62190314F28F72190314F2895
:10209400F82690314F28FB2690312100DA0064287D
:1020A4005908D700D8015808003A03195A284D286E
:1020B400570884000B30040203184D289831043566
:1020C400183E82005608860087010108031D6D280A
:1020D40001309C315C2421005A08080080312F20F3
:1020E4008031452822000E16003412308F31032728
:1020F400903105307B2390312108CD002008CC009D
:10210400C801C80AC9004D08CA0049064806CB00E0
:102114005B30B7009830B800962090310430BC0092
:102124004830CD20C70008003930BB003808B10062
:102134003708B0003B30B20000308731202F003028
:102144008F3103278E17003422008E138E1600342D
:1021540022008E120E15CD302000E100C630E200C0
:10216400C4308A31E32290312100CC004C08031D95
:10217400CB280430C8004D08C9004E08CA004906DF
:102184004806CB0004302000BC00C830CD2021001C
:10219400CC004C080800C600023E86008701460AAF
:1021A400840085010008C5000108C4004508A80092
:1021B4004408A7003F30A9000B219031460886004F
:1021C40087010108303EBD002D30BE000730A1005C
:1021D4003D30F32090315A30B7009830B800962043
:1021E4000034A300A40121082402031800342408A5
:1021F4002307A200860087010108042190312000F2
:10220400A40AF528A000111E0529200823009A001D
:102214000800AD01AE0120002D082907AA008600A0
:10222400303087018100AD0A0319AE0A2E08803AC6
:10223400AA0080302A02031D212905302D02031C27
:102244000D2904302000AB00AC0127082804031931
:1022540008002B082907AA0086000A308701A0007D
:10226400A1012808A3002708A200732190312008A7
:10227400303E81000A30A000A1012808A3002708ED
:10228400A2004E2190312108A8002008A700FF30A9
:10229400AB07031CAC032729A501A60120082104D0
:1022A40003196E29A401A40AA11B5B29A035A10D61
:1022B4005529A535A60D21082302031D63292008ED
:1022C4002202031C6A292008A2022108A33B251428
:1022D400A136A00CA40B5B292608A1002508A000A8
:1022E40008002008210403198E29A401A40AA11BB3
:1022F4007E29A035A10D782921082302031D8429F4
:1023040020082202031C8A292008A2022108A33BD8
:10231400A136A00CA40B7E292308A1002208A0004A
:10232400080022000E11C4302000E100C630E20093
:10233400CD308A31E32290312100CC004C08031DBA
:10234400B3290530C8004D08C9004E08CA00490623
:102354004806CB0004302000BC00C830CD2021004A
:10236400CC004C08080029009E0122000E154030C4
:102374008E068E1112308F310327903104307B2367
:1023840090312108CD002008CC000730C8004C084B
:10239400C9004D08CA0049064806CB000430BC00F9
:1023A4004830CD20C700080029009E0122000E15E8
:1023B40040308E068E1512308F3103279031043051
:1023C4007B2390312108CD002008CC000830C800C0
:1023D4004C08C9004D08CA0049064806CB00043021
:1023E400BC004830CD20C700080000308F310327DF
:1023F40090318E11003020008C1A0130C800093051
:10240400C9004808CA00CB014B064906CC00043079
:10241400BC004930CD20C70008004330CA00AF30AB
:10242400C900C801C7016C08A0006D08B627903127
:102434009B2390312308B1002208B0002108AF008B
:102444002008AE006A08A0006B08B62790319B23D1
:10245400903191279031C72590319A2790310424E7
:1024640090314A082100C700200049082100C60015
:10247400200048082100C500200047082100C400AE
:10248400BA0A3A080739A32790314408C03F4508DF
:10249400C13F4608C23F4708C33F3F302200B60051
:1024A400B501B401B3012100C8014808A327403F86
:1024B4002000A000413FA100423FA200433FA300EF
:1024C400220036082000A700220035082000A600BC
:1024D400220034082000A500220033082000A400B4
:1024E4009E31B626903123082200B600200022082F
:1024F4002200B500200021082200B400200020089A
:102504002200B30021000830C80A4802031C572ADD
:10251400220036082000E300220035082000E200F3
:10252400220034082000E100220033082000E000EB
:10253400022590316008EE00EE36EE36EE366E0877
:10254400FC2F0530CF017B23903121082100CE00E0
:10255400200020082100CD000630CE36CD0C890B9A
:10256400AF2AFF30CD050F30CE051F307B239031CD
:1025740021082100D200200020082100D1000630CB
:10258400D236D10C890BC22AFF30D1050F30D205C7
:1025940052082000AE00210051082000AD00AF0118
:1025A400AF0A49259031BF259031D0005208200050
:1025B400EB00210051082000EA002100500820000F
:1025C400EC00ED010F2290314D082000A000210005
:1025D4004E082000B62790319B23903191279031EB
:1025E4004330B100AF30B000AF01AE01C725903128
:1025F4009A279031210051082000A00021005208A0
:102604002000B62790319B2390312308CA0022086A
:10261400C9002108C8002008C700042490314A08D2
:10262400E3004908E2004808E1004708E000022509
:10263400903163082100CC00200062082100CB0007
:10264400200061082100CA00200060082100C900A0
:1026540052082000A100210051082000A000210000
:102664004C082000A50021004B082000A4002100F4
:102674004A082000A300210049082000A200D02716
:102684009031003A0319562B21003908B90A200069
:10269400EF0033306F02031C782B00308F31032797
:1026A400903121001430722B013021005202DE30AF
:1026B400031951023908031C752BB90A2000EF00D5
:1026C4000B306F02031C6C2B21005008FF3EC22507
:1026D4009031B9010C30210050020318782B1530C9
:1026E400B901CF00782B0319782BB90321004F08C7
:1026F40008002000A300A200A20DA20D21001D08C5
:10270400200022068339220621009D001D14003278
:102714000032000021009D149D188E2B1C082000FF
:10272400A100A00121001B082000A0070318A10A92
:102734000800A8002808031DA31FB02B2009AA0025
:102744002109AB002209AC002309AD00AA0A031930
:10275400AB0A0319AC0A0319AD0AB82B2308AD0060
:102764002208AC002108AB002008AA002308220498
:1027740021042004031DC32BA001A101A201A30174
:1027840008009630A900FE302D050319D62BA90A9E
:10279400C1279031C52B0130A90AAA070030AB3DEF
:1027A400AC3DAD3DC1279031FF302D050319E42B1D
:1027B400CD2B02302902031CE62BA903AA35AB0D4D
:1027C400AC0DAD0DAC1FDB2B291CAC13A9362908AD
:1027D400A700A601A501A4012408AA042508AB04A6
:1027E4002608AC042708AD042808031DA31FFB2BEF
:1027F400AD172D08A3002C08A2002B08A1002A085D
:10280400A00008004E08D7008030D7054E35DE0002
:10281400CD1B5E145E080319172C5E0F152CCB011B
:10282400CC01CD01CE01CD171A2CCB01CC01CD01A9
:10283400CE014A088039D7064A35DF00C91B5F1428
:102844005F0803192D2C5F0F2B2CC701C801C90188
:10285400CA01C917302CC701C801C901CA014A08F5
:10286400490448044704031D4A2C8030CB01CC01A1
:10287400CD01CE01CD047F30CE045708CE044E08DE
:10288400CA004D08C9004C08C8004B08C70008001E
:102894005E08031D522CC701C801C901CA01080002
:1028A4005E08D800D9015F08D802031CD9037F3021
:1028B400D8070318D90A4E08D6004D08D5004C088D
:1028C400D4004B08D300CB01CC01CD01CE01DA01F9
:1028D400DB01DC01DD01DF011A305F0203189E2CED
:1028E4005F080319832CD335D40DD50DD60DCB3504
:1028F400CC0DCD0DCE0DDD1B4B14DA35DB0DDC0D0F
:10290400DD0D4A085602031D912C49085502031D8A
:10291400912C48085402031D912C47085302031CB0
:102924009C2C5D174708D3024808D43B4908D53B83
:102934004A08D63BDF0A6E2C560855045404530447
:10294400031D5A14CD1BB52CCB35CC0DCD0DCE0D9E
:10295400DD1B4B14FF30DA35DB0DDC0DDD0DD80744
:10296400031CD903A42CDF01DD1FCA2C5A08CF0095
:102974005B08D0005C08D1007F305D05D2005104B3
:1029840050044F0403194B18C82CCA2CDF01DF0A6A
:102994005F080319DC2C0130CB070030CC3DCD3D62
:1029A400CE3D4E1CDC2CCE37CD0CCC0CCB0CD80A37
:1029B4000319D90AB0279031031DE22CFF305802C5
:1029C400031CE92CFF302000D800AA2790312000F6
:1029D400B0279031031DF02C013058020318F72C56
:1029E4002000D801AA279031D70120005808DE0022
:1029F4005E1CFE2CCD17FF2CCD135E36CE003F2C73
:102A0400882790310310660D670DE9006908031DDE
:102A1400102DE001E101E201E30108008827903173
:102A24001F30E736E60CE50CE40C890B132D640823
:102A3400E8009630E217E301E902E91F2D2D690849
:102A4400803A973E031C0B2DE336E20CE10CE00CBC
:102A5400E90F262D3A2D2030690203180B2D690841
:102A640003193A2DE035E10DE20DE30DE903312DB3
:102A7400680803190800E009E109E209E309E00A2A
:102A84000319E10A0319E20A0319E30A0800B4016D
:102A9400B5012D082E040319722D2D08A0002E084F
:102AA400A1001030A201A301A701A600A501A40161
:102AB400802590312308B3002208B2002108B10018
:102AC4002008B0003308031D6B2D01303202031CB3
:102AD4006E2DB401B501722D3108B5003008B40073
:102AE4002F08031D7B2D3508A1003408A0009A315E
:102AF4004D2A3508A1003408A000F42FA801A9012B
:102B0400AA01AB0123082204210420040319B62DD1
:102B1400AC01AC0AA31B932DA035A10DA20DA30DEE
:102B24008B2DA835A90DAA0DAB0D23082702031D73
:102B3400A52D22082602031DA52D21082502031D0B
:102B4400A52D20082402031CB02D2008A40221086E
:102B5400A53B2208A63B2308A73B2814A336A20CB6
:102B6400A10CA00CAC0B932D2B08A3002A08A200E7
:102B74002908A1002808A000080021006B0808000B
:102B84002000A0002100EB0008003108BA008030CA
:102B9400BA053135C000B01B401440080319D82DC4
:102BA400400FD62DCB279031B017DA2DCB2790319B
:102BB40035088039BA063535BB00B41B3B143B08D5
:102BC4000319EA2D3B0FE82DC6279031B417EC2DDD
:102BD400C62790313B08031D4008031DF62DAE01A6
:102BE400AF01B001B10108002E08A0003408E126AD
:102BF40090312108C6002008C500BC00BD01BE01FB
:102C0400BF014608C100C201C301C4012F08A000CE
:102C14003308E126903121086E279031C107013035
:102C24000318C2070318C3070318C4073008A00019
:102C34003208E126903121086E2790315E279031C9
:102C44002F08A0003208E1269031532790312E0836
:102C5400A0003308E1269031532790313E08BF008D
:102C64003D08BE003C08BD00BC012E08A00032088F
:102C7400E1269031532790312F08A0003408E12633
:102C840090317B2790313308E12690317B279031B6
:102C94003408E12690312108C6002008C500B6009A
:102CA4004608B700B801B9013808B9003708B800B8
:102CB4003608B700B6013608C1073708C23D3808E0
:102CC400C33D3908C43D3F085E2790314008C50024
:102CD400C6013B08C5070318C60A8230C507031C92
:102CE400C603C31B812EC135C20DC30DC40DBF1B4A
:102CF4004114FF30BC35BD0DBE0DBF0D702EBB01A0
:102D0400BF1F962E3C08B6003D08B7003E08B80029
:102D14007F303F05B90038043704360403194118DD
:102D2400942E962EBB01BB0A3B080319A82E013032
:102D3400C1070030C23DC33DC43D441CA82EC43766
:102D4400C30CC20CC10CC50A0319C60ABB279031B7
:102D5400031DAE2EFF304502031CB82E7F30200029
:102D6400C4008030C300C201C101D62E2000BB279D
:102D74009031031DBF2E013045020318C82E2000D8
:102D8400C101C201C301C401BA01D62E2000450805
:102D9400C000FF30C105C2057F30C3050030C40147
:102DA4004018C3174036C4003A08C4044408B100AC
:102DB4004308B0004208AF004108AE000800A70075
:102DC400A301A4012008A500A601271CED2E2508B7
:102DD400A3072608A43DA535A60DA7362708031D7D
:102DE400E72E2408A1002308A000080022008D1665
:102DF4000034FF302000C8000A30C900A030CA00E7
:102E040049064806CB000430BC004830CD20C7003A
:102E140008002000A6017D0F242F0B30FD00023096
:102E2400FD012100E9002000A601A60A22000E11DE
:102E34008E110E128E120E138E138D1200308F31DE
:102E4400032790310B307D0603192B2F2000A60198
:102E5400A60A2000260808007D08080020000C0CA3
:102E64000139A000A0350C0801392007A200210077
:102E7400690820002206A0000339A100033A031DBB
:102E84004B2F22082100E9000B30FD0A7D020318B4
:102E9400FD010B30FD0A7D020318FD01080080319D
:102EA40045282108C6002008C500BC074608BD3DCA
:102EB4000030BE3DBF3D0800C10701300318C20702
:102EC4000318C3070318C4073E08BF003D08BE002B
:102ED4003C08BD00BC010800C6002008C500BC07B2
:102EE40001300318BD070318BE070318BF074608BF
:102EF40008002108C6002008C500C1074608C23DD5
:102F04000030C33DC43D3008A00008006008E40060
:102F14006108E5006208E6006308E700080023088A
:102F2400B5002208B4002108B3002008B20008004C
:102F34003108CE003008CD002F08CC002E08CB007D
:102F4400080009070907C63E86000130870008000B
:102F5400D901CB01CC01CD01CE0108005908803A3A
:102F6400CF0080304F020800A1000030A201A3016D
:102F740008004608803AB600803036020800AD36B4
:102F8400AC0CAB0CAA0C0800B201B301B401B5013E
:102F94000800AE01AF01B001B1010800A601A60A04
:102FA4002508031DF22F2408031DF22F19302202D5
:102FB4000130233B0318F22F2508031DEB2F2408AF
:102FC400031DEB2F2308031DEB2F88302202031C63
:102FD400F22F013021022330031920020318A60125
:102FE4002608080021082200D7002000200822001B
:102FF400D6000800A0002100EA0008009D31B22D8F
:103004009D31D72D9E31062E9E31262E9E316D2E5A
:103014009E31422E9E31512E9E316D2E9E31562E62
:103024009E316F2E9D31DA2D9D31F32D903129285B
:1030340090312E289031312890313428903137281E
:1030440090313A2890313D289031412890314428DC
:103054009031472890314A289F3408342F3409345A
:1030640004340A343C3408345B34083467341A3486
:10307400023410348131FA298131FA298131FA2953
:103084008131FA298131FA298131FA298131FA29E8
:103094008D31572D8D317C2D8E31172E8E31342E5E
:1030A4008D31672D8D31572D0034043400340034B4
:0830B400203420340D340034F7
:10345C00FF30302A2000A000FD00080021001708D2
:10346C00C139123897000800640080010131890BC2
:10347C003B2A0034FE0012001E00FE0B412A0034D1
:10348C000534023412341234073401340734210861
:10349C002200DD00200020082200DC0008002008AB
:1034AC0003195B2A22008E16080022008E120800D7
:1034BC0020080319642A22008E17080022008E139C
:1034CC0008005608860005308701810055088831B0
:1034DC000120003421002708603E2000A2000030AB
:1034EC002100283D2000A3002102031D7F2A220871
:1034FC0020020318013400342000A1019531BF25AE
:10350C009A31123A031D962A99229A312000A00072
:10351C0010302002031C942A0130952A0030A1009F
:10352C002000210808003C08080002308D312525B8
:10353C009A310530F9012100E80020000030A30188
:10354C008F313F279A318E3177269A310130A30182
:10355C008F313F279A318E31772602308D31252DD0
:10356C0000302102613003192002031CC62A2100FD
:10357C003D0A0319C32ABD0AC82AFF30BD00C82A58
:10358C002100BD013D080319CD2A0130CE2A00309F
:10359C002000A20008002700131ED62AD9229A3137
:1035AC00931E0800E62A2200450846040319E32A64
:1035BC0046088A0045080A009A31270013120800B1
:1035CC002200430844040319F02A44088A004308E3
:1035DC000A009A312700931208000034003400349A
:1035EC000034003400340034003400345E341A34B7
:1035FC00003400340034003400340034003400341F
:10360C00013400340034003400340034003400340D
:10361C00003455341A34003400340034003400348F
:10362C0000340034003442232000A0009531BF2523
:10363C009B31123A031D0800043020002002031CA9
:10364C00312B2100270828040319312B0130A70244
:10365C000030A83B080003302000200203180800AB
:10366C000030210028020B30031927020318080030
:10367C00A70A0319A80A08003B08080022003E0804
:10368C002000A70022003D082000A60022003C08D4
:10369C002000A50022003B082000A400A801210066
:1036AC00BB01BC012000A901A90A24080139A80703
:1036BC0009302906031D652B28082100BB001E308C
:1036CC0020002906031D6D2B28082100BC002000BA
:1036DC002030A90AA736A60CA50CA40C2902031CA1
:1036EC005B2B22003E082000A30022003D08200096
:1036FC00A20022003C082000A10022003B08200070
:10370C00A000882B23082200D500200022082200CC
:10371C00D400200021082200D30020002008220021
:10372C00D2000800111022004208F1004108F000FC
:10373C00A5239B31A12B2100B801B80AB42B200082
:10374C00181DAF2B181071089700700896001814EC
:10375C00080071089700700896000800F701F8013E
:10376C000530F0007708F9239B31203E86000130AC
:10377C00870001080319EA2B0530F0007708F923BC
:10378C009B31213E860001308700403FF300413FD2
:10379C00F400423FF500433FF600750474047304D3
:1037AC000319EA2B0530F0007708F9239B31213EF1
:1037BC00860001308700810200304131813B41316C
:1037CC00813B4131813B7D31F70A0319F80A7808B6
:1037DC00803AF30080307302031DF62B033077021E
:1037EC0003180800B62BF100F20170087118F207EB
:1037FC00F035F1367108031DFB2B72080800200010
:10380C00AA002A080319080000308D3125259C31A7
:10381C001D306E248E31D7269C3100305C24003054
:10382C008F31202F2000A90029080319080000302F
:10383C008D3125259C310A306E248E31D7269C3152
:10384C002F249C3159249C31003A031D08008F31E0
:10385C00252F36249C31B001AF016524B10108003D
:10386C002100A701A80108002000A90029080319BC
:10387C00080000308D3125259C31C8306E248E31E6
:10388C00D7269C318F312B279C31B301B30A74247A
:10389C009C3159249C31003A031D572C8F3125271C
:1038AC009C3100305C2CFA19013400342000A0004B
:1038BC0020080319632C7A1508007A1108002200DD
:1038CC00BB01BC01BD01BE012100BC01BB01080054
:1038DC00A3000030A401A501A6010800B601B401A3
:1038EC00B501B2010800A40129001C082000A800A1
:1038FC00A70129001B082000A704043093317B2367
:10390C009C312108A6002008A5000630A636A50C7F
:10391C00890B8C2CA601260821002602031D982C4D
:10392C00F9249C3103189D2C3708031DCD2C200045
:10393C00260821002602031DA52CF9249C3103180E
:10394C00B22C3708031DB22C04302000A702003023
:10395C00A83B2100B701D52C260820002602031D08
:10396C00B92CFE249C310318BF2C21003708031DF1
:10397C00AA2C2100260820002602031DC72CFE2499
:10398C009C310318D52C21003708031DD52C04308D
:10399C002000A7070318A80A2100B701B70A0930AD
:1039AC00200028028030031927020318E02C133062
:1039BC00A400EE2C0C302802013003192702031846
:1039CC00DD2C280829009C002000270829009B00DA
:1039DC00200026082100A600200025082100A500B3
:1039EC0020002408080020002508210025020800DA
:1039FC00210025082000250208000E259D31062DEA
:103A0C00A000200803190C2D7A1408007A10080065
:103A1C002000AB01AC011330A0002C088E31C9265C
:103A2C009D31A03E2C259D31003A03191F2DAB0171
:103A3C00AB0A0230AC0A2C02031C112D2B08031903
:103A4C00292D8F312E2720002B080800AA002A0AC6
:103A5C0082259D312A080B3E86008E259D31031D43
:103A6C00412D23082702031D412D22082602031D88
:103A7C00412D210825020318452D0130462D00301B
:103A8C00A900A0002A08093E860001308700413FAA
:103A9C008A00403F0A009D3120002A08053E8225FD
:103AAC009D312A0A8600403FA107413FA23D423F7B
:103ABC00A33D433FA43D2A080B3E99259D317D3102
:103ACC008E259D31031D742D23082702031D742D93
:103ADC0022082602031D742D21082502031C802DAB
:103AEC002A080B3E860001308F3147279D312A086A
:103AFC000F3E992529080800860001308700403FB9
:103B0C00A100413FA200423FA300433FA400080094
:103B1C00403FA500413FA600423FA700433FA800FD
:103B2C00240828020800860001308107003041314A
:103B3C00813D4131813D4131813D0800911124008D
:103B4C00951F722E95132100AE01A22686008701C7
:103B5C008101810AAC010800A21808002108AC0000
:103B6C0021088600013087000108AD00210A86007B
:103B7C00403F2200C700413FC80004302100A1078C
:103B8C0021086A3A031DCC2D6630A10022102108B1
:103B9C0020060319A2142400161402302100AE00D2
:103BAC00080024009614D32D2400161FE12D2100AB
:103BBC000430A40A862E7C08F2007B08F100F23651
:103BCC00F10C710891007B1CEF2D0B302100AE0025
:103BDC00080003302100AE0008002400161FFA2D47
:103BEC0021000430A40A862E961406307C05F100C0
:103BFC00F038FB00FC017B142100A901A90AD32D8C
:103C0C00290303191D2EB0269D31403FFB00413F77
:103C1C00FC00470886004808870043310108210052
:103C2C00AB00B0269D31423101082100AA007B086F
:103C3C00240091007B1CEF2D05302100AE00080004
:103C4C002400161F2F2E2100A40A24001613053061
:103C5C00862E2100AA032A0F392EA9269D31AD0BE1
:103C6C00D72D0030862E2B088600870101082400F2
:103C7C0091002100AB0A08002400161F4C2E2100D5
:103C8C000430A40A86262400161308009615083062
:103C9C002100AE0008000830AE0024009615080084
:103CAC002B08860087012400110881002100AB0A33
:103CBC00AA030319672E2400961206302100AE00C9
:103CCC006A2E24009616982624001616080000303A
:103CDC00862E0630A40A862E21002E08F100F20151
:103CEC007208003A03197B2E6F2E710884000C3079
:103CFC00040203186F2E98310435003E8200080030
:103D0C00F000240016152100A2269D310319962ED1
:103D1C002C08033E8600010886008701700881008C
:103D2C00AE010800A9269D31AD0B9F2E0430AE00CC
:103D3C000800AE01AE0A08002C08033E86000130D4
:103D4C0087000108080004302200C7070318C80ABE
:103D5C002100080022004708860048088700080058
:103D6C002308B0008030B0052335B200A21B3214FA
:103D7C0032080319C92E320FC72EA001A101A201CE
:103D8C00A301A217CC2EA001A101A201A301270817
:103D9C00B1008030B10531083006031D30172735CE
:103DAC00B100A61B311431080319E42E310FE22E99
:103DBC00A401A501A601A701A617E72EA401A50140
:103DCC00A601A7013208310203180E2F301FF02E66
:103DDC008030B0063208B3003108B2003308B100AD
:103DEC002008B3002408A0003308A4002108B30065
:103DFC002508A1003308A5002208B3002608A2005C
:103E0C003308A6002308B3002708A3003308A70033
:103E1C00B3013108A800A9012908AB003208280217
:103E2C00AA00031CAB032B08803AAC0080302C0298
:103E3C00031D222F1A302A02031C3F2F20002308B7
:103E4C0022042104200403192D2F01302E2F0030C1
:103E5C00B300A001A101A201A3013108B200442FBB
:103E6C00331C3C2F33360138B3003D2FB336EC27CF
:103E7C009E31200031083202031C362F301B5E2F7E
:103E8C003208031D4A2FFB2F2408A0072508A13D4B
:103E9C002608A23D2708A33D231CBE2F331C5A2FF6
:103EAC0033360138B3005B2FB336EC279E31BE2F6F
:103EBC002308803AA8002708803A2802031D702F97
:103ECC0026082202031D702F25082102031D702FC6
:103EDC002408200203189B2FFF30A800A900AA0079
:103EEC00AB0020082402AC002108253BAD002208C1
:103EFC00263BAE002308273BAF002C08A8072D0853
:103F0C00A93D2E08AA3D2F08AB3D2B08A3002A087B
:103F1C00A2002908A1002808A0008030B006B3092F
:103F2C00B30FA32FF4279E31A32F2408A00225083A
:103F3C00A13B2608A23B2708A33B2308220421040B
:103F4C002004031DBC2F3308031DBC2FFB2FA035F1
:103F5C00A10DA20DA30DB31B2014331CB82F0314F9
:103F6C00B30DB92FB3353208031DB203A21FAD2F09
:103F7C00B101B31FC92F33087F3903192018C72F7C
:103F8C00C92FB101B10A31080319D62FF4279E317C
:103F9C00231CD62FA337A20CA10CA00C320FB20AF3
:103FAC00320A031D3208031DE22FA001A101A20158
:103FBC00A30132080319B001321CE62FA217E72F18
:103FCC00A2133236A300B01BA31708002018B31796
:103FDC00A337A20CA10CA00CB20A08000130A00758
:103FEC000030A13DA23DA33D0800A001A101A2010A
:043FFC00A301080015
:020000040001F9
:04000E00F4FFFFFFFD
:00000001FF
