:020000040000FA
:1000000080312D28921108007E1480318B190B1C31
:100010000D289D311B2580312B280B1F2B282100FB
:10002000111C19282000111C1928873182278031C2
:100030002B282100911D23282000911D2328863183
:10004000702680312B282100921D2B282000921D24
:100050002B28803102207E1009008B310F2BA0301D
:10006000C201BD01BE01BF01C001BD008430BE00A0
:100070003D30BF01BF0AC1000330A8004108A900FC
:100080005D3040238031013A031948281130C20005
:100090004208031D57280330A8004108A9005C301E
:1000A00040238031013A031957281130C200420819
:1000B00008001030CE00A030CB01CC01CD01CB0028
:1000C0008430CC008030CD004B30CF000330A8000E
:1000D0004F08A9005D3040238031013A031D7A2882
:1000E0000330A8004F08A9005C3040238031013A5A
:1000F0000319CE014E08031DC228C901CA01C5015A
:10010000C601C701C801AA28D82380315D30C420A8
:100110008031013A031D9228CB1B90280130912891
:100120000030C900D82380315C30C4208031013ACE
:10013000031DA028CB1B9E2801309F280030CA0039
:100140000130C5070030C63DC73DC83DE5238E31AF
:100150007F2680314808031DBB284708031DBB28A4
:100160004608031DBB28143045020318BB28490B61
:1001700084284A0B84284908031D4A08031DC22805
:100180001030CE004E080800B600B701AF01B00134
:10019000B101B801B901BA01BB01B201B301B401A7
:1001A000B50129088038AF003C30A0000030A10024
:1001B0002F30A200A301A30A3608A400A501002243
:1001C00080314030A0000030A1002A08A200280899
:1001D000A3003608A400A5011F2380310230C4000B
:1001E00029293C30A0000030A1004430A200023098
:1001F000C1228031B801B901BA01BB010230440605
:10020000031D1D293B08AE003A08AD003908AC00BB
:100210003808AB000130B8070030B93DBA3DBB3DEE
:100220002E08031D1C292D08031D1C29F4302B0248
:1002300001302C3B031CFE28B7014408031D232971
:10024000B701B70A44290130B2070030B33DB43DCD
:10025000B53D4403031944293B08031D44293A08CA
:10026000031D4429F53038020130393B0318442975
:100270003508031D44293408031D4429F530320292
:100280000130333B031CF128440B4729B7013708E1
:10029000080020005930E901E90AA70058304B2234
:1002A000803122003A08031D8C29FF303702FF30CD
:1002B000383B0330393B03188C298E31DB268031E3
:1002C00008308F31BD2780318E317F26803122006A
:1002D0003A082000B100220039082000B0002200B6
:1002E00038082000AF00220037082000AE00593047
:1002F000B2001030B30092218031E9006908031D7B
:100300008229C3230A308F31BD2780318E317F2669
:1003100080318A31982280319231552280315222A7
:1003200069080800D70132080319B8292E08B4005B
:100330002F08B5003008B6003108B7003308B80000
:10034000B901BA01BB01B4073908B53D3A08B63D59
:100350003B08B73D3708031DB8290430360203189F
:10036000B82933080319B82911303302031CBA29FC
:100370000930D7005708031DCA293108A3003008E7
:10038000A2002F08A1002E08A0003308A4001A2202
:100390008031D7005708031DFE2930085038CE00A1
:1003A0002F08BC002E08BD00D801E72912305802E2
:1003B0000318EB295808023E3C3E86008701580886
:1003C0003207B4008400850100088100D80A330890
:1003D0005802031CD6294F30A0000030A1003C3049
:1003E000A2003308023EA3004E08A400A50100228B
:1003F00080314F30A401A40AA722D7005708080073
:100400002508A7002408A600A635A70D2008860009
:10041000210887002608C03F2708C13F2008023E68
:10042000BA238031230881002008033EBA23220822
:10043000810008002408AA00AB01AC01AD0120082E
:10044000AA072108AB3D2208AC3D2308AD3DFF3093
:10045000AA07AB3DAC3DAD3D2A082006A5002B0800
:100460002106A6002C082206A7002D082306A800B6
:100470000130A501A605A705A80128082704260420
:100480002504031D452A0130462A0030A900290809
:10049000031909340034A800A0001030A100A20103
:1004A0002708032BA800A900220823040319080029
:1004B000D123803122082907A400FF3ECB238031BD
:1004C000033003192202031C0800290A86002008B1
:1004D00081002908023EAA238031FE3EAA238031F2
:1004E000FD3ECB238031073003192202031C080094
:1004F0002908033EAA238031FC3ECB2380310930FA
:1005000003192202031C08002909A4002A09A500D6
:10051000A40A0319A50A2408A6002508A700033089
:10052000A605A7012608A907A2022708A33BFC30BD
:10053000A205FF30A3052208230403190800D123D4
:1005400080310130A2020030A33BA90A9B2AA600F9
:100550000230A500A701A70A2608A0002730A101A4
:10056000A2002408C1228031023027060319B42AD0
:10057000A503031D2708031DAC2A2708031D01340A
:100580000034A30021002218EF2ADF2380318100EC
:100590002100200A86000130870020002008C03F8B
:1005A0002108C13F21002008860020002308810087
:1005B00021002008033E860020002208810004302C
:1005C0002100A0072008703A031DE82A6C30A00023
:1005D000A21021082006031DF52A2214F52A200066
:1005E0002208860087018101810ADF23803101060C
:1005F000031D080021003008031DFA2A002BFA2AE7
:10060000200091150800A4002008A6002408A500D9
:100610000130A1020030A23B210F112B220A031945
:10062000080026088600013087000108A300A60AFA
:1006300025088600870123088100A50A082B2508C4
:10064000A7002408A600A635A70D200886002108CB
:1006500087002608C03F2708C13F200886002108E0
:1006600087000130810441312008023EB1238031EE
:10067000230881002008033EB123220881000800DE
:10068000B2003830B301B30AB401B501B601B70105
:10069000AE01AF01B001B101A0000030A1002908F6
:1006A000A2002808A3003208A400A501002280317E
:1006B0000230BC008A2B3830A0000030A1003C3052
:1006C000A2000130C1228031B401B501B601B701E9
:1006D00002303C06031D872B3708AD003608AC00FE
:1006E0003508AB003408AA000130B4070030B53D2E
:1006F000B63DB73D2D08031D862B2C08031D862B08
:10070000F4302A0201302B3B031C682BB3013C0858
:100710000319A52B3C030319A52B3708031DA52B93
:100720003608031DA52BF53034020130353B031884
:10073000A52B3108031DA52B3008031DA52BF53073
:100740002E0201302F3B031C5B2B3C0BA82BB3016B
:100750003308080086002008810022082907A40029
:100760000800A6000030213DA700260886002708C3
:1007700087000800A6000030213DA700260886005B
:1007800027088700080010302200B7070030B83D66
:10079000B93DBA3D080086002008810000302302E0
:1007A0000800290886000130870020088100080021
:1007B0002130A801A80AA9004F08AA0008002000BB
:1007C00022088600023087010800A001A00AA101CA
:1007D000A201A30108002308B0008030B005233532
:1007E000B200A21B321432080319FE2B320FFC2B6D
:1007F000A001A101A201A301A217012CA001A10146
:10080000A201A3012708B1008030B10531083006EC
:10081000031D30172735B100A61B31143108031909
:10082000192C310F172CA401A501A601A701A617A9
:100830001C2CA401A501A601A7013208310203184E
:10084000432C301F252C8030B0063208B30031080D
:10085000B2003308B1002008B3002408A000330818
:10086000A4002108B3002508A1003308A500220830
:10087000B3002608A2003308A6002308B300270807
:10088000A3003308A700B3013108A800A901290873
:10089000AB0032082802AA00031CAB032B08803AE5
:1008A000AC0080302C02031D572C1A302A02031C86
:1008B000742C200023082204210420040319622C34
:1008C0000130632C0030B300A001A101A201A301FB
:1008D0003108B200792C331C712C33360138B30047
:1008E000722CB33621258331200031083202031CDB
:1008F0006B2C301B932C3208031D7F2C302D2408C9
:10090000A0072508A13D2608A23D2708A33D231CDA
:10091000F32C331C8F2C33360138B300902CB336B4
:1009200021258331F32C2308803AA8002708803A38
:100930002802031DA52C26082202031DA52C25082C
:100940002102031DA52C240820020318D02CFF30FF
:10095000A800A900AA00AB0020082402AC002108CE
:10096000253BAD002208263BAE002308273BAF0005
:100970002C08A8072D08A93D2E08AA3D2F08AB3D3D
:100980002B08A3002A08A2002908A1002808A0001B
:100990008030B006B309B30FD82C29258331D82C69
:1009A0002408A0022508A13B2608A23B2708A33B58
:1009B0002308220421042004031DF12C3308031D05
:1009C000F12C302DA035A10DA20DA30DB31B2014C9
:1009D000331CED2C0314B30DEE2CB3353208031D7C
:1009E000B203A21FE22CB101B31FFE2C33087F39E2
:1009F00003192018FC2CFE2CB101B10A310803198F
:100A00000B2D29258331231C0B2DA337A20CA10C00
:100A1000A00C320FB20A320A031D3208031D172D33
:100A2000A001A101A201A30132080319B001321CE7
:100A30001B2DA2171C2DA2133236A300B01BA31727
:100A400008002018B317A337A20CA10CA00CB20AFF
:100A500008000130A0070030A13DA23DA33D0800E1
:100A6000A001A101A201A3010800D900E001DE015B
:100A7000DF01DA01DB01DC01DD0159080319452D35
:100A80005708031D5808031D472D0930E000600872
:100A9000031D672D0030F3258531013A031D652DB7
:100AA0000130F3258531013A031D652D5E30C50007
:100AB0005C30C6000030A2258531E0005F08A1004F
:100AC0005E08A00058268531672D0E30E00020001A
:100AD0006008031D792D5A30C5005C30C600013016
:100AE000A2258531E0005D08A1005C08A000602619
:100AF000853120006008031DA02D5F08A1005E085D
:100B0000A0005B08A3005A08A2005808A4002626EB
:100B10008531E000580886008701403FA000413F32
:100B2000A100682620005908860087015A08C03FA6
:100B30005B08C13F570886005E08C03F5F08C13FA1
:100B400060080800D600D50145080319B02D4608F5
:100B50000319B02D56080319B22D56030319B22DEF
:100B60000930D5005508031DF12D5608031DBA2D77
:100B70005D30BB2D5C30D4004D30D3000530A80073
:100B80002830A9005308AA0054088031C4208531B8
:100B9000013A031DEF2D4E0E0F39C700C8014F0853
:100BA000C900F030CA01C90ECA0ECA0549080F397A
:100BB000CA04F030C90547084904CB0048084A0474
:100BC000CC004508860087014B08C03F4C08C13F58
:100BD000460886005008C03F5108C13FF12D0F3034
:100BE000D50055080800D000D201D20ACF01D101AA
:100BF0005108453E8600093087018101D10A510222
:100C0000031CF82D5008031D072E5D300A2E500BD3
:100C10000C2E5C30CF000D2ED201520B1C2E453015
:100C2000CE000830A8002030A9004E08AA004F08C6
:100C30008031C4208531D200520B242ECC1C222EB0
:100C40000130232E0030D20052080800A7012408EA
:100C5000031D2C2E0930A7002708031D562E22083D
:100C600023040319372E20082104031D3A2E1230C5
:100C7000A700562E23082102031D402E2208200221
:100C8000031C502E22082002A5002308213BA600A9
:100C90002408860087012508C03F2608C13F562E3C
:100CA0002408860000308701C03FC13F27080800A4
:100CB00021082200DB00200020082200DA000800C2
:100CC00021082200E300200020082200E2000800A2
:100CD00021082200D900200020082200D8000800A6
:100CE00091112400951F3E2F95132100B0016E270E
:100CF000860087018101810AAE010800A218080060
:100D00002108AE0021088600013087000108AF00ED
:100D1000210A8600403F2200CB00413FCC00043036
:100D20002100A1072108703A031D982E6C30A10004
:100D30002210210820060319A214240016140230E0
:100D40002100B0000800240096149F2E2400161FD6
:100D5000AD2E21000430A40A522F7D08F2007C0839
:100D6000F100F236F10C710891007C1CBB2E0B30A7
:100D70002100B000080003302100B000080024006A
:100D8000161FC62E21000430A40A522F96140630D6
:100D90007D05F100F038FC00FD017C142100AB0161
:100DA000AB0A9F2E2B030319E92E7C278631403F87
:100DB000FC00413FFD004B0886004C088700433192
:100DC00001082100AD007C27863142310108210055
:100DD000AC007C08240091007C1CBB2E0530210057
:100DE000B00008002400161FFB2E2100A40A2400D6
:100DF00016130530522F2100AC032C0F052F752739
:100E00008631AF0BA32E0030522F2D0886008701AC
:100E10000108240091002100AD0A08002400161FDB
:100E2000182F21000430A40A5227240016130800AA
:100E3000961508302100B00008000830B0002400EA
:100E4000961508002D0886008701240011088100EE
:100E50002100AD0AAC030319332F2400961206308B
:100E60002100B000362F24009616642724001616A1
:100E700008000030522F0630A40A522F21003008FB
:100E8000F100F2017208003A0319472F3B2F710855
:100E900084000C30040203183B2F98310435003EC7
:100EA00082000800F0002400161521006E2786310C
:100EB0000319622F2E08033E860001088600870171
:100EC00070088100B001080075278631AF0B6B2FC9
:100ED0000430B0000800B001B00A08002E08033E3C
:100EE0008600013087000108080004302200CB078B
:100EF0000318CC0A2100080022004B0886004C0889
:100F000087000800111022004608F1004508F00093
:100F10008F2787318B2F2100B901B90A9E2F20001E
:100F2000181D992F18107108970070089600181452
:100F3000080071089700700896000800F701F80192
:100F40000530F0007708DD278F31AF27873103198F
:100F5000CE2F0530F0007708DD278F31C32787318A
:100F6000F300413FF400423FF500433FF6007504B3
:100F7000740473040319CE2F0530F0007708DD27C1
:100F80008731213E860001308700810200304131E7
:100F9000813B4131813B4131813B7D31F70A03196E
:100FA000F80A7808803AF30080307302031DDA2FC4
:100FB0000330770203180800A02FF100F201700837
:100FC0007118F207F035F1367108031DDF2F720832
:100FD00008002000AA002A080319080000308B31FD
:100FE0009E2387311D308831482087318D3151252E
:100FF000873100308F317D2700308E31FF2E080081
:101000002000A90029080319080000309E23883118
:101010000A304820883151258831152088313C20FC
:101020008831003A031D0800042F1C208831B201CA
:10103000B1013F20B30108002100A701A801080069
:101040002000A90029080319080000309E238831D8
:10105000C83048208831512588310A278831B501A8
:10106000B50A4E2088313C208831003A031D3A28C9
:101070000427883100307D2FFB1901340034220011
:10108000BB01BC01BD01BE012100BD01BC010800C6
:10109000A3000030A401A501A6010800B801B60113
:1010A000B701B401080057088600043087018100A9
:1010B0005608992088319B228831003A03196E28FE
:1010C0003D278831003A03196E2821005708860011
:1010D000013087018101810AF62600340030732532
:1010E0008831023A0030031D08009E238831210018
:1010F0005708E12F57088600033087018100560802
:101100008731E9278831003073258831023A031D81
:101110000034210057088600003087018101DE2657
:101120008831EF26883198228831C0228831AA235D
:1011300000342000A90029080319080000309E236C
:101140008831B5278831512588310030DE26883135
:10115000EF26883198228831042788310030F6261E
:1011600088310030FF2688310030932A2000A90002
:1011700029080319080000309E238831B5278831DB
:10118000512588310030DE268831EF2688319822BB
:101190008831C02288312000A001A101A201A30151
:1011A00057278831042788310030F62688310030EF
:1011B000FF2E57088600870181015608B620883126
:1011C0009B228831003A0319F2283D278831003AE2
:1011D000031900347B23883100309E23883121009D
:1011E0005708E12F003073258831023A0319EA28A5
:1011F0005827883160268831003A0319003491312C
:101200009021003400309322883156082020883104
:101210002100E401DB01DC01E301E30AE101E20179
:10122000D901DA019B228831003A03191E290627C9
:101230008831003A03191E29033093290030122700
:10124000883126082100E000200025082100DF0069
:10125000200024082100DE00200023082100DD00FA
:101260006008031D3F295F08031D3F295E08031D19
:101270003F2933305D0203183F29B701B70A6008E0
:101280005F045E045D040319C1293508031D4A2962
:1012900001304B290030AF268831E400143A031D99
:1012A000572901307D2788312100E301632913305C
:1012B0006406031D5D290430622915306406031D90
:1012C00063290530E3006408031DB82935080319B4
:1012D000B829E1302000E100DB30E200D930C5223E
:1012E00088312100E4003408031D8129B401B40AC7
:1012F00061081E3E2200CF0000302100623D220026
:10130000D0000130932288316408031D95296208BA
:1013100022005002031D90292100610822004F0283
:101320000318952904302100C42921006408031DF5
:10133000B8295C082000A10021005B082000A00063
:101340009C31C9248831003A0319B8292100370893
:101350000319AC29B801B80A3608031DC5295D0870
:10136000C83CD800862788312100B601B60AC529B5
:1013700021003508031DBE290130BF290030B5000A
:10138000C529380B92290230E30063030319CF29E2
:1013900000309E2388310A278831B5014E20570836
:1013A0008600870163088100640808000030D801C6
:1013B000D901DA01DB0193228831560800208831F7
:1013C00021000230DF01DC01DD01DE009B228831DB
:1013D000003A0319F42906278831003A0319F42941
:1013E00003302100DE00222A9C3169248831023A30
:1013F000031DFE2901309131872188319C316624FB
:101400008831003A031D062AC022883121003308A2
:10141000AF268831DF00133A0319122A14305F0611
:10142000031D142A0430192A15305F06031D1A2AD9
:101430000530DE0033080319222AB30198228831CF
:101440009227883121005F080230031D852A5E063D
:10145000031D842A003073258831023A031D842A33
:101460002100B20A9D31BE25883190310E2088318D
:10147000003A031D772ADA30E100DC30E200D83090
:10148000C52288312100DF000130932288315F08B6
:10149000031D722A5B0822005002031D532A2100FB
:1014A0005A0822004F02031C772A2100B1015D086F
:1014B0002000A10021005C082000A0009C319C2499
:1014C0008831003A031D672A2100B301B30A0930AD
:1014D00021003206031D7A2A9D31632588312100BF
:1014E000B2017A2A1530B10A3102031C7A2A04307B
:1014F0002100DE00F827883100309E2388310A3031
:101500004820883151258831023021005E060319B8
:101510008B2A00309E2321005708860087015E0831
:1015200081005F0808002000A0002100C100080021
:1015300022000E110800003020008C1A0130A0009B
:101540002200510852040319AD2A20000130A001E5
:10155000A00A2200D1020030D23B20002008031D47
:10156000B52ADB278831BF0ABD2A21003F080319AD
:10157000BD2A400A0319BD2AC00A2000200808001D
:1015800022000E125E3097050800E400E5016408B1
:101590000319CF2A6108031D6208031DD12A0930EF
:1015A000E5006508031DDE2ADB2688310830BD27EB
:1015B00088317F26803159208831E5006508031D78
:1015C000E52A80312F208831E5006508031D0B2BAB
:1015D0001430D62788317F2688312830E3000F3039
:1015E000E500062B6108D7006208D8006408853141
:1015F00035258831E5006508031D002BE301062B26
:101600000530E303D62788317F2688316308031D20
:101610006508031DF22A98222000650808002100B1
:101620000530E9001230EA00EB000730EC00013031
:10163000ED000730EE003D3084009D308500A03085
:1016400086000130870026309C317C2488318E3022
:1016500084009D30850020308600023087003030C5
:101660009C317C248831A030F901FA01FB01FC0196
:10167000FD0184000030850025309C3176248831BE
:10168000203084000130850050309C317624883130
:10169000C6308400013085000B309C3176248831BF
:1016A000503084000230850020309C31762488310F
:1016B0007E1020005B2B60238831A12588315D2BB3
:1016C000AA2388316F2388316D2388317D238831A7
:1016D0007623913192219C31702C9C31AE2C0730B5
:1016E0002100EC00FB01C201C10108007B2388310D
:1016F0008F2388317D2E91319F2906302100EE0005
:10170000ED01ED0A2000A00021006D089123883131
:10171000962388319723883115209C31632C8B17B1
:101720000800200020082100EC000800080000301C
:101730009E2388310A27B501B50A08002000A300BE
:101740000530A00023084325203E86000130870095
:10175000810108004F2588312000A401A501053032
:101760002000A000240843258831CF278831A0001D
:10177000240843258831213E860001309C2788318A
:10178000A40A0319A50A2508803AA3008030230281
:10179000031DCC2B03302402031CAF2B8F2BDA2C20
:1017A0000030A30194278831F02488310130A3014F
:1017B00094278831F024883105302100E900EE2C8F
:1017C00005307906031DF32B0130A30194278831DE
:1017D000F02488311430A300003094278831F0249D
:1017E00088310230592C02308B2C05307906031DCC
:1017F000092C0A30A300003094278831F024883166
:101800000130A30194278831F0248831F901F90AC5
:10181000EE2C790B182C003027258831E6278831EB
:10182000031D182CA3278831F02488310130B92CEE
:1018300002307906031D412C0030272588311930EC
:10184000F0278831031DEE2CA3278831F02488313E
:101850000130A30194278831F0248831220002301E
:10186000AF01AF0AB001B101B2019E2388319630B9
:10187000A3000230A401A501A6015125883103303F
:10188000592C03307906031D8A2C023073258831C8
:10189000023A031D5B2C1430A300003094278831DA
:1018A000F02488310130A30194278831F024883155
:1018B0000430F900EE2C0030272588310330F02762
:1018C0008831031DEE2C01302200AF070030B03DFF
:1018D000B13DB23D2000A301A30AA401A501A601C8
:1018E000220032082000AA00220031082000A900AE
:1018F000220030082000A80022002F082000A700A6
:101900000030F02488310130A30194278831F0247D
:101910008831EE2C04307906031DEE2C0030A62C05
:1019200005307906031D962C1430FA2B790BA12C67
:10193000003027258831E6278831031DA12C0A3085
:10194000B22C02307906031DEE2C01302725883198
:10195000E6278831031DEE2CD02B05307906031DB8
:10196000BB2C1430A300013094278831F024883137
:101970000030A301ED2B02307906031DEE2C01305F
:1019800027258831E6278831031DEE2C0030A3017E
:1019900094278831F02488310230A3001230A4014A
:1019A000A501A601A7000130A801A901AA01F02400
:1019B00088313F2C210069082000AD00AE012E08BF
:1019C000003A0319E42CEE2C2D08840006300402A2
:1019D0000318EE2C98310435373E82009E31972E45
:1019E000AB0002302B02031808001330A0002B08B4
:1019F00043258831A13E8600013087002308C03F7F
:101A00002408C13F2508C23F2608EB27883143251B
:101A10008831A53E8600013087002708C03F28088E
:101A2000C13F2908C23F2A08EB2788314325883166
:101A3000AB3E860001309C2788311330A0002B0874
:101A400043258831AF3E860001309C2708002000E6
:101A5000A8000230280203183E2D1330A0002808E9
:101A60004325AF3E860001308700403FA300413F41
:101A7000A400423FA500433FA6000800A301A40123
:101A8000A501A6010800A200A10120082218A107B3
:101A9000A035A2362208031D452D210808008B130E
:101AA0000800A8000530A000280843258831AF278A
:101AB0008831031D08000530A0002808432588311F
:101AC000CF278831810AA00028084325213E8600BF
:101AD000013087002308C03F2408C13F2508C23FCA
:101AE0002608C33F08002000A7000530A0002708F3
:101AF00043258831AF27883103199D2D4F25883123
:101B000005302000A000270843258831C3278831ED
:101B1000A300413FA400423FA500433FA6008F23FE
:101B200088312000260825042404230403199A2D53
:101B3000A8019F2D0230A8009F2DA801A80A2808FF
:101B400008004C2688316F268831003A0319A32DEE
:101B5000220053085404031DB72D6030D301D30A6B
:101B6000D4012000B8009830B900402688314B26B7
:101B70008831C1259031C720883190314220883189
:101B8000FE2F22004208410440043F040319CF2DD8
:101B90000130BF020030C03BC13BC23B08004330B4
:101BA0002000B8009830B90040268831C927883114
:101BB000223E860002308700403F2200D500413F90
:101BC000D600C9278831243E8600403F2200BF004E
:101BD000413FC000423FC100433FC2000F2E2200E0
:101BE00056082000A100220055082000A0009C31CA
:101BF000822488312B2E6730B8009830B9004026F7
:101C00008831012E4E30B8009830B9004026883116
:101C10001C30B8009830B900402688312B2EC927D7
:101C20008831203E860002308700403F2000BD0002
:101C3000413FBE0003191D2E2B2E3D08003A03190B
:101C40002B2E013A0319EF2D073A0319FB2D013A08
:101C50000319022E2B2E2100A90A0319AA0A00300B
:101C60002A02063003192902031C080057302000FD
:101C7000B8009830B90040262100A901AA01080047
:101C80003A30BC003908B2003808B1003C30B3002B
:101C900000309F31382FCF2B602688312000AF00D5
:101CA0002F08031D0800F0301805AE00303A031D60
:101CB0005A2E632690312620003A031D6300080047
:101CC0007B1901340034C43098009901F330970037
:101CD000E330923147220B178B179231422A2000B2
:101CE000A0012100390803197A2E2000A001A00AC2
:101CF0002100B9012000200808000B17080001305E
:101D0000A0020030A13BA23BA33B200F8F2E210A53
:101D1000031D8F2E220A0319230A03190800A801A4
:101D2000A901AA01AB012B08A7002A08A6002908CF
:101D3000A5002808A4000130A8070030A93DAA3D4D
:101D4000AB3D2708031D7F2E2608031D7F2E250887
:101D5000031D7F2E1E30240203187F2E932ED400E5
:101D6000D50154080319D12EDB2688310D2788317F
:101D70008B278831F5278831DE2688312830BD272A
:101D800088317F269E31122688312100D5005508E2
:101D9000031DCE2E9231F7228831D500982288314A
:101DA000D62EEF2688310030DE26883121005408F7
:101DB000FF265508080022000E1508002000A30089
:101DC0009030220098001C30200023020318EA2ED5
:101DD0002308EB2E1B30A100A2019C316C2C2900A2
:101DE0009E132000121122008E1108002000A00076
:101DF00020080319FD2EFB150800FB110800200028
:101E0000A0002100C2000800DB2708001430A00059
:101E1000C330412F2100BE01080022000E16A13060
:101E2000970408002000AC000530A801A901AA0110
:101E3000AB01A0002C0843258831AF278831031956
:101E4000332F4F25883105302000A0002C08432572
:101E50008831C3278831A800413FA900423FAA002A
:101E6000433FAB008F2320002B08A6002A08A500C3
:101E70002908A4002808A3000800C430A001A00A73
:101E8000412FA1002108031900342100400820003F
:101E90002002031800342108860087010108031D71
:101EA00000342108860001308101810A0800080001
:101EB000EF2621001D1010302200980029009E13EB
:101EC00022008C013B3021008C0023008C01240077
:101ED0008C012F3022008D0521008D0523008D01FE
:101EE00024008D0122008E0121008E0123008E012D
:101EF000220091019301970108002000A000200812
:101F00000319842F7B1508007B1108002000A00016
:101F10002200E500080029009E172000121122006F
:101F20008E1508003B140800A401A501A601A70115
:101F3000A801A901AA01080087000030C03FC13FE5
:101F4000C23FC33F08000030A301A30AA401A501BA
:101F5000A601A701A70AA801A901AA010800203E1D
:101F6000860001308700010808000030A600A500A7
:101F70008C30A400A030A30000342000A000A101F8
:101F8000A201A3010800213E860001308700403FE6
:101F90000800210029080907090709070800203E51
:101FA000860001308700053081010800A000A101F2
:101FB000A201A30108002100C001C401C301BF01A7
:101FC0000800860087018101810A0034230324046C
:101FD000250426040800C33F1330A0002B08080086
:101FE0002306240425042604080021006A080800AA
:101FF0002200BB35BC0DBD0DBE0D080064000800FD
:1020000091315629913156299131562991315629CC
:102010009131562991315629913156292000A1013B
:1020200012269031123A031D2128242090312000DD
:10203000A00010302002031C1F280130202800308F
:10204000A1002000210808003D080800AD01832000
:102050009031023A031D3F2800308F311227903112
:102060002608031D3F282508031D3F282408031DBB
:102070003F280930230203183F28AD01AD0A200094
:102080002D08080022004D084E0403194B2801308A
:10209000CD020030CE3B4D084E04031D0800AB209E
:1020A00090312308031D5A28763021020230223B4A
:1020B000031C60280530A0008B3191239031C32888
:1020C00083209031003A031D6B28C0205830CD008A
:1020D0000230CE000800A9209031003A031D08000C
:1020E000A7209031003A031D080083209031BB20C7
:1020F00090318620813149219031EA006A08031D20
:1021000008005D22080021006C080800A4202000BF
:102110008331E52390318E317F2690311F30CF23DC
:1021200090312108B7002008B6000630B736B60C4B
:10213000890B9628FF30B6050330B7053708AE0087
:102140003608AD00AF019D2D81309704080041088D
:102150000800420808003A082000A30022003908BD
:102160002000A200220038082000A1002200370829
:102170002000A00008002000A0002200E4000800C9
:102180008331C32308000530EE00003029290730D1
:102190002100E8006D08D600E830D7006E08E500A1
:1021A0002930E601E535E60D650784009830663D87
:1021B0008500013F8A00003F0A000730903121006E
:1021C0006806031DE5280430E800ED302000A20079
:1021D000210068082000A300EE3044219031210046
:1021E0006D08031D04291A290130292190311A296B
:1021F0000330292190311A290230292190311A29DE
:102200000030292190311A296808E500E6016608A6
:10221000003A03190C291A296508013A0319F42810
:10222000023A0319FC28073A0319F828013A03195E
:1022300000291A2934219031003A03190800372166
:102240009031003A031927290430292190310030B8
:1022500087292000AF002100E9000530F900023095
:102260008B319E238B31CF2BFB180134003420009F
:102270000530A00121006906031D41292000A001AD
:10228000A00A200020080800A700A60127080319BB
:10229000502922080319502907302306031D52290B
:1022A0000930A6002608031D08006C2927088600AF
:1022B000870101082306031962292208860081018B
:1022C000810A662922088600870181012708860085
:1022D0008701230881007E292308A400A501250881
:1022E000003A031974296B2924088400073004027A
:1022F00003187E2990310435003E820027088600AD
:1023000087010108A000220886008B31912B200054
:10231000A000200803198E29FB140800FB100800F8
:102320006300422A5D2290319529B701B801B901B5
:10233000BA019E21903155228231522AB229DE21E2
:102340009031E4219031C5219031CD219031D221BD
:102350009031B22190311A229031242290313622CC
:1023600090312B2A6C302100A100A000A214221071
:10237000A401240094012830950097010F309200A9
:102380002000911121009115080021009D012030AD
:102390009E009F019B019C010800103022009800C4
:1023A00099010800403029009E009F019A0199017F
:1023B00098010A309C00C0309B0008006830210062
:1023C00099002200960108008C0150308D008E018A
:1023D0003B3021008C00D0308D0003308E00230074
:1023E0008E008D0104308C0024008D018C012100B1
:1023F0009517013022009D00270013129312121628
:1024000092121112911662302000A0001C30A1001F
:1024100012229031FF302000A0000730A1003A22A4
:102420008B15080021082200CA0020002008220085
:10243000C90008003030200098009901CF30970083
:102440002C3047229031422A01309C00FF309B0003
:102450009A019110452A483023009F0080309D004A
:1024600026309E0033309B009C0108000130220082
:102470009700080021082200C80020002008220040
:10248000C70008002000181408001C15080096005A
:1024900017082200C600C501200016082200C50446
:1024A0002000111021001114080020001030A0019C
:1024B000A101A2005830A301080058302200CD002D
:1024C0000230CE0008004330CA00AF30C900C80156
:1024D000C7016C08A0006D083C269031EF239031B5
:1024E0002308B1002208B0002108AF002008AE0088
:1024F0006A08A0006B083C269031EF2390311A2621
:1025000090315226903123269031582490314A0838
:102510002100C800200049082100C7002000480809
:102520002100C600200047082100C500BB0A3B0867
:102530000739352690314508C03F4608C13F470856
:10254000C23F4808C33F3F302200B600B501B40186
:10255000B3012100C90149083526403F2000A000F1
:10256000413FA100423FA200433FA30022003608A2
:102570002000A700220035082000A6002200340811
:102580002000A500220033082000A4008331EB23A3
:10259000903123082200B600200022082200B50056
:1025A000200021082200B400200020082200B300EF
:1025B00021000830C90A4902031CAB2A2200360850
:1025C0002000E300220035082000E2002200340849
:1025D0002000E100220033082000E0005625903161
:1025E0006008EE00EE36EE36EE366E08FC2F053053
:1025F000D001CF23903121082100CF0020002008F6
:102600002100CE000630CF36CE0C890B032BFF30D5
:10261000CE050F30CF051F30CF2390312108210088
:10262000D300200020082100D2000630D336D20C7F
:10263000890B162BFF30D2050F30D305530820002D
:10264000AE00210052082000AD00AF01AF0A9D2569
:10265000903112269031D10053082000EB00210068
:1026600052082000EA00210051082000EC00ED0192
:10267000632290314E082000A00021004F08200066
:102680003C269031EF2390311A2690314330B1002F
:10269000AF30B000AF01AE01522690312326903109
:1026A000210052082000A0002100530820003C26F1
:1026B0009031EF2390312308CA002208C900210875
:1026C000C8002008C700582490314A08E300490890
:1026D000E2004808E1004708E00056259031630811
:1026E0002100CD00200062082100CC0020006108FC
:1026F0002100CB00200060082100CA005308200000
:10270000A100210052082000A00021004D08200057
:10271000A50021004C082000A40021004B08200047
:10272000A30021004A082000A200C8279031003AE7
:102730000319AA2B21003A08BA0A2000EF0033300F
:102740006F02031CCC2B00308E31DE26903121002D
:102750001430C62B013021005302DE30031952021F
:102760003A08031CC92BBA0A2000EF000B306F0295
:10277000031CC02B21005108FF3E15269031BA01E1
:102780000C30210051020318CC2B1530BA01D000B7
:10279000CC2B0319CC2BBA032100500808002000D1
:1027A000A300A200A20DA20D21001D0820002206F8
:1027B0008339220621009D001D14003200320000E2
:1027C00021009D149D18E22B1C082000A100A001EF
:1027D00021001B082000A0070318A10A0800A80078
:1027E0002808031DA31F042C2009AA002109AB00FF
:1027F0002209AC002309AD00AA0A0319AB0A031988
:10280000AC0A0319AD0A0C2C2308AD002208AC0059
:102810002108AB002008AA00230822042104200478
:10282000031D172CA001A101A201A30108009630ED
:10283000A900FE302D0503192A2CA90A4D26903136
:10284000192C0130A90AAA070030AB3DAC3DAD3DC3
:102850004D269031FF302D050319382C212C0230E4
:102860002902031C3A2CA903AA35AB0DAC0DAD0D02
:10287000AC1F2F2C291CAC13A9362908A700A601D0
:10288000A501A4012408AA042508AB042608AC0469
:102890002708AD042808031DA31F4F2CAD172D08D2
:1028A000A3002C08A2002B08A1002A08A000080001
:1028B0004E08D7008030D7054E35DE00CD1B5E14A4
:1028C0005E0803196B2C5E0F692CCB01CC01CD0186
:1028D000CE01CD176E2CCB01CC01CD01CE014A0823
:1028E0008039D7064A35DF00C91B5F145F0803191A
:1028F000812C5F0F7F2CC701C801C901CA01C9170C
:10290000842CC701C801C901CA014A084904480406
:102910004704031D9E2C8030CB01CC01CD01CE019C
:10292000CD047F30CE045708CE044E08CA004D08AF
:10293000C9004C08C8004B08C70008005E08031D0A
:10294000A62CC701C801C901CA0108005E08D80049
:10295000D9015F08D802031CD9037F30D8070318B8
:10296000D90A4E08D6004D08D5004C08D4004B08B3
:10297000D300CB01CC01CD01CE01DA01DB01DC01BA
:10298000DD01DF011A305F020318F22C5F08031922
:10299000D72CD335D40DD50DD60DCB35CC0DCD0DD3
:1029A000CE0DDD1B4B14DA35DB0DDC0DDD0D4A08D9
:1029B0005602031DE52C49085502031DE52C480865
:1029C0005402031DE52C47085302031CF02C5D172D
:1029D0004708D3024808D43B4908D53B4A08D63BB0
:1029E000DF0AC22C5608550454045304031D5A141C
:1029F000CD1B092DCB35CC0DCD0DCE0DDD1B4B14D4
:102A0000FF30DA35DB0DDC0DDD0DD807031CD903F3
:102A1000F82CDF01DD1F1E2D5A08CF005B08D00007
:102A20005C08D1007F305D05D200510450044F0492
:102A300003194B181C2D1E2DDF01DF0A5F08031937
:102A4000302D0130CB070030CC3DCD3DCE3D4E1C6E
:102A5000302DCE37CD0CCC0CCB0CD80A0319D90AAB
:102A600047269031031D362DFF305802031C3D2DA3
:102A7000FF302000D80041269031200047269031B9
:102A8000031D442D0130580203184B2D2000D8019E
:102A900041269031D70120005808DE005E1C522DDF
:102AA000CD17532DCD135E36CE00932C2C269031AE
:102AB0000310660D670DE9006908031D642DE00130
:102AC000E101E201E30108002C2690311F30E736D6
:102AD000E60CE50CE40C890B672D6408E8009630E1
:102AE000E217E301E902E91F812D6908803A973E68
:102AF000031C5F2DE336E20CE10CE00CE90F7A2DAC
:102B00008E2D2030690203185F2D690803198E2D60
:102B1000E035E10DE20DE30DE903852D68080319A9
:102B20000800E009E109E209E309E00A0319E10A02
:102B30000319E20A0319E30A0800B401B5012D08DC
:102B40002E040319C62D2D08A0002E08A100103058
:102B5000A201A301A701A600A501A401D3259031DC
:102B60002308B3002208B2002108B1002008B000F9
:102B70003308031DBF2D01303202031CC22DB401E6
:102B8000B501C62D3108B5003008B4002F08031D6B
:102B9000CE2D3508A1003408A000F42F3508A1007F
:102BA0003408A000EC2FA801A901AA01AB01230859
:102BB0002204210420040319092EAC01AC0AA31B32
:102BC000E62DA035A10DA20DA30DDE2DA835A90D72
:102BD000AA0DAB0D23082702031DF82D220826029B
:102BE000031DF82D21082502031DF82D20082402BD
:102BF000031C032E2008A4022108A53B2208A63BA3
:102C00002308A73B2814A336A20CA10CA00CAC0BE4
:102C1000E62D2B08A3002A08A2002908A1002808F5
:102C2000A000080021006B0808002000A00021007F
:102C3000EB0008002308B5002208B4002108B30007
:102C40002008B20008003108CE003008CD002F085F
:102C5000CC002E08CB0008006008E4006108E50005
:102C60006208E6006308E700080009070907503E0C
:102C70008600023087000800A1000030A201A301F5
:102C80000800D901CB01CC01CD01CE0108005908C3
:102C9000803ACF0080304F020800AD36AC0CAB0C50
:102CA000AA0C08003108BA008030BA053135C000DE
:102CB000B01B401440080319632E400F612EC32738
:102CC0009031B017652EC327903135088039BA0688
:102CD0003535BB00B41B3B143B080319752E3B0F65
:102CE000732EBE279031B417772EBE2790313B0844
:102CF000031D4008031D812EAE01AF01B001B101DB
:102D000008002E08A00034086C2790312108C60066
:102D10002008C500BC00BD01BE01BF014608C100BE
:102D2000C201C301C4012F08A00033086C279031F1
:102D300021089E279031C10701300318C2070318EC
:102D4000C3070318C4073008A00032086C2790316D
:102D500021089E2790318E2790312F08A00032083D
:102D60006C279031832790312E08A00033086C2700
:102D70009031832790313E08BF003D08BE003C08DB
:102D8000BD00BC012E08A00032086C2790318327BB
:102D900090312F08A00034086C279031AB27903178
:102DA00033086C279031AB27903134086C27903171
:102DB0002108C6002008C500B6004608B700B801C3
:102DC000B9013808B9003708B8003608B700B601AD
:102DD0003608C1073708C23D3808C33D3908C43D2D
:102DE0003F088E2790314008C500C6013B08C50743
:102DF0000318C60A8230C507031CC603C31B0C2F69
:102E0000C135C20DC30DC40DBF1B4114FF30BC350D
:102E1000BD0DBE0DBF0DFB2EBB01BF1F212F3C08FA
:102E2000B6003D08B7003E08B8007F303F05B90046
:102E3000380437043604031941181F2F212FBB0112
:102E4000BB0A3B080319332F0130C1070030C23DD4
:102E5000C33DC43D441C332FC437C30CC20CC10C4A
:102E6000C50A0319C60AB8279031031D392FFF3050
:102E70004502031C432F7F302000C4008030C30074
:102E8000C201C101612F2000B8279031031D4A2FD4
:102E9000013045020318532F2000C101C201C301B4
:102EA000C401BA01612F20004508C000FF30C105F0
:102EB000C2057F30C3050030C4014018C317403637
:102EC000C4003A08C4044408B1004308B0004208F2
:102ED000AF004108AE000800A700A301A40120082C
:102EE000A500A601271C782F2508A3072608A43DC6
:102EF000A535A60DA7362708031D722F2408A100AB
:102F00002308A00008002108C6002008C500BC074F
:102F10004608BD3D0030BE3DBF3D0800C107013041
:102F20000318C2070318C3070318C4073E08BF00ED
:102F30003D08BE003C08BD00BC010800C6002008DA
:102F4000C500BC0701300318BD070318BE070318EE
:102F5000BF07460808002108C6002008C500C107B1
:102F60004608C23D0030C33DC43D3008A000080003
:102F70004608803AB600803036020800B201B3013C
:102F8000B401B5010800AE01AF01B001B101080004
:102F9000A601A60A2508031DEA2F2408031DEA2F0F
:102FA000193022020130233B0318EA2F2508031DA4
:102FB000E32F2408031DE32F2308031DE32F88308C
:102FC0002202031CEA2F01302102233003192002C0
:102FD0000318A6012608080021082200E1002000AD
:102FE00020082200E000080021082200E70020005D
:102FF00020082200E6000800A0002100EA000800E6
:1030000086317E2E8631A32E8631D22E8631F22E47
:103010008731392F87310E2F87311D2F8731392F77
:103020008731222F87313B2F8631A62E8631BF2E46
:103030000034043400340034703461347334743434
:1030400020346134733473346534723474340D3421
:103050000034D934083402340934D63409347A348B
:10306000083453340834E4341C34FF341C348B31BA
:10307000D02B8B31F52B8C31902C8C31AD2C8B31AE
:10308000E02B8B31D02B4E346534773420344534EB
:103090006E347434723479340D34003461347334E2
:1030A000733465347234743420340D340034533442
:1030B00065347134203445346E3464340D34003456
:1030C000733474346134723474340D3400344834DD
:0A30D00061346E3467340D340034AF
:1038C4000800FF30652C08007B1801340034210007
:1038D40040080800A00022009900080021001708F1
:1038E400C139123897000800640080010131890B46
:1038F400772C0034FE0012001E00FE0B7D2C0034D9
:1039040021082200D200200020082200D100080053
:1039140020080319902C22008E16080022008E1213
:10392400080020080319992C22008E170800220091
:103934008E13080021002708603E2000A2000030FA
:103944002100283D2000A3002102031DAB2C2208E6
:10395400200203180134003402308B319E239C3141
:103964000530F9012100E90020000030A3018F3166
:1039740094279C318C31F0249C310130A3018F3188
:1039840094279C318C31F02402308B319E2B0030F3
:103994002102613003192002031CD92C21003E0AA4
:1039A4000319D62CBE0ADB2CFF30BE00DB2C210011
:1039B400BE013E080319E02C0130E12C0030200048
:1039C400A2000800570886000530870181005608C8
:1039D400EC2400342000A6002608031908008B31CB
:1039E400AA239C3100308E31DE269C318E31EF26A5
:1039F4009C318A3198228A31C02A5708860087016F
:103A04008101560803190B2D1A259C31003A03191C
:103A1400102D57088600063087018100570886005C
:103A240087010108031D003401308F317D270034E4
:103A340000342700131E202D23259D31931E0800DA
:103A4400302D220049084A0403192D2D4A088A0002
:103A540049080A009D312700131208002200470874
:103A6400480403193A2D48088A0047080A009D3182
:103A7400270093120800003400340034003400346A
:103A8400003400340034003493341C3400340034E3
:103A94000034003400340034003400340134003481
:103AA40000340034003400340034003400348A34E8
:103AB4001C34003400340034003400340034003446
:103AC40000348C252000A000963112269D31123A34
:103AD400031D0800043020002002031C7B2D21005C
:103AE4002708280403197B2D0130A7020030A83BC6
:103AF40008000330200020020318080000302100D1
:103B040028020B300319270203180800A70A031917
:103B1400A80A08003C0808000034003400340034CB
:103B24006434003400340034013400340334003489
:103B34006434003400340034073400340034003476
:103B4400C8340034003400340134003415340034F3
:103B54002C34013400340034013400340334003490
:103B64006434003400340034063400340334003444
:103B7400103427340034003422003E082000A7000B
:103B840022003D082000A60022003C082000A500D9
:103B940022003B082000A400A8012100BC01BD01B3
:103BA4002000A901A90A24080139A8070930290617
:103BB400031DDF2D28082100BC001E30200029062B
:103BC400031DE72D28082100BD0020002030A90A8C
:103BD400A736A60CA50CA40C2902031CD52D220083
:103BE4003E082000A30022003D082000A20022007D
:103BF4003C082000A10022003B082000A000022E67
:103C040023082200DF00200022082200DE0020001A
:103C140021082200DD00200020082200DC0008002A
:103C2400A40129001C082000A800A70129001B08E2
:103C34002000A70404309331CF239E312108A6002D
:103C44002008A5000630A636A50C890B252EA60152
:103C5400260821002602031D312E92269E310318C8
:103C6400362E7A08031D632E200026082100260222
:103C7400031D3E2E92269E3103184A2E7A08031DF8
:103C84004A2E04302000A7020030A83BFA016A2E15
:103C9400260820002602031D512E8D269E3103186E
:103CA400562E7A08031D432E2100260820002602E2
:103CB400031D5E2E8D269E3103186A2E7A08031D7D
:103CC4006A2E04302000A7070318A80AFA01FA0A8A
:103CD400093028028030031927020318742E133088
:103CE400A400822E0C302802013003192702031885
:103CF400712E280829009C002000270829009B0019
:103D0400200026082100A600200025082100A50087
:103D140020002408080021002508200025020800AE
:103D240020002508210025020800A2269E319A2E93
:103D3400A00020080319A02E7B1408007B100800A3
:103D44002000AB01AC011330A0002C088D314325B9
:103D54009E31A03EC0269E31003A0319B32EAB011A
:103D6400AB0A0230AC0A2C02031CA52E2B08031943
:103D7400BD2E8F310D2720002B080800AA002A0A27
:103D840016279E312A080B3E86002D279E31031DDF
:103D9400D52E23082702031DD52E22082602031D33
:103DA400D52E210825020318D92E0130DA2E003031
:103DB400A900A0002A08093E860001308700413F7F
:103DC4008A00403F0A009E3120002A08053E16273B
:103DD4009E312A0A8600403FA107413FA23D423F4F
:103DE400A33D433FA43D2A080B3E22279E317D314B
:103DF4002D279E31031D082F23082702031D082F9A
:103E040022082602031D082F21082502031C142F53
:103E14002A080B3E860001308F319C279E312A08E8
:103E24000F3E222729080800860001308700403F02
:103E3400A100413FA200423FA300433FA400080069
:103E440086000130810700304131813D4131813D9F
:103E54004131813D0800403FA500413FA600423F5B
:103E6400A700433FA800240828020800B500320830
:103E7400B7003108B6002200C301C401200036088F
:103E840084003708850012000319572F3630AA0022
:103E94003308AB00350860279F312A082200C30786
:103EA40020002B082200C43D402F2200440820009B
:103EB400B200220043082000B1000800B000E82747
:103EC4009F311200253A031D9F2FF4279F310318B9
:103ED400810AE8279F3112006E3A031D872FF427C9
:103EE4000318810A2B0886008701403F840085015E
:103EF400810A0008AF00860022004308C03F44083E
:103F0400C13F2000AA01AB010800E8279F3112003D
:103F1400253A031D9A2FF4279F310318810A25306F
:103F2400FB279F31AC272000AA01AA0AAB01080095
:103F3400F4279F310318810A832FE8279F31000853
:103F4400FB279F31AC279F312000F4279F310318B2
:103F5400810A952F2408031D2408031DB32F22086A
:103F6400DE2F2408033E860087011600010403198E
:103F7400D42F2408033E86008701403FA500413F1B
:103F8400A600240A8600403FA700413FA800803ACB
:103F9400A9002608803A2902031DD22F25082702EA
:103FA400031808002000240A8600013087018107D5
:103FB40041310318810A0800A1002108E12FA00063
:103FC400111EE22F200823009A0008002A08860008
:103FD4008701403FAC00413FAD002C0884002D0810
:103FE400850008002A0886000130870181074131D5
:0C3FF4000800A200A3013008A40008008F
:020000040001F9
:04000E00F4FFFFFFFD
:00000001FF
