:020000040000fa
:08000000481c04000000000090
:020000040000fa
:10000800041a0000081a00000c1a0000101a000058
:10001800141a0000001a0000181a0000001a000044
:100028001c1a0000201a0000241a0000281a0000d8
:100038002c1a0000001a0000301a0000341a0000c0
:10004800381a00003c1a0000401a0000441a000048
:10005800481a00004c1a0000501a0000541a0000f8
:10006800581a00005c1a0000601a0000641a0000a8
:10007800681a00006c1a0000001a0000701a0000cc
:10008800741a0000001a0000781a00007c1a000098
:10009800801a0000841a0000881a0000001a000064
:1000a800001a0000001a0000001a00008c1a000054
:1000b800901a0000941a0000981a0000001a000014
:1000c8009c1a0000a01a0000001a0000a41a0000e0
:1000d800a81a0000ac1a0000b01a0000b41a0000f8
:1000e800b81a0000bc1a0000c01a0000c41a0000a8
:1000f800001a0000001a0000c81a0000001a0000c8
:10010800cc1a0000d01a0000d41a0000d81a000037
:10011800dc1a0000e01a0000e41a0000e81a0000e7
:10012800ec1a0000f01a0000001a0000f41a00008f
:10013800f81a0000fc1a0000001b0000041b000055
:10014800081b00000c1b0000101b0000001a000018
:10015800001a0000141b0000181b00001c1b0000e4
:10016800001a0000201b0000241b0000281b0000b0
:100178002c1b0000301b0000341b0000381b000043
:100188003c1b0000401b0000441b0000481b0000f3
:100198004c1b0000501b0000541b0000581b0000a3
:1001a8005c1b0000601b0000641b0000681b000053
:1001b8006c1b0000701b0000741b0000781b000003
:1001c8007c1b0000801b0000841b0000881b0000b3
:1001d8008c1b0000901b0000941b0000981b000063
:1001e8009c1b0000a01b0000a41b0000a81b000013
:1001f800ac1b0000b01b0000b41b0000b81b0000c3
:10020800bc1b0000c01b0000c41b0000c81b000072
:10021800cc1b0000d01b0000d41b0000d81b000022
:10022800dc1b0000001a0000001a0000001a000081
:10023800001a0000001a0000001a0000001a00004e
:10024800001a0000001a0000001a0000001a00003e
:10025800001a0000001a0000e01b0000e41b000068
:10026800e81b0000001a0000001a0000001a000035
:10027800001a0000ec1b0000f01b0000001a000030
:10028800f41b0000f81b0000001a0000001a000010
:10029800001a0000001a0000001a0000001a0000ee
:1002a800001a0000001a0000001a0000001a0000de
:1002b800001a0000001a0000001a0000001a0000ce
:1002c800001a0000fc1b0000001c0000041c0000b9
:1002d800081c00000c1c0000101c0000141c00006e
:1002e800181c00001c1c0000201c0000241c00001e
:1002f800281c00002c1c0000301c0000001a000004
:10030800001a0000001a0000001a0000001a00007d
:10031800001a0000341c0000381c00003c1c0000bf
:10032800401c0000441c0000001a0000001a0000d5
:10033800001a0000001a0000001a0000001a00004d
:10034800001a0000001a0000001a0000001a00003d
:10035800001a0000001a0000001a0000001a00002d
:10036800001a0000001a0000001a0000001a00001d
:10037800001a0000001a0000001a0000001a00000d
:10038800001a0000001a0000001a0000001a0000fd
:10039800001a0000001a0000001a0000001a0000ed
:1003a800001a0000001a0000001a0000001a0000dd
:1003b800001a0000001a0000001a0000001a0000cd
:1003c800001a0000001a0000001a0000001a0000bd
:1003d800001a0000001a0000001a0000001a0000ad
:1003e800001a0000001a0000001a0000001a00009d
:0803f800001a0000001a0000c9
:020000040000fa
:08300000481c04000000000060
:020000040000fa
:103008000000fa003070800000800a000000000014
:103018000004a200614060000080fb0061006000c5
:10302800317080000100a10001007000307088003c
:103038003070800011800a00000000000004a20027
:10304800614060000080fb006100600000004000fb
:10305800317080000110a1000100700030708800fc
:103068003070800022800a00000000000004a200e6
:10307800614060000080fb00610060004200dd00ec
:10308800317080000120a1000100700030708800bc
:103098000080fa00000006000000fa000000fe00b0
:1030a8000080fa00000006000200fa000000eb00b1
:1030b800000f780002003700000000001e0fe80033
:1030c800f0f920009e007800808f5000faff34004d
:1030d8000080fa00000006000600fa0010079800b9
:1030e800414798000040eb00004f78000600370089
:1030f8001e80fb009e009000008040001040780079
:10310800260407001e4fe8004e4090009e407800bd
:1031180080cf5000f6ff39000080fa00000006005a
:103128000600fa0010079800414798000040eb009d
:10313800004f7800060037001e80fb009e009000bc
:103148000080400010407800a30307001e4fe800ed
:103158004e4090009e40780080cf5000f6ff390026
:103168000080fa00000006000200fa00d1040700ff
:103178004080210072000700790007000100370035
:1031880000000000100407000004e0001c003200ea
:10319800f3030700004f78001e80fb00f1032000b6
:1031a800810f50000400320021072000810f5000d9
:1031b800080032001000370040022100cf0207004b
:1031c800004078008040780040022100c2ff0700dc
:1031d8000b00370000032100c802070000407800f8
:1031e8008040780000032100bbff0700aeff070006
:1031f800a9ff0700020037001e407800e703070018
:10320800800307000004e000ddff320063030700cd
:10321800004f78001e80fb00f1032000810f500052
:103228000400320021072000810f500008003200fe
:103238001000370040022100b0020700004078006b
:103248008040780040022100b5ff07000c003700dd
:1032580000032100a90207000040780080407800a0
:1032680000032100aeff07008fff07008aff070059
:10327800030037001e40780057030700c1ff3700de
:04328800c0ff37004c
:020000040000fa
:10328c000000fa000421ef0010a12700400888007c
:10329c000002280000088800108080000000e00078
:1032ac0002003a00e0992100240007000028a90040
:1032bc002028a800000421008040eb000148780081
:1032cc000080fa00000006000200fa00000f7800ef
:1032dc009e00780041088800000421008040eb002b
:1032ec00014878000080fa00000006000000fa0097
:1032fc00400880000080fa00000006000200fa007e
:10330c00000f78009e00780021088800000421003e
:10331c008040eb00014878000080fa0000000600b5
:10332c000000fa00200880000080fa00000006006f
:10333c000000fa000080fa00000006000200fa000b
:10334c00000f78002028a9009e00780011808800ca
:10335c002028a8000080fa00000006000000fa00f7
:10336c00000421008040eb00014878002028a800d0
:10337c0001e1a8000080fa00000006000000fa003d
:10338c0001e1a9002028a9000080fa000000060035
:10339c000200fa0000042100104f78001e40780053
:1033ac000004e00003003200000421008040eb0028
:1033bc00014878001e4078000080fa0000000600ea
:1033cc000000fa0010042100104078000080fb007f
:1033dc000080fa00000006000000fa001004210032
:1033ec008040eb00014878000080fa0000000600e5
:020000040000fa
:0433fc00ffff370098
:020000040000fa
:083400007c1e04000000000026
:020000040000fa
:083408004a1d04000000000051
:020000040000fa
:083410008c1d04000000000007
:020000040000fa
:08341800cc1d040000000000bf
:020000040000fa
:083420006a1d04000000000019
:020000040000fa
:08342800ac1d040000000000cf
:020000040000fa
:08343000ec1d04000000000087
:020000040000fa
:08343800001a0400000000006e
:020000040000fa
:08344000461e0400000000001c
:020000040000fa
:08344800001a0400000000005e
:020000040000fa
:08345000001a04000000000056
:020000040000fa
:08345800001a0400000000004e
:020000040000fa
:08346000001a04000000000046
:020000040000fa
:08346800001a0400000000003e
:020000040000fa
:08347000001a04000000000036
:020000040000fa
:08347800001a0400000000002e
:020000040000fa
:08348000001a04000000000026
:020000040000fa
:08348800001a0400000000001e
:020000040000fa
:08349000001a04000000000016
:020000040000fa
:08349800001a0400000000000e
:020000040000fa
:0834a000001a04000000000006
:020000040000fa
:0834a800001a040000000000fe
:020000040000fa
:0834b000001a040000000000f6
:020000040000fa
:0834b800001a040000000000ee
:020000040000fa
:0834c000001a040000000000e6
:020000040000fa
:0834c800001a040000000000de
:020000040000fa
:0834d000001a040000000000d6
:020000040000fa
:0834d800001a040000000000ce
:020000040000fa
:0834e000001a040000000000c6
:020000040000fa
:0834e800001a040000000000be
:020000040000fa
:0834f000001a040000000000b6
:020000040000fa
:0834f800001a040000000000ae
:020000040000fa
:08350000001a040000000000a5
:020000040000fa
:08350800001a0400000000009d
:020000040000fa
:08351000001a04000000000095
:020000040000fa
:08351800001a0400000000008d
:020000040000fa
:08352000001a04000000000085
:020000040000fa
:08352800001a0400000000007d
:020000040000fa
:08353000001a04000000000075
:020000040000fa
:08353800001a0400000000006d
:020000040000fa
:08354000001a04000000000065
:020000040000fa
:08354800001a0400000000005d
:020000040000fa
:08355000001a04000000000055
:020000040000fa
:08355800001a0400000000004d
:020000040000fa
:08356000001a04000000000045
:020000040000fa
:08356800001a0400000000003d
:020000040000fa
:08357000001a04000000000035
:020000040000fa
:08357800001a0400000000002d
:020000040000fa
:08358000001a04000000000025
:020000040000fa
:08358800001a0400000000001d
:020000040000fa
:08359000001a04000000000015
:020000040000fa
:08359800001a0400000000000d
:020000040000fa
:0835a000001a04000000000005
:020000040000fa
:0835a800001a040000000000fd
:020000040000fa
:0835b000001a040000000000f5
:020000040000fa
:0835b800001a040000000000ed
:020000040000fa
:0835c000001a040000000000e5
:020000040000fa
:0835c800001a040000000000dd
:020000040000fa
:0835d000001a040000000000d5
:020000040000fa
:0835d800001a040000000000cd
:020000040000fa
:0835e000001a040000000000c5
:020000040000fa
:0835e800001a040000000000bd
:020000040000fa
:0835f000001a040000000000b5
:020000040000fa
:0835f800001a040000000000ad
:020000040000fa
:08360000001a040000000000a4
:020000040000fa
:08360800001a0400000000009c
:020000040000fa
:08361000001a04000000000094
:020000040000fa
:08361800001a0400000000008c
:020000040000fa
:08362000001a04000000000084
:020000040000fa
:08362800001a0400000000007c
:020000040000fa
:08363000001a04000000000074
:020000040000fa
:08363800001a0400000000006c
:020000040000fa
:08364000001a04000000000064
:020000040000fa
:08364800001a0400000000005c
:020000040000fa
:08365000001a04000000000054
:020000040000fa
:08365800001a0400000000004c
:020000040000fa
:08366000001a04000000000044
:020000040000fa
:08366800001a0400000000003c
:020000040000fa
:08367000001a04000000000034
:020000040000fa
:08367800001a0400000000002c
:020000040000fa
:08368000001a04000000000024
:020000040000fa
:08368800001a0400000000001c
:020000040000fa
:08369000001a04000000000014
:020000040000fa
:08369800001a0400000000000c
:020000040000fa
:0836a000001a04000000000004
:020000040000fa
:0836a800001a040000000000fc
:020000040000fa
:0836b000001a040000000000f4
:020000040000fa
:0836b800001a040000000000ec
:020000040000fa
:0836c000001a040000000000e4
:020000040000fa
:0836c800001a040000000000dc
:020000040000fa
:0836d000001a040000000000d4
:020000040000fa
:0836d800001a040000000000cc
:020000040000fa
:0836e000001a040000000000c4
:020000040000fa
:0836e800001a040000000000bc
:020000040000fa
:0836f000001a040000000000b4
:020000040000fa
:0836f800001a040000000000ac
:020000040000fa
:08370000001a040000000000a3
:020000040000fa
:08370800001a0400000000009b
:020000040000fa
:08371000001a04000000000093
:020000040000fa
:08371800001a0400000000008b
:020000040000fa
:08372000001a04000000000083
:020000040000fa
:08372800001a0400000000007b
:020000040000fa
:08373000001a04000000000073
:020000040000fa
:08373800001a0400000000006b
:020000040000fa
:08374000001a04000000000063
:020000040000fa
:08374800001a0400000000005b
:020000040000fa
:08375000001a04000000000053
:020000040000fa
:08375800001a0400000000004b
:020000040000fa
:08376000001a04000000000043
:020000040000fa
:08376800001a0400000000003b
:020000040000fa
:08377000001a04000000000033
:020000040000fa
:08377800001a0400000000002b
:020000040000fa
:08378000001a04000000000023
:020000040000fa
:08378800001a0400000000001b
:020000040000fa
:08379000001a04000000000013
:020000040000fa
:08379800001a0400000000000b
:020000040000fa
:0837a000001a04000000000003
:020000040000fa
:0837a800001a040000000000fb
:020000040000fa
:0837b000001a040000000000f3
:020000040000fa
:0837b800001a040000000000eb
:020000040000fa
:0837c000001a040000000000e3
:020000040000fa
:0837c800001a040000000000db
:020000040000fa
:0837d000001a040000000000d3
:020000040000fa
:0837d800001a040000000000cb
:020000040000fa
:0837e000001a040000000000c3
:020000040000fa
:0837e800001a040000000000bb
:020000040000fa
:0837f000001a040000000000b3
:020000040000fa
:0837f800001a040000000000ab
:020000040000fa
:08380000001a040000000000a2
:020000040000fa
:08380800001a0400000000009a
:020000040000fa
:08381000001a04000000000092
:020000040000fa
:08381800001a0400000000008a
:020000040000fa
:08382000001a04000000000082
:020000040000fa
:08382800001a0400000000007a
:020000040000fa
:08383000001a04000000000072
:020000040000fa
:08383800001a0400000000006a
:020000040000fa
:08384000001a04000000000062
:020000040000fa
:08384800001a0400000000005a
:020000040000fa
:08385000001a04000000000052
:020000040000fa
:08385800001a0400000000004a
:020000040000fa
:08386000001a04000000000042
:020000040000fa
:08386800001a0400000000003a
:020000040000fa
:08387000001a04000000000032
:020000040000fa
:08387800001a0400000000002a
:020000040000fa
:08388000001a04000000000022
:020000040000fa
:08388800001a0400000000001a
:020000040000fa
:103890002f0421000eff24000e018800000000000c
:1038a000000020000000e0000200320000012000c3
:1038b0002002880014000700110107000000e0004a
:1038c00003003a00602722000100200002003700b8
:1038d0000000200001002000810f70000100320074
:1038e0000f000700000020000000e000020032008e
:1038f0000000020000000000b818020000000000f4
:103900000040da000000fe00200020000000e0007f
:103910000200320010002000900188000000060024
:10392000a1028800800478000000eb001f0037002f
:10393000e284440054a0b4009905ba00e284440033
:1039400054a0b4009906ba00e284440054a0b40024
:103950000006eb00476fde00fd07b200ae018800f5
:10396000636ce10003003a000ad801000000eb009c
:103970000e003700606ce10008003a00004deb00db
:103980000a05e800020039003420ec000af0a0002b
:103990008b05e900f9ff3e00040037006168e10093
:1039a000010032000086eb000b00070019c7ba00c7
:1039b0001905ba000e04e00003003a000a00e00016
:1039c000dbff3a0000000600fe07b200ae028800ee
:1039d0008a047800f5ff37000cd0a300e20f4d00f9
:1039e0001c00390089027800354dba000a05e8004c
:1039f000020039003420ec000af0a0008b05e90039
:103a00000f003200254dba000a05e8000200390017
:103a10003420ec000af0a0008b05e9000800320019
:103a20000c00e0000600320015cdba000a05e800df
:103a3000020039003420ec000af0a0008b05e900f8
:103a40008984e80054a0b4000b00e000e2ff3a00d3
:103a5000000006009902ba00055d78008b05e900b8
:103a6000f7ff3200c82ade00055d78008b05e9000b
:103a7000f3ff32000c00e000f1ff320019ddba0064
:103a8000eeff37009e190400000000000418040037
:103a9000000000003600f800809fbe00829fbe003c
:103aa000849fbe00869fbe000000fa00c028a900c7
:103ab0000000eb00a80207000080fa004f03be00e0
:103ac0004f02be004f01be004f00be003600f9009d
:103ad000004006003600f800809fbe00829fbe00b6
:103ae000849fbe00869fbe000000fa009f02070070
:103af000c048a90010002000970207000080fa00cb
:103b00004f03be004f02be004f01be004f00be007b
:103b10003600f900004006003600f800809fbe0025
:103b2000829fbe00849fbe00869fbe000000fa00f8
:103b3000c068a90020002000870207000080fa006a
:103b40004f03be004f02be004f01be004f00be003b
:103b50003600f900004006003600f800809fbe00e5
:103b6000829fbe00849fbe00869fbe000000fa00b8
:103b7000c088a90030002000770207000080fa000a
:103b80004f03be004f02be004f01be004f00be00fb
:103b90003600f900004006003600f800809fbe00a5
:103ba000829fbe00849fbe00869fbe000000fa0078
:103bb000c608a90070002000670207000080fa0014
:103bc0004f03be004f02be004f01be004f00be00bb
:103bd0003600f900004006003600f800809fbe0065
:103be000829fbe00849fbe00869fbe000000fa0038
:103bf0002146800000102000008060000000e000ee
:103c000003003200c508a900c000200052020700ce
:103c10002146800000002800008060000000e000d5
:103c200003003200c5e8a900800020004a02070016
:103c30002146800000022000008060000000e000bb
:103c400003003200c4a8a90090002000420207002f
:103c500020468000700060000000e0000300320099
:103c6000c488a900a00020003b0207002046800075
:103c7000610060000000e00003003200c408a900f9
:103c8000b000200034020700ffff37003600f800c4
:103c9000809fbe00829fbe00849fbe00869fbe00a4
:103ca0000000fa00108080000000e00002003200f6
:103cb00010808000000001001004210010407800f6
:103cc0008040e80010042100014878000004210031
:103cd00011c0b300014878000028a9000080fa0054
:103ce0004f03be004f02be004f01be004f00be009a
:103cf0003600f900004006000040da000000fe0037
:103d00000000050080007800010178003104e00027
:0c3d1000fdff3a0000005100000006001a
:020000040000fa
:103d1c000000fa00007c80000080fa000000060021
:103d2c000200fa00faff0700000f78001e0078006e
:103d3c00240007000004e00002003200000028000c
:103d4c00710007001e0078002a0007000004e00044
:103d5c0002003200000024006b0007001e007800f7
:103d6c00320007000004e0000200320000202000b6
:103d7c00650007001e0078003a0007000004e00010
:103d8c0002003200000820005f0007001e007800cf
:103d9c00420007000004e000020032000004200092
:103dac00590007001e0078004a0007000004e000dc
:103dbc000200320000012000530007000080fa00ce
:103dcc00000006000400fa00100798000040eb0009
:103ddc00004f78001e0090000000e00002003d0043
:103dec0010c0b300004f78001e4078000080fa002d
:103dfc00000006000400fa00100798000040eb00d9
:103e0c00004f78009e0090000000240000806000ad
:103e1c000000e0000200320010c0b300004f780038
:103e2c001e4078000080fa00000006000400fa0032
:103e3c00100798000040eb00004f78009e009000a7
:103e4c0000202000008060000000e0000200320032
:103e5c0010c0b300004f78001e4078000080fa00bc
:103e6c00000006000400fa00100798000040eb0068
:103e7c00004f78009e009000000820000080600039
:103e8c000000e0000200320010c0b300004f7800c8
:103e9c001e4078000080fa00000006000400fa00c2
:103eac00100798000040eb00004f78009e00900037
:103ebc0000042000008060000000e00002003200de
:103ecc0010c0b300004f78001e4078000080fa004c
:103edc00000006000400fa00100798000040eb00f8
:103eec00004f78001e009000700060000000e000a1
:103efc000200320010c0b300004f78001e40780062
:103f0c000080fa00000006000200fa00000f7800a2
:103f1c009e80ea00007c800000806000007c8800ad
:103f2c000080fa00000006000000fa00802fef006d
:103f3c000080fa00000006000000fa0000082000d3
:103f4c00001388006222ef006422ef0020022000a0
:103f5c003013880090012000401388006a22ef0083
:103f6c007422ef007622ef007822ef007a22ef0025
:103f7c007c22ef007e22ef008022ef008222ef00f5
:103f8c008422ef0061e2a80060a2a8006082a80071
:103f9c000080fa00000006000000fa00000000009b
:103fac0030138000620060000000e000fcff3a006b
:103fbc0020138000620060000000e000010032006d
:103fcc006422a90060138000004078000080fa0091
:103fdc00000006000200fa00004f7800000000000c
:103fec0030138000700060000000e000fcff3a001d
:103ffc001e80fb00801388000080fa000000060081
:10400c000000fa00301380006200600000f0a7008e
:10401c000000ea000000e9004f00de0000407800dc
:10402c000080fa00000006000000fa003013800047
:10403c00700060000000e00007003a0001138000ef
:10404c0000022000008060000000e000020032004e
:10405c0010002000010037000000eb000040780049
:10406c000080fa00000006000000fa002013800017
:10407c0077800a00000000000080fb0000f0a70021
:10408c000000ea000000ea004f00de00004078006b
:10409c000080fa00000006000400fa0030138000d3
:1040ac008000eb00008fbe001e00be00c001dd00d2
:1040bc0002002000201380008000eb000000710043
:1040cc00818071000080fa00000006000000fa00f8
:1040dc0061e2a80060a2a8006082a8000080fa003b
:1040ec00000006000000fa0061e2a90060a2a9002d
:1040fc006082a9000080fa00000006000000fa00af
:10410c0000082000c01188003a22ef003c22ef008a
:10411c0020022000f011880090012000001288007d
:10412c004222ef004c22ef004e22ef005022ef0013
:10413c005222ef005422ef005622ef005822ef00db
:10414c005a22ef005c22ef0039e2a80038a2a80046
:10415c003882a8000080fa00000006000000fa0077
:10416c0000000000f0118000620060000000e00020
:10417c00fcff3a00e0118000620060000000e000eb
:10418c00010032003c22a90020128000004078007f
:10419c000080fa00000006000200fa00004f7800d0
:1041ac0000000000f0118000700060000000e000d2
:1041bc00fcff3a001e80fb00401288000080fa00d1
:1041cc00000006000000fa00f011800062006000a0
:1041dc0000f0a7000000ea000000e9004f00de003c
:1041ec00004078000080fa00000006000000fa0091
:1041fc00f0118000700060000000e00007003a0041
:10420c00c111800000022000008060000000e0006e
:10421c000200320010002000010037000000eb000b
:10422c00004078000080fa00000006000000fa0050
:10423c00e011800077800a00000000000080fb0085
:10424c0000f0a7000000ea000000ea004f00de00ca
:10425c00004078000080fa00000006000400fa001c
:10426c00f01180008000eb00008fbe001e00be002d
:10427c00c001dd0002002000e01180008000eb0096
:10428c0000007100818071000080fa0000000600bf
:10429c000000fa0039e2a80038a2a8003882a80071
:1042ac000080fa00000006000000fa0039e2a900c4
:1042bc0038a2a9003882a9000080fa00000006008c
:020000040000fa
:1042cc000000fa00062eef00000824001071880090
:1042dc003e2eef008001200010708800d0f72b00dc
:1042ec00f0708800f0032000d07188000c2eef00d5
:1042fc00282eef00442eef000a2eef00262eef00a2
:10430c00422eef00082eef00242eef00402eef007f
:10431c008001200000708800c0012000e07088003f
:10432c00f0002000c07188000000eb005105200057
:10433c00b1468800a10a2000b146880000688800b8
:10434c0060c2b3002aedb700316c8000f00f2c0076
:10435c00808060000030200001007000306c88000c
:10436c00716c800000fc2f00008060000000a00039
:10437c00706c8800f0c2b30028edb70000802000fc
:10438c0051052000b1468800a10a2000b1468800e2
:10439c00006888000080fa00000006000000fa00a7
:1043ac0010002300307c880060092000407c8800cd
:1043bc008c2fef0010042000507c8800101020007f
:1043cc00707c880020032000807c88001004200072
:1043dc00907c8800b82fef00ba2fef00be2fef00b3
:1043ec00002def00a02fef00a42fef00a62fef0061
:1043fc00a82fef00aa2fef00ae2fef00b02fef0089
:10440c00b22fef002200200080072000a10920001d
:10441c0053f820008049780081497800824978005f
:10442c000001eb00600420007105200043f820001f
:10443c008049780081497800824978000080fa0030
:10444c00000006000000fa00707c8000ee800a007c
:10445c00000000000080fb0000f0a7000000ea0054
:10446c000000ea004f00de00004078000080fa00f7
:10447c00000006000200fa00000f78002102800004
:10448c00200f2000008060001e00700020028800b9
:10449c000080fa00000006000000fa00c3e8a80043
:1044ac0000000000000000000080fa000000060080
:1044bc000000fa0082ff070030000700b7ff07007a
:1044cc009dfe07000dff07006dfb0700f2ff0700c4
:1044dc0000022000e7ff07000080fa000000060041
:020000040000fa
:1044ec0004100000200000008000000000100000fc
:1044fc000200000082000000ffff000040100000de
:10450c000200000080000000021000000200000009
:10451c0080000000241000001c000000820000003d
:10452c004453500049432000417070000d0a0000b4
:10453c00726573007461720074696e00672e2e00d0
:0c454c002e0d0a0000000000000000001e
:020000040000fa
:104558000200fa00000f78009e00780001808800b1
:10456800ffff37000000fa004000210080077800b4
:10457800c0012100000188000080fa000000060048
:104588000000fa0001428000f0f82f00008060006f
:104598000040a000004288000080fa0000000600e9
:020000040000fa
:020000040002f8
:04be0000ffff000040
:020000040000fa
:020000040002f8
:04be2000ffffff0021
:020000040000fa
:020000040002f8
:04be30007affff0096
:020000040000fa
:020000040002f8
:04be3800b8ffff0050
:020000040000fa
:020000040002f8
:04be40006003ff009c
:020000040000fa
:020000040002f8
:04be4800ffffff00f9
:020000040000fa
:020000040002f8
:04be5000dfffff0011
:020000040000fa
:020000040002f8
:04be58000000ff00e7
:020000040000fa
:020000040002f8
:04be60000000ff00df
:020000040000fa
:020000040002f8
:04be68000000ff00d7
:020000040000fa
:020000040002f8
:04be70000000ff00cf
:020000040000fa
:020000040002f8
:04be7800ffffff00c9
:020000040000fa
:020000040002f8
:04be8000fffcff00c4
:020000040000fa
:020000040002f8
:04be8800ffffff00b9
:020000040000fa
:020000040002f8
:04bff800ffffff0048
:020000040000fa
:020000040100f9
:04300000ffffff00cf
:00000001FF
