:020000040000FA
:1000000080312D280B1708007E1480318B190B1CB2
:100010000D289931A52180312B280B1F2B28210079
:10002000111C19282000111C19289A3141228031F5
:100030002B282100911D23282000911D23289E316B
:10004000EE2680312B282100921D2B282000921DA6
:100050002B2899312D217E1009008C31922C6300C0
:10006000E42A3F2080318E238031003A031933285F
:100070008C239D3117258031052395319F2D8F319C
:100080002C2780312000AF002F08031D0800F0301E
:100090001805AE00303A031D4F2854208031E92264
:1000A000003A031D63000800C43098009901F33042
:1000B0009700E3309C2380310B178B17E42A8F22A3
:1000C000803195228031722280317A2280318322E0
:1000D0008031EB218031CB228031D52280317F22CB
:1000E0008031FE29B601320886008701810131087E
:1000F00003198028903129208031003A031986287D
:100100002100320886000630870181002100320874
:100110008600063087010106031DD428CD218031D9
:10012000CA218031B500320886000630870181007F
:10013000C228DF208031E2208031BF28E5208031D5
:10014000BF28FF208031BF2804218031BF2808212B
:100150008031C02843218031C0288B312F2380314A
:10016000BF2865218031BF2882218031BF289F218F
:100170008031BF28B7218031BF28BA2180312100CA
:10018000B600D4283508B300B4013408003A031986
:10019000CA28BD28330884000B3004020318BD2888
:1001A00098310435183E8200320886008701010824
:1001B000031DDC2801306022210036080800EA21F6
:1001C0008031EB2922000E16003412308E31F326D6
:1001D000803105309131AA2180312108AB002008FF
:1001E000AA00A601A60AA7002B08A8002706260633
:1001F000A9000430A10026302B21A5000800003002
:100200008E31F3268E17003422008E138E160034A2
:1002100022008E120E15A9302000E100A630E20067
:10022000A0308A31E52280312100A8002808031D72
:1002300029290430A2002908A3002A08A4002306C3
:100240002206A50004302000A100A2302B212100AD
:10025000A80028080800A400A3012108230203180D
:10026000003423082407A2008600870101083C21EE
:1002700080312000A30A2D29A000111E3D2920084D
:1002800023009A00080022000E11A0302000E10097
:10029000A630E200A9308A31E52280312100A80091
:1002A0002808031D63290530A2002908A3002A0895
:1002B000A40023062206A50004302000A100A230DD
:1002C0002B212100A80028080800B0238E1112302D
:1002D0008E31F326803104309131AA2180312108FA
:1002E000AB002008AA000730A6002A08A7002B08A8
:1002F000A80027062606A9000430A10026302B21DD
:10030000A5000800B0238E1512308E31F3268031FF
:1003100004309131AA2180312108AB002008AA00C5
:100320000830A6002A08A7002B08A80027062606E2
:10033000A9000430A10026302B21A50008000030C0
:100340008E31F32680318E11003020008C1A01305E
:10035000A6000930A7002608A800A901290627063B
:10036000AA000430A10027302B21A500080022009C
:100370008D160034FF302000A6000A30A700A03000
:10038000A80027062606A9000430A10026302B214C
:10039000A500080021006908080020000C0C0139A4
:1003A000A000A0350C0801392007A2002100680830
:1003B00020002206A0000339A100033A031D080013
:1003C00022082100E8000B30E90A69020318E9015C
:1003D0000800EB29FE2966302100C500C400C614C0
:1003E0004610C801240094012830950097010F3071
:1003F000920020009111210091150800483023003F
:100400009F0080309D0026309E0033309B009C0171
:1004100008002000AA002A080319080000308D31C6
:10042000152580311D30AA238E31C726803100303A
:10043000602200308F31112F2000A90029080319F4
:10044000080000308D31152580310A30AA238E3105
:10045000C7268031332280315D228031003A031D6E
:1004600008008F31162F3A228031D401D30169223E
:10047000D50108002100CB01CC0108002000A90013
:1004800029080319080000308D3115258031C83046
:10049000AA238E31C72680318F311C278031D701A6
:1004A000D70AB72380315D228031003A031D5B2AD1
:1004B0008F31162780310030602AFB190134003457
:1004C0002000A00020080319672A7B1508007B1173
:1004D00008002200BB01BC01BD01BE012100DF01FB
:1004E000DE01080021009D0120309E009F019B013C
:1004F0009C0108001030220098009901080001308A
:10050000220097000800403029009E009F019A01B8
:10051000990198010A309C00C0309B0008006830A7
:10052000210099002200960108008C0150308D00B6
:100530008E013B3021008C00D0308D0003308E00C6
:1005400023008E008D0104308C0024008D018C016D
:1005500021009517013022009D00270013129312ED
:1005600012169212111291162C302000A000193090
:10057000A100C322803100302000A0000830A1007B
:10058000DC228B15080021082200C600200020086C
:100590002200C50008003030200098009901CF30BB
:1005A00097002C309C238031E42A01309C00FF30DE
:1005B0009B009A019110E72A21082200C400200024
:1005C00020082200C30008002000181408001C1591
:1005D0000800AD0147238031023A031D022B003091
:1005E0008C31392480312608031D022B2508031D78
:1005F000022B2408031D022B093023020318022BAF
:10060000AD01AD0A20002D080800220049084A0467
:1006100003190E2B0130C9020030CA3B49084A04B5
:10062000031D0800712380312308031D1D2B763024
:1006300021020230223B031C232B0530A0008D3108
:1006400008258031892B47238031003A031D2E2B4A
:1006500086235830C9000230CA0008006F23803159
:10066000003A031D08006D238031003A031D080085
:1006700047238031812380314A238831EB20803128
:10068000EA006A08031D08009B312C2308002100A2
:100690006C0808006A2320009E31E82680318B31E7
:1006A000982380311F309131AA2180312108B70071
:1006B0002008B6000630B736B60C890B5B2BFF302E
:1006C000B6050330B7053708AE003608AD00AF01F8
:1006D0009331782B81309704080063080800640880
:1006E00008003A082000A300220039082000A200D8
:1006F000220038082000A100220037082000A000B6
:1007000008002000A0002200DA0008008F316627D0
:1007100008000530EE0008008D31462D2000A001B4
:1007200021005B080319992B2000A001A00A2100D9
:10073000DB01200020080800960017082200C200F4
:10074000C101200016082200C10420001110210060
:1007500011140800A3000030A401A501A60108009F
:1007600029009E0122000E1540308E060800DA0195
:10077000D801D901D60108003108BA008030BA0585
:100780003135C000B01B401440080319CD2B400F79
:10079000CB2B2D258331B017CF2B2D258331350859
:1007A0008039BA063535BB00B41B3B143B0803192E
:1007B000DF2B3B0FDD2B28258331B417E12B2825B8
:1007C00083313B08031D4008031DEB2BAE01AF0135
:1007D000B001B10108002E08A0003408D6248331EE
:1007E0002108C6002008C500BC00BD01BE01BF0134
:1007F0004608C100C201C301C4012F08A00033088C
:10080000D6248331210808258331C107013003181C
:10081000C2070318C3070318C4073008A000320832
:10082000D6248331210808258331F82483312F0809
:10083000A0003208D6248331ED2483312E08A00095
:100840003308D6248331ED2483313E08BF003D08B0
:10085000BE003C08BD00BC012E08A0003208D62412
:100860008331ED2483312F08A0003408D62483314E
:10087000152583313308D624833115258331340877
:10088000D62483312108C6002008C500B6004608DA
:10089000B700B801B9013808B9003708B800360800
:1008A000B700B6013608C1073708C23D3808C33D56
:1008B0003908C43D3F08F82483314008C500C6010B
:1008C0003B08C5070318C60A8230C507031CC603C8
:1008D000C31B762CC135C20DC30DC40DBF1B411403
:1008E000FF30BC35BD0DBE0DBF0D652CBB01BF1F5C
:1008F0008B2C3C08B6003D08B7003E08B8007F309E
:100900003F05B90038043704360403194118892C0F
:100910008B2CBB01BB0A3B0803199D2C0130C1077E
:100920000030C23DC33DC43D441C9D2CC437C30CA4
:10093000C20CC10CC50A0319C60A22258331031D46
:10094000A32CFF304502031CAD2C7F302000C400D7
:100950008030C300C201C101CB2C2000222583318D
:10096000031DB42C013045020318BD2C2000C10129
:10097000C201C301C401BA01CB2C20004508C0004C
:10098000FF30C105C2057F30C3050030C4014018E7
:10099000C3174036C4003A08C4044408B1004308F1
:1009A000B0004208AF004108AE000800A700A30154
:1009B000A4012008A500A601271CE22C2508A307F6
:1009C0002608A43DA535A60DA7362708031DDC2C57
:1009D0002408A1002308A00008002108C600200860
:1009E000C500BC074608BD3D0030BE3DBF3D080008
:1009F000C10701300318C2070318C3070318C4074F
:100A00003E08BF003D08BE003C08BD00BC01080018
:100A1000C6002008C500BC0701300318BD07031835
:100A2000BE070318BF07460808002108C6002008B3
:100A3000C500C1074608C23D0030C33DC43D300873
:100A4000A00008004608803AB60080303602080050
:100A5000B201B301B401B5010800AE01AF01B001AC
:100A6000B10108002308B0008030B0052335B20082
:100A7000A21B321432080319452D320F432DA00159
:100A8000A101A201A301A217482DA001A101A20169
:100A9000A3012708B1008030B10531083006031DDD
:100AA00030172735B100A61B311431080319602D0A
:100AB000310F5E2DA401A501A601A701A617632D84
:100AC000A401A501A601A7013208310203188A2D4D
:100AD000301F6C2D8030B0063208B3003108B200F0
:100AE0003308B1002008B3002408A0003308A40094
:100AF0002108B3002508A1003308A5002208B3008F
:100B00002608A2003308A6002308B3002708A30084
:100B10003308A700B3013108A800A9012908AB00D8
:100B200032082802AA00031CAB032B08803AAC0051
:100B300080302C02031D9E2D1A302A02031CBB2D6F
:100B4000200023082204210420040319A92D0130C8
:100B5000AA2D0030B300A001A101A201A301310818
:100B6000B200C02D331CB82D33360138B300B92D77
:100B7000B33668268531200031083202031CB22DBD
:100B8000301BDA2D3208031DC62D772E2408A0074E
:100B90002508A13D2608A23D2708A33D231C3A2E87
:100BA000331CD62D33360138B300D72DB336682623
:100BB00085313A2E2308803AA8002708803A280277
:100BC000031DEC2D26082202031DEC2D2508210211
:100BD000031DEC2D240820020318172EFF30A80057
:100BE000A900AA00AB0020082402AC002108253B84
:100BF000AD002208263BAE002308273BAF002C089F
:100C0000A8072D08A93D2E08AA3D2F08AB3D2B08AB
:100C1000A3002A08A2002908A1002808A00080300B
:100C2000B006B309B30F1F2E702685311F2E24087E
:100C3000A0022508A13B2608A23B2708A33B2308C6
:100C4000220421042004031D382E3308031D382EEE
:100C5000772EA035A10DA20DA30DB31B2014331CBC
:100C6000342E0314B30D352EB3353208031DB203F1
:100C7000A21F292EB101B31F452E33087F39031956
:100C80002018432E452EB101B10A31080319522E06
:100C900070268531231C522EA337A20CA10CA00C68
:100CA000320FB20A320A031D3208031D5E2EA00164
:100CB000A101A201A30132080319B001321C622E66
:100CC000A217632EA2133236A300B01BA31708008D
:100CD0002018B317A337A20CA10CA00CB20A08006D
:100CE0000130A0070030A13DA23DA33D0800A001B6
:100CF000A101A201A3010800D900E001DE01DF018A
:100D0000DA01DB01DC01DD01590803198C2E5708DB
:100D1000031D5808031D8E2E0930E0006008031DD6
:100D2000AE2E00303A278631013A031DAC2E013039
:100D30003A278631013A031DAC2E5E30C5005C3087
:100D4000C6000030E9268631E0005F08A1005E0899
:100D5000A0009F278631AE2E0E30E00020006008F4
:100D6000031DC02E5A30C5005C30C6000130E92694
:100D70008631E0005D08A1005C08A000A72786314D
:100D800020006008031DE72E5F08A1005E08A00098
:100D90005B08A3005A08A2005808A4006D278631FA
:100DA000E000580886008701403FA000413FA100B5
:100DB000AF2720005908860087015A08C03F5B080A
:100DC000C13F570886005E08C03F5F08C13F60080A
:100DD0000800D600D50145080319F72E4608031967
:100DE000F72E56080319F92E56030319F92E093068
:100DF000D5005508031D382F5608031D012F5D30FF
:100E0000022F5C30D4004D30D3000530A8002830CC
:100E1000A9005308AA0054089331AE238631013A41
:100E2000031D362F4E0E0F39C700C8014F08C900E9
:100E3000F030CA01C90ECA0ECA0549080F39CA04E2
:100E4000F030C90547084904CB0048084A04CC00E3
:100E50004508860087014B08C03F4C08C13F460843
:100E600086005008C03F5108C13F382F0F30D500D1
:100E700055080800D000D201D20ACF01D101510893
:100E8000453E8600093087018101D10A5102031CC9
:100E90003F2F5008031D4E2F5D30512F500B532F05
:100EA0005C30CF00542FD201520B632F4530CE005F
:100EB0000830A8002030A9004E08AA004F0893313E
:100EC000AE238631D200520B6B2FCC1C692F013020
:100ED0006A2F0030D20052080800A7012408031D21
:100EE000732F0930A7002708031D9D2F2208230414
:100EF00003197E2F20082104031D812F1230A70023
:100F00009D2F23082102031D872F22082002031C86
:100F1000972F22082002A5002308213BA6002408C1
:100F2000860087012508C03F2608C13F9D2F240861
:100F3000860000308701C03FC13F27080800210814
:100F40002200D100200020082200D0000800210843
:100F50002200D900200020082200D8000800210823
:100F60002200CF00200020082200CE000800E02749
:100F70002000A000973170278731123A031D080026
:100F8000043020002002031CCF2F21004B084C040A
:100F90000319CF2F0130CB020030CC3B08000330C7
:100FA0002000200203180800003021004C020B3002
:100FB00003194B0203180800CB0A0319CC0A0800D6
:100FC0005E080800A4002008A6002408A50001303F
:100FD000A1020030A23B210FF02F220A03190800C2
:100FE00026088600013087000108A300A60A25080C
:100FF0008600870123088100A50AE72F3B1408001B
:1010000008002000A60026080319080021258831C1
:101010000030F3268831EC268831C6228831E02A58
:10102000AF00B0012F0803193228E92688311F27A5
:101030008831DB278831E2278831F3268831283050
:101040004B27883198239B31322388312100B0000F
:101050003008031D2F289031D2208831B000C622DD
:1010600088313728EC2688310030F326883121007A
:101070002F08112730080800320886000330870146
:10108000810031088231092288310030642488319E
:10109000023A031D00342100320886000030870127
:1010A0008101F3268831EC268831C6228831E0227E
:1010B0008831212500343208860004308701810000
:1010C000310882208831C9228831003A03197628F4
:1010D0000D278831003A031976282100320886004E
:1010E000013087018101810A042700340030642423
:1010F0008831023A0030031D08001525883121008F
:1011000032088C2F2000A90029080319080000309C
:101110001525883151278831C72688310030F326BC
:101120008831EC268831C622883116278831003074
:10113000042788310030112788310030C12A320855
:101140008600870181013108C8208831C922883191
:10115000003A0319B8280D278831003A03190034E2
:10116000F2248831003015258831210032088C2F77
:10117000003064248831023A0319B028B12788313D
:101180002C278831003A0319003480312F20003495
:101190002000A9002908031908000030152588310E
:1011A00051278831C72688310030F3268831EC2654
:1011B0008831C6228831E02288312000A001A101B7
:1011C000A201A3012F278831162788310030042778
:1011D00088310030112F20005930E901E90AA700B9
:1011E0004E302427883122003A08031D2829FF3079
:1011F0003702FF30383B0330393B03182829E926F2
:10120000883108304B2788319823883122003A08EA
:101210002000B100220039082000B0002200380868
:101220002000AF00220037082000AE005930B20085
:101230001030B300C8238831E9006908031D222952
:10124000662788310A304B27883198238831C62297
:101250009B31172388319A31BB226908080000307E
:10126000C122310882313E2288312100BF01BA01FA
:10127000BB01BE01BE0ABC01BD01B401B501C9225A
:101280008831003A03194B2918278831003A03198D
:101290004B290330C1290030392488312608210028
:1012A000B900200025082100B800200024082100F2
:1012B000B700200023082100B6003908031D6C295F
:1012C0003808031D6C293708031D6C29333036029A
:1012D00003186C29D901D90A3908380437043604AF
:1012E0000319EE295708031D7729013078290030AA
:1012F00010208831BF00143A031D85290130823146
:10130000602288312100BE01912913303F06031D60
:101310008B290430902915303F06031D9129053093
:10132000BE003F08031DE52957080319E529BC3015
:101330002000E100BA30E200B430E522883121001B
:10134000BF005608031DAF29D601D60A3C081E3E31
:101350002200CB00003021003D3D2200CC000130B6
:10136000C12288313F08031DC3293D0822004C02D9
:10137000031DBE2921003C0822004B020318C3298B
:1013800004302100F12921003F08031DE5293B0815
:101390002000A10021003A082000A000E5278831A4
:1013A000003A0319E529210059080319D929DA015E
:1013B000DA0A5808031DF2293608C83CB300D627BC
:1013C00088312100D801D80AF22921005708031DCD
:1013D000EB290130EC290030D700F2295A0BC02943
:1013E0000230BE003E030319FC2900301525883168
:1013F0001C27D7018331B7233208860087013E08B6
:1014000081003F0808000030B301B401B501B60106
:10141000C122310882311C22883121000230BA01F8
:10142000B701B801B900C9228831003A0319212A4D
:1014300018278831003A0319212A03302100B90006
:101440004F2A90310E208831023A031D2B2A013099
:101450009D31D725883199312F218831003A031DDC
:10146000332AE02288312100550810208831BA0043
:10147000133A03193F2A14303A06031D412A043057
:10148000462A15303A06031D472A0530B90055088B
:1014900003194F2AD501C6228731FE278831210042
:1014A0003A080230031DB32A3906031DB22A003060
:1014B00064248831023A031DB22A2100D40A9931EA
:1014C000ED218831903111208831003A031DA42A82
:1014D000B530E100B730E200B330E52288312100B9
:1014E000BA000130C12288313A08031D9F2A36080C
:1014F00022004C02031D802A2100350822004B02E5
:10150000031CA42A2100D30138082000A1002100D7
:1015100037082000A000993178218831003A031D56
:10152000942A2100D501D50A093021005406031D53
:10153000A72A8731B72788312100D401A72A15307F
:10154000D30A5302031CA72A04302100B9009931A1
:101550003C218831003015250A308331AA23883197
:10156000C72688310230210039060319B92A003014
:1015700015252100320886008701390881003A08C4
:1015800008002000A0002100E300080022000E1146
:101590000800003020008C1A0130A0002008031D34
:1015A000D52A80278831E10ADD2A21006108031944
:1015B000DD2A620A0319DD2AE20A20002008080059
:1015C00022000E125E3097050800E400E501640871
:1015D0000319EF2A6108031D6208031DF12A09306F
:1015E000E5006508031DFE2AE926883108304B27EF
:1015F000883198239E310A268831E5006508031D4D
:10160000052B9D31E0258831E5006508031D2B2B56
:10161000143059278831982388312830E3000F305F
:10162000E500262B6108D7006208D80064088631DF
:101630007C268831E5006508031D202BE301262B5D
:101640000530E30359278831982388316308031D47
:101650006508031D122BC622200065080800200023
:10166000E40122006D082000DF0022006C08200049
:10167000DE0022006B082000DA0022006A08200049
:10168000D900E501E601E926883108304B27883189
:10169000982388315E305E278831C8238831DB008B
:1016A0000A3059278831982388310530DD00672BAF
:1016B0006530AE01AF01B001B101B2000230B3003C
:1016C0009531EA258831E400640803196A2BDD03AB
:1016D0005D0F582B0630E000E7015B080319671423
:1016E00064080319E7146708E100E70165085E066E
:1016F0000319671466085F060319E7146708E20018
:1017000061066006E3000430A100603081312B21C6
:101710008831DC0059305E278831C82388310A308F
:101720005927883198238831C62220005C08080098
:101730000130A0020030A13BA23BA33B200FA82B0D
:10174000210A031DA82B220A0319230A03190800E2
:10175000A801A901AA01AB012B08A7002A08A6002D
:101760002908A5002808A4000130A8070030A93DD9
:10177000AA3DAB3D2708031D982B2608031D982B77
:101780002508031D982B1E3024020318982BAC2B20
:10179000D70132080319EE2B2E08B4002F08B5002C
:1017A0003008B6003108B7003308B800B901BA01F3
:1017B000BB01B4073908B53D3A08B63D3B08B73D13
:1017C0003708031DEE2B043036020318EE2B3308C6
:1017D0000319EE2B11303302031CF02B0930D70014
:1017E0005708031D012C3108A3003008A2002F0860
:1017F000A1002E08A0003308A4009631632688318A
:10180000D7005708031D372C30085038CE002F085A
:10181000BC002E08BD00D8011E2C1230580203183F
:10182000222C5808023E3C3E8600870158083207A9
:10183000B4008400850100088100D80A33085802EA
:10184000031C0D2C4F30A0000030A1003C30A20042
:101850003308023EA3004E08A400A5019631492694
:1018600088314F30A401A40A9631EB26D7005708DF
:1018700008002000AC000530A801A901AA01AB01B5
:10188000A0002C08B92688316E27883103195A2CFC
:10189000C526883105302000A0002C08B9268831E3
:1018A00086278831A800413FA900423FAA00433F54
:1018B000AB00062520002B08A6002A08A500290851
:1018C000A4002808A30008002000A7000530A000FD
:1018D0002708B92688316E27883103198E2CC52632
:1018E000883105302000A0002708B92688318627D6
:1018F0008831A300413FA400423FA500433FA6001A
:101900000625883120002608250424042304031911
:101910008B2CA801902C0230A800902CA801A80ABA
:10192000280808005530840099308500E73086008B
:101930000030870008309931482188312200FF307B
:10194000EA00EB00AA30EC005530ED00C73084000F
:1019500099308500C83086000130870026309931E3
:1019600048218831C430F901FA01FB01FC01FD0175
:1019700084000030850023309931422188312030A5
:101980008400013085004A30993142218831A030ED
:1019900084000130850028309931422188317E1041
:1019A0002000D22CD724803131208831D32C21251E
:1019B0008831E6248831E4248831F4248831ED2408
:1019C0009A31AE229931362999318A29073021007E
:1019D000EC00FB01E401E3010800F2248831062554
:1019E0008031022880315F2806302100EE00ED01B1
:1019F000ED0A2000A00021006D08082588310D2582
:101A000088310E258231332299314E298B170800F7
:101A1000200020082100EC000800080000301525F7
:101A200088311C27D701D70A08002000A300053001
:101A3000A0002308B926203E8600013087008101DE
:101A40000800C52688312000A401A501053020002A
:101A5000A0002408B926883174278831A000240802
:101A6000B9268831213E8600013038278831A40A02
:101A70000319A50A2508803AA30080302302031D1C
:101A8000432D03302402031C262D062D512E003039
:101A9000A30130278831672688310130A301302720
:101AA00088316726883105302100E700652E053032
:101AB0007906031D6A2D0130A3013027883167267E
:101AC00088311430A30000303027883167268831F0
:101AD0000230D02D0230022E05307906031D802DF4
:101AE0000A30A30000303027883167268831013062
:101AF000A3013027883167268831F901F90A652E5C
:101B0000790B8F2D00309E2688317B278831031D6D
:101B10008F2D3F278831672688310130302E0230E3
:101B20007906031DB82D00309E268831193096277E
:101B30008831031D652E3F278831672688310130A3
:101B4000A301302788316726883122000230AF0197
:101B5000AF0AB001B101B201152588319630A3005A
:101B60000230A401A501A601C72688310330D02D7B
:101B700003307906031D012E023064248831023AB5
:101B8000031DD22D1430A300003030278831672682
:101B900088310130A301302788316726883104302D
:101BA000F900652E00309E26883103309627883153
:101BB000031D652E01302200AF070030B03DB13D5E
:101BC000B23D2000A301A30AA401A501A6012200A1
:101BD00032082000AA00220031082000A9002200BB
:101BE00030082000A80022002F082000A7000030A5
:101BF000672688310130A301302788316726883174
:101C0000652E04307906031D652E00301D2E05302B
:101C10007906031D0D2E1430712D790B182E00300E
:101C20009E2688317B278831031D182E0A30292EE5
:101C300002307906031D652E01309E2688317B27F0
:101C40008831031D652E472D05307906031D322E80
:101C50001430A300013030278831672688310030E6
:101C6000A301642D02307906031D652E01309E26E6
:101C700088317B278831031D652E0030A301302772
:101C80008831672688310230A3001230A401A501F3
:101C9000A601A7000130A801A901AA016726883181
:101CA000B62D210067082000AD00AE012E08003AD5
:101CB00003195B2E652E2D088400063004020318DC
:101CC000652E983104353C3E82009B31B72BAB002A
:101CD00002302B02031808001330A0002B08B9268D
:101CE0008831C93E8600013087002308C03F2408A0
:101CF000C13F2508C23F260891278831B92688317F
:101D0000CD3E8600013087002708C03F2808C13F2C
:101D10002908C23F2A0891278831B9268831D33E45
:101D200086000130382788311330A0002B08B926EF
:101D30008831D73E8600013038270800A8000230DD
:101D400028020318B42E1330A0002808B926D73E65
:101D5000860001308700403FA300413FA400423F7E
:101D6000A500433FA6000800A301A401A501A60108
:101D70000800A200A10120082218A107A035A23660
:101D80002208031DBB2E210808008B130800A800A1
:101D90000530A0002808B92688316E278831031D38
:101DA00008000530A0002808B9268831742788313A
:101DB000810AA0002808B926213E8600013087004C
:101DC0002308C03F2408C13F2508C23F2608C33F5F
:101DD000080022000E15080029009E132000121191
:101DE00022008E1108002000A300903022009800ED
:101DF0001C30200023020318FF2E2308002F1B3065
:101E0000A100A201993132292000A0002008031965
:101E10000B2FFB150800FB110800E630A001A00AFB
:101E20009B2F2000A0002100E4000800802708006C
:101E30001430A000E5309B2F2100E00108002200B3
:101E40000E16A13097040800A800A0001030A100D1
:101E5000A20127088731E22F7B19013400340800E2
:101E6000A401A501A601A701A801A901AA010800D2
:101E700087000030C03FC13FC23FC33F0800003071
:101E8000A301A30AA401A501A601A701A70AA8010D
:101E9000A901AA0108002000A000A101A201A3013C
:101EA00008000030A600A5008C30A400A030A300DC
:101EB0000034A000A101A201A3010800AE01AF01FE
:101EC000B001B101B2000230B300080010302200AE
:101ED000B7070030B83DB93DBA3D0800203E860046
:101EE0000130870001080800203E8600013087008D
:101EF000053081010800230324042504260408007A
:101F00002100E201E601E501E1010800213E860031
:101F100001308700403F0800860087018101810A67
:101F20000034C33F1330A0002B080800230624040C
:101F3000250426040800A10021080319003421000B
:101F4000620820002002031800342108860087015F
:101F50000108031D00342108860001308101810A37
:101F60000800EC2621001D101030220098002900E6
:101F70009E1322008C013B3021008C0023008C0139
:101F800024008C012F3022008D0521008D052300B7
:101F90008D0124008D0122008E0121008E0123007D
:101FA0008E01220091019301970108002000A000FA
:101FB0002200DB00080029009E17200012112200D9
:101FC0008E15080021006A080800003021026130E7
:101FD00003192002031CF52F2100600A0319F22FB8
:101FE000E00AF72FFF30E000F72F2100E001600842
:101FF0000319FC2F0130FD2F00302000A200080043
:102000009D31A62D9D31A62D9D31A62D9D31A62D4C
:102010009D31A62D9D31A62D9D31A62D2100620852
:1020200008002000A10170279031123A031D2428D6
:10203000272090312000A00010302002031C22280D
:10204000013023280030A1002000210808005F088B
:10205000080020004C30EF01B8009830B900A125ED
:102060009031332490310B302100690603193B284D
:102070002000EF01EF0A20006F0808004330CA007B
:10208000AF30C900C801C7016C08A0006D08F62771
:102090009031CA2190312308B1002208B0002108F4
:1020A000AF002008AE006A08A0006B08F627903148
:1020B000CA219031B9278331BC239031D427903184
:1020C000332290314A082100A30020004908210052
:1020D000A200200048082100A1002000470821009C
:1020E000A000DD0A5D080739DD2790312008C03FD8
:1020F0002108C13F2208C23F2308C33F3F302200CE
:10210000B600B501B401B3012100A4012408DD2704
:10211000403F2000A000413FA100423FA200433FBA
:10212000A300220036082000A70022003508200066
:10213000A600220034082000A50022003308200059
:10214000A40085313225903123082200B6002000FA
:1021500022082200B500200021082200B40020003F
:1021600020082200B30021000830A40A2402031C26
:102170008628220036082000E300220035082000CF
:10218000E200220034082000E10022003308200091
:10219000E000312390316008EE00EE36EE36EE3688
:1021A0006E08AC2F0530AB01AA2190312108210027
:1021B000AA00200020082100A9000630AA36A90C98
:1021C000890BDE28FF30A9050F30AA051F30AA2190
:1021D000903121082100AE00200020082100AD0030
:1021E0000630AE36AD0C890BF128FF30AD050F304F
:1021F000AE052E082000AE0021002D082000AD0005
:10220000AF01AF0A7823903170279031AC002E08CF
:102210002000EB0021002D082000EA0021002C08FE
:102220002000EC00ED013E20903129082000A000A4
:1022300021002A082000F6279031CA219031B927C1
:102240004330B100AF30B000AF01AE018331BC23E9
:102250009031D427903121002D082000A0002100CA
:102260002E082000F6279031CA2190312308CA0099
:102270002208C9002108C8002008C7003322903175
:102280004A08E3004908E2004808E1004708E00086
:102290003123903163082100A8002000620821004A
:1022A000A700200061082100A6002000600821008E
:1022B000A5002E082000A10021002D082000A0006C
:1022C000210028082000A500210027082000A400E4
:1022D000210026082000A300210025082000A200DC
:1022E00078279031003A0319852921005C08DC0A1F
:1022F0002000EF0033306F02031CA72900308E311D
:10230000F326903121001430A129013021002E0242
:10231000DE3003192D025C08031CA429DC0A20000E
:10232000EF000B306F02031C9B2921002C08FF3E9D
:1023300073279031DC010C3021002C020318A729EF
:102340001530DC01AB00A7290319A729DC03210004
:102350002B0808002000A300A200A20DA20D21005E
:102360001D08200022068339220621009D001D142D
:1023700000320032000021009D149D18BD291C0868
:102380002000A100A00121001B082000A0070318C5
:10239000A10A0800A8002808031DA31FDF2920099F
:1023A000AA002109AB002209AC002309AD00AA0A4A
:1023B0000319AB0A0319AC0A0319AD0AE72923086C
:1023C000AD002208AC002108AB002008AA002308B9
:1023D000220421042004031DF229A001A101A2016D
:1023E000A30108009630A900FE302D050319052A27
:1023F000A90AFB279031F4290130A90AAA07003065
:10240000AB3DAC3DAD3DFB279031FF302D050319B1
:10241000132AFC2902302902031C152AA903AA3514
:10242000AB0DAC0DAD0DAC1F0A2A291CAC13A9369F
:102430002908A700A601A501A4012408AA042508CB
:10244000AB042608AC042708AD042808031DA31F0D
:102450002A2AAD172D08A3002C08A2002B08A100E2
:102460002A08A00008004E08D7008030D7054E3556
:10247000DE00CD1B5E145E080319462A5E0F442A57
:10248000CB01CC01CD01CE01CD17492ACB01CC0126
:10249000CD01CE014A088039D7064A35DF00C91B75
:1024A0005F145F0803195C2A5F0F5A2AC701C8012D
:1024B000C901CA01C9175F2AC701C801C901CA01F8
:1024C0004A08490448044704031D792A8030CB0197
:1024D000CC01CD01CE01CD047F30CE045708CE040F
:1024E0004E08CA004D08C9004C08C8004B08C70078
:1024F00008005E08031D812AC701C801C901CA017D
:1025000008005E08D800D9015F08D802031CD9036F
:102510007F30D8070318D90A4E08D6004D08D500D9
:102520004C08D4004B08D300CB01CC01CD01CE0127
:10253000DA01DB01DC01DD01DF011A305F02031883
:10254000CD2A5F080319B22AD335D40DD50DD60D87
:10255000CB35CC0DCD0DCE0DDD1B4B14DA35DB0D9F
:10256000DC0DDD0D4A085602031DC02A490855023C
:10257000031DC02A48085402031DC02A47085302FD
:10258000031CCB2A5D174708D3024808D43B4908EF
:10259000D53B4A08D63BDF0A9D2A56085504540409
:1025A0005304031D5A14CD1BE42ACB35CC0DCD0D9D
:1025B000CE0DDD1B4B14FF30DA35DB0DDC0DDD0DF0
:1025C000D807031CD903D32ADF01DD1FF92A5A08D3
:1025D000CF005B08D0005C08D1007F305D05D200E1
:1025E000510450044F0403194B18F72AF92ADF014C
:1025F000DF0A5F0803190B2B0130CB070030CC3DFD
:10260000CD3DCE3D4E1C0B2BCE37CD0CCC0CCB0C88
:10261000D80A0319D90AEA279031031D112BFF307C
:102620005802031C182BFF302000D800E4279031FB
:102630002000EA279031031D1F2B01305802031898
:10264000262B2000D801E4279031D701200058081C
:10265000DE005E1C2D2BCD172E2BCD135E36CE004B
:102660006E2AB02790310310660D670DE9006908E6
:10267000031D3F2BE001E101E201E3010800B02767
:1026800090311F30E736E60CE50CE40C890B422B49
:102690006408E8009630E217E301E902E91F5C2BC9
:1026A0006908803A973E031C3A2BE336E20CE10CB2
:1026B000E00CE90F552B692B2030690203183A2BE7
:1026C00069080319692BE035E10DE20DE30DE9031B
:1026D000602B680803190800E009E109E209E30931
:1026E000E00A0319E10A0319E20A0319E30A0800E0
:1026F000B401B5012D082E040319A12B2D08A0004B
:102700002E08A1001030A201A301A701A600A50177
:10271000A401AB2590312308B3002208B2002108A0
:10272000B1002008B0003308031D9A2B013032029B
:10273000031C9D2BB401B501A12B3108B500300855
:10274000B4002F08031DA92B3508A1003408A000F0
:10275000A42F3508A1003408A0009C2FB600B701B3
:10276000AF01B001B101B801B901BA01BB01B201B9
:10277000B301B401B50129088038AF003C30A00096
:102780000030A1002F30A200A301A30A3608A40044
:10279000A501492690314030A0000030A1002A0850
:1027A000A2002808A3003608A400A50194269031B1
:1027B0000230C400132C3C30A0000030A100443093
:1027C000A200023005279031B801B901BA01BB015E
:1027D00002304406031D072C3B08AE003A08AD004A
:1027E0003908AC003808AB000130B8070030B93DFB
:1027F000BA3DBB3D2E08031D062C2D08031D062CDB
:10280000F4302B0201302C3B031CE82BB7014408A9
:10281000031D0D2CB701B70A2E2C0130B207003072
:10282000B33DB43DB53D440303192E2C3B08031DB5
:102830002E2C3A08031D2E2CF53038020130393B7E
:1028400003182E2C3508031D2E2C3408031D2E2CA6
:10285000F53032020130333B031CDB2B440B312CAF
:10286000B70137080800E201E301E401E501E901ED
:10287000EA01EB01EC018E31E926903108302000AD
:10288000A000A101A201A3018B319823903165081A
:10289000031DB42CE83063020330643B0318B42CEE
:1028A0006508B1006408B0006308AF006208AE00BC
:1028B0005130B2001030B300EA2590311030E207F9
:1028C0000030E33DE43DE53DE801E6016608513EA8
:1028D00086008701010F6D2CE80A1030E60A6602B7
:1028E000031C662C10306806031D822C6808E9075B
:1028F00001300318EA070318EB070318EC079F25BC
:1029000090319A2C6C086B046A04690403199A2CA0
:10291000E8306907BD0003306A3DBE0000306B3D02
:10292000BF0000306C3DC000CD249031E901EA01C8
:10293000EB01EC011030200068060319472CE70179
:102940006708513E860087010108BD00BE01BF0136
:10295000C001CD2490319F25903120001030E70A2E
:1029600067020318472CA02C6C086B046A046904E6
:1029700003190800E8306907BD0003306A3DBE0056
:1029800000306B3DBF0000306C3DC000CD24903165
:102990005230B8009830B900A12DC901CA012000F9
:1029A00049085E3E86000130870030308100C90A48
:1029B0000319CA0A4A08803AC10080304102031D47
:1029C000E32C06304902031CCF2C05302000C50043
:1029D000C60140083F043E043D040319222D45086A
:1029E0005E3E8600013087000A30A000A101A201EE
:1029F000A3014008A7003F08A6003E08A5003D0827
:102A0000A400B52690312008303E81000A30A00095
:102A1000A101A201A3014008A7003F08A6003E08AB
:102A2000A5003D08A400AB2590312308C000220872
:102A3000BF002108BE002008BD00FF30C507031CF1
:102A4000C603E92CCF01D001CB01CC01382DCF0A30
:102A50000319D00ACB0A0319CC0A4C08803AC100EA
:102A600080304102031D362D06304B020318422DE3
:102A700020004B085E3E86000130870030300106A2
:102A80000319272D063020004F065004031D4C2D3E
:102A9000FF30CF07031CD0035008803AC1008030BC
:102AA0004102031D552D01304F02031C912D2000C2
:102AB000C701C801CD01CE010630C1004F08410257
:102AC000C20050090318890AC3004E08803AC400A6
:102AD0004308803A4402031D6F2D42084D0203183B
:102AE000892D20004D085E3E8600013087005E3053
:102AF0004D07C1004F084107C20084000130850026
:102B000000088100C70A0319C80ACD0A0319CE0AB2
:102B10005C2D200047085E3E860001308700810161
:102B2000932D2200E4015E302000B8000130B9008E
:102B3000A12590315530B8009830B900A12D64001E
:102B400008003A30BC003908B2003808B1003C3007
:102B5000B3000030472FA801A901AA01AB01230847
:102B60002204210420040319E12DAC01AC0AA31BAB
:102B7000BE2DA035A10DA20DA30DB62DA835A90D12
:102B8000AA0DAB0D23082702031DD02D2208260213
:102B9000031DD02D21082502031DD02D200824025D
:102BA000031CDB2D2008A4022108A53B2208A63B1C
:102BB0002308A73B2814A336A20CA10CA00CAC0B35
:102BC000BE2D2B08A3002A08A2002908A10028086E
:102BD000A0000800C701320803190C2E2E08B4000B
:102BE0002F08B5003008B6003108B7003308B80028
:102BF000B901BA01BB01B4073908B53D3A08B63D81
:102C00003B08B73D3708031D0C2E0430360203186D
:102C10000C2E3308031D0E2E0930C7004708031D74
:102C20001E2E3108A3003008A2002F08A1002E0894
:102C3000A0003308A40063269031C7004708031D95
:102C4000472E30085038BE002F08BC002E08BD00AB
:102C50003F30A0000030A1003C30A2000230A300B1
:102C60003E08A400A501492690314330A000003061
:102C7000A1003208A2003308A3003E08A400A50169
:102C8000942690310230A4003F30EB26C70047085D
:102C900008002508A7002408A600A635A70D2008CF
:102CA0008600210887002608C03F2708C13F20086A
:102CB000023ECB279031230881002008033ECB271A
:102CC0002208810008002408AA00AB01AC01AD0174
:102CD0002008AA072108AB3D2208AC3D2308AD3DE2
:102CE000FF30AA07AB3DAC3DAD3D2A082006A5004C
:102CF0002B082106A6002C082206A7002D08230673
:102D0000A8000130A501A605A705A80128082704E9
:102D100026042504031D8E2E01308F2E0030A900BD
:102D200029080319093400342508A7002408A6003F
:102D3000A635A70D20088600210887002608C03F79
:102D40002708C13F20088600210887000130810440
:102D500041312008023EC22790312308810020081B
:102D6000033EC22722088100080023082204210410
:102D700020040319E22EA801A80AA31BC42EA03523
:102D8000A10DA20DA30DBC2E23082702031DD22ED8
:102D900022082602031DD22E21082502031DD22E51
:102DA00020082402031CDC2E2008A4022108A53BD5
:102DB0002208A63B2308A73BA336A20CA10CA00C1B
:102DC000A80BC42E2708A3002608A2002508A100EE
:102DD0002408A0000800A6000230A500A701A70A49
:102DE0002608A0002730A101A20024080527903161
:102DF000023027060319F82EA503031D2708031D1B
:102E0000F02E2708031D01340034A30021004618CA
:102E1000332FF027903181002100440A86000130D1
:102E2000870020002008C03F2108C13F210044083E
:102E3000860020002308810021004408033E86000C
:102E400020002208810004302100C40744086A3AA7
:102E5000031D2C2F6630C400C61045084406031D10
:102E6000392F4614392F200022088600870181015E
:102E7000810AF02790310106031D08002100520845
:102E8000031D3E2F442F3E2F200091150800B50052
:102E90003208B7003108B6002200BF01C00120008F
:102EA000360884003708850012000319672F363072
:102EB000AA003308AB0035089C31582490312A0809
:102EC0002200BF0720002B082200C03D4F2F220008
:102ED00040082000B20022003F082000B100080096
:102EE00021006B0808002000A0002100EB00080072
:102EF000A601A60A2508031D9A2F2408031D9A2F50
:102F0000193022020130233B03189A2F2508031D94
:102F1000932F2408031D932F2308031D932F88301C
:102F20002202031C9A2F01302102233003192002B0
:102F30000318A6012608080021082200D700200057
:102F400020082200D600080021082200DD00200011
:102F500020082200DC000800A0002100EA00080090
:102F60006008E4006108E5006208E6006308E70025
:102F700008002308B5002208B4002108B300200887
:102F8000B2000800A6000030213DA70026088600F8
:102F9000270887000800A6000030213DA70026086A
:102FA00086002708870008003108CE003008CD00D1
:102FB0002F08CC002E08CB00080009070907A03E07
:102FC0008600013087000800D901CB01CC01CD017A
:102FD000CE0108005908803ACF0080304F02080027
:102FE000200022088600023087010800A10000307E
:102FF000A201A3010800AD36AC0CAB0CAA0C080072
:103000009E31FC2E9F31212F9F31502F9F31702FE9
:103010009F31B72F9F318C2F9F319B2F9F31B72F1F
:103020009F31A02F9F31B92F9F31242F9F313D2FEA
:103030008031992880319E288031A1288031A428B0
:103040008031A7288031AA288031AD288031B1286D
:103050008031B4288031B7288031BA289F340834B1
:103060002F34093403340A343C3408345B340834D4
:103070006F341934723400348D31472D8D316C2DFD
:103080008E31072E8E31242E8D31572D8D31472DC7
:1030900000340434003400345434653473347434EC
:0E30A0000D34003445346E3464340D34003485
:103258000800921108007B1801340034A0002200F5
:103268009900080021001708C13912389700080092
:103278002200BB35BC0DBD0DBE0D080064008001E9
:103288000131890B43290034FE0012001E00FE0B99
:1032980049290034FF3050292000A0002100E9000E
:1032A800080005340234FF34123412340734013470
:1032B800073420080319632922008E16080022000B
:1032C8008E120800200803196C2922008E170800A6
:1032D80022008E130800320886000530870181001D
:1032E800310888310120003421004B08603E20005D
:1032F800A200003021004C3D2000A3002102031D44
:1033080087292208200203180134003402308D3145
:10331800152599310530F9012100E700200000301A
:10332800A3018F31302799318E31672699310130C9
:10333800A3018F31302799318E31672602308D31C4
:10334800152D2700131EAA29AD219931931E0800B7
:10335800BA292200450846040319B72946088A00F5
:1033680045080A0099312700131208002200430873
:1033780044040319C42944088A0043080A009931FF
:10338800270093120800003400340034003400345D
:103398000034003400340034663419340034003406
:1033A8000034003400340034003400340134003474
:1033B80000340034003400340034003400345D3408
:1033C800193400340034003400340034003400343C
:1033D800003422003E082000A70022003D082000FB
:1033E800A60022003C082000A50022003B0820007F
:1033F800A400A8012100DE01DF012000A901A90A1B
:1034080024080139A80709302906031D0E2A2808AF
:103418002100DE001E3020002906031D162A280878
:103428002100DF0020002030A90AA736A60CA50C31
:10343800A40C2902031C042A22003E082000A30031
:1034480022003D082000A20022003C082000A10024
:1034580022003B082000A000312A23082200D500C2
:10346800200022082200D400200021082200D300D6
:10347800200020082200D200080011102200420873
:10348800F1004108F0004E229A314A2A2100DB015E
:10349800DB0A5D2A2000181D582A181071089700A9
:1034A80070089600181408007108970070089600B4
:1034B8000800F701F8010530F0007708A2229A31D8
:1034C800203E86000130870001080319932A053041
:1034D800F0007708A2229A31213E86000130870049
:1034E800403FF300413FF400423FF500433FF60000
:1034F8007504740473040319932A0530F0007708DF
:10350800A2229A31213E86000130870081020030D4
:103518004131813B4131813B4131813B7D31F70A6A
:103528000319F80A7808803AF30080307302031D03
:103538009F2A03307702031808005F2AF100F2017E
:1035480070087118F207F035F1367108031DA42AC6
:10355800720808002C239A31B12AB701B801B901C1
:10356800BA018131E9219A3117239A31BB2AA8007F
:10357800A900220823040319080025239A312208E8
:103588002907A400FF3E1F239A31033003192202A2
:10359800031C0800290A8600200881002908023E29
:1035A80010239A31FE3E10239A31FD3E1F239A3193
:1035B800073003192202031C08002908033E1023C0
:1035C8009A31FC3E1F239A31093003192202031C49
:1035D80008002909A4002A09A500A40A0319A50AB4
:1035E8002408A6002508A7000330A605A701260879
:1035F800A907A2022708A33BFC30A205FF30A305B8
:10360800220823040319080025239A310130A20255
:103618000030A33BA90A042B860020088100220859
:103628002907A400080020001030A001A101A20071
:103638004E30A301080086002008810000302302D4
:10364800080029088600013087002008810008004A
:1036580058302200C9000230CA000800A40129001D
:103668001C082000A800A70129001B082000A704A7
:1036780004309131AA219B312108A6002008A50019
:103688000630A636A50C890B452BA6012608210075
:103698004A02031D512BAD239B310318562B7A0880
:1036A800031D832B2000260821004A02031D5E2BE0
:1036B800AD239B3103186A2B7A08031D6A2B04304B
:1036C8002000A7020030A83BFA018A2B4A082000F4
:1036D8002602031D712BB2239B310318762B7A081F
:1036E800031D632B21004A0820002602031D7E2BA0
:1036F800B2239B3103188A2B7A08031D8A2B0430C6
:103708002000A7070318A80AFA01FA0A09302802B4
:103718008030031927020318942B1330A400A22B1E
:103728000C3028020130031927020318912B2808AE
:1037380029009C002000270829009B00200026085B
:103748002100CA00200025082100C9002000240803
:103758000800200025082100490208002100490826
:10376800200025020800C2239B31BA2BA0002008A4
:103778000319C02B7B1408007B1008002000AB0144
:10378800AC011330A0002C088E31B9269B31C83EFD
:10379800E0239B31003A0319D32BAB01AB0A02306B
:1037A800AC0A2C02031CC52B2B080319DD2B8F3107
:1037B8001F2720002B080800AA002A0A36249B315C
:1037C8002A080B3E860042249B31031DF52B230853
:1037D8002702031DF52B22082602031DF52B2108BD
:1037E80025020318F92B0130FA2B0030A900A0009C
:1037F8002A08093E860001308700413F8A00403F81
:103808000A009C3120002A08053E36249B312A0AEA
:103818008600403FA107413FA23D423FA33D433FB1
:10382800A43D2A080B3E4D249B317D3142249B3117
:10383800031D282C23082702031D282C22082602F2
:10384800031D282C21082502031C342C2A080B3EB2
:10385800860001308F3138279B312A080F3E4D24CE
:1038680029080800860001308700403FA100413F39
:10387800A200423FA300433FA4000800403FA50028
:10388800413FA600423FA700433FA8002408280262
:10389800080086000130810700304131813D413107
:1038A800813D4131813D0800B0002A08860087012A
:1038B800403FAC00413FAD002C0884002D08850036
:1038C8001200253A031DC52C2A08860001308701FD
:1038D800810741310318810A2A0886008701403F81
:1038E800AC00413FAD002C0884002D088500120073
:1038F8006E3A031D9A2C2A08860001308701810739
:1039080041310318810A2B0886008701403F840053
:103918008501810A0008AF00860022003F08C03FE9
:103928004008C13F2000AA01AB0108002A08860010
:103938008701403FAC00413FAD002C0884002D08B2
:1039480085001200253A031DBC2C2A088600013088
:103958008701810741310318810A2530A200A3019C
:103968003008A400E1242000AA01AA0AAB0108003B
:103978002A08860001308701810741310318810A2E
:10398800962C2A0886008701403FAC00413FAD00D5
:103998002C0884002D0885000008A200A301300827
:1039A800A400E1249C3120002A0886000130870108
:1039B800810741310318810AB72C2408031D240804
:1039C800031DE82C2208132D2408033E86008701D6
:1039D800160001040319092D2408033E86008701F7
:1039E800403FA500413FA600240A8600403FA700AB
:1039F800413FA800803AA9002608803A2902031D01
:103A0800072D25082702031808002000240A86002D
:103A180001308701810741310318810A0800A1009C
:103A2800210881313C2907302100C3006D08B1000D
:103A3800C330B2006E08C0002E30C101C035C10DC0
:103A4800400784009830413D8500013F8A00003FCF
:103A58000A0007309D3121004306031D352D04302F
:103A6800C300ED302000A200210043082000A3007D
:103A7800EE3094259D3121006D08031D542D6A2DCB
:103A8800013079259D316A2D033079259D316A2DC4
:103A9800023079259D316A2D003079259D316A2DB6
:103AA8004308C000C1014108003A03195C2D6A2D82
:103AB8004008013A0319442D023A03194C2D073ADC
:103AC8000319482D013A0319502D6A2D84259D317B
:103AD800003A0319080087259D31003A0319772D0C
:103AE800043079259D310030D72D2000AF0021000A
:103AF800E7000530F90002308D3115258D31462D4E
:103B0800FB180134003420000530A00121006706AD
:103B1800031D912D2000A001A00A20002008080004
:103B2800A700A60127080319A02D22080319A02D14
:103B380007302306031DA22D0930A6002608031D01
:103B48000800BC2D270886008701010823060319F1
:103B5800B22D220886008101810AB62D220886002E
:103B68008701810127088600870123088100CE2D5F
:103B78002308A400A5012508003A0319C42DBB2D6C
:103B880024088400073004020318CE2D9031043530
:103B9800003E82002708860087010108A00022084D
:103BA80086008D31082D2000A00020080319DE2D85
:103BB800FB140800FB100800A030C201BD01BE01C3
:103BC800BF01C001BD008430BE003D30BF01BF0A47
:103BD800C1000330A8004108A9005D3075269D3159
:103BE800013A0319F92D1130C2004208031D082EAD
:103BF8000330A8004108A9005C3075269D31013AC0
:103C08000319082E1130C200420808001030CE00F7
:103C1800A030CB01CC01CD01CB008430CC0080306A
:103C2800CD004B30CF000330A8004F08A9005D300D
:103C380075269D31013A031D2B2E0330A8004F082D
:103C4800A9005C3075269D31013A0319CE014E0852
:103C5800031D732EC901CA01C501C601C701C801E8
:103C68005B2EE1265D309331AE239D31013A031D71
:103C7800432ECB1B412E0130422E0030C900E126D5
:103C88005C309331AE239D31013A031D512ECB1B7D
:103C98004F2E0130502E0030CA000130C5070030C9
:103CA800C63DC73DC83DE8268B3198239D3148085D
:103CB800031D6C2E4708031D6C2E4608031D6C2E31
:103CC8001430450203186C2E490B352E4A0B352E3D
:103CD8004908031D4A08031D732E1030CE004E08F4
:103CE8000800B2003830B301B30AB401B501B60117
:103CF800B701AE01AF01B001B101A0000030A100D1
:103D08002908A2002808A3003208A400A5019631BA
:103D180049269D310230BC00C12E3830A000003049
:103D2800A1003C30A2000130973105279D31B40134
:103D3800B501B601B70102303C06031DBE2E370897
:103D4800AD003608AC003508AB003408AA000130D5
:103D5800B4070030B53DB63DB73D2D08031DBD2E57
:103D68002C08031DBD2EF4302A0201302B3B031C06
:103D78009F2EB3013C080319DC2E3C030319DC2EEB
:103D88003708031DDC2E3608031DDC2EF5303402FF
:103D98000130353B0318DC2E3108031DDC2E3008BA
:103DA800031DDC2EF5302E0201302F3B031C912E13
:103DB8003C0BDF2EB301330808002130A801A80A04
:103DC800A9004F08AA000800A001A00AA101A201A9
:103DD800A301080091112400951FBC2F9513210001
:103DE800D201EC27860087018101810AD0010800F1
:103DF800C61808004508D00045088600013087002D
:103E08000108D100450A8600403F2200C700413F13
:103E1800C80004302100C50745086A3A031D162F5B
:103E28006630C5004610450844060319C614240028
:103E3800161402302100D2000800240096141D2F09
:103E48002400161F2B2F21000430C80AD02F7D080C
:103E5800F2007C08F100F236F10C710891007C1C2C
:103E6800392F0B302100D200080003302100D20086
:103E780008002400161F442F21000430C80AD02F40
:103E8800961406307D05F100F038FC00FD017C1425
:103E98002100CD01CD0A1D2F4D030319672FFA27E5
:103EA8009E31403FFC00413FFD004708860048081E
:103EB8008700433101082100CF00FA279E314231A3
:103EC80001082100CE007C08240091007C1C392FB9
:103ED80005302100D20008002400161F792F210088
:103EE800C80A240016130530D02F2100CE034E0F28
:103EF800832FF3279E31D10B212F0030D02F4F086D
:103F0800860087010108240091002100CF0A0800DB
:103F18002400161F962F21000430C80AD027240039
:103F280016130800961508302100D2000800083042
:103F3800D2002400961508004F0886008701240047
:103F4800110881002100CF0ACE030319B12F2400E4
:103F5800961206302100D200B42F24009616E227CC
:103F68002400161608000030D02F0630C80AD02FBB
:103F780021005208F100F2017208003A0319C52F16
:103F8800B92F710884000C3004020318B92F983136
:103F98000435003E82000800F000240016152100B8
:103FA800EC279E310319E02F5008033E86000108D4
:103FB8008600870170088100D2010800F3279E312E
:103FC800D10BE92F0430D2000800D201D20A080030
:103FD8005008033E860001308700010808000430BD
:103FE8002200C7070318C80A210008002200470852
:083FF80086004808870008005C
:020000040001F9
:04000E00F4FFFFFFFD
:00000001FF
