:020000040000fa
:080000000002040000000000f2
:020000040000fa
:10000800041a0000081a00000c1a0000101a000058
:10001800141a0000001a0000181a0000001a000044
:100028001c1a0000201a0000241a0000281a0000d8
:100038002c1a0000001a0000301a0000341a0000c0
:10004800381a00003c1a0000401a0000441a000048
:10005800481a00004c1a0000501a0000541a0000f8
:10006800581a00005c1a0000601a0000641a0000a8
:10007800681a00006c1a0000001a0000701a0000cc
:10008800741a0000001a0000781a00007c1a000098
:10009800801a0000841a0000881a0000001a000064
:1000a800001a0000001a0000001a00008c1a000054
:1000b800901a0000941a0000981a0000001a000014
:1000c8009c1a0000a01a0000001a0000a41a0000e0
:1000d800a81a0000ac1a0000b01a0000b41a0000f8
:1000e800b81a0000bc1a0000c01a0000c41a0000a8
:1000f800001a0000001a0000c81a0000001a0000c8
:10010800cc1a0000d01a0000d41a0000d81a000037
:10011800dc1a0000e01a0000e41a0000e81a0000e7
:10012800ec1a0000f01a0000001a0000f41a00008f
:10013800f81a0000fc1a0000001b0000041b000055
:10014800081b00000c1b0000101b0000001a000018
:10015800001a0000141b0000181b00001c1b0000e4
:10016800001a0000201b0000241b0000281b0000b0
:100178002c1b0000301b0000341b0000381b000043
:100188003c1b0000401b0000441b0000481b0000f3
:100198004c1b0000501b0000541b0000581b0000a3
:1001a8005c1b0000601b0000641b0000681b000053
:1001b8006c1b0000701b0000741b0000781b000003
:1001c8007c1b0000801b0000841b0000881b0000b3
:1001d8008c1b0000901b0000941b0000981b000063
:1001e8009c1b0000a01b0000a41b0000a81b000013
:1001f800ac1b0000b01b0000b41b0000b81b0000c3
:10020800bc1b0000c01b0000c41b0000c81b000072
:10021800cc1b0000d01b0000d41b0000d81b000022
:10022800dc1b0000001a0000001a0000001a000081
:10023800001a0000001a0000001a0000001a00004e
:10024800001a0000001a0000001a0000001a00003e
:10025800001a0000001a0000e01b0000e41b000068
:10026800e81b0000001a0000001a0000001a000035
:10027800001a0000ec1b0000f01b0000001a000030
:10028800f41b0000f81b0000001a0000001a000010
:10029800001a0000001a0000001a0000001a0000ee
:1002a800001a0000001a0000001a0000001a0000de
:1002b800001a0000001a0000001a0000001a0000ce
:1002c800001a0000fc1b0000001c0000041c0000b9
:1002d800081c00000c1c0000101c0000141c00006e
:1002e800181c00001c1c0000201c0000241c00001e
:1002f800281c00002c1c0000301c0000001a000004
:10030800001a0000001a0000001a0000001a00007d
:10031800001a0000341c0000381c00003c1c0000bf
:10032800401c0000441c0000001a0000001a0000d5
:10033800001a0000001a0000001a0000001a00004d
:10034800001a0000001a0000001a0000001a00003d
:10035800001a0000001a0000001a0000001a00002d
:10036800001a0000001a0000001a0000001a00001d
:10037800001a0000001a0000001a0000001a00000d
:10038800001a0000001a0000001a0000001a0000fd
:10039800001a0000001a0000001a0000001a0000ed
:1003a800001a0000001a0000001a0000001a0000dd
:1003b800001a0000001a0000001a0000001a0000cd
:1003c800001a0000001a0000001a0000001a0000bd
:1003d800001a0000001a0000001a0000001a0000ad
:1003e800001a0000001a0000001a0000001a00009d
:0803f800001a0000001a0000c9
:020000040000fa
:100400006f3321000eff24000e0188000000000061
:10041000000020000000e000020032000001200087
:100420002002880014000700f20007000000e0002e
:1004300003003a00c0de2000010020000200370067
:100440000000200001002000810f70000100320038
:100450000f000700000020000000e0000200320052
:100460000000020000000000361002000000000042
:100470000040da000000fe00600420000000e00000
:1004800002003200002020009001880000000600d9
:10049000a1028800800478000000eb001f003700f4
:1004a000e284440054a0b4009905ba00e2844400f8
:1004b00054a0b4009906ba00e284440054a0b400e9
:1004c0000006eb00476fde00fd07b200ae018800ba
:1004d000636ce10003003a000ad801000000eb0061
:1004e0000e003700606ce10008003a00004deb00a0
:1004f0000a05e800020039003420ec000af0a000f0
:100500008b05e900f9ff3e00040037006168e10057
:10051000010032000086eb000b00070019c7ba008b
:100520001905ba000e04e00003003a000a00e000da
:10053000dbff3a0000000600fe07b200ae028800b2
:100540008a047800f5ff37000cd0a300e20f4d00bd
:100550001c00390089027800354dba000a05e80010
:10056000020039003420ec000af0a0008b05e900fd
:100570000f003200254dba000a05e80002003900dc
:100580003420ec000af0a0008b05e90008003200de
:100590000c00e0000600320015cdba000a05e800a4
:1005a000020039003420ec000af0a0008b05e900bd
:1005b0008984e80054a0b4000b00e000e2ff3a0098
:1005c000000006009902ba00055d78008b05e9007d
:1005d000f7ff3200c82ade00055d78008b05e900d0
:1005e000f3ff32000c00e000f1ff320019ddba0029
:1005f000eeff37003600f800809fbe00829fbe00ed
:10060000849fbe00869fbe000000fa00c028a9009b
:100610000000eb00cb0607000080fa004f03be008d
:100620004f02be004f01be004f00be003600f90071
:10063000004006003600f800809fbe00829fbe008a
:10064000849fbe00869fbe000000fa00b00607002f
:10065000c048a90010002000ba0607000080fa0078
:100660004f03be004f02be004f01be004f00be0050
:100670003600f900004006003600f800809fbe00fa
:10068000829fbe00849fbe00869fbe000000fa00cd
:10069000c068a90020002000aa0607000080fa0018
:1006a0004f03be004f02be004f01be004f00be0010
:1006b0003600f900004006003600f800809fbe00ba
:1006c000829fbe00849fbe00869fbe000000fa008d
:1006d000c088a900300020009a0607000080fa00b8
:1006e0004f03be004f02be004f01be004f00be00d0
:1006f0003600f900004006003600f800809fbe007a
:10070000829fbe00849fbe00869fbe000000fa004c
:10071000c608a900700020008a0607000080fa00c1
:100720004f03be004f02be004f01be004f00be008f
:100730003600f900004006003600f800809fbe0039
:10074000829fbe00849fbe00869fbe000000fa000c
:100750002146800000102000008060000000e000c2
:1007600003003200c508a900c0002000750607007c
:100770002146800000002800008060000000e000aa
:1007800003003200c5e8a900800020006d060700c4
:100790002146800000022000008060000000e00090
:1007a00003003200c4a8a9009000200065060700dd
:1007b00020468000700060000000e000030032006e
:1007c000c488a900a00020005e0607002046800023
:1007d000610060000000e00003003200c408a900ce
:1007e000b000200057060700ffff37000040da0086
:1007f0000000fe00000005008001780002003700c4
:10080000b15978000201e9000200e000fcff3a0063
:10081000000006008001780002003700815978004e
:100820000201e9000200e000fcff3a0000000600bf
:020000040000fa
:100830000b080000000000000000000000000000a5
:10084000000000000001000000180000000000008f
:10085000fe57000001000000090000000000000039
:100860000000000000000000000000000001000087
:100870000000000000000000000000000000000078
:100880000000000000020000010000000100000064
:1008900000560000340000000000000008080000be
:1008a0000000000000000000000000000000000048
:0c08b0000000000000000000000000003c
:020000040000fa
:1008bc001400fa0010c0b300004f78002021210072
:1008cc0030079800b10020002021210021040700ee
:1008dc0068004700b200200021212100c3ff07005f
:1008ec003e019000f24190008381fb00024a90008f
:1008fc000482fb004822dd00848171000300780033
:10090c00924990008381fb00224990000281fb00f8
:10091c004811dd00028171008200780010079800f8
:10092c00210798001e019000ae01900000802f005e
:10093c000100200002027800030178008001780099
:10094c000100780003026200000061008000eb00ef
:10095c00c000dd00000020000001be006120b800d6
:10096c0000017100818171001e009000ae009000aa
:10097c00800f5100818f5900020032000040eb00c3
:10098c00004f78003e019000b24190008381fb0043
:10099c00424290000482fb004822dd0084817100f9
:1009ac0003007800d24190008381fb0062419000eb
:1009bc000281fb004811dd00028171008200780089
:1009cc0039010700200037001e019000ae01900095
:1009dc0000802000010020000200400083804800bd
:1009ec000001be001e009000ae009000d80407006d
:1009fc000004e000120032001e009000ae009000d7
:100a0c00580107000080fb0000f0a7000000ea007e
:100a1c000000ea004f00de00004f78001e0190003d
:100a2c00ae01900000802000010020000200400078
:100a3c0083804800100798002107980002003700b7
:100a4c000040eb00004f78001e4078000004e000ee
:100a5c00220032003e019000f24190008381fb00a5
:100a6c00024a90000482fb004822dd008481710060
:100a7c0003007800924990008381fb00224990008a
:100a8c000281fb004811dd000281710082007800b8
:100a9c003e019000924190008381fb002241900026
:100aac000281fb004811dd00028171006112b80067
:100abc004b29dd00c521de00830171004b21dd00d7
:100acc0000014100818149001e009000ae009000a1
:100adc00800f5100818f5900bbff3e00f7000700cb
:100aec001e4078000004e000250032003e0190001a
:100afc00f24190008381fb00024a90000482fb00cb
:100b0c004822dd0084817100030078009249900036
:100b1c008381fb00224990000281fb004811dd001b
:100b2c0002817100820078003e0190009241900099
:100b3c008381fb00224190000281fb004811dd0003
:100b4c00028171006112b8004b29dd00c521de0065
:100b5c00830171004b21dd000001410081814900be
:100b6c001e009000ae009000800f5100818f590044
:100b7c0003003a0010c0b300305798000200370051
:100b8c00e0cfb3003057980068004700c100200048
:100b9c00f10307003e009000b040900060c160007f
:100bac00a1cab300814071003140980040419000cf
:100bbc0080c0eb008140710041409800d040900013
:100bcc0060c1600051c5b300814071005140980074
:100bdc006041900080c0eb00814071006140980042
:100bec003e509000e14f500002003a000000eb0034
:100bfc0001003700300020000080fa0000000600e1
:020000040000fa
:100c0c001e00fa00881f7800202121001007980090
:100c1c00200020002d0507000080fb004800dd00af
:100c2c002007980010002000280507000080fb001a
:100c3c00ae009000010070002007980066030700ca
:100c4c00ae009000eb804000810f5000020031009c
:100c5c0020002000900037002e0090006b00400018
:100c6c0080007800202121003a0307006a00470029
:100c7c00b200200021212100dcfe070010c0b300cf
:100c8c00505798001e019000f24190008381fb00a8
:100c9c00024a90000482fb004822dd00848171002e
:100cac0003007800924990008381fb002249900058
:100cbc000281fb004811dd00028171008200780086
:100ccc0030079800410798002e0090000000d100da
:100cdc006101b8003e009000ce0090000200400080
:100cec00838048000001be003e009000ce009000c2
:100cfc00170407000004e000490032002e009000a9
:100d0c00670060000000e00045003a00ae00900073
:100d1c00500f2000808f500041003e001e019000bb
:100d2c00b24190008381fb00424290000482fb00a0
:100d3c004822dd008481710003007800d2419000cc
:100d4c008381fb00624190000281fb004811dd00b1
:100d5c000281710082007800530007000000eb0054
:100d6c00000f7800280037001e0090006b00400038
:100d7c009e00400076004700820020009bfe07008a
:100d8c005e0a9000ee0a90003e0b9000ce0b900095
:100d9c001e019000f24190008381fb00024c9000f8
:100dac000884fb004844dd00888171000300780052
:100dbc00924990008381fb00224990000281fb0044
:100dcc004811dd0002817100820078001e0178005c
:100ddc000201d1008001eb0000004100818049003c
:100dec000601be006d0007000004a2000004e00034
:100dfc0003003200e0cfb3005057980006003700d4
:100e0c009e007800688f40002e0090009e007800b5
:100e1c00808f5000d4ff39002800070002003700f3
:100e2c00e0cfb300505798006a004700c100200083
:100e3c00490307001e009000b040900060c16000a4
:100e4c00a1cab3008140710031409800404190002c
:100e5c0080c0eb008140710041409800d040900070
:100e6c0060c1600051c5b3008140710051409800d1
:100e7c006041900080c0eb0081407100614098009f
:100e8c005e509000e14f500002003a000000eb0071
:100e9c0001003700300020004f0478000080fa0079
:040eac00000006003c
:020000040000fa
:100eb0000000fe00223321000019780001097800ab
:100ec000000006000000fe000000eb008000eb00c8
:100ed000f8ff0700d628ef00000006000000fe0023
:100ee0000000fe00801f7800811f7800821f7800bc
:100ef0002133210012468000c3e8a90031007800a8
:100f0000b046880011007800b0468800d1e8a800fb
:100f10000000000000000000d1e8af00feff370035
:100f200002f0a700c3e8a8004f017800cf007800c6
:100f30004f007800000006000000fe00a2028000c2
:100f4000a10288009080ba001000ba00a2028800b6
:100f5000000006000000fe00a2028000a10288003e
:100f60001000ba00a2028800000006000000fe0087
:100f7000f27f20000001610008003a0032002400e6
:100f80008246880090468800a146880072070200c9
:100f90000000000010002000d1a8af0000002000d9
:100fa000000006000000fe00d1e8af00feff3700a1
:100fb0000000a700130037000010a7001100370041
:100fc000a1468800904688001000240080468800d2
:100fd000a0028000a10f2000a102880001002000d3
:100fe0008208bb008398bb008408bb008598bb00c7
:100ff0007207020000000000a0028800100020001c
:10100000d1a8af0000002000000006000000fe0094
:10101000d1e8af00feff37000000a7001400370042
:101020000010a70012003700a146880090468800f3
:10103000a10280001000240080468800a00f20003c
:10104000a0028800000020000208bb00f20f200070
:101050000298bb000308bb000298bb0072070200a5
:1010600000000000a102880010002000d1a8af00fd
:1010700000002000000006000000fe00d1e8af00e4
:10108000feff3700f30f20008081610009003a0065
:1010900090468800a14688002000240080468800f1
:1010a000c246880072070200000000001000200005
:1010b000d1a8af0000002000000006000000fe00e4
:1010c000d1e8af00feff3700f30f20008081610000
:1010d00015003a0090468800a146880010002400c0
:1010e00080468800a00f2000a00288000000200099
:1010f00001082000f40f20003208bb000498bb0058
:101100003208bb000490bb00720702000000000020
:10111000d2a8ec00d2a8ec002100b100f6ff3a0002
:1011200010002000d1a8af00000020000000060041
:10113000f27f2000000061000000060002802f0006
:1011400000006100f2ff2f00810061000000060036
:020000040000fa
:101150001a00fa0020212100300798006000b80032
:10116000008fbe00b100200020212100fc010700fb
:101170006c004700b2002000212121009efd0700e5
:101180003e019000f24190008381fb00024a9000f2
:101190000482fb004822dd00848171000300780096
:1011a000924990008381fb00224990000281fb005c
:1011b0004811dd0002817100820078003e0190003c
:1011c000924190008381fb00224190000281fb004c
:1011d0004811dd00028171008001eb000000410038
:1011e0008180490061025000e08258003e01900079
:1011f000f24190008381fb00024b90000683fb00cc
:101200004833dd0086817100030078009249900028
:101210008381fb00224990000281fb004811dd0020
:1012200002817100820078000401be00cb02070039
:101230000004e000580032000000eb002007980096
:10124000420037003e019000f24190008381fb0094
:10125000024a90000482fb004822dd008481710074
:1012600003007800924990008381fb00224990009e
:101270000281fb004811dd000281710082007800cc
:101280002e0190000201d1008001eb00000041001e
:101290008180490029ff0700400798005107980006
:1012a0004e019000de019000f0ff2f0001002000b1
:1012b00002027800830178000001780001007800c4
:1012c00002016200008061008000eb00c000dd00d0
:1012d000000020000002be006110b8000002720091
:1012e000818272004e009000de0090004009de0016
:1012f00003002000f00f200001002000020378000e
:101300000301780080017800010078000303630086
:10131000000061008000eb00c000dd000000200044
:101320000001be006130b8000001710081817100d0
:1013300004004100858049001e0f40005e97480070
:101340002e00900064004000200798003e009000ae
:10135000904090008180fb00204090000080fb00c6
:101360004800dd0000807000800078002e009000b2
:10137000808f5000b3ff3e001e007800400f9800a1
:1013800010c0b300705798006c004700e1002000c7
:10139000f40107000d003700e0cfb300705798004c
:1013a000ee009000f00f20000080600060079800c1
:1013b000fe00900000f02f00008060007007980091
:1013c0006c004700c1002000e60107007e5090003d
:1013d000e14f500002003a000000eb00010037002e
:0c13e000300020000080fa000000060031
:020000040000fa
:1013ec000801fa002021210010079800b10020000c
:1013fc00202121005701070064004700b2002000a3
:10140c0021212100f9fc07001e019000f2419000ff
:10141c008381fb00024a90000482fb004822dd001d
:10142c008481710003007800924990008381fb0055
:10143c00224990000281fb004811dd0002817100fd
:10144c00820078001e019000924190008381fb0085
:10145c00224190000281fb004811dd0002817100e5
:10146c000201d1008001eb000002410081824900a1
:10147c001e019000f24190008381fb00024b900012
:10148c000683fb004833dd00868171000300780081
:10149c00924990008381fb00224990000281fb005d
:1014ac004811dd0002817100820078000401be0049
:1014bc00270207000004e000440032001e009000e8
:1014cc00904090008180fb00204090000080fb0049
:1014dc004800dd000080700080007800400f200084
:1014ec00808f500039003e001e009000904090000c
:1014fc008180fb00204090000080fb004800dd0054
:10150c0000807000630060000000e0002f003a00d3
:10151c000000eb00000f7800200037001e01900047
:10152c00f24190008381fb00024a90000482fb0090
:10153c004822dd00848171000300780092499000fc
:10154c008381fb00224990000281fb004811dd00e1
:10155c0002817100820078001e0178000201d10026
:10156c008001eb00000041008180490070fe070003
:10157c002007990031079900640047006c00400077
:10158c001e004000411020008e80400042002000d0
:10159c0096fc07009e007800648f40001e009000af
:1015ac00904090008180fb00204090000080fb0068
:1015bc004800dd00008070009e0f5000d7ff3e00f9
:1015cc0010c0b300704f98000a003700e0cfb30092
:1015dc00704f9800ae009000f00f2000008060006b
:1015ec0020079800be00900000f02f0000806000e3
:1015fc00300798002e0090004800de003e0190005d
:10160c00f10f200081006100c808dd0001007000ae
:10161c00ec004000640047004f0107007e4890003a
:10162c00e14f500002003a000000eb0001003700cf
:0c163c00300020000080fa0000000600d2
:020000040000fa
:101648000600fa00881f7800e4000700000f780001
:101658001e0078000000e00002003a0010002000a0
:10166800480037001e007800ea0f500002003e00d4
:1016780020002000430037000000eb009402070020
:101688002047980010002000910207000084fb000a
:10169800200020008e0207000080fb004800dd00cb
:1016a800000044006b00400020079800ae00900046
:1016b80000102000808f5000060036002e40900059
:1016c800e34f500003003200d00f2000ca0107008a
:1016d8002c0037002e4090000080fb00e30f5000e4
:1016e8001b003200e30f500007003c00e10f5000e0
:1016f80013003200e10f50000f003c000000e00032
:10170800110032001d003700e90f500012003200ae
:10171800e90f500003003c00e80f500011003200b0
:1017280016003700ea0f500010003200eb0f50008f
:10173800100032001100370032fd07001100370099
:1017480028ff07000f003700ed0107000d003700e4
:1017580058fc07000b003700360107000000eb00bb
:101768000800370078fe070006003700bc000700b5
:10177800040037000002070002003700f00f2000c5
:101788009d0107004f0478000080fa000000060061
:020000040000fa
:101798000000fa0010002300307c8800500620006a
:1017a800407c88008c2fef0010242000507c88009b
:1017b80010102000707c880060092000807c880060
:1017c80010242000907c880000002800c07d88003c
:1017d800ba2fef00002def00a02fef0010292000f6
:1017e800207d8800d01b2000307d8800e01a200072
:1017f800407d880080002000507d880010e0200097
:10180800707d880080602000807d88002090230003
:10181800907d88001200200080072000a109200088
:1018280053f820008049780081497800824978007f
:1018380012002000600420007105200043f82000f9
:1018480080497800814978008249780000000000ca
:10185800207c8000610060000000e000fcff3a008e
:1018680000000000217c8000000220000080600051
:101878000000e000fbff32000080fa0000000600d4
:020000040000fa
:101888000000fa00062eef00222eef003e2eef0099
:101898008001200010708800d0f72b00f0708800bd
:1018a800f0032000d07188000c2eef00282eef00e6
:1018b800442eef000a2eef00262eef00422eef00f6
:1018c800082eef00242eef00402eef0080012000ac
:1018d80000708800e0012000e0708800f00020001f
:1018e800c07188000000eb0051052000b146880057
:1018f800a10a2000b146880000688800f0c2b30041
:1019080028edb700716c800000fc2f00008060009b
:101918000000a000706c880060c2b3002aedb70018
:10192800316c8000f00f2c008080600000302000b7
:1019380001007000306c88000080200051052000f4
:10194800b1468800a10a2000b146880000688800d6
:081958000080fa000000060007
:020000040000fa
:101960000600fa0010079800210798000000eb001d
:10197000000f78001b000700ae009000810f5000a0
:10198000150039000000eb00000f78000700370059
:101990001e0090001e004000a10021009e8040001b
:1019a00091407800014878001e0fe8002e0090005a
:1019b0009e007800808f5000f5ff3900ae00900047
:1019c000010f78000000eb0050888800c010210053
:1019d0008040eb00014878001e0078000080fa008b
:0419e00000000600fd
:020000040000fa
:1019e4000000fa00881f780006d0bf000004a2009f
:1019f4000004e0000f003200822020008000eb0091
:101a0400a000210082fb070010c0b30006f0b7005d
:101a1400090037005888800049010700a10021000f
:101a240081004400804878000800e800508888005d
:101a34000100370000000000810107000004e000fd
:101a44000400320051888000f00f2000808f500085
:101a5400f0ff3600508880004f0478000080fa00c0
:041a64000000060078
:020000040000fa
:101a68000e00fa00b10020000e007800baff07004f
:101a7800f30007000004a2000004e00003003200a5
:101a8800c0cfb300304f98000200370010c0b30039
:101a9800304f98009e007800f00f20000080600012
:101aa800000f78009e00900000f02f00008060007a
:101ab80010079800c10020000e00780027000700da
:101ac8003e489000e14f500002003a000000eb0051
:101ad80001003700300020000080fa0000000600f6
:020000040000fa
:101ae8000400fa00382ea9003a2ea800060ea90014
:101af8006000b800008fbe0005003700000000003d
:101b080012002000030020001e0f41005e974900cc
:101b1800f0342c00010020001e01be00800f51008f
:101b2800818f5900f5ff3600060ea800442ea80044
:101b3800e0718000620060000000e00003003200f5
:101b4800060ea90010c0b30002003700062ea90037
:0c1b58000040eb000080fa0000000600d6
:020000040000fa
:101b64000400fa00000f7800110798000a003700fb
:101b7400c50007000004e000070032001e007800e2
:101b8400104078001e0fe800220107001e0090009c
:101b94000000e900100798001e0090000000e0001b
:101ba400f3ff3a00000000000e0107000004a20049
:101bb4000004e000fcff3a000000eb007090880095
:101bc400002121008040eb00014878000080fa00e9
:041bd4000000060007
:020000040000fa
:101bd8000410000002000000800000000a1000004d
:101be800080200008000000006100000020000004b
:101bf80080000000121200000001000080000000b8
:101c0800321300000400000082000000ffffff0004
:101c1800ff000000121300002000000080000000f8
:101c2800081000000200000082000000ffff000012
:041c380000000000a8
:020000040000fa
:101c3c000c00fa00c04228008e007800b018780022
:101c4c00a0107800e480400064004000b0187800d8
:101c5c00a0107800e480400064004000b0187800c8
:101c6c00a0107800e480400064004000b100200027
:101c7c002021210037ff0700c10020000e00780052
:101c8c00b5ff0700090107000080fa0000000600fc
:020000040000fa
:101c9c000000fa0000082000c01188003a22ef0072
:101cac003c22ef0020022000f0118800c00620002a
:101cbc00001288004222ef004c22ef004e22ef006f
:101ccc005022ef005222ef005422ef005622ef0078
:101cdc005822ef005a22ef005c22ef0039e2a800f4
:101cec0038a2a8003882a8000080fa000000060084
:020000040000fa
:101cfc000000fa0000082000001388006222ef00a8
:101d0c006422ef002002200030138800c00620005f
:101d1c00401388006a22ef007422ef007622ef0055
:101d2c007822ef007a22ef007c22ef007e22ef0077
:101d3c008022ef008222ef008422ef0061e2a800f3
:101d4c0060a2a8006082a8000080fa0000000600d3
:020000040000fa
:101d5c000800fa00008fbe00220798003307980095
:101d6c001e00be000f0007000004e0000900320056
:101d7c002e009000be00900062005000e0805800e1
:101d8c00080007000004e0000200320010002000f0
:101d9c00010037000000eb00004078000080fa00e2
:041dac00000006002d
:020000040000fa
:101db0000400fa00008fbe00f07f21000100200027
:101dc0001e01be00800f5100818f590008003600af
:101dd000e07f2500110020001e01be00800f510091
:101de000818f590002003e001000200001003700e2
:101df0000000eb00004078000080fa0000000600c0
:020000040000fa
:101e00000e00fa0060079800b10020002021210098
:101e1000d3fe0700b2002000212121000e0078002f
:101e200075fa07006e00900000407800304f98006f
:101e3000c10020000e0078004aff0700300020009b
:081e40000080fa00000006001a
:020000040000fa
:101e48000000fa00008021000100200039fc070092
:101e58000001be00f0ff2f00f10f20000000690014
:101e6800818069000080700000f0a7000000ea008f
:101e78000000ea004f00de00004078000080fa0011
:041e88000000060050
:020000040000fa
:101e8c000000fa0030138000700060000000e000d9
:101e9c0007003a000113800000022000008060005f
:101eac000000e000020032001000200001003700aa
:101ebc000000eb00004078000080fa0000000600f3
:020000040000fa
:101ecc000000fa0004d0bf000004a2000004e000ef
:101edc000700320001ff07000004e000030032009d
:101eec0010c0b30004f0b700010037007e000700fb
:0c1efc00d2fd07000080fa000000060084
:020000040000fa
:101f08002600fa008143280011000900311f7800db
:101f1800315f78005e02b100b1002000202121006d
:101f28008dfe0700510220000e0078000bff07000d
:0c1f38000000eb000080fa000000060032
:020000040000fa
:101f44000000fa000000000030138000620060000e
:101f54000000e000fcff3a002013800062006000f3
:101f64000000e000010032006422a9006013800038
:0c1f7400004078000080fa000000060029
:020000040000fa
:101f80001400fa008141280009000900311f78007f
:101f90004e01b100b10020002021210070fe070099
:101fa000410120000e007800eefe07000000eb006b
:081fb0000080fa0000000600a9
:020000040000fa
:101fb8000000fa006900070031fe0700f4fd070081
:101fc800690007004bff070032ff070055000700b4
:101fd800000220002d0007000080fa000000060023
:020000040000fa
:101fe8000000fa002013800077800a00000000003b
:101ff8000080fb0000f0a7000000ea000000ea00f3
:102008004f00de00004078000080fa000000060063
:020000040000fa
:102018000200fa00004f7800000000003013800032
:10202800700060000000e000fcff3a001e80fb002a
:0c203800801388000080fa000000060001
:020000040000fa
:102044000000fa00301380006200600000f0a70076
:102054000000ea000000e9004f00de0000407800c4
:082064000080fa0000000600f4
:020000040000fa
:10206c000000fa00d1ff070038000700020ea9009b
:10207c00022ea900060ea800062ea800064ea800e7
:08208c008fff0700feff370083
:020000040000fa
:102094000200fa00000f780021028000200f2000c7
:1020a400008060001e007000200288000080fa009a
:0420b4000000060022
:020000040000fa
:1020b8000000fa000068200001002000008088006d
:1020c800118088000000fe000080fa000000060071
:020000040000fa
:1020d8000200fa00000f7800a00021001e00400056
:0c20e800104078000080fa0000000600a4
:020000040000fa
:1020f4000200fa0000802100000f78001e00780022
:0c210400000001000080fa00000006004e
:020000040000fa
:102110000000fa002031210080077800a032210061
:0c212000000188000080fa0000000600aa
:020000040000fa
:10212c000000fa00c3e8a800000000000000000056
:08213c000080fa00000006001b
:020000040000fa
:102144000200fa00000f78009e00780041808800a9
:04215400ffff370052
:020000040000fa
:0c2158000000fa000080fa000000060001
:020000040000fa
:0c2164000000fa000080fa0000000600f5
:020000040000fa
:0c2170000000fa000080fa0000000600e9
:020000040000fa
:020000040002f8
:04be0000ffff000040
:020000040000fa
:020000040002f8
:04be2000ffffff0021
:020000040000fa
:020000040002f8
:04be3000f8ffff0018
:020000040000fa
:020000040002f8
:04be38003bffff00cd
:020000040000fa
:020000040002f8
:04be40007453ff0038
:020000040000fa
:020000040002f8
:04be4800ffffff00f9
:020000040000fa
:020000040002f8
:04be5000dfffff0011
:020000040000fa
:020000040002f8
:04be58000000ff00e7
:020000040000fa
:020000040002f8
:04be60000000ff00df
:020000040000fa
:020000040002f8
:04be68000000ff00d7
:020000040000fa
:020000040002f8
:04be70000000ff00cf
:020000040000fa
:020000040002f8
:04be7800ffffff00c9
:020000040000fa
:020000040002f8
:04be8000fffcff00c4
:020000040000fa
:020000040002f8
:04be8800ffffff00b9
:020000040000fa
:020000040002f8
:04bff800ffffff0048
:020000040000fa
:020000040100f9
:04300000ffffff00cf
:00000001FF
